:030000000219FDE5
:03000B000200AA46
:03002B000201636C
:03005B000202F5A9
:030073000202E2A4
:1000800002030406080C10182030406080040608A3
:100090000C10182030406080A0C00003070F1F0D17
:1000A0000D0403060D0503030202C2AFC0D0C0E079
:1000B000206214E5256009E473E525F4F58AD2622F
:1000C000D0E0D0D0D2AF3285268AC262E526F46075
:1000D0003630682C20720DD0E0D0D0C283C294C2DA
:1000E00095D2AF32C283C294C295206F132065109F
:1000F000740CD5E0FDE57BB4800442902100428081
:10010000D0E0D0D0D2AF32758A00C28DD262210049
:1001100001B9306805206502D28301B93068052035
:100120006502D29401B9306805206502D29501B903
:10013000C28030680A2065077408D5E0FDD28301CB
:10014000B9C28230680A2065077408D5E0FDD294F0
:1001500001B9C29730680A2065077408D5E0FDD25E
:100160009501B9C2AFC2AD53E6EFC0D0C0E0D2D363
:10017000D2AFC2CEE52A600720744F152A21CA7873
:1001800000790020742EE580307E01F430E502789D
:10019000FF53DACF207E0343DA20307E0343DA10A8
:1001A000C2D8C271E580307E01F430E50279FFC328
:1001B000E89970CB306103752A40207403752A409A
:1001C000885CD270E86003755F0020740DE52B60D9
:1001D00004152B21DA43DA01C2D820700221EDA8E0
:1001E0005C206102C27020740221EB88227882B602
:1001F000040385222420CF0AD0E0D0D043E610D2D9
:10020000AD32C2CF053A7802E52A60053074021596
:100210002AC3E55C94014005755F00412E756000BE
:10022000756900E55F2401F55F5003755FFF798212
:10023000B7020D306E1DC3E52294324016854C2264
:100240007982B7030E306E0BC3E5229432400479F5
:100250008E8722C3E523952260084004152341625E
:100260000523D8CA0569E56970021569D56A6975FB
:100270006A017808E56B60497805C3E569956B40CC
:1002800057C3E569956C50087801756A0302029CB2
:10029000C3E569956D50057801756A01C3E56295FE
:1002A00024401E7982B7040241CD206E1485246259
:1002B000E569046003856B69756A0175233C020278
:1002C000D8E5622850057562FF41CDF562E562040C
:1002D00070067560FF7569FFD0E0D0D043E610D29C
:1002E000AD32C2AF53E67F7592FA7593FFC2607567
:1002F0009104D2AF32C2AF53E6EFC2ADC0D0C0E07E
:10030000C0F0D2D3D2AFA8FBA9FCC2D83071026131
:100310005C53DACF207E0343DA10307E0343DA20C9
:10032000D271E580307E01F420E5026133882789AF
:1003300028A14153DACF207E0343DA20307E0343E5
:10034000DA10C2D8C271307402A12D7800E5803075
:100350007E01F430E502A12D885CA11553DACF208F
:100360007E0343DA20307E0343DA10C2712061023B
:10037000813553DACF207E0343DA10307E0343DA2F
:1003800020C2D8D27188578958C3E89555F8E995A5
:1003900056F97B007E087A00C3E8948CE9940050FB
:1003A00005755B008127882178A2E6A8216055C3E6
:1003B000E894C8E994005008E4D2E4FB7A0A810288
:1003C000C3E89468E994015008E4D2E3FB7A0F8112
:1003D00002C3E894D0E994025008E4D2E2FB7A1E0A
:1003E0008102C3E894A0E994055008E4D2E1FB7AC5
:1003F0003C8102C3E89498E994085008E4D2E0FBF9
:100400007A787E00C3E89559FCE9955AFD30E70AF1
:10041000ECF42401FCEDF43400FD755B00C3EC9AB0
:10042000ED9E5003755B018859895A85575585584B
:10043000567802A115C3E89527F8E99528F9307C8C
:100440000281F9307B0281F9307A0281F220750253
:100450008158E9FDE8FC8177E9C313F9E813F83026
:10046000790281F2E9C313F9E813F830780281F2D6
:0F047000E9C313FDE813FC20612CC3EC941CEDD1
:10047F0094024002818EED701EC3EC94C850180593
:10048F0029E52970021529C3E529940A5002A12DE7
:10049F00755C00D270A12DE529600215297400202A
:1004AF007F037896E624FAFEE43400FFC3EC9EFC4B
:1004BF00ED9FFD50067800790081F9C3EC94FFEDB4
:1004CF009400400678FF790081F9EC8572F0A4C59D
:1004DF00F0A2F733F87900400302051578FF790091
:1004EF00020515E9C313F9E813F8307C0EE9600231
:1004FF0078FFC3E81338F8E43400F9C3E894FFE950
:10050F009400400278FF885CD270206102A12D74A4
:10051F001FF4552F4BF52FC274EB7002D274752A4E
:10052F0040307403752A0A306102A14120740353CD
:10053F00DAFE207403752B20D0F0D0E0D0D0D2ADEE
:10054F0043E6103279010205717903020571790AC8
:10055F00020571791E020571796402057179C8026D
:10056F0005717817E4D5E0FDD8FAD9F6227A147B15
:10057F00780205987A107B8C0205987A0D7BB4026D
:10058F0005987A0B7BC8020598E573D5E0012279AF
:10059F0002E4C282D5E0FDD294D5E0FDC294D5E04D
:1005AF00FDD282D5E0FDE920E002D28330E002D215
:1005BF0095E573D5E0FDE920E002C28330E002C289
:1005CF00957496D5E0FDD9C9EAF8D5E0FDD8FBDBE7
:1005DF00B8C28222C37C007D0075F00005F0EA33BB
:1005EF00FAEB33FB50F6EB13FBEA13FAC3E9FFE820
:1005FF00FEE89AF8E99BF95004EFF9EEF8B3EC3303
:10060F00FCED33FDD5F0DFEDF9ECF822E889F08A47
:10061F0020D2D4F8A9F07B0030F70B7BFFF4240134
:10062F00F8E9F43400F9E88520F0A4ADF0F8E98595
:10063F0020F0A4AFF0FEED2EF974003FFA7C04C356
:10064F00EA13FAE913F9E813F8DCF48BF030F70A40
:10065F00E8F42401F8E9F43400F9E889F0C2D4F899
:10066F00A9F0227882B60403020711C3E55C94193E
:10067F00401EE52D54067018206E3678057994E7E4
:10068F00146007780A1460027812C3E54198401F7E
:10069F00306E098564627569FF756A01852224E4ED
:1006AF00F544F545F546F547F548C26E020711D2F8
:1006BF006E7994E7147013E523F43333F913F8E9E3
:1006CF00540104F9E854FE020705E714147014E509
:1006DF0023F4333333F913F8E9540304F9E854FCE2
:1006EF0002070DE523F433333333F913F8E95407D5
:1006FF000404F9E854F8C39440F8E99400F98844E5
:10070F00894522C3E54113F9E54013F8C3E5449841
:10071F00F8E54599F9500CC3E89480E994FF401629
:10072F00020749C3E8947FE9940050030207497810
:10073F007F7900020749788079FF8849894A22E545
:10074F00492546F8E54A3547F9854A20E43007013F
:10075F00F43548FA30E709C3EA94F04015020787E9
:10076F00C3EA940F500302078778FF79FF7A0F02CD
:10077F000787780079007AF0C3E5249561500AC3A2
:10078F0074019524500B0207A5E54A20E70E0207D6
:10079F00A5E54A30E706884689478A482278A5E6C4
:1007AF00FAC3E54933F8E54A33F9D11BE930E70BD2
:1007BF00C3E89480E994FF4013E1DFC3E8947FE935
:1007CF0094005002E1DF787F7900E1DF788079FFD4
:1007DF00E820E715C3E52398F84009C3E8940140E2
:1007EF00030208067801020806E8F424012523F81D
:1007FF00400302080678FF884B2278A6E6FAA8473E
:10080F00A94812061BE930E70CC3E89401E994FFED
:10081F00401602083BC3E894FFE994005003020816
:10082F003B78FF790002083B780179FFE920E71553
:10083F00C3E54B98F84009C3E894014003020862EE
:10084F007801020862E8F42401254BF840030208FE
:10085F006278FF88242278FF20692879A1E7602336
:0D086F00E541601F74FF8541F0848539F07C
:10087C00306A0375F005A4F8C5F0600278FFC3E890
:10088C0095645002A864886322C3E5409440E54116
:10089C009401E56350031401A6046002F563227809
:1008AC0083E6F520120F2975E89012055375E89030
:1008BC0030EDFDA8BDA9BE120FD0756E55756F0039
:1008CC00C3740013FD7455606613FC74552CFC74D2
:1008DC00003DFDECFAEDFBC3E89AE99B4014E56E94
:1008EC002455F56EE56F3400F56FEA2CFAEB3DFB01
:1008FC0080E5AE6EAF6FC3E56F13F9E56E13F8C309
:10090C00E913F9E813F87A03C3E913F9E813F8DAF1
:10091C00F7AA201A7009756E00756F0002093B1A50
:10092C00EA6008EE28FEEF39FFDAF88E6E8F6F2240
:10093C0075E890227883E6FF30EDF9A8BDA9BE05D5
:10094C0070C3E57094084052757000E9FA79A0E71D
:10095C006044EA7007E571601B020974C3E8957185
:10096C006010E5715006600C140209800460F902F5
:10097C000980E571F571C3946D401B7561C0C3941A
:10098C00044013756180C39404400B756140C3949B
:10099C0004400375610075BB0922EFC39401601F0D
:1009AC007455601BC3E894FFE994035012C3E89597
:1009BC006EE9956F5009E561600C15610209D2E58D
:1009CC0061F460020561A861C3E524985002A82473
:1009DC00C3E89562400AA862E562F460038562612F
:1009EC0088258826E570B4070375BB10227432790C
:1009FC00A787F0A4C5F0A2F733F8C3E895614002CD
:100A0C00A86188228824882588268864227540005D
:100A1C007541F022C2AF75C820A8CCA9CDAA3A3036
:100A2C00CF010A75C824D2AFAB3BAC3C883B893CA8
:100A3C00C3E89BF8E99C206908F9306602613141F2
:100A4C008BAD3D8A3DF9EA9DFA600678FF79FF414E
:100A5C0070AE3EAF3F8B3E8C3FA83BA93CC3E89E9B
:100A6C00F8E99FF9C3E54113FBE54013FAE82AF5D1
:100A7C0040E93BF54150067540FF7541FF41D8AA4E
:100A8C0040AB41AC40AD417E047F02C3EB940440CB
:100A9C000D1E1FC3EB94084005206A021E1FC3EDF8
:100AAC0013FDEC13FCDEF7C3EA9CFAEB9DFBEF6045
:100ABC0009C3E913F9E813F8DFF7EA28FAEB39FB75
:100ACC008A408B4150067BFF8B408B41C3EB9402D9
:100ADC005002D2663069047F0361037892E6FFC34B
:100AEC00E537948240110FC3E53794A040010FC342
:100AFC00EF940640027F057E02E541C4540FF9E5F0
:100B0C0041C454F0F8E540C4540F28F8C3E89EFAE9
:100B1C00E99400FB4009C3EA9402EB940050047A78
:100B2C0002E4FB617DAA40AB41EBC4FEEAC4540F66
:100B3C004EFCC3EA9CFAEB9400FBC3E813C313F816
:100B4C00EA28FAEB3400FB8A408B41C3EB94024059
:100B5C0002C2667802EBC4FE7B00EAC4540F4EFA64
:100B6C00C3EA98FA4005C3940250027A027892E6DE
:100B7C00FF306002617D855192855293D26043E6CD
:100B8C0080C3E49AF8E49BF93066028109E8FAE93B
:100B9C00FBD3E913FDE813FC88518952C3EF94038E
:100BAC006038EF20E00DE82CF8E93DF9ECFAEDFBAC
:100BBC00020BD2E828F8E939F9C3E82402F8E93441
:100BCC0000F97AFE7BFFC3EF9403400E8A538B54DB
:100BDC00884D894E8C4F8D50813D885389548A4D58
:100BEC008B4E8C4F8D503069127553F07554FF75C8
:100BFC004FF07550FF7551F07552FF813DE8FAD3F7
:100C0C00E813FC8851C3EF94036020EF20E007E861
:100C1C002CF8ECFA8129E8282402F87AFEC3EF9428
:100C2C000340088A53884D8C4F813D88538A4D8CE4
:100C3C004FE568C3335002646BF56830600281473E
:100C4C00753402D26043E680E52D54066034A8402A
:100C5C00A941C3E913F9E813F8C3E913F9E813F848
:0F0C6C00306904E92440F9C2AF53E67F75910067
:100C7B00C3E498F594E499F595759104D26043E635
:100C8B0080D2AF22D264754300752000306C03759F
:100C9B002040020CAED264754300752040306C03CB
:100CAB0075200078017901206620E52D540660023D
:100CBB00C2647914E541C313700104F8C394144062
:100CCB00027814306904781B791B206010E54360AF
:100CDB000C306903D53404D26DA159914F0543E50E
:100CEB009BF45440B52002A14330690908C3E8992D
:100CFB0040011881D520640A08C3E899400281AEEF
:100D0B0081D5C264C2AF53E67F7591003066127510
:100D1B0094007595F8759104D26043E680D2AF814B
:100D2B00AEE5417EFFC3334005C3334001FEC3E450
:100D3B009E759400F595A120C3E533940150028173
:100D4B00AE30640281AED802A15781D5C26DC2AF5D
:100D5B0053E67F7591008553948554957591048561
:100D6B004D92854E93D26043E680D2AFE52D54066B
:100D7B006008206A020533020D95306D0D206C0A58
:100D8B002064071581158102164722780030640212
:100D9B007801E53775F007A4F9E5F028F5F0E9A23D
:100DAB00F013A2F113A2F213F537C3947850037525
:100DBB003778C3E53795384008D265C283C294C2F1
:100DCB0095306002A1CC854F92855093D26043E65B
:100DDB008022207D16C2AF754202C282D280306261
:100DEB0002D295D2AF759F43020FCDC2AF754202AF
:100DFB00C282D297306202D283D2AF759F43020F69
:100E0B00CD307243207D20C2AF75420390014175F6
:100E1B007B04C295C297306204D294C12AD282D28B
:100E2B00AF759F53020FCDC2AF7542039001417551
:100E3B007B04C283C280306204D294C14AD282D274
:100E4B00AF759F33020FCD207D17C2AF7542039054
:100E5B00011CC295306202D294D2AF759F53020F20
:100E6B00CDC2AF75420390011CC283306202D29493
:100E7B00D2AF759F33020FCD207D16C2AF754204E2
:100E8B00C280D297306202D294D2AF759F33020FD9
:100E9B00CDC2AF754204C297D280306202D294D2D7
:100EAB00AF759F53020FCD307243207D20C2AF75BB
:100EBB004205900130757B01C294C282306204D22C
:100ECB0083C1D0D280D2AF759F43020FCDC2AF7515
:100EDB004205900152757B80C294C282306204D26B
:100EEB0095C1F0D297D2AF759F43020FCD207D17DE
:100EFB00C2AF754205900112C294306202D283D206
:100F0B00AF759F43020FCDC2AF754205900126C24C
:100F1B00943062EBD295D2AF759F43020FCD207DFB
:100F2B0016C2AF754206C297D282306202D283D20A
:100F3B00AF759F53020FCDC2AF754206C280D282EE
:100F4B00306202D295D2AF759F33020FCD3072440F
:100F5B00207D20C2AF754201900152757B80C28308
:100F6B00C280306204D295E176D297D2AF759F33AF
:100F7B00020FCDC2AF754201900130757B01C29556
:100F8B00C297306205D283020F97D280D2AF759F82
:100F9B0053020FCD207D17C2AF754201900126C2BF
:100FAB0083306202D295D2AF759F33020FCDC2AFA1
:100FBB00754201900112C295306202D283D2AF7595
:100FCB009F53C26522900110757B00C283C294C2ED
:100FDB0095C280C282C297C2622278807607087659
:100FEB00070876010876040876FF0876FF0876096D
:100FFB00087602087601087601788C76010876006F
:10100B000876B40876FF0876FF0876FF08760308A3
:10101B0076FF0876010876FF0876250876D00876E5
:10102B00780876C80876040876FF087601087600FB
:10103B0008767A08760A08760108760108760008A1
:10104B0076FF087600227887E6FFC272BF0302D2D2
:10105B00727888C27DE630E102D27DC27E7889E665
:0E106B0030E102D27EC3EF94026008758E0160
:10107900D273021083758E00C273227880E61490B1
:1010890000809378A5F67881E6149000809378A67D
:10109900F67886E61490008D9378A7F6789FE6F89F
:1010A9007005756B0001CAC3E8941140027811E814
:1010B9002828F56B256B256B28F56C256B2828F5F9
:1010C9006D7886E6F539C394025003753902789C28
:1010D900E67538FFB402037538A0B4030375388286
:1010E90078A3E61490009A93F566120FD022D28164
:1010F900789DE66002C281227896E6FA7897E6FB47
:101109007888E6B40305C3EB940EFB307F047A00BC
:101119007BFFC3EB9AFCC3948250027C82757200F8
:101129000572EC8572F0A4C3E5F0947D40F222D2F9
:101139007F31011205621205627A007B007C101270
:101149000558E55C2AFA74003BFBDCF37C04C3EB2D
:1011590013FBEA13FADCF7FEC27F310122757C002A
:10116900757D00E5EF20E6037520000520903FFF1F
:10117900E520146006901DFF146000930460037558
:10118900EF1653D9BF7581C043FF8012055375EF20
:101199000643B203E5B3240220E70DF521E5E32078
:1011A900E0068521B343E301120FD07580F075A4E1
:1011B9000F75F13F75D4DF75904F75A5B075F2F5D0
:1011C90075D50075A60175E241120FD0E4F8F6D87D
:1011D900FD756801120FE512169E789886737530B1
:1011E90001C2AF12056C12057C1205621205831249
:1011F900056212058A1205621217D112056C1205D1
:101209006C120567C2AF757C00757D0078FA79FAB2
:10121900308507D9FBD8F7021C001151118411F749
:10122900310178988673120FD07588107589027507
:10123900C82475910475D84075A82275B80275E659
:1012490090759B80759D0075D10E75BC5875BB094D
:1012590075BA1175E880120553D2AF1208AB75360D
:101269000053DACF207E0343DA20307E0343DA10BD
:1012790043DA01C2D8C27112056CD2617B037A0CC0
:10128900E55B70077A0CDB0302120D120562207010
:101299000302120DC270E55CC3940240E1E52F54CC
:1012A9001F855E5DF55EB55DD5DAD5C26153DACFCE
:1012B900207E0343DA20307E0343DA10C2D8C2719C
:1012C90078A2E67008D274E52F54E0F52FC275753F
:1012D9002900120567307409C3E529940A4002D22E
:1012E9007512055878023074027800C3E55C98409D
:1012F900F0C2AF12057C12057C12057CD2AF120533
:101309006C754C00120558788CE6C39401500302A1
:1013190013FAE530C3940150030213FA757CA575DD
:101329007DF1207435C3E55C94FF50030213FAC2C2
:10133900AF120591D2AF120567C3E55C940150EF76
:10134900C2AF12057C12055D12057CD2AF1205678A
:10135900C3E55C94FF40E90218567F05D27F31014D
:10136900120567C2AFC27F3101AE5CC3E55C947FF1
:10137900D2AF5002810A120553C2AF120591D2AF02
:10138900DFDA3138C3EE94057897F612056C121737
:10139900D97F0AD27F3101120567C2AFC27F3101FD
:1013A900AE5CC3E55C947FD2AF50E6120553C2AF81
:1013B90012057C12055D12057CD2AFDFD63138EEFD
:1013C90024037896F6F87997E7C3948240039850F6
:1013D90006E824827897F612056C1216EC121808A2
:1013E9001205673101C3E55C94FF500261250218BB
:1013F90056757C00757D00C3E55C954C4003855CA2
:101409004C12056778017988E7B403027805C3E5CA
:101419005C984002610DC2AF120591120591120547
:1014290091D2AF12056C753000E4F531F532053112
:10143900E531F4703F0532789AE67819146012782C
:101449003214600D787D14600878FA1460037532DF
:1014590000C3E53298401D120FD01205531532759D
:0F146900310078998673C2AF120591D2AF78988F
:10147800867312056712055DE52A7005307402410E
:101488000D78012074027806C3E55C9840A1120526
:1014980067E52A700302120DC2AF120FD0E4F522DD
:1014A800F523F524F525F526F567D2AF7885E6C34B
:1014B80033F565E4F544F545F546F547F548F57027
:1014C800F52CF52DF53775700875BB1012055312FC
:1014D800093C30EDFDA8BDA9BEE97001F88871127C
:1014E800094075700875BB101151C2AF7561FF12C4
:1014F80009F9852261852262852263D2AF752201AE
:10150800752401752501752601856069756A01785C
:1015180088E6B40307C27D307602D27DD268D269EC
:10152800753300120F29120F58120A19120A2012C5
:101538000A19120A20120A19120CA0120672120DA8
:1015480096120DDD120A20120C8F306E031207124C
:10155800206603120865306603120895120D96126C
:101568000E0C120A20120CA0306E0312074E120D38
:1015780096120E83120A20120C8F306E031207ACDB
:10158800120D96120EB2120A20120CA0306E03121F
:101598000809120D96120F29120A2012093C120C82
:1015A8008F120D96120F58120940120A2030692C1A
:1015B800856461856462856069756A0179187A0C49
:1015C800C3E533994009C269D26A8A350215E4C372
:1015D800E55C9401400302154002164F306A25204D
:1015E8006C22E535147006C26AD26BA140F535C38A
:1015F800E55C940140030215407888E6C3940360D3
:101608000302164F753600C3E55F940140098564EF
:1016180062856069756A0178FA79A4E760027803DF
:10162800C3E55F985021307404E52A601A78F030D9
:101638006C058564617820C3E541985002A1400596
:1016480036E55C6002C152753600C2AF120FD07821
:1016580087E6FE760211517887EEF6E4F522F52347
:10166800F524F525F526F565752C00752D00D2AF06
:10167800120567120FD078A4E66006D283D294D2FE
:1016880095307406E52A7002410D788DE6C3940101
:10169800400241EA8132901A0D782012172EE52077
:1016A800B4A50CA312172EE520B45A030216CC7564
:1016B8007CA5757DF1120FE51216EC757C00757D21
:1016C800000216EB901A0378807B0A12172EA308E3
:1016D800DBF9901A0F788C7B1912172EA308DBF907
:1016E800901A2822C2AF12177112174E901A00745E
:1016F8000E121733A37409121733A3741512173374
:10170800901A0378807B0A121732A308DBF9901A23
:101718000F788C7B19121732A308DBF91217841281
:101728001762901A2822E493F622E6438F01538F1A
:10173800FDFFC3E583941C400122EF857CB7857DBE
:10174800B7F0538FFE22438F02438F01857CB78504
:101758007DB7901A0DF0538FFC22901A0D74A5F1E5
:1017680033901A0E745AF133227A3079D078209057
:101778001A40F12EE520F709A3DAF7227A3079D05A
:10178800901A40E7F13309A3DAF922AB74A875BBC4
:1017980001027980BB02027981BB03027982BB0412
:1017A800027994BB05027983BB06027986BB0702DE
:1017B8007992BB08027987BB0902799CBB0A027936
:1017C80088BB0B027989E8F7227C0512056CDCFBE3
:1017D80022C2AF12057C12058312058A12059112E6
:1017E800055D12057C12058312058A120591120502
:1017F8005D12057C12058312058A120591D2AF226B
:10180800C2AF12059112058A12058312057C1205D2
:101818005D12059112058A12058312057C12055D79
:1018280012059112058A12058312057CD2AF22AEE9
:1018380074AF75C2AF12057C12057C12057C1205C7
:101848005DDEF212059112055DDFF8D2AF221217A4
:10185800D91217D11217D1757401757501757600F3
:0F18680011377C05AD5C12056CC3ED955C70F516
:10187700C3E55C9401400AC3E55C94FF4037021856
:10188700991217931216EC1217D9C2AF75EF1612E9
:1018970017D1DCD10576C3E5769403500280C212D6
:1018A70017D10575E5741490009F93F808C3E57583
:1018B70098500280A91217D11217D10574C3E57485
:1018C700940C50028095120FE51216ECC2AF75EF1B
:0418D700161217D1FD
:0319FD000211666E
:101A00000E091507070104FFFF09020101A55A018C
:101A100000B4FFFFFF03FF01FF25D078C804FF01DA
:091A200000FF0A010100FF00FFB4
:101A400023416C69676E424C33355023202020209F
:101A500023424C48454C4923463333302320202031
:101A60002020202020202020202020202020202076
:101C0000C2AFC2D353D9BF7581C043B20343FF8073
:101C1000752438752503B1DC7529A5752AF175E29F
:101C20004043F12053A4DF75D4FFD2857DFA7803B9
:101C300079E67C10752200752300901DE97B0675FE
:101C400024987525013085028145208508D8FBD967
:101C5000F9DCF781B7308508D8FBD9F9DCF781B713
:101C6000B19CE493A3C39A6004DDC381B7DBDBB10D
:101C70008E6002812E7B08E493FAA3B16FDBF87AC1
:101C800030B16F752200752300B18EEAFCEBFDC305
:101C9000ED94FE400EB18E8A278B28ED30E0048A49
:101CA000828B83B18E7AC270D8C3ED94FE601950D6
:101CB000CEBD002BEC600F7520007521FF7529004B
:101CC000752A000200008100A827A9280809D80465
:101CD000D90281DCB192EA89AAF281CE0D81A3C337
:101CE000ED94035053EDA2E092007AC5C3E58294CF
:101CF00000E583941C508A200010438F02438F011B
:101D00008529B7852AB7F0300029A827A92808090E
:101D1000438F01538FFDD804D902A133C3E58394C7
:101D20001C4003A3A11689AAE28529B7852AB7F02A
:101D3000A3A116538FFC817F7AC1BD030CE493A34A
:101D4000FAB153DCF8B14B817F8181AA22AB23B178
:101D50006FEBFAEA6222752608C3E52313F523E543
:101D60002213F52250066323A0632201D526EAB18F
:101D7000DCB1DC75260AEAF4200102D285300102CA
:101D8000C285B1DCC3134002C201D526EB22B19259
:101D9000EAFB208502A192308502A197752608AE44
:101DA00024AF25C3EF13FFEE13FEB1E0B1DCC3EAAD
:101DB000133085024480FA30E703632201C3E52330
:101DC00013F523E52213F52250066323A0632201B5
:101DD000D526D9E52265236523F52222AE24AF2539
:101DE0000E0FDEFEDFFCD20122424C48656C6934E6
:071DF000373164F3300601F6
:00000001FF
