:030000000219FDE5
:03000B000200A848
:03002B000201547B
:03005B000202DAC4
:030073000202C7BF
:1000800002030406080C10182030406080040608A3
:100090000C10182030406080A0C00003070F1F051F
:1000A000050D050205030302C2AFC0D0C0E0206207
:1000B00014E5256009E473E525F4F58AD262D0E001
:1000C000D0D0D2AF3285268AC262E526F46029D02C
:1000D000E0D0D0C286C291C295D2AF32C286C29160
:1000E000C295206F0C206509741ED5E0FDE57B42AA
:1000F00090D0E0D0D0D2AF32758A00C28DD26201EA
:10010000F101B7306805206502D28601B730680575
:10011000206502D29101B7306805206502D29501B1
:10012000B7C29030680A2065077410D5E0FDD2860A
:1001300001B7C29230680A2065077410D5E0FDD27D
:100140009101B7C29630680A2065077410D5E0FDAA
:10015000D29501B7C2AFC2AD53E6EFC0D0C0E0D276
:10016000D3D2AFC2CEE52A600720744F152A21BB37
:100170007800790020742EE580307E01F430E502AD
:1001800078FF53DACF207E0343DA20307E0343DA50
:1001900010C2D8C271E580307E01F430E50279FFEB
:1001A000C3E89970CB306103752A18207403752A4F
:1001B00018885CD270E86003755F0020740DE52B31
:1001C0006004152B21CB43DA01C2D8207002413ED6
:1001D000A85C206102C270207431C3E894F040032F
:1001E00074F0F8E8C4540F28F87984B70302410B7F
:1001F000C313C3138721200802C313200A06C3C8F0
:1002000098F8410B28F8500374FFF8C3E89565503F
:1002100003E565F88822E52D54066022206B1FE572
:1002200036C333C333F8E564C313C313F9C395224C
:1002300040028922E82522F52250037522FF8522FB
:1002400024A824C3E52495614002A8618825E566B9
:1002500070024182C3E8AA669A5003E8FAE4F9EA18
:10026000C333FBE568F45B29400D2567F8E567605B
:10027000021567400B41820AC3E5679A5002056781
:1002800078FF882620CF0AD0E0D0D043E610D2AD48
:1002900032C2CF053A7801E52A6005307402152A8A
:1002A000C3E55C94014005755F0041BD7560007554
:1002B0006900E55F2401F55F5003755FFFD0E0D072
:1002C000D043E610D2AD32C2AF53E67F7592FA75D5
:1002D00093FFC260759104D2AF32C2AF53E6EFC252
:1002E000ADC0D0C0E0C0F0D2D3D2AFA8FBA9FCC251
:1002F000D8307102614153DACF207E0343DA1030E7
:100300007E0343DA20D271E580307E01F420E502DD
:10031000611888278928A16E53DACF207E0343DA3B
:1003200020307E0343DA10C2D8C271307402A15A61
:100330007800E580307E01F430E502A15A885CA1A6
:100340004253DACF207E0343DA20307E0343DA10B3
:10035000C271206102811A53DACF207E0343DA1082
:10036000307E0343DA20C2D8D27188578958C3E857
:100370009555F8E99556F97B007E087A00C3E89414
:100380008CE994005005755B00810C882178A2E609
:10039000A8216055C3E894C8E994005008E4D2E469
:1003A000FB7A0A61E7C3E89468E994015008E4D253
:1003B000E3FB7A0F61E7C3E894D0E994025008E4C4
:1003C000D2E2FB7A1E61E7C3E894A0E994055008E5
:1003D000E4D2E1FB7A3C61E7C3E89498E9940850E1
:1003E00008E4D2E0FB7A787E00C3E89559FCE995F1
:1003F0005AFD30E70AECF42401FCEDF43400FD75FD
:100400005B00C3EC9AED9E5003755B018859895AD5
:100410008557558558567802A142C3E89527F8E9D3
:100420009528F9307C02A126307B02A126307A0281
:10043000A11F207502813DE9FDE8FC815CE9C31341
:10044000F9E813F8307902A11FE9C313F9E813F8AA
:10045000307802A11FE9C313FDE813FC20612CC30F
:10046000EC941CED940240028173ED701EC3EC9479
:0E047000C850180529E52970021529C3E52991
:10047E00940A5002A15A755C00D270A15AE5296007
:10048E000215297888E6F97400207F087896B9035A
:10049E0002789EE624FAFEE43400FFC3EC9EFCEDE7
:1004AE009FFD9208B90310A2085007207609D27654
:1004BE0081C5307602C276A2085016B9030DECF44F
:1004CE002401FCEDF43400FD0204DF78007900A174
:1004DE0026B90315EC33FCED33FDC3EC940AFCEDA9
:1004EE009400FD50047C007D00C3EC94FFED94005D
:1004FE00400678FF7900A126EC8572F0A4C5F0A223
:10050E00F733F87900400302054278FF79000205BF
:10051E0042E9C313F9E813F8307C0EE9600278FF64
:10052E00C3E81338F8E43400F9C3E894FFE9940003
:10053E00400278FF885CD270206102A15A741FF4C9
:10054E00552F4BF52FC274EB7002D274752A1830EA
:10055E007403752A0A306102A16E20740353DAFE09
:10056E00207403752B06D0F0D0E0D0D0D2AD43E688
:10057E001032790102059E790302059E790A020561
:10058E009E791E02059E796402059E79C802059E1B
:10059E007817E4D5E0FDD8FAD9F6227A147B7802E2
:1005AE0005C57A107B8C0205C57A0D7BB40205C594
:1005BE007A0B7BC80205C5E573D5E001227902E40A
:1005CE00C292D5E0FDD291D5E0FDC291D5E0FDD22B
:1005DE0092D5E0FDE920E002D28630E002D295E528
:1005EE0073D5E0FDE920E002C28630E002C29574C8
:1005FE0096D5E0FDD9C9EAF8D5E0FDD8FBDBB8C247
:10060E009222C37C007D0075F00005F0EA33FAEB10
:10061E0033FB50F6EB13FBEA13FAC3E9FFE8FEE8EF
:10062E009AF8E99BF95004EFF9EEF8B3EC33FCEDD0
:10063E0033FDD5F0DFEDF9ECF822E889F08A20D20F
:10064E00D4F8A9F07B0030F70B7BFFF42401F8E916
:10065E00F43400F9E88520F0A4ADF0F8E98520F037
:10066E00A4AFF0FEED2EF974003FFA7C04C3EA133A
:10067E00FAE913F9E813F8DCF48BF030F70AE8F432
:10068E002401F8E9F43400F9E889F0C2D4F8A9F0AD
:10069E002222C3E54113F9E54013F8C3E54498F867
:1006AE00E54599F9500CC3E89480E994FF40160291
:1006BE0006D7C3E8947FE9940050030206D7787FEB
:1006CE0079000206D7788079FF8849894A22E54960
:1006DE002546F8E54A3547F9854A20E4300701F406
:1006EE003548FA30E709C3EA94F04015020715C3FE
:1006FE00EA940F500302071578FF79FF7A0F02076D
:10070E0015780079007AF0C3E5249561500AC37418
:10071E00019524500B020733E54A20E70E020733FA
:10072E00E54A30E706884689478A482278A5E6FAE0
:10073E00C3E54933F8E54A33F9D148E930E70BC34D
:10074E00E89480E994FF4013E16DC3E8947FE99447
:10075E00005002E16D787F7900E16D788079FFE8D5
:10076E0020E715C3E52398F84009C3E89401400338
:10077E000207947801020794E8F424012523F84037
:10078E000302079478FF884B2278A6E6FAA847A9B9
:10079E0048D148E930E70CC3E89401E994FF4016CC
:1007AE000207C8C3E894FFE9940050030207C87813
:1007BE00FF79000207C8780179FFE920E715C3E544
:1007CE004B98F84009C3E8940140030207EF780103
:1007DE000207EFE8F42401254BF840030207EF78F7
:1007EE00FF88242278FF20692879A1E76023E5415C
:1007FE00601F74FF8541F0848539F0306A0375F00F
:10080E0005A4F8C5F0600278FFC3E895645002A80D
:10081E0064886322C3E5409440E5419401E563504A
:10082E0003140133046002F5632202083B2275E8CB
:10083E0090227883E6FF30EDF9A8BDA9BE0570C3FE
:10084E00E57094084052757000E9FA79A0E76044AB
:10085E00EA7007E571601B020874C3E895716010B9
:0D086E00E5715006600C140208800460F96A
:10087B00020880E571F571C3946D401B7561C0C3AF
:10088B0094044013756180C39404400B756140C39D
:10089B009404400375610075BB0B22E561F46002A3
:1008AB000561E570B4070375BB1022743279A78715
:1008BB00F0A4C5F0A2F733F8C3E895614002A86134
:1008CB0088228824882588268864227540007541F3
:1008DB00F022C2AF75C820A8CCA9CDAA3A30CF015F
:1008EB000A75C824D2AFAB3BAC3C883B893CC3E810
:1008FB009BF8E99C206908F930660221EE2148AD8E
:10090B003D8A3DF9EA9DFA600678FF79FF212DAE0D
:10091B003EAF3F8B3E8C3FA83BA93CC3E89EF8E91A
:10092B009FF9C3E54113FBE54013FAE82AF540E9CB
:10093B003BF54150067540FF7541FF2195AA40AB31
:10094B0041AC40AD417E047F02C3EB9404400D1ECD
:10095B001FC3EB94084005206A021E1FC3ED13FD55
:10096B00EC13FCDEF7C3EA9CFAEB9DFBEF6009C3CB
:10097B00E913F9E813F8DFF7EA28FAEB39FB8A40B9
:10098B008B4150067BFF8B408B41C3EB9402500293
:10099B00D2663069047F0321C07892E6FFC3E53746
:1009AB00948240110FC3E53794A040010FC3EF941D
:1009BB000640027F057E02E541C4540FF9E541C4B0
:1009CB0054F0F8E540C4540F28F8C3E89EFAE994B4
:1009DB0000FB4009C3EA9402EB940050047A02E452
:1009EB00FB413AAA40AB41EBC4FEEAC4540F4EFCA8
:1009FB00C3EA9CFAEB9400FBC3E813C313F8EA2891
:100A0B00FAEB3400FB8A408B41C3EB94024002C2E9
:100A1B00667802EBC4FE7B00EAC4540F4EFAC3EABD
:100A2B0098FA4005C3940250027A027892E6FF309E
:100A3B006002413A855192855293D26043E680C35E
:100A4B00E49AF8E49BF930660241C6E8FAE9FBD375
:100A5B00E913FDE813FC88518952C3EF9403603806
:100A6B00EF20E00DE82CF8E93DF9ECFAEDFB020A7A
:100A7B008FE828F8E939F9C3E82402F8E93400F9DA
:100A8B007AFE7BFFC3EF9403400E8A538B54884D41
:100A9B00894E8C4F8D5041FA885389548A4D8B4E19
:100AAB008C4F8D503069127553F07554FF754FF0A4
:100ABB007550FF7551F07552FF41FAE8FAD3E81300
:100ACB00FC8851C3EF94036020EF20E007E82CF87B
:100ADB00ECFA41E6E8282402F87AFEC3EF940340CF
:100AEB00088A53884D8C4F41FA88538A4D8C4FE5B9
:100AFB0068C3335002646BF568306002610475346F
:100B0B0002D26043E680E52D54066034A840A9412B
:100B1B00C3E913F9E813F8C3E913F9E813F83069DB
:100B2B0004E92440F9C2AF53E67F759100C3E49802
:100B3B00F594E499F595759104D26043E680D2AFB4
:100B4B0022D264754300752000306C03752040027F
:100B5B000B6BD264754300752040306C037520001D
:100B6B0078017901206620E52D54066002C2647974
:100B7B0014E541C313700104F8C3941440027814B4
:100B8B00306904781B791B206010E543600C3069D9
:100B9B0003D53404D26D8116710C0543E59BF454D7
:100BAB0040B52002810030690908C3E8994001185B
:100BBB00619220640A08C3E8994002616B6192C29A
:100BCB0064C2AF53E67F7591003066127594007561
:100BDB0095F8759104D26043E680D2AF616BE54125
:100BEB007EFFC3334005C3334001FEC3E49E7594BF
:100BFB0000F59561DDC3E53394015002616B306400
:100C0B0002616BD80281146192C26DC2AF53E67F51
:100C1B00759100855394855495759104854D9285F6
:100C2B004E93D26043E680D2AFE52D540660082088
:100C3B006A020533020C52306D0D206C0A206407DA
:100C4B00158115810215182278003064027801E5B0
:100C5B003775F007A4F9E5F028F5F0E9A2F013A237
:0F0C6B00F113A2F213F537C3947850037537785D
:100C7A00C3E53795384008D265C286C291C295301D
:100C8A0060028189854F92855093D26043E6802223
:100C9A00207D16C2AF754202C292D290306202D251
:100CAA0095D2AF759F56020E8AC2AF754202C292A2
:100CBA00D296306202D286D2AF759F56020E8A3021
:100CCA007243207D20C2AF754203900132757B04C6
:100CDA00C295C296306204D29181E7D292D2AF75A0
:100CEA009F76020E8AC2AF754203900132757B0469
:100CFA00C286C290306204D291A107D292D2AF7555
:100D0A009F36020E8A207D17C2AF75420390010DED
:100D1A00C295306202D291D2AF759F76020E8AC214
:100D2A00AF75420390010DC286306202D291D2AFF2
:100D3A00759F36020E8A207D16C2AF754204C29094
:100D4A00D296306202D291D2AF759F36020E8AC213
:100D5A00AF754204C296D290306202D291D2AF7578
:100D6A009F76020E8A307243207D20C2AF754205FB
:100D7A00900121757B01C291C292306204D286A190
:100D8A008DD290D2AF759F56020E8AC2AF754205B8
:100D9A00900143757B40C291C292306204D295A100
:100DAA00ADD296D2AF759F56020E8A207D17C2AF7A
:100DBA00754205900103C291306202D286D2AF75A4
:100DCA009F56020E8AC2AF754205900117C2913032
:100DDA0062EBD295D2AF759F56020E8A207D16C25B
:100DEA00AF754206C296D292306202D286D2AF75EF
:100DFA009F76020E8AC2AF754206C290D2923062C4
:100E0A0002D295D2AF759F36020E8A307244207D87
:100E1A0020C2AF754201900143757B40C286C290E1
:100E2A00306204D295C133D296D2AF759F36020E84
:100E3A008AC2AF754201900121757B01C295C296A3
:100E4A00306205D286020E54D290D2AF759F7602D6
:100E5A000E8A207D17C2AF754201900117C28630F3
:100E6A006202D295D2AF759F36020E8AC2AF754220
:100E7A0001900103C295306202D286D2AF759F7685
:100E8A00C26522900101757B00C286C291C295C2D9
:100E9A0090C292C296C26222788076FF0876FF08D4
:100EAA0076FF0876FF08760308760408760A08763D
:100EBA0001087601087601788C76010876FF0876B3
:100ECA00FF0876FF0876FF0876FF0876030876FFA4
:100EDA000876FF0876FF0876250876D00876FA089D
:100EEA0076FA0876040876FF08760108760008760E
:100EFA007A0876FF087601087601087600087603F4
:100F0A00087600227887E6FFC2727888E6C39403DF
:100F1A006008C27DE630E102D27DC27E7889E63081
:100F2A00E102D27EC3EF94026008758E01D2730289
:100F3A000F41758E00C273227880E6149000809368
:100F4A0078A5F67881E6149000809378A6F67886DC
:100F5A00E61490008D9378A7F67886E6F539C3945F
:100F6A00025003753902789CE67538FFB40203759E
:100F7A0038A0B4030375388278A3E61490009A93D4
:100F8A00F566D18D22227896E6FA7897E6FB78887C
:100F9A00E6B40305C3EB940EFB307F047A007BFFB3
:100FAA00C3EB9AFCC3948250027C8275720005726C
:100FBA00EC8572F0A4C3E5F0947D40F222D27FF171
:100FCA009012058F12058F7A007B007C101205851E
:100FDA00E55C2AFA74003BFBDCF37C04C3EB13FBED
:100FEA00EA13FADCF7FEC27FF19022757C00757D68
:100FFA0000E5EF20E6037520000520903FFFE5207D
:10100A00146006901DFF1460009304600375EF16C8
:10101A0053D9BF7581C043FF8012058075EF06431F
:10102A00B203E5B3240220E70DF521E5E320E0064B
:10103A008521B343E301120E8D7580BF75A44075F7
:10104A00F17F75D4DF75909875A56775F26775D5C8
:10105A000075A60175E241120E8DE4F8F6D8FD7509
:0F106A006801120EA2121569789886737530010D
:10107900C2AF1205991205A912058F1205B0120502
:101089008F1205B712058F1216921205991205993A
:10109900120594C2AF757C00757D0078FA79FA3033
:1010A9008507D9FBD8F7021C00120F0E120F421246
:1010B9000F8F120F9078988673120E8D75881075A0
:1010C900890275C82475910475D84075A82275B828
:1010D9000275E690759B80759D0075D10E75BC589B
:1010E90075BB0B75BA1175E880120580D2AF12086D
:1010F9003875360053DACF207E0343DA20307E0379
:1011090043DA1043DA01C2D8C271120599D2617B60
:10111900037A0CE55B70077A0CDB0302109C12055D
:101129008F20700302109CC270E55CC3940240E1F9
:10113900E52F541F855E5DF55EB55DD5DAD5C261D3
:1011490053DACF207E0343DA20307E0343DA10C21C
:10115900D8C27178A2E67008D274E52F54E0F52F51
:10116900C275752900120594307409C3E529940ADA
:101179004002D27512058578023074027800C3E501
:101189005C9840F0C2AF1205A91205A91205A9D2AF
:10119900AF120599754C007888E6B40302419C1298
:1011A9000585788CE6C39401500302129CE530C38F
:1011B9009401500302129C757CA5757DF12074354C
:1011C900C3E55C94FF500302129CC2AF1205BED264
:1011D900AF120594C3E55C940150EFC2AF1205A9A3
:1011E90012058A1205A9D2AF120594C3E55C94FFD2
:1011F90040E90217177F05D27F120F90120594C29A
:10120900AFC27F120F90AE5CC3E55C947FD2AF5042
:101219000241AC120580C2AF1205BED2AFDFD812AF
:101229000FC7C3EE94057897F612059912169A7F9F
:101239000AD27F120F90120594C2AFC27F120F908B
:10124900AE5CC3E55C947FD2AF50E4120580C2AFB7
:101259001205A912058A1205A9D2AFDFD4120FC748
:10126900EE24037896F6F87997E7C39482400398B9
:101279005006E824827897F61205991215B71216C6
:10128900C9120594120F90C3E55C94FF500221C066
:10129900021717757C00757D00C3E55C954C40030A
:1012A900855C4C12059478017988E7B403027805C6
:1012B900C3E55C98400221A0C2AF1205BE1205BE6B
:1012C9001205BED2AF120599753000E4F531F53239
:1012D9000531E531F4703F0532789AE678191460E2
:1012E90012783214600D787D14600878FA1460035E
:1012F900753200C3E53298401D120E8D1205801516
:101309003275310078998673C2AF1205BED2AF78B3
:1013190098867312059412058AE52A7005307402BD
:10132900019C78012074027806C3E55C9840A17895
:1013390088E6C394036003120594E52A700302103A
:101349009CC2AF120E8DE4F522F523F524F525F59F
:1013590026F567D2AF7885E6C333F565E4F544F53C
:1013690045F546F547F548F570F52CF52DF5377532
:10137900700875BB1012058012083C30EDFDA8BD40
:10138900A9BEE97001F8887112084075700875BB2B
:1013990010120F0EC2AF7561FF1208B68522618562
:1013A9002262852263D2AF75220175240175250158
:1013B900752601856069756A017888E6B40307C2F4
:1013C9007D307602D27DD268D269753300120DE67E
:1013D900120E151208D61208DD1208D61208DD12EF
:1013E90008D6120B5D12069F120C53120C9A1208A2
:1013F900DD120B4C306E031206A02066031207F2B1
:10140900306603120822120C53120CC91208DD129D
:101419000B5D306E031206DC120C53120D401208DC
:10142900DD120B4C306E0312073A120C53120D6F7A
:101439001208DD120B5D306E03120797120C53125E
:101449000DE61208DD12083C120B4C120C53120E59
:10145900151208401208DD30692F856461856462C0
:0E146900856069756A0179187A0CC3E53399BC
:10147700400CC269D26A8A357561FF021492C3E5CE
:101487005C940140030213EB021520306A25206C9F
:1014970022E535147006C26AD26B61EBF535C3E5F8
:1014A7005C940140030213EB7888E6C3940360035E
:1014B700021520753600788279A4E760027803C3A5
:1014C700E55F985054307404E52A604D7888E6B497
:1014D7000317207D0520760781F030760281F02002
:1014E7006C07D26C856461812A78F0306C0585645D
:1014F700617820C3E54198500261EB306C1BC26CE8
:10150700C27D307602D27DD26A75351285646161FB
:10151700EB0536E55C6002A123753600C2AF120EFB
:101527008D7887E6FE7602120F0E7887EEF6E4F5E1
:1015370022F523F524F525F526F565752C00752D7F
:1015470000D2AF120594120E8D78A4E66006D286FB
:10155700D291D295307409C3E53694044002019CB8
:1015670041D4901A0D78201215F9E520B45A0CA32E
:101577001215F9E520B4A503021597757CA5757DAD
:10158700F1120EA21215B7757C00757D000215B613
:10159700901A0378807B0A1215F9A308DBF9901AD1
:1015A7000F788C7B191215F9A308DBF9901A2822FA
:1015B700C2AF12163C121619901A00740E1215FEBD
:1015C700A374091215FEA374151215FE901A037859
:1015D700807B0A1215FDA308DBF9901A0F788C7B24
:1015E700191215FDA308DBF912164F12162D901AC2
:1015F7002822E493F622E6438F01538FFDFFC3E5CC
:1016070083941C400122EF857CB7857DB7F0538F0B
:10161700FE22438F02438F01857CB7857DB7901AE1
:101627000DF0538FFC22901A0D745AB1FE901A0ECA
:1016370074A5B1FE227A3079D07820901A40B1F99A
:10164700E520F709A3DAF7227A3079D0901A40E734
:10165700B1FE09A3DAF922AB74A875BB010279843C
:10166700BB02027985BB03027986BB04027992BB70
:1016770005027987BB060279A3BB0702799CBB08E1
:10168700027988BB09027989E8F7227C0512059956
:10169700DCFB22C2AF1205A91205B01205B712056D
:1016A700BE12058A1205A91205B01205B71205BEAA
:1016B70012058A1205A91205B01205B71205BED286
:1016C700AF22C2AF1205BE1205B71205B01205A9A7
:1016D70012058A1205BE1205B71205B01205A91226
:1016E700058A1205BE1205B71205B01205A9D2AFB9
:1016F70022AE74AF75C2AF1205A91205A91205A9CA
:1017070012058ADEF21205BE12058ADFF8D2AF2271
:10171700D19AD192D192757401757501757600D100
:10172700F87C05AD5C120599C3ED955C70F5C3E5D2
:101737005C9401400AC3E55C94FF4032021753D121
:101747005EB1B7D19AC2AF75EF16D192DCD50576E7
:10175700C3E5769403500280C6D1920575E57414EB
:1017670090009F93F808C3E57598500280AED19218
:10177700D1920574C3E574940A5002809C120EA29C
:09178700B1B7C2AF75EF16D192A3
:0319FD00020FF5E1
:101A00000E0915FFFFFFFF03040A0101015AA5019A
:101A1000FFFFFFFFFF03FFFFFF25D0FAFA04FF01DE
:091A2000007AFF0101000300FF40
:101A400023416C69676E424C313558232020202099
:101A500023424C48454C4923463333302320202031
:101A60002020202020202020202020202020202076
:101C0000C2AFC2D353D9BF7581C043B20343FF8073
:101C1000752438752503B1DC7529A5752AF175E29F
:101C20004043F12053A4DF75D4FFD2857DFA7803B9
:101C300079E67C10752200752300901DE97B0675FE
:101C400024987525013085028145208508D8FBD967
:101C5000F9DCF781B7308508D8FBD9F9DCF781B713
:101C6000B19CE493A3C39A6004DDC381B7DBDBB10D
:101C70008E6002812E7B08E493FAA3B16FDBF87AC1
:101C800030B16F752200752300B18EEAFCEBFDC305
:101C9000ED94FE400EB18E8A278B28ED30E0048A49
:101CA000828B83B18E7AC270D8C3ED94FE601950D6
:101CB000CEBD002BEC600F7520007521FF7529004B
:101CC000752A000200008100A827A9280809D80465
:101CD000D90281DCB192EA89AAF281CE0D81A3C337
:101CE000ED94035053EDA2E092007AC5C3E58294CF
:101CF00000E583941C508A200010438F02438F011B
:101D00008529B7852AB7F0300029A827A92808090E
:101D1000438F01538FFDD804D902A133C3E58394C7
:101D20001C4003A3A11689AAE28529B7852AB7F02A
:101D3000A3A116538FFC817F7AC1BD030CE493A34A
:101D4000FAB153DCF8B14B817F8181AA22AB23B178
:101D50006FEBFAEA6222752608C3E52313F523E543
:101D60002213F52250066323A0632201D526EAB18F
:101D7000DCB1DC75260AEAF4200102D285300102CA
:101D8000C285B1DCC3134002C201D526EB22B19259
:101D9000EAFB208502A192308502A197752608AE44
:101DA00024AF25C3EF13FFEE13FEB1E0B1DCC3EAAD
:101DB000133085024480FA30E703632201C3E52330
:101DC00013F523E52213F52250066323A0632201B5
:101DD000D526D9E52265236523F52222AE24AF2539
:101DE0000E0FDEFEDFFCD20122424C48656C6934E6
:071DF000373164F3300601F6
:00000001FF
