:030000000219FDE5
:03000B000200AA46
:03002B000201636C
:03005B000202FDA1
:030073000202EA9C
:1000800002030406080C10182030406080040608A3
:100090000C10182030406080A0C00003070F1F0D17
:1000A0000D04050D050305030302C2AFC0D0C0E077
:1000B000206214E5256009E473E525F4F58AD2622F
:1000C000D0E0D0D0D2AF3285268AC262E526F46075
:1000D0003630682C20720DD0E0D0D0C282C286C2E9
:1000E00087D2AF32C282C286C287206F13206510CA
:1000F000740AD5E0FDE57BB4010442902100428002
:10010000D0E0D0D0D2AF32758A00C28DD262210049
:1001100001B9306805206502D28201B93068052036
:100120006502D28601B9306805206502D28701B91F
:10013000C28130680A2065077406D5E0FDD28201CD
:10014000B9C28330680A2065077406D5E0FDD286FF
:1001500001B9C29030680A2065077406D5E0FDD267
:100160008701B9C2AFC2AD53E6EFC0D0C0E0D2D371
:10017000D2AFC2CEE52A600720744F152A21CA7873
:1001800000790020742EE580307E01F430E502789D
:10019000FF53DACF207E0343DA20307E0343DA10A8
:1001A000C2D8C271E580307E01F430E50279FFC328
:1001B000E89970CB306103752A18207403752A18EA
:1001C000885CD270E86003755F0020740DE52B60D9
:1001D00004152B21DA43DA01C2D82070024149A864
:1001E0005C206102C2702074367982B70431C3E8A2
:1001F00094F0400374F0F8E8C4540F28F87984B7F9
:100200000302411FC313C3138721200802C3132015
:100210000A06C3C898F8411F28F8500374FFF888ED
:1002200022E52D54066022206B1FE536C333C3330D
:10023000F8E564C313C313F9C3952240028922E889
:100240002522F52250037522FF7882B604598522B3
:1002500024A824C3E52495614002A861C3E89563FE
:100260004002A8638825E5667002419AC3E8AA6641
:100270009A5003E8FAE4F9EAC333FBE568F45B2932
:10028000400D2567F8E56760021567400B419A0A43
:10029000C3E5679A5002056778FF8826C26FC3E5F9
:1002A0002694F84002D26F20CF0AD0E0D0D043E6A7
:1002B00010D2AD32C2CF053A7801E52A600530741C
:1002C00002152AC3E55C94014005755F0041E075A5
:1002D0006000756900E55F2401F55F5003755FFFFD
:1002E000D0E0D0D043E610D2AD32C2AF53E67F7536
:1002F00092FA7593FFC260759104D2AF32C2AF53C8
:10030000E6EFC2ADC0D0C0E0C0F0D2D3D2AFA8FB00
:10031000A9FCC2D8307102616453DACF207E034356
:10032000DA10307E0343DA20D271E580307E01F4AA
:1003300020E502613B88278928A19153DACF207EEE
:100340000343DA20307E0343DA10C2D8C27130741E
:1003500002A17D7800E580307E01F430E502A17DC8
:10036000885CA16553DACF207E0343DA20307E0318
:1003700043DA10C271206102813D53DACF207E033F
:1003800043DA10307E0343DA20C2D8D2718857890D
:1003900058C3E89555F8E99556F97B007E087A0030
:1003A000C3E8948CE994005005755B00812F882187
:1003B00078A2E6A8216055C3E894C8E994005008E3
:1003C000E4D2E4FB7A0A810AC3E89468E994015014
:1003D00008E4D2E3FB7A0F810AC3E894D0E99402DF
:1003E0005008E4D2E2FB7A1E810AC3E894A0E994A3
:1003F000055008E4D2E1FB7A3C810AC3E89498E90D
:1004000094085008E4D2E0FB7A787E00C3E895595E
:10041000FCE9955AFD30E70AECF42401FCEDF434D4
:1004200000FD755B00C3EC9AED9E5003755B01887F
:1004300059895A8557558558567802A165C3E8955C
:1004400027F8E99528F9307C02A149307B02A149BF
:10045000307A02A1422075028160E9FDE8FC817FCB
:10046000E9C313F9E813F8307902A142E9C313F99B
:0F047000E813F8307802A142E9C313FDE813FC4A
:10047F0020612CC3EC941CED940240028196ED7028
:10048F001EC3EC94C850180529E52970021529C31D
:10049F00E529940A5002A17D755C00D270A17DE51B
:1004AF0029600215297888E6F97400207F0878966C
:1004BF00B90302789EE624FAFEE43400FFC3EC9EF3
:1004CF00FCED9FFD9208B90310A208500720760992
:1004DF00D27681E8307602C276A2085016B9030DA3
:1004EF00ECF42401FCEDF43400FD020502780079F0
:1004FF0000A149B90315EC33FCED33FDC3EC940AAD
:10050F00FCED9400FD50047C007D00C3EC94FFEDE6
:10051F009400400678FF7900A149EC8572F0A4C5DC
:10052F00F0A2F733F87900400302056578FF7900F0
:10053F00020565E9C313F9E813F8307C0EE9600290
:10054F0078FFC3E81338F8E43400F9C3E894FFE9FF
:10055F009400400278FF885CD270206102A17D7404
:10056F001FF4552F4BF52FC274EB7002D274752AFE
:10057F0018307403752A0A306102A1912074035355
:10058F00DAFE207403752B06D0F0D0E0D0D0D2ADB8
:10059F0043E6103279010205C179030205C1790AD8
:1005AF000205C1791E0205C179640205C179C8022D
:1005BF0005C17817E4D5E0FDD8FAD9F6227A147B75
:1005CF00780205E87A107B8C0205E87A0D7BB4027D
:1005DF0005E87A0B7BC80205E8E573D5E0012279BF
:1005EF0002E4C283D5E0FDD286D5E0FDC286D5E018
:1005FF00FDD283D5E0FDE920E002D28230E002D2C5
:10060F0087E573D5E0FDE920E002C28230E002C247
:10061F00877496D5E0FDD9C9EAF8D5E0FDD8FBDBA4
:10062F00B8C28322C37C007D0075F00005F0EA3369
:10063F00FAEB33FB50F6EB13FBEA13FAC3E9FFE8CF
:10064F00FEE89AF8E99BF95004EFF9EEF8B3EC33B2
:10065F00FCED33FDD5F0DFEDF9ECF822E889F08AF7
:10066F0020D2D4F8A9F07B0030F70B7BFFF42401E4
:10067F00F8E9F43400F9E88520F0A4ADF0F8E98545
:10068F0020F0A4AFF0FEED2EF974003FFA7C04C306
:10069F00EA13FAE913F9E813F8DCF48BF030F70AF0
:1006AF00E8F42401F8E9F43400F9E889F0C2D4F849
:1006BF00A9F0227882B6040302071DC3E55C9401FA
:1006CF0040030206E7852224E4F544F545F546F597
:1006DF0047F548C26E02071D7882E6FCD26EE5220E
:1006EF00F523783879C7AA40AB41C3EB13FBEA1364
:1006FF00FAEC146013C3EB13FBEA13FAEC14146057
:10070F0007C3EB13FBEA13FAD1338844894522C39D
:10071F00E5449523F8E5459400F9500CC3E894801F
:10072F00E994FF401602074EC3E8947FE994005006
:10073F000302074E787F790002074E788079FF8891
:10074F0049894A22E5492546F8E54A3547F9854A58
:10075F0020E4300701F43548FA30E709C3EA94F092
:10076F00401502078CC3EA940F500302078C78FFE1
:10077F0079FF7A0F02078C780079007AF0C3E524AD
:10078F009561500AC374019524500B0207AAE54ADC
:10079F0020E70E0207AAE54A30E706884689478A0E
:1007AF00482278A5E6FAC3E54933F8E54A33F9D18B
:1007BF006BE930E70BC3E89480E994FF4013E1E461
:1007CF00C3E8947FE994005002E1E4787F7900E177
:1007DF00E4788079FFE820E715C3E52398F840090E
:1007EF00C3E89401400302080B780102080BE8F4F8
:1007FF0024012523F8400302080B78FF884B227849
:10080F00A6E6FAA847A94812066BE930E70CC3E839
:10081F009401E994FF4016020840C3E894FFE9945D
:10082F0000500302084078FF7900020840780179F0
:10083F00FFE920E715C3E54B98F84009C3E8940199
:10084F0040030208677801020867E8F42401254B8A
:10085F00F8400302086778FF88242278FF20692870
:0F086F0079A1E76023E541601F74FF8541F084A4
:10087E008539F0306A0375F005A4F8C5F06002788A
:10088E00FFC3E895645002A864886322C3E54094D0
:10089E0040E5419401E56350031401AB046002F599
:1008AE0063220208B32275E890227883E6FF30EDCA
:1008BE00F9A8BDA9BE0570C3E570940840527570C5
:1008CE0000E9FA79A0E76044EA7007E571601B025F
:1008DE0008ECC3E895716010E5715006600C1402C7
:1008EE0008F80460F90208F8E571F571C3946740E1
:1008FE001B7561C0C394044013756180C39404409A
:10090E000B756140C39404400375610075BB0B22E7
:10091E00E5612410500274FFF5617982B70402215B
:10092E0045C3A861E524985002A824C3E895634006
:10093E0002A86388258826E570B4070375BB1022CC
:10094E00743279A787F0A4C5F0A2F733F8C3E895FF
:10095E00614002A86188228824882588268864221E
:10096E007540007541F022C2AF75C820A8CCA9CD44
:10097E00AA3A30CF010A75C824D2AFAB3BAC3C8843
:10098E003B893CC3E89BF8E99C206908F930660274
:10099E00418621E0AD3D8A3DF9EA9DFA600678FF79
:1009AE0079FF21C5AE3EAF3F8B3E8C3FA83BA93CA5
:1009BE00C3E89EF8E99FF9C3E54113FBE54013FA3E
:1009CE00E82AF540E93BF54150067540FF7541FFB9
:1009DE00412DAA40AB41AC40AD417E047F02C3EB3A
:1009EE009404400D1E1FC3EB94084005206A021E9E
:1009FE001FC3ED13FDEC13FCDEF7C3EA9CFAEB9D6F
:100A0E00FBEF6009C3E913F9E813F8DFF7EA28FAF8
:100A1E00EB39FB8A408B4150067BFF8B408B41C3E9
:100A2E00EB94025002D2663069047F0341587892EB
:100A3E00E6FFC3E537948240110FC3E53794A0401B
:100A4E00010FC3EF940640027F057E02E541C454B8
:100A5E000FF9E541C454F0F8E540C4540F28F8C32B
:100A6E00E89EFAE99400FB4009C3EA9402EB940075
:100A7E0050047A02E4FB41D2AA40AB41EBC4FEEA39
:100A8E00C4540F4EFCC3EA9CFAEB9400FBC3E8136C
:100A9E00C313F8EA28FAEB3400FB8A408B41C3EB10
:100AAE0094024002C2667802EBC4FE7B00EAC45494
:100ABE000F4EFAC3EA98FA4005C3940250027A0226
:100ACE007892E6FF30600241D2855192855293D2E0
:100ADE006043E680C3E49AF8E49BF9306602615EF7
:100AEE00E8FAE9FBD3E913FDE813FC88518952C3F8
:100AFE00EF94036038EF20E00DE82CF8E93DF9ECB7
:100B0E00FAEDFB020B27E828F8E939F9C3E82402CD
:100B1E00F8E93400F97AFE7BFFC3EF9403400E8AA6
:100B2E00538B54884D894E8C4F8D506192885389CA
:100B3E00548A4D8B4E8C4F8D503069127553F07513
:100B4E0054FF754FF07550FF7551F07552FF61925D
:100B5E00E8FAD3E813FC8851C3EF94036020EF202A
:100B6E00E007E82CF8ECFA617EE8282402F87AFE19
:100B7E00C3EF940340088A53884D8C4F619288537B
:100B8E008A4D8C4FE568C3335002646BF568306054
:100B9E0002619C753402D26043E680E52D540660F6
:100BAE0034A840A941C3E913F9E813F8C3E913F9CE
:100BBE00E813F8306904E92440F9C2AF53E67F75B3
:100BCE009100C3E498F594E499F595759104D2607B
:100BDE0043E680D2AF22D264754300752000306C9C
:100BEE0003752040020C03D264754300752040301B
:100BFE006C0375200078017901206620E52D5406DE
:100C0E006002C2647914E541C313700104F8C39401
:100C1E001440027814306904781B791B206010E5AB
:100C2E0043600C306903D53404D26D81AD71A405D7
:100C3E0043E5BF5440B52002819730690908C3E8E7
:100C4E0099400118812A20640A08C3E8994002815C
:100C5E0003812AC264C2AF53E67F759100306612DB
:0E0C6E007594007595F8759104D26043E68088
:100C7C00D2AF8103E5417EFFC3334005C33340014E
:100C8C00FEC3E49E759400F5958174C3E53394011D
:100C9C00500281033064028103D80281AB812AC2E5
:100CAC006DC2AF53E67F759100855394855495754D
:100CBC009104854D92854E93D26043E680D2AFE588
:100CCC002D54066008206A020533020CE9306D0DC4
:100CDC00206C0A206407158115810215AD2278005D
:100CEC003064027801E53775F007A4F9E5F028F5D2
:100CFC00F0E9A2F013A2F113A2F213F537C3947822
:100D0C005003753778C3E53795384008D265C282F1
:100D1C00C286C287306002A120854F92855093D243
:100D2C006043E68022207D16C2AF754202C283D298
:100D3C0081306202D287D2AF75AA23020F21C2AFD3
:100D4C00754202C283D290306202D282D2AF75AAAF
:100D5C0023020F21307243207D20C2AF75420390D5
:100D6C000141757B08C287C290306204D286A17E95
:100D7C00D283D2AF75AA24020F21C2AF7542039061
:100D8C000141757B08C282C281306204D286A19E69
:100D9C00D283D2AF75AA21020F21207D17C2AF7565
:100DAC00420390011CC287306202D286D2AF75AA70
:100DBC0024020F21C2AF75420390011CC282306223
:100DCC0002D286D2AF75AA21020F21207D16C2AFA6
:100DDC00754204C281D290306202D286D2AF75AA1B
:100DEC0021020F21C2AF754204C290D2813062023F
:100DFC00D286D2AF75AA24020F21307243207D20F7
:100E0C00C2AF754205900130757B02C286C2833039
:100E1C006204D282C124D281D2AF75AA23020F21DF
:100E2C00C2AF754205900152757B01C286C28330F8
:100E3C006204D287C144D290D2AF75AA23020F218B
:100E4C00207D17C2AF754205900112C28630620236
:100E5C00D282D2AF75AA23020F21C2AF7542059080
:100E6C000126C2863062EBD287D2AF75AA23020F5D
:100E7C0021207D16C2AF754206C290D28330620229
:100E8C00D282D2AF75AA24020F21C2AF754206C21C
:100E9C0081D283306202D287D2AF75AA21020F2190
:100EAC00307244207D20C2AF754201900152757B97
:100EBC0001C282C281306204D287C1CAD290D2AF41
:100ECC0075AA21020F21C2AF754201900130757BCA
:100EDC0002C287C290306205D282020EEBD281D25E
:100EEC00AF75AA24020F21207D17C2AF7542019065
:100EFC000126C282306202D287D2AF75AA21020FBC
:100F0C0021C2AF754201900112C287306202D282B7
:100F1C00D2AF75AA24C26522900110757B00C282E3
:100F2C00C286C287C281C283C290C2622278807696
:100F3C00090876090876040876FF0876030876FF18
:100F4C0008760A087603087601087601788C760113
:100F5C000876FF0876FF0876FF0876FF0876FF080C
:100F6C0076030876FF0876FF0876FF087625087664
:100F7C00D00876280876500876040876FF087602A2
:100F8C0008760008767A0876FF087601087601085C
:100F9C007600087603087600227887E6FFC272BFD7
:100FAC000302D2727888E6C394036008C27DE630EF
:100FBC00E102D27DC27E7889E630E102D27EC3EFB7
:100FCC0094026008758E01D273020FDD758E00C21B
:100FDC0073227880E6149000809378A5F67881E6E9
:100FEC00149000809378A6F67886E61490008D9382
:100FFC0078A7F67886E6F539C39402500375390262
:10100C00789CE67538FFB402037538A0B4030375F9
:10101C00388278A3E61490009A93F566120F242276
:10102C00227896E6FA7897E6FB7888E6B40305C34F
:10103C00EB940EFB307F047A007BFFC3EB9AFCC36E
:10104C00948250027C827572000572EC8572F0A459
:10105C00C3E5F0947D40F222D27F112D1205B2121D
:0F106C0005B27A007B007C101205A8E55C2AFA19
:10107B0074003BFBDCF37C04C3EB13FBEA13FADCDD
:10108B00F7FEC27F112D22757C00757D00E5EF20E8
:10109B00E6037520000520903FFFE52014600690C5
:1010AB001FFF1460009304600375EF167597DE75D0
:1010BB0097AD7581C043FF801205A375EF0675A927
:1010CB0000E5C7240220E70DF521E5B120E00685F8
:1010DB0021C743B101120F2475803175A4CE75F170
:1010EB00FF75D4DF7590FE75A50175F2E175D5001E
:1010FB0075A60175E34075E201120F24E4F8F6D8EA
:10110B00FD756801120F391215FE789886737530CC
:10111B0001C2AF1205BC1205CC1205B21205D312D7
:10112B0005B21205DA1205B2C2AF757C00757D00EF
:10113B0078FA79FA308507D9FBD8F7021C00120F21
:10114B00A5120FDE112C112D78988673120F2475B2
:10115B00881075890275C82475910475D84075A8D7
:10116B002275B80275E690759B80759D0075BF80E2
:10117B0075AB0075D10C75BC5975BB0B75E88075DB
:10118B00B2011205A3D2AF1208B075360053DACFF5
:10119B00207E0343DA20307E0343DA1043DA01C2A8
:1011AB00D8C2711205BCD2617B037A0CE55B700768
:1011BB007A0CDB030211331205B2207003021133D8
:1011CB00C270E55CC3940240E1E52F541F855E5D60
:1011DB00F55EB55DD5DAD5C26153DACF207E034318
:1011EB00DA20307E0343DA10C2D8C27178A2E670DF
:1011FB0008D274E52F54E0F52FC27575290012053E
:10120B00B7307409C3E529940A4002D2751205A8B8
:10121B0078023074027800C3E55C9840F0C2AF12DC
:10122B0005CC1205CC1205CCD2AF1205BC754C0007
:10123B007888E6B40302612E1205A8788CE6C39475
:10124B0001500302132EE530C39401500302132EF9
:10125B00757CA5757DF1207435C3E55C94FF500357
:10126B0002132EC2AF1205E1D2AF1205B7C3E55C74
:10127B00940150EFC2AF1205CC1205AD1205CCD2C2
:10128B00AF1205B7C3E55C94FF40E90217B67F02C6
:10129B00D27F112D1205B7C2AFC27F112DAE5CC329
:1012AB00E55C947FD2AF5002613E1205A3C2AF1230
:1012BB0005E1D2AFDFDA1164C3EE7897F61205BC05
:1012CB001217397F0AD27F112D1205B7C2AFC27F19
:1012DB00112DAE5CC3E55C947FD2AF50E61205A333
:1012EB00C2AF1205CC1205AD1205CCD2AFDFD611B1
:1012FB0064EE24037896F6F87997E7C3948240035B
:10130B00985006E824827897F61205BC12164C12F8
:10131B0017681205B7112DC3E55C94FF5002415BB2
:10132B000217B6757C00757D00C3E55C954C4003D8
:10133B00855C4C1205B778017988E7B40302780510
:10134B00C3E55C984002413BC2AF1205E11205E1D7
:10135B001205E1D2AF1205BC753000E4F531F53260
:10136B000531E531F4703F0532789AE6781914604F
:10137B0012783214600D787D14600878FA146003CB
:10138B00753200C3E53298401D120F241205A315C8
:10139B003275310078998673C2AF1205E1D2AF78FE
:1013AB009886731205B71205ADE52A7005307402E5
:1013BB00213378012074027806C3E55C9840A1784C
:1013CB0088E6C3940360031205B7E52A7003021184
:1013DB0033C2AF120F24E4F522F523F524F525F5DE
:1013EB0026F567D2AF7885E6C333F565E4F544F5AA
:1013FB0045F546F547F548F570F52CF52DF53775A0
:10140B00700875BB101205A31208B430EDFDA8BD12
:10141B00A9BEE97001F888711208B875700875BB20
:10142B0010120FA5C2AF7561FF12094E852261859F
:10143B002262852263D2AF752201752401752501C5
:10144B00752601856069756A017888E6B40307C261
:10145B007D307602D27DD268D269753300120E7D53
:0F146B00120EAC12096E12097512096E12097574
:10147A0012096E120BF51206C2120CEA120D311283
:10148A000975120BE4306E0312071E206603120858
:10149A006A30660312089A120CEA120D6012097574
:1014AA00120BF5306E03120753120CEA120DD71203
:1014BA000975120BE4306E031207B1120CEA120E10
:1014CA0006120975120BF5306E0312080E120CEA99
:1014DA00120E7D1209751208B4120BE4120CEA12EC
:1014EA000EAC1208B81209753069328564618564D8
:1014FA0062856069756A0179187A0CC3E533994087
:10150A000FC269D26A8A35856461856463021527C8
:10151A00C3E55C9401400302147D0215B5306A25C7
:10152A00206C22E535147006C26AD26B817DF535CE
:10153A00C3E55C9401400302147D7888E6C39403F2
:10154A0060030215B575360078FA79A4E760027867
:10155A0003C3E55F985054307404E52A604D7888D7
:10156A00E6B40317207D05207607A185307602A10F
:10157A0085206C07D26C85646181BC78F0306C057B
:10158A008564617820C3E541985002817D306C1BE7
:10159A00C26CC27D307602D27DD26A7535128564FC
:1015AA0061817D0536E55C6002A1B8753600C2AF7F
:1015BA00120F247887E6FE7602120FA57887EEF6D8
:1015CA00E4F522F523F524F525F526F565752C00B5
:1015DA00752D00D2AF1205B7120F2478A4E6600663
:1015EA00D282D286D287307409C3E5369404400287
:1015FA0021336166901A0D782012168EE520B455B3
:10160A000CA312168EE520B4AA0302162C757CA52B
:10161A00757DF1120F3912164C757C00757D00022A
:10162A00164B901A0378807B0A12168EA308DBF9F0
:10163A00901A0F788C7B1912168EA308DBF9901A70
:10164A002822C2AF1216D11216AE901A00740E12C8
:10165A001693A37409121693A37415121693901A6B
:10166A000378807B0A121692A308DBF9901A0F7886
:10167A008C7B19121692A308DBF91216E41216C211
:10168A00901A2822E493F622E6438F01538FFDFF36
:10169A00C3E583941C400122EF857CB7857DB7F0B2
:1016AA00538FFE22438F02438F01857CB7857DB716
:1016BA00901A0DF0538FFC22901A0D7455D1939005
:1016CA001A0E74AAD193227A3079D07820901A40CF
:1016DA00D18EE520F709A3DAF7227A3079D0901A69
:1016EA0040E7D19309A3DAF922AB74A875BB0102CA
:1016FA007980BB02027981BB03027982BB04027939
:10170A0084BB05027986BB06027992BB07027987F8
:10171A00BB080279A3BB0902799CBB0A027988BB80
:10172A000B027989E8F7227C051205BCDCFB22C290
:10173A00AF1205CC1205D31205DA1205E11205AD76
:10174A001205CC1205D31205DA1205E11205AD1203
:10175A0005CC1205D31205DA1205E1D2AF22C2AFC7
:10176A001205E11205DA1205D31205CC1205AD12E3
:10177A0005E11205DA1205D31205CC1205AD1205E0
:10178A00E11205DA1205D31205CCD2AF22AE74AF3C
:10179A0075C2AF1205CC1205CC1205CC1205ADDE0E
:1017AA00F21205E11205ADDFF8D2AF22F139F131BB
:1017BA00F131757401757501757600F1977C05AD87
:1017CA005C1205BCC3ED955C70F5C3E55C94014001
:1017DA000AC3E55C94FF40330217F2D1F3D14CF10E
:1017EA0039C2AF75EF16F131DCD50576C3E57694CB
:1017FA0003500280C61217310575E5741490009FD4
:10180A0093F808C3E57598500280AD121731121784
:10181A00310574C3E574940C50028099120F391281
:0A182A00164CC2AF75EF161217310D
:0319FD0002109243
:101A00000E0915090904FF03FF0A03010155AA0184
:101A1000FFFFFFFFFF03FFFFFF25D0285004FF0259
:091A2000007AFF0101000300FF40
:101A4000234D5232355F3135412320202020202084
:101A500023424C48454C492346383530232020202A
:101A60002020202020202020202020202020202076
:101C0000C2AFC2D37597DE7597AD7581C075A90057
:101C100043FF80752438752503B1DB7529A5752A26
:101C2000F175E34043F12053A4DF75D4FFD2857DE5
:101C3000FA780379E67C10752200752300901DE880
:101C40007B0675249875250130850281482085081A
:101C5000D8FBD9F9DCF781BA308508D8FBD9F9DC93
:101C6000F781BAB19BE493A3C39A6004DDC381BA40
:101C7000DBDBB18D600281317B08E493FAA3B16EA6
:101C8000DBF87A30B16E752200752300B18DEAFC65
:101C9000EBFDC3ED94FE400EB18D8A278B28ED300D
:101CA000E0048A828B83B18D7AC270D8C3ED94FE32
:101CB000601950CEBD0029EC600F7520007521FF22
:101CC000752900752A000200008100A827A92808AC
:101CD00009D804D90281DDB191EAF281D10D81A642
:101CE000C3ED94035051EDA2E092007AC5C3E582A2
:101CF0009400E583941C508C200010438F02438F86
:101D0000018529B7852AB7F0300027A827A9280818
:101D100009438F01538FFDD804D902A132C3E58353
:101D2000941C4003A3A117E28529B7852AB7F0A325
:101D3000A117538FFC81827AC1BD030CE493A3FAEF
:101D4000B152DCF8B14A81828184AA22AB23B16E00
:101D5000EBFAEA6222752608C3E52313F523E52290
:101D600013F52250066323A0632201D526EAB1DBD6
:101D7000B1DB75260AEAF4200102D285300102C2E5
:101D800085B1DBC3134002C201D526EB22B191EA33
:101D9000FB208502A191308502A196752608AE240C
:101DA000AF25C3EF13FFEE13FEB1DFB1DBC3EA13C0
:101DB0003085024480FA30E703632201C3E5231330
:101DC000F523E52213F52250066323A0632201D5F3
:101DD00026D9E52265236523F52222AE24AF250E00
:101DE0000FDEFEDFFCD20122424C48656C693437BD
:061DF0003164F850060109
:00000001FF
