:030000000219FDE5
:03000B000200A848
:03002B0002017E51
:03005B0002032F6E
:0300730002031C69
:1000800002030406080C10182030406080040608A3
:100090000C10182030406080A0C00003070F1F051F
:1000A000050D050305030302C2AF306308C2638573
:1000B000798AD2AF32C0D0C0E0206221E525601637
:1000C000E473E525F4C3334009758A00D263F579FA
:1000D00001D4F58AD262D0E0D0D0D2AF32C3E526C7
:1000E000334009758A00D263F57901EEF58AC26260
:1000F000E526F4603130682720720CE57BF45290DD
:10010000D0E0D0D0D2AF32E57BF45290206F1020F7
:10011000650DE57BF4D33333335290E57B4290D0C9
:10012000E0D0D0D2AF32758A00D263757900C28D2B
:10013000D262211F01C2306807206504D295D29295
:1001400001C2306807206504D294D29101C23068A0
:1001500007206504D293D29001C23068072065045D
:10016000D295D29201C2306807206504D294D29110
:1001700001C2306807206504D293D29001C2C2AF99
:10018000C2AD53E6EFC0D0C0E0D2D3D2AFE57A60C3
:1001900009E577600575770041C9757701C2CEE53D
:1001A0002A600720744F152A21F578007900207401
:1001B0002EE580307E01F430E70278FF53DACF205D
:1001C0007E0343DA20307E0343DA10C2D8C271E5E1
:1001D00080307E01F430E70279FFC3E89970CB30BC
:1001E0006103752A18207403752A18885CD270E898
:1001F0006003755F0020740DE52B6004152B41052D
:1002000043DA01C2D82070024178A85C206102C2A2
:1002100070207431C3E894F0400374F0F8E8C454DB
:100220000F28F87984B703024145C313C31387210C
:10023000200802C313200A06C3C898F8414528F8CD
:10024000500374FFF8C3E895655003E565F888220C
:10025000E52D54066022206B1FE536C333C333F807
:10026000E564C313C313F9C3952240028922E8252C
:1002700022F52250037522FF852224A824C3E524F9
:1002800095614002A8618825E566700241BCC3E81B
:10029000AA669A5003E8FAE4F9EAC333FBE568F486
:1002A0005B29400D2567F8E56760021567400B4143
:1002B000BC0AC3E5679A5002056778FF8826C26FBB
:1002C000C3E52694F84002D26F20CF0AD0E0D0D008
:1002D00043E610D2AD32C2CF053AE57A6009E5783F
:1002E000600575780061127578017801E52A60056E
:1002F000307402152AC3E55C94014005755F006106
:1003000012756000756900E55F2401F55F500375A3
:100310005FFFD0E0D0D043E610D2AD32C2AF53E69B
:100320007F7592FA7593FFC260759104D2AF32C2A5
:10033000AF53E6EFC2ADC0D0C0E0C0F0D2D3D2AF71
:10034000A8FBA9FCE57A6007C3E913F9E813F8C232
:10035000D830710261A153DACF207E0343DA103026
:100360007E0343DA20D271E580307E01F420E7027B
:10037000617888278928A1CE53DACF207E0343DA1B
:1003800020307E0343DA10C2D8C271307402A1BAA1
:100390007800E580307E01F430E702A1BA885CA1E4
:1003A000A253DACF207E0343DA20307E0343DA10F3
:1003B000C271206102817A53DACF207E0343DA10C2
:1003C000307E0343DA20C2D8D27188578958C3E8F7
:1003D0009555F8E99556F97B007E087A00C3E894B4
:1003E0008CE994005005755B00816C882178A2E649
:1003F000A8216055C3E894C8E994005008E4D2E409
:10040000FB7A0A8147C3E89468E994015008E4D272
:10041000E3FB7A0F8147C3E894D0E994025008E4E3
:10042000D2E2FB7A1E8147C3E894A0E99405500804
:10043000E4D2E1FB7A3C8147C3E89498E994085000
:1004400008E4D2E0FB7A787E00C3E89559FCE99590
:100450005AFD30E70AECF42401FCEDF43400FD759C
:100460005B00C3EC9AED9E5003755B018859895A75
:0F0470008557558558567802A1A2C3E89527F8FD
:10047F00E99528F9307C02A186307B02A186307A7B
:10048F0002A17F207502819DE9FDE8FC81BCE9C3D3
:10049F0013F9E813F8307902A17FE9C313F9E813D0
:1004AF00F8307802A17FE9C313FDE813FC20612C1B
:1004BF00C3EC941CED9402400281D3ED701EC3EC8B
:1004CF0094C850180529E52970021529C3E5299408
:1004DF000A5002A1BA755C00D270A1BAE529600278
:1004EF0015297888E6F97400207F087896B90302F9
:1004FF00789EE624FAFEE43400FFC3EC9EFCED9FE9
:10050F00FD9208B90310A2085007207609D276A1F0
:10051F0025307602C276A2085016B9030DECF424EA
:10052F0001FCEDF43400FD02053F78007900A1864F
:10053F00B90315EC33FCED33FDC3EC940AFCED94D9
:10054F0000FD50047C007D00C3EC94FFED9400404F
:10055F000678FF7900A186EC8572F0A4C5F0A2F7AA
:10056F0033F8790040030205A278FF79000205A253
:10057F00E9C313F9E813F8307C0EE9600278FFC382
:10058F00E81338F8E43400F9C3E894FFE994004025
:10059F000278FF885CD270206102A1BA741FF455F3
:1005AF002F4BF52FC274EB7002D274752A1830746A
:1005BF0003752A0A306102A1CE20740353DAFE209C
:1005CF007403752B06D0F0D0E0D0D0D2AD43E61037
:1005DF003279010205FE79030205FE790A0205FE52
:1005EF00791E0205FE79640205FE79C80205FE78C0
:1005FF0017E4D5E0FDD8FAD9F6227A147B780206F3
:10060F00257A107B8C0206257A0D7BB40206257A9B
:10061F000B7BC8020625E573D5E001227902E4C2FF
:10062F0091D5E0FDD294D291D5E0FDC291D5E0FDF8
:10063F00C294D291D5E0FDE920E004D295D2923058
:10064F00E004D293D290E573D5E0FDE920E002C239
:10065F009230E002C2907496D5E0FDD9C1EAF8D588
:10066F00E0FDD8FBDBB0C29122C37C007D0075F0AA
:10067F000005F0EA33FAEB33FB50F6EB13FBEA130A
:10068F00FAC3E9FFE8FEE89AF8E99BF95004EFF99D
:10069F00EEF8B3EC33FCED33FDD5F0DFEDF9ECF80C
:1006AF0022E889F08A20D2D4F8A9F07B0030F70B2A
:1006BF007BFFF42401F8E9F43400F9E88520F0A475
:1006CF00ADF0F8E98520F0A4AFF0FEED2EF974003F
:1006DF003FFA7C04C3EA13FAE913F9E813F8DCF4E0
:1006EF008BF030F70AE8F42401F8E9F43400F9E864
:1006FF0089F0C2D4F8A9F02222C3E54113F9E540ED
:10070F0013F8C3E54498F8E54599F9500CC3E894FC
:10071F0080E994FF401602073FC3E8947FE99400F5
:10072F00500302073F787F790002073F788079FFF7
:10073F008849894A22E5492546F8E54A3547F9852A
:10074F004A20E4300701F43548FA30E709C3EA9448
:10075F00F0401502077DC3EA940F500302077D781E
:10076F00FF79FF7A0F02077D780079007AF0C3E5F1
:10077F00249561500AC374019524500B02079BE521
:10078F004A20E70E02079BE54A30E706884689476D
:10079F008A482278A5E6FAC3E54933F8E54A33F9E2
:1007AF00D1B0E930E70BC3E89480E994FF4013E13F
:1007BF00D5C3E8947FE994005002E1D5787F7900A2
:1007CF00E1D5788079FFE820E715C3E52398F84055
:1007DF0009C3E8940140030207FC78010207FCE813
:1007EF00F424012523F840030207FC78FF884B22ED
:1007FF0078A6E6FAA847A9481206B0E930E70CC375
:10080F00E89401E994FF4016020831C3E894FFE928
:10081F009400500302083178FF7900020831780103
:10082F0079FFE920E715C3E54B98F84009C3E89431
:10083F000140030208587801020858E8F424012502
:10084F004BF8400302085878FF88242278FF20696C
:10085F002879A1E76023E541601F74FF8541F0848B
:0F086F008539F0306A0375F005A4F8C5F0600212
:10087E0078FFC3E895645002A864886322C3E540FC
:10088E0094C8E5419400E563500314019C04600292
:10089E00F563220208A42275E890227883E6FF30E1
:1008AE00EDF9A8BDA9BE0570C3E570940840527558
:1008BE007000E9FA79A0E76044EA7007E571601B01
:1008CE000208DDC3E895716010E5715006600C14E6
:1008DE000208E90460F90208E9E571F571C3947242
:1008EE00401B7561C0C394044013756180C39404AA
:1008FE00400B756140C39404400375610075BB0ED7
:10090E0022E561F460020561E570B4070375BB1062
:10091E0022743279A787F0A4C5F0A2F733F8C3E8A2
:10092E0095614002A86188228824882588268864DB
:10093E00227540007541F022C2AF75C820A8CCA91F
:10094E00CDAA3A30CF010A75C824D2AFC3EA13FA42
:10095E00E913F9E813F8AB3BAC3C883B893CC3E8A0
:10096E009BF8E99C20690A547FF9306602416521A3
:10097E00BFAD3D8A3DF9EA9D547FFA600678FF7956
:10098E00FF21A4AE3EAF3F8B3E8C3FA83BA93CC39C
:10099E00E89EF8E99FF9C3E54113FBE54013FAE839
:1009AE002AF540E93BF54150067540FF7541FF4180
:1009BE000CAA40AB41AC40AD417E047F02C3EB9428
:1009CE0004400D1E1FC3EB94084005206A021E1F33
:1009DE00C3ED13FDEC13FCDEF7C3EA9CFAEB9DFBB3
:1009EE00EF6009C3E913F9E813F8DFF7EA28FAEB29
:1009FE0039FB8A408B4150067BFF8B408B41C3EB0A
:100A0E0094025002D2663069047F0341377892E631
:100A1E00FFC3E537948240110FC3E53794A0400120
:100A2E000FC3EF940640027F057E02E541C4540FCA
:100A3E00F9E541C454F0F8E540C4540F28F8C3E872
:100A4E009EFAE99400FB4009C3EA9402EB9400502D
:100A5E00047A02E4FB41B1AA40AB41EBC4FEEAC406
:100A6E00540F4EFCC3EA9CFAEB9400FBC3E813C38D
:100A7E0013F8EA28FAEB3400FB8A408B41C3EB945F
:100A8E00024002C2667802EBC4FE7B00EAC4540F39
:100A9E004EFAC3EA98FA4005C3940250027A0278DD
:100AAE0092E6FF30600241B1855192855293D26039
:100ABE0043E680C3E49AF8E49BF9C3E833F8E933DC
:100ACE00F93066026144E8FAE9FBD3E913FDE81355
:100ADE00FC88518952C3EF94036038EF20E00DE893
:100AEE002CF8E93DF9ECFAEDFB020B0DE828F8E9DC
:100AFE0039F9C3E82402F8E93400F97AFE7BFFC322
:100B0E00EF9403400E8A538B54884D894E8C4F8D33
:100B1E00506178885389548A4D8B4E8C4F8D50304E
:100B2E0069127553F07554FF754FF07550FF75517E
:100B3E00F07552FF6178E8FAD3E813FC8851C3EFE1
:100B4E0094036020EF20E007E82CF8ECFA6164E8EB
:100B5E00282402F87AFEC3EF940340088A53884D86
:100B6E008C4F617888538A4D8C4FE568C3335002A1
:100B7E00646BF5683060026182753402D26043E6C0
:100B8E0080E52D5406602DA840A941C3E913F9E86C
:100B9E0013F8306904E92440F9C2AF53E67F75912A
:100BAE0000C3E498F594E499F595759104D26043E9
:100BBE00E680D2AF22D264754300752000306C03FC
:100BCE00752040020BE2D264754300752040306CF4
:100BDE000375200078017901206620E52D5406600A
:100BEE0002C2647914E541C313700104F8C394146E
:100BFE0040027814306904781B791BC3E833F8C3BC
:100C0E00E933F9206010E543600C306903D53404F4
:100C1E00D26D8198718A0543E59B5440B5200281BF
:100C2E008230690908C3E899400118811120640ACD
:100C3E0008C3E899400261E28111C264C2AF53E673
:100C4E007F7591003066127594007595F07591045C
:100C5E00D26043E680D2AF61E2E5417EFFC333400E
:0D0C6E0009C3334005C3334001FEC3E49EBB
:100C7B00759400F595815BC3E5339401500261E2F5
:100C8B0030640261E2D80281968111C26DC2AF530A
:100C9B00E67F759100855394855495759104854D28
:100CAB0092854E93D26043E680D2AFE52D54066019
:100CBB0008206A020533020CD4306D0D206C0A201B
:100CCB006407158115810215F522780030640278CE
:100CDB0001E53775F007A4F9E5F028F5F0E9A2F086
:100CEB0013A2F113A2F213F537C39478500375379F
:100CFB0078C3E53795384007D265E57BF4529030E1
:100D0B006002A10A854F92855093D26043E6802200
:100D1B00207D1AC2AF754202C291C295D292306247
:100D2B0004D293D290D2AF759F11020F59C2AF75F7
:100D3B004202C291C293D290306204D295D292D227
:100D4B00AF759F11020F5930724B207D24C2AF75C6
:100D5B004203900166757B02C290C290306206D24C
:100D6B0094D291A174C294D291D2AF759F01020F0C
:100D7B0059C2AF754203900166757B02C292C29253
:100D8B00306206D294D291A198C294D291D2AF750F
:100D9B009F21020F59207D1CC2AF75420390014267
:100DAB00757B02C290306204D294D291D2AF759F00
:100DBB0001020F59C2AF754203900142757B02C20B
:100DCB0092306204D294D291D2AF759F21020F5907
:100DDB00207D1AC2AF754204C292C293D290306288
:100DEB0004D294D291D2AF759F21020F59C2AF7525
:100DFB004204C290C295D292306204D294D291D264
:100E0B00AF759F01020F5930724B207D24C2AF7515
:100E1B00420590015A757B04C291C291306206D291
:100E2B0095D292C134C295D292D2AF759F11020F57
:100E3B0059C2AF754205900172757B01C291C29187
:100E4B00306206D293D290C158C293D290D2AF7572
:100E5B009F11020F59207D1CC2AF754205900136C0
:100E6B00757B04C291306204D295D292D2AF759F3A
:100E7B0011020F59C2AF75420590014E757B01C22D
:100E8B00913062E8D293D290D2AF759F11020F5975
:100E9B00207D1AC2AF754206C290C294D2913062C5
:100EAB0004D295D292D2AF759F01020F59C2AF7582
:100EBB004206C292C294D291306204D293D290D2A3
:100ECB00AF759F21020F5930724C207D24C2AF7534
:100EDB004201900172757B01C292C292306206D2BE
:100EEB0093D290C1F4C293D290D2AF759F21020FCF
:100EFB0059C2AF75420190015A757B04C290C290E2
:100F0B00306207D295D292020F19C295D292D2AF0C
:100F1B00759F01020F59207D1CC2AF7542019001D4
:100F2B004E757B01C292306204D293D290D2AF75D0
:100F3B009F21020F59C2AF754201900136757B0498
:100F4B00C290306204D295D292D2AF759F01C26526
:100F5B0022900134757B00C292C291C290C292C2A0
:100F6B0091C290C26222788076FF0876FF0876FFE6
:100F7B000876FF08760308760408760A08760308D5
:100F8B007601087601788C76010876FF0876FF08E3
:100F9B0076FF0876FF0876FF0876030876FF08765B
:100FAB00FF0876FF0876250876D00876FA0876FAD9
:100FBB000876040876FF08760108760008767A082A
:100FCB0076FF087601087601087600087603087626
:100FDB0000227887E6FFC272BF0302D2727888E6DE
:100FEB00C394036008C27DE630E102D27DC27E78F5
:100FFB0089E630E102D27EC3EF94026008758E0160
:10100B00D273021015758E00C273227880E614908D
:10101B0000809378A5F67881E6149000809378A6EB
:10102B00F67886E61490008D9378A7F67886E6F529
:10103B0039C394025003753902789CE67538FFB4B6
:10104B0002037538A0B4030375388278A3E61490B5
:10105B00009A93F566120F5C22227896E6FA78973F
:0D106B00E6FB7888E6B40305C3EB940EFBAA
:10107800307F047A007BFFC3EB9AFCC39482500252
:101088007C827572000572EC8572F0A4C3E5F09459
:101098007D40F222D27F11651205EF1205EF7A002A
:1010A8007B007C101205E5E55C2AFA74003BFBDC4A
:1010B800F37C04C3EB13FBEA13FADCF7FEC27F11DF
:1010C8006522757C00757D00E5EF20E6037520003C
:1010D8000520903FFFE520146006901FFF14600074
:1010E8009304600375EF1653D9BF7581C043FF8021
:1010F8001205E075EF0643B203E5B3240220E70DBD
:10110800F521E5E320E0068521B343E301120F5CF6
:101118007580FF75A40075F19175D47F7590007581
:10112800A53F75F23F75D50075A60175E241120F0E
:101138005CE4F8F6D8FD756801120F71121655783F
:10114800988673753001C2AF1205F91206091205A7
:10115800EF1206101205EF1206171205EF12177E8E
:101168001205F91205F91205F4C2AF757C00757DF8
:101178000078FA79FA308707D9FBD8F7021C0012F1
:101188000FDD11161164116578988673120F5C755E
:10119800A90075B680757A0075881075890275C8BA
:1011A8002475910475D84075A82275B80275E69023
:1011B800759B80759D0075D10E75BCC075BB0E758D
:1011C800BA1175E8801205E0D2AF1208A175360091
:1011D80053DACF207E0343DA20307E0343DA10430C
:1011E800DA01C2D8C2711205F9D2617B037A0CE523
:1011F8005B70077A0CDB030211711205EF20700394
:10120800021171C270E55CC3940240E1E52F541FDE
:10121800855E5DF55EB55DD5DAD5C26153DACF205E
:101228007E0343DA20307E0343DA10C2D8C27178D5
:10123800A2E67008D274E52F54E0F52FC27575291F
:10124800001205F4307409C3E529940A4002D275E6
:101258001205E578023074027800C3E55C9840F026
:10126800C2AF120609120609120609D2AF1205F911
:10127800754C007888E6B4030261701205E5788C35
:10128800E6C394015003021370E530C39401500380
:10129800021370757CA5757DF1207435C3E55C94E7
:1012A800FF5003021370C2AF12061ED2AF1205F42C
:1012B800C3E55C940150EFC2AF1206091205EA12A9
:1012C8000609D2AF1205F4C3E55C94FF40E90218A1
:1012D800037F05D27F11651205F4C2AFC27F116585
:1012E800AE5CC3E55C947FD2AF500261801205E02A
:1012F800C2AF12061ED2AFDFDA119CC3EE94057896
:1013080097F61205F91217867F0AD27F1165120522
:10131800F4C2AFC27F1165AE5CC3E55C947FD2AF07
:1013280050E61205E0C2AF1206091205EA120609D4
:10133800D2AFDFD6119CEE24037896F6F87997E7BA
:10134800C394824003985006E824827897F61205E1
:10135800F91216A31217B51205F41165C3E55C94CA
:10136800FF5002419B021803757C00757D00C3E5A0
:101378005C954C4003855C4C1205F478017988E74C
:10138800B403027805C3E55C984002417BC2AF1202
:10139800061E12061E12061ED2AF1205F97530007F
:1013A800E4F531F5320531E531F4703F0532789ACC
:1013B800E67819146012783214600D787D1460088C
:1013C80078FA146003753200C3E53298401D120F95
:1013D8005C1205E0153275310078998673C2AF1238
:1013E800061ED2AF789886731205F41205EAE52A2C
:1013F8007005307402217178012074027806C3E503
:101408005C9840A17888E6C3940360031205F4E56C
:101418002A7003021171C2AF120F5CE4F522F523A2
:10142800F524F525F526F567D2AF7885E6C333F5BB
:1014380065E4F544F545F546F547F548F570F52CAE
:10144800F52DF53775700875BB101205E01208A563
:1014580030EDFDA8BDA9BEE97001F888711208A990
:0E14680075700875BB10120FDDC2AF7561FF05
:1014760012091F852261852262852263D2AF7522F9
:1014860001752401752501752601856069756A0156
:1014960075B69075A903757A017888E6B40307C214
:1014A6007D307602D27DD268D269753300120E9BEA
:1014B600120ED212093F12094612093F12094612AC
:1014C600093F120BD4120707120CD5120D1B120975
:1014D60046120BC3306E0312070820660312085B20
:1014E60030660312088B120CD5120D5212094612E1
:1014F6000BD4306E03120744120CD5120DDB120901
:1015060046120BC3306E031207A2120CD5120E122E
:10151600120946120BD4306E031207FF120CD512B5
:101526000E9B1209461208A5120BC3120CD5120EF9
:10153600D21208A912094630692F85646185646252
:10154600856069756A0179187A0CC3E53399400C90
:10155600C269D26A8A357561FF02156FC3E55C946C
:101566000140030214C80215FD306A25206C22E5ED
:1015760035147006C26AD26B81C8F535C3E55C9432
:101586000140030214C87888E6C394036003021579
:10159600FD753600788279A4E760027803C3E55FBB
:1015A600985054307404E52A604D7888E6B40317E1
:1015B600207D05207607A1CD307602A1CD206C07CF
:1015C600D26C856461A10778F0306C05856461781A
:1015D60020C3E54198500281C8306C1BC26CC27DA5
:1015E600307602D27DD26A75351285646181C8056E
:1015F60036E55C6002C100753600C2AF120F5C783A
:1016060087E6FE7602120FDD7887EEF6E4F522F520
:1016160023F524F525F526F565752C00752D007541
:10162600A90075B680757A00D2AF1205F4120F5C68
:1016360078A4E6600CC295D292C294D291C293D29B
:1016460090307409C3E53694044002217161A89074
:101656001A0D78201216E5E520B45A0CA31216E5E9
:10166600E520B4A503021683757CA5757DF1120FDE
:10167600711216A3757C00757D000216A2901A03DE
:1016860078807B0A1216E5A308DBF9901A0F788C8E
:101696007B191216E5A308DBF9901A2822C2AF12AD
:1016A6001728121705901A00740E1216EAA3740969
:1016B6001216EAA374151216EA901A0378807B0AAA
:1016C6001216E9A308DBF9901A0F788C7B1912160B
:1016D600E9A308DBF912173B121719901A2822E41E
:1016E60093F622E6438F01538FFDFFC3E583941CD7
:1016F600400122EF857CB7857DB7F0538FFE2243EC
:101706008F02438F01857CB7857DB7901A0DF05304
:101716008FFC22901A0D745AD1EA901A0E74A5D134
:10172600EA227A3079D07820901A40D1E5E520F780
:1017360009A3DAF7227A3079D0901A40E7D1EA097C
:10174600A3DAF922AB74A875BB01027984BB020245
:101756007985BB03027986BB04027992BB050279BF
:1017660087BB060279A3BB0702799CBB080279886E
:10177600BB09027989E8F7227C051205F9DCFB2210
:10178600C2AF12060912061012061712061E12051D
:10179600EA12060912061012061712061E1205EAAA
:1017A60012060912061012061712061ED2AF22C220
:1017B600AF12061E1206171206101206091205EAC5
:1017C60012061E1206171206101206091205EA1252
:1017D600061E120617120610120609D2AF22AE74A2
:1017E600AF75C2AF1206091206091206091205EAFA
:1017F600DEF212061E1205EADFF8D2AF22121786B3
:1018060012177E12177E75740175750175760012B2
:1018160017E47C05AD5C1205F9C3ED955C70F5C364
:10182600E55C9401400AC3E55C94FF403702184723
:1018360012174A1216A3121786C2AF75EF161217A1
:101846007EDCD10576C3E5769403500280C112177B
:101856007E0575E5741490009F93F808C3E57598A6
:0F186600500280A812177E12177E0574C3E57416
:10187500940A50028094120F711216A3C2AF75EF2D
:041885001612177EA2
:0319FD000210CA0B
:101A00000E0915FFFFFFFF03040A0301015AA50198
:101A1000FFFFFFFFFF03FFFFFF25D0FAFA04FF01DE
:091A2000007AFF0101000300FF40
:101A400023454D41585F4C746E675F32304123200F
:101A500023424C48454C492346333930232020202B
:101A60002020202020202020202020202020202076
:101C0000C2AFC2D353D9BF7581C043B20343FF8073
:101C1000752438752503B1DC7529A5752AF175E29F
:101C20004043F18053A47F75D4FFD2877DFA7803B7
:101C300079E67C10752200752300901DE97B0675FE
:101C400024987525013087028145208708D8FBD963
:101C5000F9DCF781B7308708D8FBD9F9DCF781B711
:101C6000B19CE493A3C39A6004DDC381B7DBDBB10D
:101C70008E6002812E7B08E493FAA3B16FDBF87AC1
:101C800030B16F752200752300B18EEAFCEBFDC305
:101C9000ED94FE400EB18E8A278B28ED30E0048A49
:101CA000828B83B18E7AC270D8C3ED94FE601950D6
:101CB000CEBD002BEC600F7520007521FF7529004B
:101CC000752A000200008100A827A9280809D80465
:101CD000D90281DCB192EA89AAF281CE0D81A3C337
:101CE000ED94035053EDA2E092007AC5C3E58294CF
:101CF00000E583941C508A200010438F02438F011B
:101D00008529B7852AB7F0300029A827A92808090E
:101D1000438F01538FFDD804D902A133C3E58394C7
:101D20001C4003A3A11689AAE28529B7852AB7F02A
:101D3000A3A116538FFC817F7AC1BD030CE493A34A
:101D4000FAB153DCF8B14B817F8181AA22AB23B178
:101D50006FEBFAEA6222752608C3E52313F523E543
:101D60002213F52250066323A0632201D526EAB18F
:101D7000DCB1DC75260AEAF4200102D287300102C8
:101D8000C287B1DCC3134002C201D526EB22B19257
:101D9000EAFB208702A192308702A197752608AE40
:101DA00024AF25C3EF13FFEE13FEB1E0B1DCC3EAAD
:101DB000133087024480FA30E703632201C3E5232E
:101DC00013F523E52213F52250066323A0632201B5
:101DD000D526D9E52265236523F52222AE24AF2539
:101DE0000E0FDEFEDFFCD20122424C48656C6934E6
:071DF000373164F390060196
:00000001FF
