:030000000219FDE5
:03000B000200AA46
:03002B0002015C73
:03005B000202F6A8
:030073000202E3A3
:1000800002030406080C10182030406080040608A3
:100090000C10182030406080A0C00003070F1F0D17
:1000A0000D04050D050305030302C2AFC0D0C0E077
:1000B000206214E5256009E473E525F4F58AD2622F
:1000C000D0E0D0D0D2AF3285268AC262E526F46075
:1000D0002F30682520720DD0E0D0D0D292D291D2AC
:1000E00090D2AF32D292D291D290206F0C2065097B
:1000F000740AD5E0FDE57B4290D0E0D0D0D2AF329B
:10010000758A00C28DD26201F901B9306805206597
:1001100002C29201B9306805206502C29101B9306E
:100120006805206502C29001B9C29530680A206551
:10013000077408D5E0FDC29201B9C29430680A2064
:1001400065077408D5E0FDC29101B9C29330680A11
:100150002065077408D5E0FDC29001B9C2AFC2ADF9
:1001600053E6EFC0D0C0E0D2D3D2AFC2CEE52A6012
:100170000720744F152A21C37800790020742EE5DA
:1001800080307E01F430E70278FF53DACF207E031F
:1001900043DA20307E0343DA10C2D8C271E58030E2
:1001A0007E01F430E70279FFC3E89970CB30610338
:1001B000752A18207403752A18885CD270E86003C9
:1001C000755F0020740DE52B6004152B21D343DAF5
:1001D00001C2D82070024142A85C206102C2702096
:1001E00074367982B70431C3E894F0400374F0F8B0
:1001F000E8C4540F28F87984B703024118C313C325
:10020000138721200802C313200A06C3C898F841A7
:100210001828F8500374FFF88822E52D5406602250
:10022000206B1FE536C333C333F8E564C313C31330
:10023000F9C3952240028922E82522F52250037550
:1002400022FF7882B60459852224A824C3E5249588
:10025000614002A861C3E895634002A8638825E570
:100260006670024193C3E8AA669A5003E8FAE4F97B
:10027000EAC333FBE568F45B29400D2567F8E567C1
:1002800060021567400B41930AC3E5679A50020567
:100290006778FF8826C26FC3E52694F84002D26FC4
:1002A00020CF0AD0E0D0D043E610D2AD32C2CF0585
:1002B0003A7801E52A6005307402152AC3E55C949A
:1002C000014005755F0041D9756000756900E55F03
:1002D0002401F55F5003755FFFD0E0D0D043E610F6
:1002E000D2AD32C2AF53E67F7592FA7593FFC2600A
:1002F000759104D2AF32C2AF53E6EFC2ADC0D0C0E9
:10030000E0C0F0D2D3D2AFA8FBA9FCC2D8307102B2
:10031000615D53DACF207E0343DA10307E0343DA87
:1003200020D271E580307E01F420E7026134882715
:100330008928A18A53DACF207E0343DA20307E0356
:1003400043DA10C2D8C271307402A1767800E58019
:10035000307E01F430E702A176885CA15E53DACFEB
:10036000207E0343DA20307E0343DA10C27120611D
:1003700002813653DACF207E0343DA10307E034306
:10038000DA20C2D8D27188578958C3E89555F8E960
:100390009556F97B007E087A00C3E8948CE99400B6
:1003A0005005755B008128882178A2E6A821605558
:1003B000C3E894C8E994005008E4D2E4FB7A0A81C7
:1003C00003C3E89468E994015008E4D2E3FB7A0F90
:1003D0008103C3E894D0E994025008E4D2E2FB7AA6
:1003E0001E8103C3E894A0E994055008E4D2E1FB20
:1003F0007A3C8103C3E89498E994085008E4D2E079
:10040000FB7A787E00C3E89559FCE9955AFD30E700
:100410000AECF42401FCEDF43400FD755B00C3EC40
:100420009AED9E5003755B018859895A8557558509
:1004300058567802A15EC3E89527F8E99528F93067
:100440007C02A142307B02A142307A02A13B20759E
:10045000028159E9FDE8FC8178E9C313F9E813F852
:10046000307902A13BE9C313F9E813F8307802A10F
:0F0470003BE9C313FDE813FC20612CC3EC941C83
:10047F00ED94024002818FED701EC3EC94C85018AA
:10048F000529E52970021529C3E529940A5002A10F
:10049F0076755C00D270A176E529600215297888FF
:1004AF00E6F97400207F087896B90302789EE62457
:1004BF00FAFEE43400FFC3EC9EFCED9FFD9208B9F9
:1004CF000310A2085007207609D27681E130760218
:1004DF00C276A2085016B9030DECF42401FCEDF41A
:1004EF003400FD0204FB78007900A142B90315EC3A
:1004FF0033FCED33FDC3EC940AFCED9400FD500486
:10050F007C007D00C3EC94FFED9400400678FF79EA
:10051F0000A142EC8572F0A4C5F0A2F733F8790080
:10052F00400302055E78FF790002055EE9C313F907
:10053F00E813F8307C0EE9600278FFC3E81338F84F
:10054F00E43400F9C3E894FFE99400400278FF888F
:10055F005CD270206102A176741FF4552F4BF52FDA
:10056F00C274EB7002D274752A18307403752A0A9C
:10057F00306102A18A20740353DAFE207403752BB5
:10058F0006D0F0D0E0D0D0D2AD43E61032790102E0
:10059F0005BA79030205BA790A0205BA791E02056E
:1005AF00BA79640205BA79C80205BA7817E4D5E0BA
:1005BF00FDD8FAD9F6227A147B780205E17A107BFE
:1005CF008C0205E17A0D7BB40205E17A0B7BC80240
:1005DF0005E1E573D5E001227902E4C294D5E0FD8F
:1005EF00C291D5E0FDD291D5E0FDD294D5E0FDE9E1
:1005FF0020E002C29230E002C290E573D5E0FDE93F
:10060F0020E002D29230E002D2907496D5E0FDD96C
:10061F00C9EAF8D5E0FDD8FBDBB8C29422C37C0051
:10062F007D0075F00005F0EA33FAEB33FB50F6EB83
:10063F0013FBEA13FAC3E9FFE8FEE89AF8E99BF91E
:10064F005004EFF9EEF8B3EC33FCED33FDD5F0DFEA
:10065F00EDF9ECF822E889F08A20D2D4F8A9F07BE2
:10066F000030F70B7BFFF42401F8E9F43400F9E8CC
:10067F008520F0A4ADF0F8E98520F0A4AFF0FEEDF1
:10068F002EF974003FFA7C04C3EA13FAE913F9E870
:10069F0013F8DCF48BF030F70AE8F42401F8E9F4EE
:1006AF003400F9E889F0C2D4F8A9F0227882B604B0
:1006BF0003020716C3E55C940140030206E085229E
:1006CF0024E4F544F545F546F547F548C26E0207B3
:1006DF00167882E6FCD26EE522F523783879C7AA20
:1006EF0040AB41C3EB13FBEA13FAEC146013C3EBFB
:1006FF0013FBEA13FAEC14146007C3EB13FBEA13B2
:10070F00FAD12C8844894522C3E5449523F8E54561
:10071F009400F9500CC3E89480E994FF4016020747
:10072F0047C3E8947FE994005003020747787F7925
:10073F0000020747788079FF8849894A22E54925D1
:10074F0046F8E54A3547F9854A20E4300701F43584
:10075F0048FA30E709C3EA94F04015020785C3EA67
:10076F00940F500302078578FF79FF7A0F020785F0
:10077F00780079007AF0C3E5249561500AC37401BB
:10078F009524500B0207A3E54A20E70E0207A3E5C5
:10079F004A30E706884689478A482278A5E6FAC391
:1007AF00E54933F8E54A33F9D164E930E70BC3E89B
:1007BF009480E994FF4013E1DDC3E8947FE994004E
:1007CF005002E1DD787F7900E1DD788079FFE82064
:1007DF00E715C3E52398F84009C3E89401400302E5
:1007EF0008047801020804E8F424012523F84003E3
:1007FF0002080478FF884B2278A6E6FAA847A94892
:10080F00120664E930E70CC3E89401E994FF40163F
:10081F00020839C3E894FFE99400500302083978BD
:10082F00FF7900020839780179FFE920E715C3E560
:10083F004B98F84009C3E89401400302086078011F
:10084F00020860E8F42401254BF8400302086078A1
:10085F00FF88242278FF20692879A1E76023E541EA
:0E086F00601F74FF8541F0848539F0306A0304
:10087D0075F005A4F8C5F0600278FFC3E8956450E3
:10088D0002A864886322C3E5409440E5419401E5E4
:10089D006350031401A4046002F563220208AC2224
:1008AD0075E890227883E6FF30EDF9A8BDA9BE0565
:1008BD0070C3E57094084052757000E9FA79A0E7AD
:1008CD006044EA7007E571601B0208E5C3E89571A5
:1008DD006010E5715006600C140208F10460F90215
:1008ED0008F1E571F571C3946D401B7561C0C3943A
:1008FD00044013756180C39404400B756140C3942B
:10090D0004400375610075BB0622E5612410500299
:10091D0074FFF5617982B70402213EC3A861E52415
:10092D00985002A824C3E895634002A863882588DF
:10093D0026E570B4070375BB1022743279A787F0D2
:10094D00A4C5F0A2F733F8C3E895614002A8618809
:10095D00228824882588268864227540007541F0F8
:10096D0022C2AF75C820A8CCA9CDAA3A30CF010AB2
:10097D0075C824D2AFAB3BAC3C883B893CC3E89BEC
:10098D00F8E99C206908F9306602417F21D9AD3D17
:10099D008A3DF9EA9DFA600678FF79FF21BEAE3EE9
:1009AD00AF3F8B3E8C3FA83BA93CC3E89EF8E99F27
:1009BD00F9C3E54113FBE54013FAE82AF540E93B9D
:1009CD00F54150067540FF7541FF4126AA40AB41E8
:1009DD00AC40AD417E047F02C3EB9404400D1E1F5D
:1009ED00C3EB94084005206A021E1FC3ED13FDECF6
:1009FD0013FCDEF7C3EA9CFAEB9DFBEF6009C3E93C
:100A0D0013F9E813F8DFF7EA28FAEB39FB8A408B84
:100A1D004150067BFF8B408B41C3EB94025002D2B9
:100A2D00663069047F0341517892E6FFC3E5379440
:100A3D008240110FC3E53794A040010FC3EF940618
:100A4D0040027F057E02E541C4540FF9E541C454CF
:100A5D00F0F8E540C4540F28F8C3E89EFAE9940075
:100A6D00FB4009C3EA9402EB940050047A02E4FBC4
:100A7D0041CBAA40AB41EBC4FEEAC4540F4EFCC3BC
:100A8D00EA9CFAEB9400FBC3E813C313F8EA28FAC7
:100A9D00EB3400FB8A408B41C3EB94024002C266EB
:100AAD007802EBC4FE7B00EAC4540F4EFAC3EA98F9
:100ABD00FA4005C3940250027A027892E6FF306044
:100ACD000241CB855192855293D26043E680C3E4B7
:100ADD009AF8E49BF93066026157E8FAE9FBD3E92D
:100AED0013FDE813FC88518952C3EF94036038EF6E
:100AFD0020E00DE82CF8E93DF9ECFAEDFB020B20B6
:100B0D00E828F8E939F9C3E82402F8E93400F97A5C
:100B1D00FE7BFFC3EF9403400E8A538B54884D899F
:100B2D004E8C4F8D50618B885389548A4D8B4E8CD2
:100B3D004F8D503069127553F07554FF754FF07528
:100B4D0050FF7551F07552FF618BE8FAD3E813FC35
:100B5D008851C3EF94036020EF20E007E82CF8ECF8
:100B6D00FA6177E8282402F87AFEC3EF940340086F
:100B7D008A53884D8C4F618B88538A4D8C4FE56815
:100B8D00C3335002646BF5683060026195753402B1
:100B9D00D26043E680E52D54066034A840A941C3D8
:100BAD00E913F9E813F8C3E913F9E813F830690408
:100BBD00E92440F9C2AF53E67F759100C3E498F57F
:100BCD0094E499F595759104D26043E680D2AF22F5
:100BDD00D264754300752000306C03752040020B04
:100BED00FCD264754300752040306C03752000788D
:100BFD00017901206620E52D54066002C264791446
:100C0D00E541C313700104F8C39414400278143005
:100C1D006904781B791B206010E543600C30690373
:100C2D00D53404D26D81A7719D0543E59BF45440E5
:100C3D00B52002819130690908C3E89940011881F6
:100C4D002320640A08C3E899400261FC8123C26431
:100C5D00C2AF53E67F75910030661275940075959D
:0F0C6D00F8759104D26043E680D2AF61FCE54197
:100C7C007EFFC3334005C3334001FEC3E49E75942D
:100C8C0000F595816EC3E5339401500261FC30642C
:100C9C000261FCD80281A58123C26DC2AF53E67FED
:100CAC00759100855394855495759104854D928565
:100CBC004E93D26043E680D2AFE52D5406600820F7
:100CCC006A020533020CE3306D0D206C0A206407B8
:100CDC001581158102159B2278003064027801E59C
:100CEC003775F007A4F9E5F028F5F0E9A2F013A2A6
:100CFC00F113A2F213F537C394785003753778C308
:100D0C00E53795384008D265D292D291D2903060B6
:100D1C0002A11A854F92855093D26043E68022201F
:100D2C007D16C2AF754202C294D295306202C29057
:100D3C00D2AF759F11020F1BC2AF754202C294D283
:100D4C0093306202C292D2AF759F11020F1B3072A8
:100D5C0043207D20C2AF75420390013A757B10D2BF
:100D6C0090C293306204C291A178D294D2AF759F95
:100D7C0001020F1BC2AF75420390013A757B10D272
:100D8C0092C295306204C291A198D294D2AF759F51
:100D9C0021020F1B207D17C2AF754203900115D2A3
:100DAC0090306202C291D2AF759F01020F1BC2AF8D
:100DBC00754203900115D292306202C291D2AF7586
:100DCC009F21020F1B207D16C2AF754204C295D223
:100DDC0093306202C291D2AF759F21020F1BC2AF3A
:100DEC00754204C293D295306202C291D2AF759F04
:100DFC0001020F1B307243207D20C2AF754205905B
:100E0C000129757B20D291C294306204C292C11E1A
:100E1C00D295D2AF759F11020F1BC2AF75420590D0
:100E2C00014B757B08D291C294306204C290C13ED2
:100E3C00D293D2AF759F11020F1B207D17C2AF75D5
:100E4C00420590010BD291306202C292D2AF759FD3
:100E5C0011020F1BC2AF75420590011FD291306277
:100E6C00EBC290D2AF759F11020F1B207D16C2AF43
:100E7C00754206C293D294306202C292D2AF759F71
:100E8C0001020F1BC2AF754206C295D294306202AA
:100E9C00C290D2AF759F21020F1B307244207D206F
:100EAC00C2AF75420190014B757B08D292C295304E
:100EBC006204C290C1C4D293D2AF759F21020F1BA2
:100ECC00C2AF754201900129757B20D290C293303C
:100EDC006205C292020EE5D295D2AF759F01020F48
:100EEC001B207D17C2AF75420190011FD292306258
:100EFC0002C290D2AF759F21020F1BC2AF75420187
:100F0C0090010BD290306202C292D2AF759F01C297
:100F1C006522900109757B00D292D291D290C29534
:100F2C00C294C293C2622278807609087609087648
:100F3C00040876FF0876030876FF08760A0876031D
:100F4C00087601087601788C76010876FF0876FF22
:100F5C000876FF0876FF0876FF0876030876FF0808
:100F6C0076FF0876FF0876250876D008762808766E
:100F7C00500876040876FF08760208760008767A20
:100F8C000876FF08760108760108760008760308D3
:100F9C007600227887E6FFC272BF0302D27278888D
:100FAC00E6C394036008C27DE630E102D27DC27EC6
:100FBC007889E630E102D27EC3EF94026008758E28
:100FCC0001D273020FD7758E00C273227880E6149B
:100FDC009000809378A5F67881E614900080937841
:100FEC00A6F67886E61490008D9378A7F67886E6B8
:100FFC00F539C394025003753902789CE67538FFB5
:10100C00B402037538A0B4030375388278A3E614D0
:10101C0090009A93F566120F1E22227896E6FA78C3
:10102C0097E6FB7888E6B40305C3EB940EFB307FA0
:10103C00047A007BFFC3EB9AFCC3948250027C823F
:10104C007572000572EC8572F0A4C3E5F0947D40D6
:10105C00F222D27F11271205AB1205AB7A007B006E
:0F106C007C101205A1E55C2AFA74003BFBDCF353
:10107B007C04C3EB13FBEA13FADCF7FEC27F1127E8
:10108B0022757C00757D00E5EF20E60375200005D9
:10109B0020903FFFE520146006901DFF1460009325
:1010AB0004600375EF1653D9BF7581C043FF8012DF
:1010BB00059C75EF0643B203E5B3240220E70DF55B
:1010CB0021E5E320E0068521B343E301120F1E75F2
:1010DB0080FF75A40075F19075D47F75900775A589
:1010EB003F75F23F75D50075A60175E241120F1ED3
:1010FB00E4F8F6D8FD756801120F331215EC7898E9
:10110B008673753001C2AF1205B51205C51205AB5A
:10111B001205CC1205AB1205D31205ABC2AF757C11
:10112B0000757D0078FA79FA308707D9FBD8F7027A
:10113B001C00120F9F120FD8112611277898867357
:10114B00120F1E75881075890275C8247591047568
:10115B00D84075A82275B80275E690759B80759D71
:10116B000075D10E75BC5875BB0675BA1175E88044
:10117B0012059CD2AF1208A975360053DACF207E28
:10118B000343DA20307E0343DA1043DA01C2D8C2BC
:10119B00711205B5D2617B037A0CE55B70077A0C93
:1011AB00DB030211271205AB207003021127C2705B
:1011BB00E55CC3940240E1E52F541F855E5DF55E4F
:1011CB00B55DD5DAD5C26153DACF207E0343DA2081
:1011DB00307E0343DA10C2D8C27178A2E67008D20F
:1011EB0074E52F54E0F52FC2757529001205B03048
:1011FB007409C3E529940A4002D2751205A178023D
:10120B003074027800C3E55C9840F0C2AF1205C59C
:10121B001205C51205C5D2AF1205B5754C007888FD
:10122B00E6B40302611C1205A1788CE6C39401504D
:10123B000302131CE530C39401500302131C757C8D
:10124B00A5757DF1207435C3E55C94FF5003021343
:10125B001CC2AF1205DAD2AF1205B0C3E55C940124
:10126B0050EFC2AF1205C51205A61205C5D2AF12BB
:10127B0005B0C3E55C94FF40E90217A47F02D27F5F
:10128B0011271205B0C2AFC27F1127AE5CC3E55C5C
:10129B00947FD2AF5002612C12059CC2AF1205DABB
:1012AB00D2AFDFDA115EC3EE7897F61205B51217DF
:1012BB00277F0AD27F11271205B0C2AFC27F112739
:1012CB00AE5CC3E55C947FD2AF50E612059CC2AF17
:1012DB001205C51205A61205C5D2AFDFD6115EEEFB
:1012EB0024037896F6F87997E7C3948240039850D5
:1012FB0006E824827897F61205B512163A1217569D
:10130B001205B01127C3E55C94FF50024149021747
:10131B00A4757C00757D00C3E55C954C4003855C32
:10132B004C1205B078017988E7B403027805C3E560
:10133B005C9840024129C2AF1205DA1205DA120598
:10134B00DAD2AF1205B5753000E4F531F53205315F
:10135B00E531F4703F0532789AE67819146012780B
:10136B003214600D787D14600878FA1460037532BE
:10137B0000C3E53298401D120F1E12059C153275E5
:10138B00310078998673C2AF1205DAD2AF7898869E
:10139B00731205B01205A6E52A70053074022127D9
:1013AB0078012074027806C3E55C9840A17888E642
:1013BB00C3940360031205B0E52A7003021127C220
:1013CB00AF120F1EE4F522F523F524F525F526F5CE
:1013DB0067D2AF7885E6C333F565E4F544F545F59B
:1013EB0046F547F548F570F52CF52DF53775700872
:1013FB0075BB1012059C1208AD30EDFDA8BDA9BE42
:10140B00E97001F888711208B175700875BB10127C
:10141B000F9FC2AF7561FF1209478522618522625A
:10142B00852263D2AF7522017524017525017526BE
:10143B0001856069756A017888E6B40307C27D305F
:10144B007602D27DD268D269753300120E77120EF6
:10145B00A612096712096E12096712096E12096743
:0F146B00120BEE1206BB120CE4120D2B12096EBF
:10147A00120BDD306E031207172066031208633061
:10148A006603120893120CE4120D5A12096E120B1B
:10149A00EE306E0312074C120CE4120DD112096ED3
:1014AA00120BDD306E031207AA120CE4120E0012A0
:1014BA00096E120BEE306E03120807120CE4120EBC
:1014CA007712096E1208AD120BDD120CE4120EA689
:1014DA001208B112096E30693285646185646285C9
:1014EA006069756A0179187A0CC3E53399400FC2AD
:1014FA0069D26A8A35856461856463021515C3E514
:10150A005C9401400302146B0215A3306A25206C17
:10151A0022E535147006C26AD26B816BF535C3E5D4
:10152A005C9401400302146B7888E6C39403600359
:10153A000215A375360078FA79A4E760027803C326
:10154A00E55F985054307404E52A604D7888E6B413
:10155A000317207D05207607A173307602A1732038
:10156A006C07D26C85646181AA78F0306C05856459
:10157A00617820C3E541985002816B306C1BC26CC4
:10158A00C27D307602D27DD26A7535128564618158
:10159A006B0536E55C6002A1A6753600C2AF120F74
:1015AA001E7887E6FE7602120F9F7887EEF6E4F53C
:1015BA0022F523F524F525F526F565752C00752DFC
:1015CA0000D2AF1205B0120F1E78A4E66006C292CE
:1015DA00C291C290307409C3E536940440022127AF
:1015EA006154901A0D782012167CE520B4550CA38C
:1015FA0012167CE520B4AA0302161A757CA5757D1D
:10160A00F1120F3312163A757C00757D00021639F5
:10161A00901A0378807B0A12167CA308DBF9901AC9
:10162A000F788C7B1912167CA308DBF9901A2822F2
:10163A00C2AF1216BF12169C901A00740E121681AF
:10164A00A37409121681A37415121681901A0378CD
:10165A00807B0A121680A308DBF9901A0F788C7B1C
:10166A0019121680A308DBF91216D21216B0901AB4
:10167A002822E493F622E6438F01538FFDFFC3E548
:10168A0083941C400122EF857CB7857DB7F0538F88
:10169A00FE22438F02438F01857CB7857DB7901A5E
:1016AA000DF0538FFC22901A0D7455D181901A0EA9
:1016BA0074AAD181227A3079D07820901A40D17CCC
:1016CA00E520F709A3DAF7227A3079D0901A40E7B1
:1016DA00D18109A3DAF922AB74A875BB010279801A
:1016EA00BB02027981BB03027982BB04027984BB03
:1016FA0005027986BB06027992BB07027987BB0885
:10170A000279A3BB0902799CBB0A027988BB0B0246
:10171A007989E8F7227C051205B5DCFB22C2AF12F3
:10172A0005C51205CC1205D31205DA1205A6120553
:10173A00C51205CC1205D31205DA1205A61205C583
:10174A001205CC1205D31205DAD2AF22C2AF1205A6
:10175A00DA1205D31205CC1205C51205A61205DA4E
:10176A001205D31205CC1205C51205A61205DA1206
:10177A0005D31205CC1205C5D2AF22AE74AF75C21D
:10178A00AF1205C51205C51205C51205A6DEF2126D
:10179A0005DA1205A6DFF8D2AF22F127F11FF11FF1
:1017AA00757401757501757600F1857C05AD5C125D
:1017BA0005B5C3ED955C70F5C3E55C9401400AC3B9
:1017CA00E55C94FF40320217E0D1E1D13AF127C239
:1017DA00AF75EF16F11FDCD50576C3E57694035095
:1017EA000280C6F11F0575E5741490009F93F808EE
:1017FA00C3E57598500280AE12171F12171F0574A1
:10180A00C3E574940C5002809A120F3312163AC22E
:07181A00AF75EF1612171F56
:0319FD0002108C49
:101A00000E0915090904FF03FF0A03010155AA0184
:101A1000FFFFFFFFFF03FFFFFF25D0285004FF0259
:091A2000007AFF0101000300FF40
:101A400023454D41583430412320202020202020A0
:101A500023424C48454C4923463333302320202031
:101A60002020202020202020202020202020202076
:101C0000C2AFC2D353D9BF7581C043B20343FF8073
:101C1000752438752503B1DC7529A5752AF175E29F
:101C20004043F18053A47F75D4FFD2877DFA7803B7
:101C300079E67C10752200752300901DE97B0675FE
:101C400024987525013087028145208708D8FBD963
:101C5000F9DCF781B7308708D8FBD9F9DCF781B711
:101C6000B19CE493A3C39A6004DDC381B7DBDBB10D
:101C70008E6002812E7B08E493FAA3B16FDBF87AC1
:101C800030B16F752200752300B18EEAFCEBFDC305
:101C9000ED94FE400EB18E8A278B28ED30E0048A49
:101CA000828B83B18E7AC270D8C3ED94FE601950D6
:101CB000CEBD002BEC600F7520007521FF7529004B
:101CC000752A000200008100A827A9280809D80465
:101CD000D90281DCB192EA89AAF281CE0D81A3C337
:101CE000ED94035053EDA2E092007AC5C3E58294CF
:101CF00000E583941C508A200010438F02438F011B
:101D00008529B7852AB7F0300029A827A92808090E
:101D1000438F01538FFDD804D902A133C3E58394C7
:101D20001C4003A3A11689AAE28529B7852AB7F02A
:101D3000A3A116538FFC817F7AC1BD030CE493A34A
:101D4000FAB153DCF8B14B817F8181AA22AB23B178
:101D50006FEBFAEA6222752608C3E52313F523E543
:101D60002213F52250066323A0632201D526EAB18F
:101D7000DCB1DC75260AEAF4200102D287300102C8
:101D8000C287B1DCC3134002C201D526EB22B19257
:101D9000EAFB208702A192308702A197752608AE40
:101DA00024AF25C3EF13FFEE13FEB1E0B1DCC3EAAD
:101DB000133087024480FA30E703632201C3E5232E
:101DC00013F523E52213F52250066323A0632201B5
:101DD000D526D9E52265236523F52222AE24AF2539
:101DE0000E0FDEFEDFFCD20122424C48656C6934E6
:071DF000373164F3300601F6
:00000001FF
