:030000000219FDE5
:03000B000200AA46
:03002B0002015D72
:03005B000202F7A7
:030073000202E4A2
:1000800002030406080C10182030406080040608A3
:100090000C10182030406080A0C00003070F1F0D17
:1000A0000D04050D050305030302C2AFC0D0C0E077
:1000B000206214E5256009E473E525F4F58AD2622F
:1000C000D0E0D0D0D2AF3285268AC262E526F46075
:1000D0003030682620720DD0E0D0D0C291C293C2D9
:1000E00095D2AF32C291C293C295206F0D20650A9E
:1000F0007401D5E0FDE57BF45290D0E0D0D0D2AFD2
:1001000032758A00C28DD26201FA01B930680520C9
:100110006502D29101B9306805206502D29301B918
:10012000306805206502D29501B9D29030680A2066
:1001300065077406D5E0FDD29101B9D29230680A04
:100140002065077406D5E0FDD29301B9D2943068DA
:100150000A2065077406D5E0FDD29501B9C2AFC289
:10016000AD53E6EFC0D0C0E0D2D3D2AFC2CEE52AC5
:10017000600720744F152A21C47800790020742E5E
:10018000E580307E01F430E50278FF53DACF207E3F
:100190000343DA20307E0343DA10C2D8C271E5800F
:1001A000307E01F430E50279FFC3E89970CB30610D
:1001B00003752A18207403752A18885CD270E860C9
:1001C00003755F0020740DE52B6004152B21D443CB
:1001D000DA01C2D82070024143A85C206102C270DB
:1001E0002074367982B70431C3E894F0400374F088
:1001F000F8E8C4540F28F87984B703024119C313EF
:10020000C3138721200802C313200A06C3C898F825
:10021000411928F8500374FFF88822E52D54066030
:1002200022206B1FE536C333C333F8E564C313C321
:1002300013F9C3952240028922E82522F5225003B2
:100240007522FF7882B60459852224A824C3E524A8
:1002500095614002A861C3E895634002A8638825C0
:10026000E56670024194C3E8AA669A5003E8FAE48E
:10027000F9EAC333FBE568F45B29400D2567F8E52F
:100280006760021567400B41940AC3E5679A500204
:10029000056778FF8826C26FC3E52694F84002D22E
:1002A0006F20CF0AD0E0D0D043E610D2AD32C2CF1B
:1002B000053A7801E52A6005307402152AC3E55C29
:1002C00094014005755F0041DA756000756900E5CD
:1002D0005F2401F55F5003755FFFD0E0D0D043E6A7
:1002E00010D2AD32C2AF53E67F7592FA7593FFC25A
:1002F00060759104D2AF32C2AF53E6EFC2ADC0D049
:10030000C0E0C0F0D2D3D2AFA8FBA9FCC2D83071F4
:1003100002615E53DACF207E0343DA10307E03435E
:10032000DA20D271E580307E01F420E50261358863
:10033000278928A18B53DACF207E0343DA20307E31
:100340000343DA10C2D8C271307402A1777800E595
:1003500080307E01F430E502A177885CA15F53DA3A
:10036000CF207E0343DA20307E0343DA10C27120AF
:100370006102813753DACF207E0343DA10307E03E7
:1003800043DA20C2D8D27188578958C3E89555F806
:10039000E99556F97B007E087A00C3E8948CE994CD
:1003A000005005755B008129882178A2E6A82160AC
:1003B00055C3E894C8E994005008E4D2E4FB7A0AF3
:1003C0008104C3E89468E994015008E4D2E3FB7A1D
:1003D0000F8104C3E894D0E994025008E4D2E2FB10
:1003E0007A1E8104C3E894A0E994055008E4D2E1A0
:1003F000FB7A3C8104C3E89498E994085008E4D25D
:10040000E0FB7A787E00C3E89559FCE9955AFD3007
:10041000E70AECF42401FCEDF43400FD755B00C345
:10042000EC9AED9E5003755B018859895A855755A2
:100430008558567802A15FC3E89527F8E99528F911
:10044000307C02A143307B02A143307A02A13C20E0
:100450007502815AE9FDE8FC8179E9C313F9E813D3
:10046000F8307902A13CE9C313F9E813F8307802B7
:0E047000A13CE9C313FDE813FC20612CC3EC92
:10047E00941CED940240028190ED701EC3EC94C862
:10048E0050180529E52970021529C3E529940A504B
:10049E0002A177755C00D270A177E529600215295B
:1004AE007888E6F97400207F087896B90302789E62
:1004BE00E624FAFEE43400FFC3EC9EFCED9FFD92B1
:1004CE0008B90310A2085007207609D27681E230CF
:1004DE007602C276A2085016B9030DECF42401FC84
:1004EE00EDF43400FD0204FC78007900A143B90359
:1004FE0015EC33FCED33FDC3EC940AFCED9400FDDA
:10050E0050047C007D00C3EC94FFED94004006780F
:10051E00FF7900A143EC8572F0A4C5F0A2F733F881
:10052E007900400302055F78FF790002055FE9C399
:10053E0013F9E813F8307C0EE9600278FFC3E81374
:10054E0038F8E43400F9C3E894FFE99400400278E7
:10055E00FF885CD270206102A177741FF4552F4B77
:10056E00F52FC274EB7002D274752A1830740375AD
:10057E002A0A306102A18B20740353DAFE20740321
:10058E00752B06D0F0D0E0D0D0D2AD43E610327944
:10059E00010205BB79030205BB790A0205BB791E70
:1005AE000205BB79640205BB79C80205BB7817E466
:1005BE00D5E0FDD8FAD9F6227A147B780205E27AD4
:1005CE00107B8C0205E27A0D7BB40205E27A0B7B7E
:1005DE00C80205E2E573D5E001227902E4D292D594
:1005EE00E0FDD293D5E0FDC293D5E0FDC292D5E0F9
:1005FE00FDE920E002D29130E002D295E573D5E01C
:10060E00FDE920E002C29130E002C2957496D5E079
:10061E00FDD9C9EAF8D5E0FDD8FBDBB8D29222C3EA
:10062E007C007D0075F00005F0EA33FAEB33FB50E9
:10063E00F6EB13FBEA13FAC3E9FFE8FEE89AF8E9D2
:10064E009BF95004EFF9EEF8B3EC33FCED33FDD526
:10065E00F0DFEDF9ECF822E889F08A20D2D4F8A97F
:10066E00F07B0030F70B7BFFF42401F8E9F4340043
:10067E00F9E88520F0A4ADF0F8E98520F0A4AFF0FC
:10068E00FEED2EF974003FFA7C04C3EA13FAE91367
:10069E00F9E813F8DCF48BF030F70AE8F42401F8EB
:1006AE00E9F43400F9E889F0C2D4F8A9F02278828E
:1006BE00B60403020717C3E55C940140030206E18A
:1006CE00852224E4F544F545F546F547F548C26E16
:1006DE000207177882E6FCD26EE522F52378387988
:1006EE00C7AA40AB41C3EB13FBEA13FAEC14601339
:1006FE00C3EB13FBEA13FAEC14146007C3EB13FB02
:10070E00EA13FAD12D8844894522C3E5449523F88E
:10071E00E5459400F9500CC3E89480E994FF401627
:10072E00020748C3E8947FE9940050030207487813
:10073E007F7900020748788079FF8849894A22E547
:10074E00492546F8E54A3547F9854A20E430070140
:10075E00F43548FA30E709C3EA94F04015020786EB
:10076E00C3EA940F500302078678FF79FF7A0F02CF
:10077E000786780079007AF0C3E5249561500AC3A4
:10078E0074019524500B0207A4E54A20E70E0207D8
:10079E00A4E54A30E706884689478A482278A5E6C6
:1007AE00FAC3E54933F8E54A33F9D165E930E70B89
:1007BE00C3E89480E994FF4013E1DEC3E8947FE937
:1007CE0094005002E1DE787F7900E1DE788079FFD7
:1007DE00E820E715C3E52398F84009C3E8940140E3
:1007EE00030208057801020805E8F424012523F820
:1007FE00400302080578FF884B2278A6E6FAA84740
:10080E00A948120665E930E70CC3E89401E994FFA4
:10081E00401602083AC3E894FFE994005003020818
:10082E003A78FF790002083A780179FFE920E71556
:10083E00C3E54B98F84009C3E894014003020861F0
:10084E007801020861E8F42401254BF84003020800
:10085E006178FF88242278FF20692879A1E7602338
:0D086E00E541601F74FF8541F0848539F07D
:10087B00306A0375F005A4F8C5F0600278FFC3E891
:10088B0095645002A864886322C3E5409440E54117
:10089B009401E56350031401A5046002F563220281
:1008AB0008AD2275E890227883E6FF30EDF9A8BDFC
:1008BB00A9BE0570C3E57094084052757000E9FA43
:1008CB0079A0E76044EA7007E571601B0208E6C394
:1008DB00E895716010E5715006600C140208F20483
:1008EB0060F90208F2E571F571C39467401B7561FD
:1008FB00C0C394044013756180C39404400B7561AD
:10090B0040C39404400375610075BB0622E5612466
:10091B0010500274FFF5617982B70402213FC3A81E
:10092B0061E524985002A824C3E895634002A863AC
:10093B0088258826E570B4070375BB1022743279BD
:10094B00A787F0A4C5F0A2F733F8C3E8956140027E
:10095B00A86188228824882588268864227540000F
:10096B007541F022C2AF75C820A8CCA9CDAA3A30E8
:10097B00CF010A75C824D2AFAB3BAC3C883B893C5A
:10098B00C3E89BF8E99C206908F930660241802195
:10099B00DAAD3D8A3DF9EA9DFA600678FF79FF21D1
:1009AB00BFAE3EAF3F8B3E8C3FA83BA93CC3E89EFE
:1009BB00F8E99FF9C3E54113FBE54013FAE82AF583
:1009CB0040E93BF54150067540FF7541FF4127AAB1
:1009DB0040AB41AC40AD417E047F02C3EB9404407D
:1009EB000D1E1FC3EB94084005206A021E1FC3EDAA
:1009FB0013FDEC13FCDEF7C3EA9CFAEB9DFBEF60F7
:100A0B0009C3E913F9E813F8DFF7EA28FAEB39FB26
:100A1B008A408B4150067BFF8B408B41C3EB94028A
:100A2B005002D2663069047F0341527892E6FFC3CD
:100A3B00E537948240110FC3E53794A040010FC3F3
:100A4B00EF940640027F057E02E541C4540FF9E5A1
:100A5B0041C454F0F8E540C4540F28F8C3E89EFA9B
:100A6B00E99400FB4009C3EA9402EB940050047A2A
:100A7B0002E4FB41CCAA40AB41EBC4FEEAC4540FE9
:100A8B004EFCC3EA9CFAEB9400FBC3E813C313F8C8
:100A9B00EA28FAEB3400FB8A408B41C3EB9402400B
:100AAB0002C2667802EBC4FE7B00EAC4540F4EFA16
:100ABB00C3EA98FA4005C3940250027A027892E690
:100ACB00FF30600241CC855192855293D26043E650
:100ADB0080C3E49AF8E49BF93066026158E8FAE9BE
:100AEB00FBD3E913FDE813FC88518952C3EF940340
:100AFB006038EF20E00DE82CF8E93DF9ECFAEDFB5E
:100B0B00020B21E828F8E939F9C3E82402F8E934A3
:100B1B0000F97AFE7BFFC3EF9403400E8A538B548C
:100B2B00884D894E8C4F8D50618C885389548A4DDA
:100B3B008B4E8C4F8D503069127553F07554FF7579
:100B4B004FF07550FF7551F07552FF618CE8FAD379
:100B5B00E813FC8851C3EF94036020EF20E007E813
:100B6B002CF8ECFA6178E8282402F87AFEC3EF94AB
:100B7B000340088A53884D8C4F618C88538A4D8C67
:100B8B004FE568C3335002646BF5683060026196C1
:100B9B00753402D26043E680E52D54066034A840DC
:100BAB00A941C3E913F9E813F8C3E913F9E813F8FA
:100BBB00306904E92440F9C2AF53E67F759100C355
:100BCB00E498F594E499F595759104D26043E68029
:100BDB00D2AF22D264754300752000306C037520B0
:100BEB0040020BFDD264754300752040306C0375D9
:100BFB00200078017901206620E52D54066002C2A1
:100C0B00647914E541C313700104F8C394144002D2
:100C1B007814306904781B791B206010E543600C55
:100C2B00306903D53404D26D81A7719E0543E59BD2
:100C3B005440B52002819130690908C3E8994001FD
:100C4B0018812420640A08C3E899400261FD8124BD
:100C5B00C264C2AF53E67F75910030661275940083
:0F0C6B007595F8759104D26043E680D2AF61FDB4
:100C7A00E5417EFFC3334005C3334001FEC3E49E12
:100C8A00759400F595816EC3E5339401500261FDB8
:100C9A0030640261FDD80281A58124C26DC2AF53BE
:100CAA00E67F759100855394855495759104854D19
:100CBA0092854E93D26043E680D2AFE52D5406600A
:100CCA0008206A020533020CE3306D0D206C0A20FD
:100CDA006407158115810215A12278003064027813
:100CEA0001E53775F007A4F9E5F028F5F0E9A2F077
:100CFA0013A2F113A2F213F537C394785003753790
:100D0A0078C3E53795384008D265C291C293C29537
:100D1A00306002A11A854F92855093D26043E680D3
:100D2A0022207D16C2AF754202D292C29030620270
:100D3A00D295D2AF759F02020F1BC2AF754202D283
:100D4A0092C294306202D291D2AF759F02020F1BF7
:100D5A00307243207D20C2AF75420390013B757B00
:100D6A0004C295D294306204D293A178C292D2AFCF
:100D7A00759F03020F1BC2AF75420390013B757B3F
:100D8A0004C291D290306204D293A198C292D2AF97
:100D9A00759F01020F1B207D17C2AF754203900198
:100DAA0016C295306202D293D2AF759F03020F1B0F
:100DBA00C2AF754203900116C291306202D293D239
:100DCA00AF759F01020F1B207D16C2AF754204D278
:100DDA0090C294306202D293D2AF759F01020F1B68
:100DEA00C2AF754204D294C290306202D293D2AF9B
:100DFA00759F03020F1B307243207D20C2AF7542DC
:100E0A000590012A757B01C293D292306204D29175
:100E1A00C11EC290D2AF759F02020F1BC2AF7542AC
:100E2A000590014C757B10C293D292306204D29520
:100E3A00C13EC294D2AF759F02020F1B207D17C21A
:100E4A00AF75420590010CC293306202D291D2AFC3
:100E5A00759F02020F1BC2AF754205900120C29313
:100E6A003062EBD295D2AF759F02020F1B207D161E
:100E7A00C2AF754206D294C292306202D291D2AF08
:100E8A00759F03020F1BC2AF754206D290C2923001
:100E9A006202D295D2AF759F01020F1B30724420B5
:100EAA007D20C2AF75420190014C757B10C291D270
:100EBA0090306204D295C1C4C294D2AF759F010228
:100ECA000F1BC2AF75420190012A757B01C295D2F0
:100EDA0094306205D291020EE5C290D2AF759F039B
:100EEA00020F1B207D17C2AF754201900120C291EB
:100EFA00306202D295D2AF759F01020F1BC2AF7545
:100F0A00420190010CC295306202D291D2AF759F14
:100F1A0003C2652290010A757B00C291C293C295F1
:100F2A00D290D292D294C262227880760908760947
:100F3A000876040876FF0876030876FF087609081B
:100F4A007603087601087601788C76010876FF0820
:100F5A0076FF0876FF0876FF0876FF08760308769C
:100F6A00FF0876FF0876FF0876250876D0087628E7
:100F7A000876500876040876FF0876020876000894
:100F8A00767A0876FF0876010876010876000876F0
:100F9A0003087600227887E6FFC272BF0302D27284
:100FAA007888E6C394036008C27DE630E102D27D08
:100FBA00C27E7889E630E102D27EC3EF94026008ED
:100FCA00758E01D273020FD7758E00C27322788094
:100FDA00E6149000809378A5F67881E61490008054
:100FEA009378A6F67886E61490008D9378A7F6781B
:100FFA0086E6F539C394025003753902789CE67582
:10100A0038FFB402037538A0B4030375388278A395
:10101A00E61490009A93F566120F1E22227896E63D
:10102A00FA7897E6FB7888E6B40305C3EB940EFBDF
:10103A00307F047A007BFFC3EB9AFCC39482500290
:10104A007C827572000572EC8572F0A4C3E5F09497
:10105A007D40F222D27F11271205AC1205AC7A002C
:0F106A007B007C101205A2E55C2AFA74003BFBA8
:10107900DCF37C04C3EB13FBEA13FADCF7FEC27F53
:10108900112722757C00757D00E5EF20E6037520A8
:10109900000520903FFFE520146006901FFF1460B3
:1010A900009304600375EF167597DE7597AD75812A
:1010B900C043FF8012059D75EF0675A900E5C72499
:1010C9000220E70DF521E5B120E0068521C743B1EE
:1010D90001120F1E7580FF75A40075F1B075D4DF7C
:1010E90075901575A53F75F23F75D50075A6017503
:1010F900E34075E201120F1EE4F8F6D8FD756801A8
:10110900120F331215F278988673753001C2AF1237
:1011190005B61205C61205AC1205CD1205AC1205AD
:10112900D41205ACC2AF757C00757D0078FA79FAE6
:10113900308507D9FBD8F7021C00120F9F120FD870
:101149001126112778988673120F1E7588107589D4
:101159000275C82475910475D84075A82275B8021E
:1011690075E690759B80759D0075D10C75BC597598
:10117900BB0675E88075B20112059DD2AF1208AAA7
:1011890075360053DACF207E0343DA20307E0343DD
:10119900DA1043DA01C2D8C2711205B6D2617B03F3
:1011A9007A0CE55B70077A0CDB0302112D1205AC92
:1011B90020700302112DC270E55CC3940240E1E581
:1011C9002F541F855E5DF55EB55DD5DAD5C26153D5
:1011D900DACF207E0343DA20307E0343DA10C2D807
:1011E900C27178A2E67008D274E52F54E0F52FC2D7
:1011F900757529001205B1307409C3E529940A40AF
:1012090002D2751205A278023074027800C3E55C37
:101219009840F0C2AF1205C61205C61205C6D2AF74
:101229001205B6754C007888E6B4030261221205EE
:10123900A2788CE6C394015003021322E530C394CB
:10124900015003021322757CA5757DF1207435C305
:10125900E55C94FF5003021322C2AF1205DBD2AF43
:101269001205B1C3E55C940150EFC2AF1205C61275
:1012790005A71205C6D2AF1205B1C3E55C94FF40BC
:10128900E90217AA7F02D27F11271205B1C2AFC2A4
:101299007F1127AE5CC3E55C947FD2AF5002613207
:1012A90012059DC2AF1205DBD2AFDFDA115EC3EEC4
:1012B9007897F61205B612172D7F0AD27F112712D9
:1012C90005B1C2AFC27F1127AE5CC3E55C947FD282
:1012D900AF50E612059DC2AF1205C61205A7120549
:1012E900C6D2AFDFD6115EEE24037896F6F8799769
:1012F900E7C394824003985006E824827897F6124F
:1013090005B612164012175C1205B11127C3E55C28
:1013190094FF5002414F0217AA757C00757D00C3E6
:10132900E55C954C4003855C4C1205B178017988E0
:10133900E7B403027805C3E55C984002412FC2AFC8
:101349001205DB1205DB1205DBD2AF1205B67530CB
:1013590000E4F531F5320531E531F4703F053278B5
:101369009AE67819146012783214600D787D146049
:101379000878FA146003753200C3E53298401D12EB
:101389000F1E12059D153275310078998673C2AF0B
:101399001205DBD2AF789886731205B11205A7E55D
:1013A9002A7005307402212D78012074027806C351
:1013B900E55C9840A17888E6C3940360031205B1FF
:1013C900E52A700302112DC2AF120F1EE4F522F5B2
:1013D90023F524F525F526F567D2AF7885E6C333DD
:1013E900F565E4F544F545F546F547F548F570F535
:1013F9002CF52DF53775700875BB1012059D12086F
:10140900AE30EDFDA8BDA9BEE97001F888711208DA
:10141900B275700875BB10120F9FC2AF7561FF12CC
:101429000948852261852262852263D2AF7522012E
:10143900752401752501752601856069756A01782C
:1014490088E6B40307C27D307602D27DD268D269BC
:10145900753300120E77120EA612096812096F125F
:0E146900096812096F120968120BEF1206BC17
:10147700120CE4120D2B12096F120BDE306E0312E1
:101487000718206603120864306603120894120CCA
:10149700E4120D5A12096F120BEF306E0312074D4B
:1014A700120CE4120DD112096F120BDE306E03120B
:1014B70007AB120CE4120E0012096F120BEF306E1D
:1014C70003120808120CE4120E7712096F1208AE05
:1014D700120BDE120CE4120EA61208B212096F30BC
:1014E7006932856461856462856069756A01791806
:1014F7007A0CC3E53399400FC269D26A8A3585648D
:101507006185646302151BC3E55C94014003021403
:10151700710215A9306A25206C22E535147006C2C0
:101527006AD26B8171F535C3E55C940140030214FF
:10153700717888E6C3940360030215A975360078AD
:10154700FA79A4E760027803C3E55F9850543074D2
:1015570004E52A604D7888E6B40317207D052076D8
:1015670007A179307602A179206C07D26C85646176
:1015770081B078F0306C058564617820C3E54198C7
:1015870050028171306C1BC26CC27D307602D27DF5
:10159700D26A75351285646181710536E55C600232
:1015A700A1AC753600C2AF120F1E7887E6FE760231
:1015B700120F9F7887EEF6E4F522F523F524F5253B
:1015C700F526F565752C00752D00D2AF1205B11201
:1015D7000F1E78A4E66006D291D293D29530740993
:1015E700C3E53694044002212D615A901A0D7820E4
:1015F700121682E520B4550CA3121682E520B4AA70
:1016070003021620757CA5757DF1120F3312164063
:10161700757C00757D0002163F901A0378807B0A5F
:10162700121682A308DBF9901A0F788C7B19121611
:1016370082A308DBF9901A2822C2AF1216C5121628
:10164700A2901A00740E121687A37409121687A3A4
:101657007415121687901A0378807B0A121686A3D0
:1016670008DBF9901A0F788C7B19121686A308DB12
:10167700F91216D81216B6901A2822E493F622E623
:10168700438F01538FFDFFC3E583941C400122EF75
:10169700857CB7857DB7F0538FFE22438F02438F3A
:1016A70001857CB7857DB7901A0DF0538FFC22908A
:1016B7001A0D7455D187901A0E74AAD187227A30E1
:1016C70079D07820901A40D182E520F709A3DAF77C
:1016D700227A3079D0901A40E7D18709A3DAF92224
:1016E700AB74A875BB01027980BB02027981BB0389
:1016F700027982BB04027984BB05027986BB0602A4
:101707007992BB07027987BB080279A3BB090279E3
:101717009CBB0A027988BB0B027989E8F7227C0512
:101727001205B6DCFB22C2AF1205C61205CD1205A3
:10173700D41205DB1205A71205C61205CD1205D472
:101747001205DB1205A71205C61205CD1205D41224
:1017570005DBD2AF22C2AF1205DB1205D41205CDCD
:101767001205C61205A71205DB1205D41205CD1204
:1017770005C61205A71205DB1205D41205CD120501
:10178700C6D2AF22AE74AF75C2AF1205C61205C678
:101797001205C61205A7DEF21205DB1205A7DFF850
:1017A700D2AF22F12DF125F12575740175750175FB
:1017B7007600F18B7C05AD5C1205B6C3ED955C70C8
:1017C700F5C3E55C9401400AC3E55C94FF4032022F
:1017D70017E6D1E7D140F12DC2AF75EF16F125DC41
:1017E700D50576C3E5769403500280C6F1250575C5
:1017F700E5741490009F93F808C3E575985002802C
:10180700AE1217251217250574C3E574940C500200
:10181700809A120F33121640C2AF75EF16121725B2
:0319FD0002108C49
:101A00000E0915090904FF03FF0903010155AA0185
:101A1000FFFFFFFFFF03FFFFFF25D0285004FF0259
:091A2000007AFF0101000300FF40
:101A40002346435F46616972795F3330412320202A
:101A500023424C48454C492346383530232020202A
:101A60002020202020202020202020202020202076
:101C0000C2AFC2D37597DE7597AD7581C075A90057
:101C100043FF80752438752503B1DB7529A5752A26
:101C2000F175E34043F12053A4DF75D4FFD2857DE5
:101C3000FA780379E67C10752200752300901DE880
:101C40007B0675249875250130850281482085081A
:101C5000D8FBD9F9DCF781BA308508D8FBD9F9DC93
:101C6000F781BAB19BE493A3C39A6004DDC381BA40
:101C7000DBDBB18D600281317B08E493FAA3B16EA6
:101C8000DBF87A30B16E752200752300B18DEAFC65
:101C9000EBFDC3ED94FE400EB18D8A278B28ED300D
:101CA000E0048A828B83B18D7AC270D8C3ED94FE32
:101CB000601950CEBD0029EC600F7520007521FF22
:101CC000752900752A000200008100A827A92808AC
:101CD00009D804D90281DDB191EAF281D10D81A642
:101CE000C3ED94035051EDA2E092007AC5C3E582A2
:101CF0009400E583941C508C200010438F02438F86
:101D0000018529B7852AB7F0300027A827A9280818
:101D100009438F01538FFDD804D902A132C3E58353
:101D2000941C4003A3A117E28529B7852AB7F0A325
:101D3000A117538FFC81827AC1BD030CE493A3FAEF
:101D4000B152DCF8B14A81828184AA22AB23B16E00
:101D5000EBFAEA6222752608C3E52313F523E52290
:101D600013F52250066323A0632201D526EAB1DBD6
:101D7000B1DB75260AEAF4200102D285300102C2E5
:101D800085B1DBC3134002C201D526EB22B191EA33
:101D9000FB208502A191308502A196752608AE240C
:101DA000AF25C3EF13FFEE13FEB1DFB1DBC3EA13C0
:101DB0003085024480FA30E703632201C3E5231330
:101DC000F523E52213F52250066323A0632201D5F3
:101DD00026D9E52265236523F52222AE24AF250E00
:101DE0000FDEFEDFFCD20122424C48656C693437BD
:061DF0003164F850060109
:00000001FF
