:030000000219FDE5
:03000B000200AA46
:03002B0002015D72
:03005B000202EFAF
:030073000202DCAA
:1000800002030406080C10182030406080040608A3
:100090000C10182030406080A0C00003070F1F0D17
:1000A0000D0403060D0503030202C2AFC0D0C0E079
:1000B000206214E5256009E473E525F4F58AD2622F
:1000C000D0E0D0D0D2AF3285268AC262E526F46075
:1000D0003030682620720DD0E0D0D0C291C293C2D9
:1000E00095D2AF32C291C293C295206F0D20650A9E
:1000F0007401D5E0FDE57BF45290D0E0D0D0D2AFD2
:1001000032758A00C28DD26201FA01B930680520C9
:100110006502D29101B9306805206502D29301B918
:10012000306805206502D29501B9D29030680A2066
:1001300065077406D5E0FDD29101B9D29230680A04
:100140002065077406D5E0FDD29301B9D2943068DA
:100150000A2065077406D5E0FDD29501B9C2AFC289
:10016000AD53E6EFC0D0C0E0D2D3D2AFC2CEE52AC5
:10017000600720744F152A21C47800790020742E5E
:10018000E580307E01F430E50278FF53DACF207E3F
:100190000343DA20307E0343DA10C2D8C271E5800F
:1001A000307E01F430E50279FFC3E89970CB30610D
:1001B00003752A40207403752A40885CD270E86079
:1001C00003755F0020740DE52B6004152B21D443CB
:1001D000DA01C2D820700221E7A85C206102C27057
:1001E00020740221E588227882B604038522242027
:1001F000CF0AD0E0D0D043E610D2AD32C2CF053A1C
:100200007802E52A6005307402152AC3E55C940182
:100210004005755F004128756000756900E55F2441
:1002200001F55F5003755FFF7982B7020D306E1DD7
:10023000C3E52294324016854C227982B7030E30F2
:100240006E0BC3E52294324004798E8722C3E523E6
:100250009522600840041523415C0523D8CA05692E
:10026000E56970021569D56A69756A017808E56BF8
:1002700060497805C3E569956B4057C3E569956C9E
:1002800050087801756A03020296C3E569956D50BE
:10029000057801756A01C3E5629524401E7982B72D
:1002A000040241C7206E14852462E5690460038559
:1002B0006B69756A0175233C0202D2E5622850051C
:1002C0007562FF41C7F562E5620470067560FF75EF
:1002D00069FFD0E0D0D043E610D2AD32C2AF53E6D2
:1002E0007F7592FA7593FFC260759104D2AF32C2E6
:1002F000AF53E6EFC2ADC0D0C0E0C0F0D2D3D2AFB2
:10030000A8FBA9FCC2D8307102615653DACF207E17
:100310000343DA10307E0343DA20D271E580307E69
:1003200001F420E502612D88278928A13B53DACF0B
:10033000207E0343DA20307E0343DA10C2D8C27134
:10034000307402A1277800E580307E01F430E502A8
:10035000A127885CA10F53DACF207E0343DA203037
:100360007E0343DA10C271206102812F53DACF205D
:100370007E0343DA10307E0343DA20C2D8D271887C
:10038000578958C3E89555F8E99556F97B007E08DA
:100390007A00C3E8948CE994005005755B008121D4
:1003A000882178A2E6A8216055C3E894C8E99400A2
:1003B0005008E4D2E4FB7A0A61FCC3E89468E9944B
:1003C000015008E4D2E3FB7A0F61FCC3E894D0E962
:1003D00094025008E4D2E2FB7A1E61FCC3E894A0C8
:1003E000E994055008E4D2E1FB7A3C61FCC3E8944F
:1003F00098E994085008E4D2E0FB7A787E00C3E8DC
:100400009559FCE9955AFD30E70AECF42401FCED1E
:10041000F43400FD755B00C3EC9AED9E5003755BF0
:10042000018859895A8557558558567802A10FC3B6
:10043000E89527F8E99528F9307C0281F3307B02B2
:1004400081F3307A0281EC2075028152E9FDE8FCEB
:100450008171E9C313F9E813F830790281ECE9C33B
:1004600013F9E813F830780281ECE9C313FDE813BF
:0F047000FC20612CC3EC941CED940240028188A7
:10047F00ED701EC3EC94C850180529E529700215BC
:10048F0029C3E529940A5002A127755C00D270A1F7
:10049F0027E529600215297400207F037896E6244A
:1004AF00FAFEE43400FFC3EC9EFCED9FFD5006788E
:1004BF0000790081F3C3EC94FFED9400400678FFC0
:1004CF00790081F3EC8572F0A4C5F0A2F733F879C7
:1004DF0000400302050F78FF790002050FE9C313EF
:1004EF00F9E813F8307C0EE9600278FFC3E813389F
:1004FF00F8E43400F9C3E894FFE99400400278FF70
:10050F00885CD270206102A127741FF4552F4BF520
:10051F002FC274EB7002D274752A40307403752A9F
:10052F000A306102A13B20740353DAFE2074037575
:10053F002B20D0F0D0E0D0D0D2AD43E610327901ED
:10054F0002056B790302056B790A02056B791E02AE
:10055F00056B796402056B79C802056B7817E4D5D2
:10056F00E0FDD8FAD9F6227A147B780205927A1038
:10057F007B8C0205927A0D7BB40205927A0B7BC8B5
:10058F00020592E573D5E001227902E4D292D5E01B
:10059F00FDD293D5E0FDC293D5E0FDC292D5E0FD2B
:1005AF00E920E002D29130E002D295E573D5E0FD6B
:1005BF00E920E002C29130E002C2957496D5E0FDC9
:1005CF00D9C9EAF8D5E0FDD8FBDBB8D29222C37CBB
:1005DF00007D0075F00005F0EA33FAEB33FB50F6BF
:1005EF00EB13FBEA13FAC3E9FFE8FEE89AF8E99B7D
:1005FF00F95004EFF9EEF8B3EC33FCED33FDD5F021
:10060F00DFEDF9ECF822E889F08A20D2D4F8A9F0CE
:10061F007B0030F70B7BFFF42401F8E9F43400F989
:10062F00E88520F0A4ADF0F8E98520F0A4AFF0FE46
:10063F00ED2EF974003FFA7C04C3EA13FAE913F9BB
:10064F00E813F8DCF48BF030F70AE8F42401F8E94A
:10065F00F43400F9E889F0C2D4F8A9F0227882B610
:10066F00040302070BC3E55C9419401EE52D5406E5
:10067F007018206E3678057994E7146007780A149D
:10068F0060027812C3E54198401F306E098564629D
:10069F007569FF756A01852224E4F544F545F54631
:1006AF00F547F548C26E02070BD26E7994E71470C6
:1006BF0013E523F43333F913F8E9540104F9E8543B
:1006CF00FE0206FFE714147014E523F4333333F9F5
:1006DF0013F8E9540304F9E854FC020707E523F47F
:1006EF0033333333F913F8E954070404F9E854F8B2
:1006FF00C39440F8E99400F98844894522C3E54141
:10070F0013F9E54013F8C3E54498F8E54599F95016
:10071F000CC3E89480E994FF4016020743C3E894A2
:10072F007FE994005003020743787F790002074363
:10073F00788079FF8849894A22E5492546F8E54AB4
:10074F003547F9854A20E4300701F43548FA30E798
:10075F0009C3EA94F04015020781C3EA940F5003CE
:10076F0002078178FF79FF7A0F02078178007900FD
:10077F007AF0C3E5249561500AC374019524500B98
:10078F0002079FE54A20E70E02079FE54A30E7067A
:10079F00884689478A482278A5E6FAC3E54933F89F
:1007AF00E54A33F9D115E930E70BC3E89480E994B2
:1007BF00FF4013E1D9C3E8947FE994005002E1D9D7
:1007CF00787F7900E1D9788079FFE820E715C3E5D4
:1007DF002398F84009C3E894014003020800780108
:1007EF00020800E8F424012523F8400302080078EA
:1007FF00FF884B2278A6E6FAA847A948120615E902
:10080F0030E70CC3E89401E994FF4016020835C3A2
:10081F00E894FFE99400500302083578FF7900024D
:10082F000835780179FFE920E715C3E54B98F840C3
:10083F0009C3E89401400302085C780102085CE8F0
:10084F00F42401254BF8400302085C78FF8824222A
:10085F0078FF20692879A1E76023E541601F74FFC5
:0F086F008541F0848539F0306A0375F005A4F8EF
:10087E00C5F0600278FFC3E895645002A8648863EF
:10088E0022C3E5409440E5419401E5635003140111
:10089E00A0046002F563227883E6F520120F22751C
:1008AE00E89012054D75E89030EDFDA8BDA9BE1279
:1008BE000FC9756E55756F00C3740013FD745560C6
:1008CE006613FC74552CFC74003DFDECFAEDFBC375
:1008DE00E89AE99B4014E56E2455F56EE56F3400F9
:1008EE00F56FEA2CFAEB3DFB80E5AE6EAF6FC3E51C
:1008FE006F13F9E56E13F8C3E913F9E813F87A03E9
:10090E00C3E913F9E813F8DAF7AA201A7009756E1D
:10091E0000756F000209351AEA6008EE28FEEF39FD
:10092E00FFDAF88E6E8F6F2275E890227883E6FFDD
:10093E0030EDF9A8BDA9BE0570C3E570940840520C
:10094E00757000E9FA79A0E76044EA7007E5716016
:10095E001B02096EC3E895716010E5715006600CBC
:10096E001402097A0460F902097AE571F571C394EB
:10097E0067401B7561C0C394044013756180C394B6
:10098E0004400B756140C39404400375610075BB50
:10099E000622EFC39401601F7455601BC3E894FFD9
:1009AE00E994035012C3E8956EE9956F5009E5611D
:1009BE00600C15610209CCE561F460020561A86165
:1009CE00C3E524985002A824C3E89562400AA862A1
:1009DE00E562F4600385626188258826E570B407B8
:1009EE000375BB1022743279A787F0A4C5F0A2F765
:1009FE0033F8C3E895614002A861882288248825CF
:100A0E0088268864227540007541F022C2AF75C8F1
:100A1E0020A8CCA9CDAA3A30CF010A75C824D2AFEE
:100A2E00AB3BAC3C883B893CC3E89BF8E99C206916
:100A3E0008F9306602612B4185AD3D8A3DF9EA9D8C
:100A4E00FA600678FF79FF416AAE3EAF3F8B3E8C6F
:100A5E003FA83BA93CC3E89EF8E99FF9C3E54113C3
:100A6E00FBE54013FAE82AF540E93BF541500675DF
:100A7E0040FF7541FF41D2AA40AB41AC40AD417E33
:100A8E00047F02C3EB9404400D1E1FC3EB94084079
:100A9E0005206A021E1FC3ED13FDEC13FCDEF7C327
:100AAE00EA9CFAEB9DFBEF6009C3E913F9E813F832
:100ABE00DFF7EA28FAEB39FB8A408B4150067BFFC1
:100ACE008B408B41C3EB94025002D2663069047F97
:100ADE000341FD7892E6FFC3E537948240110FC3C0
:100AEE00E53794A040010FC3EF940640027F057EC8
:100AFE0002E541C4540FF9E541C454F0F8E540C491
:100B0E00540F28F8C3E89EFAE99400FB4009C3EAA3
:100B1E009402EB940050047A02E4FB6177AA40AB96
:100B2E0041EBC4FEEAC4540F4EFCC3EA9CFAEB94AC
:100B3E0000FBC3E813C313F8EA28FAEB3400FB8A70
:100B4E00408B41C3EB94024002C2667802EBC4FEB6
:100B5E007B00EAC4540F4EFAC3EA98FA4005C394D8
:100B6E000250027A027892E6FF3060026177855178
:100B7E0092855293D26043E680C3E49AF8E49BF9DF
:100B8E003066028103E8FAE9FBD3E913FDE813FCB2
:100B9E0088518952C3EF94036038EF20E00DE82CA2
:100BAE00F8E93DF9ECFAEDFB020BCCE828F8E9394F
:100BBE00F9C3E82402F8E93400F97AFE7BFFC3EFAB
:100BCE009403400E8A538B54884D894E8C4F8D5012
:100BDE008137885389548A4D8B4E8C4F8D50306996
:100BEE00127553F07554FF754FF07550FF7551F037
:100BFE007552FF8137E8FAD3E813FC8851C3EF949E
:100C0E00036020EF20E007E82CF8ECFA8123E828B7
:100C1E002402F87AFEC3EF940340088A53884D8C61
:100C2E004F813788538A4D8C4FE568C33350026429
:100C3E006BF5683060028141753402D26043E68004
:100C4E00E52D54066034A840A941C3E913F9E81311
:100C5E00F8C3E913F9E813F8306904E92440F9C23E
:0E0C6E00AF53E67F759100C3E498F594E499C6
:100C7C00F595759104D26043E680D2AF22D26475AB
:100C8C004300752000306C03752040020CA8D26420
:100C9C00754300752040306C037520007801790194
:100CAC00206620E52D54066002C2647914E541C328
:100CBC0013700104F8C3941440027814306904785A
:100CCC001B791B206010E543600C306903D534049C
:100CDC00D26DA15291490543E59B5440B52002A128
:100CEC003C30690908C3E89940011881CF20640A97
:100CFC0008C3E899400281A881CFC264C2AF53E611
:100D0C007F7591003066127594007595F875910495
:100D1C00D26043E680D2AF81A8E5417EFFC3334069
:100D2C0005C3334001FEC3E49E759400F595A119EB
:100D3C00C3E5339401500281A830640281A8D80223
:100D4C00A15081CFC26DC2AF53E67F759100855320
:100D5C0094855495759104854D92854E93D260433C
:100D6C00E680D2AFE52D54066008206A02053302F6
:100D7C000D8E306D0D206C0A2064071581158102D3
:100D8C00163D2278003064027801E53775F007A42F
:100D9C00F9E5F028F5F0E9A2F013A2F113A2F21391
:100DAC00F537C394785003753778C3E537953840D9
:100DBC0008D265C291C293C295306002A1C5854F1D
:100DCC0092855093D26043E68022207D16C2AF7587
:100DDC004202D292C290306202D295D2AF759F027B
:100DEC00020FC6C2AF754202D292C294306202D2D6
:100DFC0091D2AF759F02020FC6307243207D20C284
:100E0C00AF75420390013B757B04C295D29430625E
:100E1C0004D293C123C292D2AF759F03020FC6C2F4
:100E2C00AF75420390013B757B04C291D290306246
:100E3C0004D293C143C292D2AF759F01020FC62058
:100E4C007D17C2AF754203900116C295306202D273
:100E5C0093D2AF759F03020FC6C2AF7542039001C8
:100E6C0016C291306202D293D2AF759F01020FC6A7
:100E7C00207D16C2AF754204D290C294306202D269
:100E8C0093D2AF759F01020FC6C2AF754204D294C4
:100E9C00C290306202D293D2AF759F03020FC6305C
:100EAC007243207D20C2AF75420590012A757B01EB
:100EBC00C293D292306204D291C1C9C290D2AF75A2
:100ECC009F02020FC6C2AF75420590014C757B1094
:100EDC00C293D292306204D295C1E9C294D2AF755A
:100EEC009F02020FC6207D17C2AF75420590010C00
:100EFC00C293306202D291D2AF759F02020FC6C26A
:100F0C00AF754205900120C2933062EBD295D2AFFF
:100F1C00759F02020FC6207D16C2AF754206D29491
:100F2C00C292306202D291D2AF759F03020FC6C239
:100F3C00AF754206D290C292306202D295D2AF7592
:100F4C009F01020FC6307244207D20C2AF75420152
:100F5C0090014C757B10C291D290306204D295E115
:100F6C006FC294D2AF759F01020FC6C2AF7542011A
:100F7C0090012A757B01C295D294306205D2910200
:100F8C000F90C290D2AF759F03020FC6207D17C27F
:100F9C00AF754201900120C291306202D295D2AF5E
:100FAC00759F01020FC6C2AF75420190010CC2952C
:100FBC00306202D291D2AF759F03C2652290010AB2
:100FCC00757B00C291C293C295D290D292D294C238
:100FDC00622278807607087607087601087604087E
:100FEC0076FF0876FF0876090876020876010876FF
:100FFC0001788C76010876000876B40876FF0876BE
:10100C00FF0876FF0876030876FF0876010876FF5E
:10101C000876250876D00876780876C8087604080D
:10102C0076FF08760108760008767A08760A087644
:10103C00010876010876000876FF0876002278878A
:10104C00E6FFC272BF0302D2727888C27DE630E13D
:10105C0002D27DC27E7889E630E102D27EC3EF9463
:0E106C00026008758E01D27302107C758E0032
:10107A00C273227880E6149000809378A5F678816E
:10108A00E6149000809378A6F67886E61490008D90
:10109A009378A7F6789FE6F87005756B0001C3C3CD
:1010AA00E8941140027811E82828F56B256B256B26
:1010BA0028F56C256B2828F56D7886E6F539C394F2
:1010CA00025003753902789CE67538FFB40203753D
:1010DA0038A0B4030375388278A3E61490009A9373
:1010EA00F566120FC922227896E6FA7897E6FB7817
:1010FA0088E6B40305C3EB940EFB307F047A007BC9
:10110A00FFC3EB9AFCC3948250027C82757200057D
:10111A0072EC8572F0A4C3E5F0947D40F222D27F8E
:10112A0011F112055C12055C7A007B007C10120535
:10113A0052E55C2AFA74003BFBDCF37C04C3EB1334
:10114A00FBEA13FADCF7FEC27F11F122757C007507
:10115A007D00E5EF20E6037520000520903FFFE5BE
:10116A0020146006901FFF1460009304600375EF5B
:10117A00167597DE7597AD7581C043FF8012054DD0
:10118A0075EF0675A900E5C7240220E70DF521E5EC
:10119A00B120E0068521C743B101120FC97580FF4E
:1011AA0075A40075F1B075D4DF75901575A53F75F6
:1011BA00F23F75D50075A60175E34075E201120F7D
:1011CA00C9E4F8F6D8FD756801120FDE1216947894
:1011DA00988673753001C2AF12056612057612053C
:1011EA005C12057D12055C12058412055C1217C794
:1011FA00120566120566120561C2AF757C00757D1F
:10120A000078FA79FA308507D9FBD8F7021C001161
:10121A004A117D11F011F178988673120FC97588F9
:10122A001075890275C82475910475D84075A8226D
:10123A0075B80275E690759B80759D0075D10C7521
:10124A00BC5975BB0675E88075B20112054DD2AF5F
:10125A001208A575360053DACF207E0343DA203010
:10126A007E0343DA1043DA01C2D8C271120566D28C
:10127A00617B037A0CE55B70077A0CDB03021203CD
:10128A0012055C207003021203C270E55CC394026B
:10129A0040E1E52F541F855E5DF55EB55DD5DAD573
:1012AA00C26153DACF207E0343DA20307E0343DA69
:1012BA0010C2D8C27178A2E67008D274E52F54E041
:1012CA00F52FC275752900120561307409C3E52925
:1012DA00940A4002D27512055278023074027800DC
:1012EA00C3E55C9840F0C2AF120576120576120586
:1012FA0076D2AF120566754C00120552788CE6C399
:10130A00940150030213F0E530C394015003021311
:10131A00F0757CA5757DF1207435C3E55C94FF50AA
:10132A00030213F0C2AF12058BD2AF120561C3E5F7
:10133A005C940150EFC2AF1205761205571205767A
:10134A00D2AF120561C3E55C94FF40E902184C7FF5
:10135A0005D27F11F1120561C2AFC27F11F1AE5CF5
:10136A00C3E55C947FD2AF5002810012054DC2AF33
:10137A0012058BD2AFDFDA3128C3EE94057897F6DF
:10138A001205661217CF7F0AD27F11F1120561C2C8
:10139A00AFC27F11F1AE5CC3E55C947FD2AF50E679
:1013AA0012054DC2AF120576120557120576D2AF55
:1013BA00DFD63128EE24037896F6F87997E7C394B6
:1013CA00824003985006E824827897F6120566123E
:1013DA0016E21217FE12056111F1C3E55C94FF5083
:1013EA0002611B02184C757C00757D00C3E55C9593
:1013FA004C4003855C4C12056178017988E7B40397
:10140A00027805C3E55C9840026103C2AF12058BFE
:10141A0012058B12058BD2AF120566753000E4F502
:10142A0031F5320531E531F4703F0532789AE678C4
:10143A0019146012783214600D787D14600878FAF5
:10144A00146003753200C3E53298401D120FC912A9
:10145A00054D153275310078998673C2AF12058B26
:0E146A00D2AF78988673120561120557E52AF5
:101478007005307402410378012074027806C3E5D0
:101488005C9840A1120561E52A7003021203C2AFFD
:10149800120FC9E4F522F523F524F525F526F5679D
:1014A800D2AF7885E6C333F565E4F544F545F546EE
:1014B800F547F548F570F52CF52DF5377570087575
:1014C800BB1012054D12093630EDFDA8BDA9BEE9C5
:1014D8007001F8887112093A75700875BB10114AC5
:1014E800C2AF7561FF1209F38522618522628522E8
:1014F80063D2AF7522017524017525017526018512
:101508006069756A017888E6B40307C27D3076029F
:10151800D27DD268D269753300120F22120F511290
:101528000A13120A1A120A13120A1A120A13120CAE
:101538009A12066C120D8F120DD6120A1A120C8905
:10154800306E0312070C20660312085F3066031220
:10155800088F120D8F120E05120A1A120C9A306E8D
:1015680003120748120D8F120E7C120A1A120C89E8
:10157800306E031207A6120D8F120EAB120A1A1242
:101588000C9A306E03120803120D8F120F22120AE2
:101598001A120936120C89120D8F120F5112093ABC
:1015A800120A1A30692C85646185646285606975E0
:1015B8006A0179187A0CC3E533994009C269D26A7D
:1015C8008A350215DAC3E55C940140030215360238
:1015D8001645306A25206C22E535147006C26AD299
:1015E8006BA136F535C3E55C9401400302153678E6
:1015F80088E6C394036003021645753600C3E55FA9
:1016080094014009856462856069756A0178FA7990
:10161800A4E760027803C3E55F985021307404E5BD
:101628002A601A78F0306C058564617820C3E5413A
:10163800985002A1360536E55C6002C1487536004F
:10164800C2AF120FC97887E6FE7602114A7887EE94
:10165800F6E4F522F523F524F525F526F565752C30
:1016680000752D00D2AF120561120FC978A4E6608B
:1016780006D291D293D295307406E52A70024103BE
:10168800788DE6C39401400241E08128901A0D78D4
:1016980020121724E520B4A50CA3121724E520B4C2
:1016A8005A030216C2757CA5757DF1120FDE12165B
:1016B800E2757C00757D000216E1901A0378807B44
:1016C8000A121724A308DBF9901A0F788C7B1912D9
:1016D8001724A308DBF9901A2822C2AF1217671241
:1016E8001744901A00740E121729A37409121729A7
:1016F800A37415121729901A0378807B0A121728E9
:10170800A308DBF9901A0F788C7B19121728A30805
:10171800DBF912177A121758901A2822E493F62246
:10172800E6438F01538FFDFFC3E583941C400122DC
:10173800EF857CB7857DB7F0538FFE22438F024338
:101748008F01857CB7857DB7901A0DF0538FFC22E9
:10175800901A0D74A5F129901A0E745AF129227A5B
:101768003079D07820901A40F124E520F709A3DADF
:10177800F7227A3079D0901A40E7F12909A3DAF9EB
:1017880022AB74A875BB01027980BB02027981BBC8
:1017980003027982BB04027994BB05027983BB06F4
:1017A800027986BB07027992BB08027987BB0902D6
:1017B800799CBB0A027988BB0B027989E8F7227CFD
:1017C80005120566DCFB22C2AF12057612057D12F2
:1017D800058412058B12055712057612057D120530
:1017E8008412058B12055712057612057D120584A1
:1017F80012058BD2AF22C2AF12058B1205841205D7
:101808007D12057612055712058B12058412057D87
:1018180012057612055712058B12058412057D12E2
:101828000576D2AF22AE74AF75C2AF120576120537
:1018380076120576120557DEF212058B120557DF70
:10184800F8D2AF221217CF1217C71217C775740133
:10185800757501757600112D7C05AD5C120566C3A2
:0F186800ED955C70F5C3E55C9401400AC3E55C47
:1018770094FF403702188F1217891216E21217CFFA
:10188700C2AF75EF161217C7DCD10576C3E576949C
:1018970003500280C21217C70575E5741490009FA4
:1018A70093F808C3E57598500280A91217C7121755
:1018B700C70574C3E574940C50028095120FDE12AD
:0A18C70016E2C2AF75EF161217C744
:0319FD000211567E
:101A00000E091507070104FFFF09020101A55A018C
:101A100000B4FFFFFF03FF01FF25D078C804FF01DA
:091A200000FF0A010100FF00FFB4
:101A40002346435F46616972795F3330412320202A
:101A500023424C48454C492346383530232020202A
:101A60002020202020202020202020202020202076
:101C0000C2AFC2D37597DE7597AD7581C075A90057
:101C100043FF80752438752503B1DB7529A5752A26
:101C2000F175E34043F12053A4DF75D4FFD2857DE5
:101C3000FA780379E67C10752200752300901DE880
:101C40007B0675249875250130850281482085081A
:101C5000D8FBD9F9DCF781BA308508D8FBD9F9DC93
:101C6000F781BAB19BE493A3C39A6004DDC381BA40
:101C7000DBDBB18D600281317B08E493FAA3B16EA6
:101C8000DBF87A30B16E752200752300B18DEAFC65
:101C9000EBFDC3ED94FE400EB18D8A278B28ED300D
:101CA000E0048A828B83B18D7AC270D8C3ED94FE32
:101CB000601950CEBD0029EC600F7520007521FF22
:101CC000752900752A000200008100A827A92808AC
:101CD00009D804D90281DDB191EAF281D10D81A642
:101CE000C3ED94035051EDA2E092007AC5C3E582A2
:101CF0009400E583941C508C200010438F02438F86
:101D0000018529B7852AB7F0300027A827A9280818
:101D100009438F01538FFDD804D902A132C3E58353
:101D2000941C4003A3A117E28529B7852AB7F0A325
:101D3000A117538FFC81827AC1BD030CE493A3FAEF
:101D4000B152DCF8B14A81828184AA22AB23B16E00
:101D5000EBFAEA6222752608C3E52313F523E52290
:101D600013F52250066323A0632201D526EAB1DBD6
:101D7000B1DB75260AEAF4200102D285300102C2E5
:101D800085B1DBC3134002C201D526EB22B191EA33
:101D9000FB208502A191308502A196752608AE240C
:101DA000AF25C3EF13FFEE13FEB1DFB1DBC3EA13C0
:101DB0003085024480FA30E703632201C3E5231330
:101DC000F523E52213F52250066323A0632201D5F3
:101DD00026D9E52265236523F52222AE24AF250E00
:101DE0000FDEFEDFFCD20122424C48656C693437BD
:061DF0003164F850060109
:00000001FF
