:030000000219FDE5
:03000B000200AA46
:03002B0002015679
:03005B000202E8B6
:030073000202D5B1
:1000800002030406080C10182030406080040608A3
:100090000C10182030406080A0C00003070F1F0D17
:1000A0000D0403060D0502030202C2AFC0D0C0E07A
:1000B000206214E5256009E473E525F4F58AD2622F
:1000C000D0E0D0D0D2AF3285268AC262E526F46075
:1000D00029D0E0D0D0C291C293C295D2AF32C291A2
:1000E000C293C295206F0C2065097423D5E0FDE50D
:1000F0007B4290D0E0D0D0D2AF32758A00C28DD290
:100100006201F301B9306805206502D29101B9306E
:100110006805206502D29301B9306805206502D2D6
:100120009501B9C29030680A2065077406D5E0FDD4
:10013000D29101B9C29230680A2065077406D5E0F1
:10014000FDD29301B9C29430680A2065077406D5C0
:10015000E0FDD29501B9C2AFC2AD53E6EFC0D0C049
:10016000E0D2D3D2AFC2CEE52A600720744F152A61
:1001700021BD7800790020742EE580307E01F430B6
:10018000E50278FF53DACF207E0343DA20307E0386
:1001900043DA10C2D8C271E580307E01F430E50246
:1001A00079FFC3E89970CB306103752A402074034E
:1001B000752A40885CD270E86003755F0020740D7A
:1001C000E52B6004152B21CD43DA01C2D820700243
:1001D00021E0A85C206102C27020740221DE882226
:1001E0007882B6040385222420CF0AD0E0D0D04301
:1001F000E610D2AD32C2CF053A7802E52A6005306A
:100200007402152AC3E55C94014005755F00412125
:10021000756000756900E55F2401F55F5003755F47
:10022000FF7982B7020D306E1DC3E522943240166D
:10023000854C227982B7030E306E0BC3E5229432CF
:100240004004798E8722C3E5239522600840041577
:100250002341550523D8CA0569E56970021569D59A
:100260006A69756A017808E56B60497805C3E569D4
:10027000956B4057C3E569956C50087801756A0322
:1002800002028FC3E569956D50057801756A01C357
:10029000E5629524401E7982B7040241C0206E14A5
:1002A000852462E569046003856B69756A017523BD
:1002B0003C0202CBE5622850057562FF41C0F56241
:1002C000E5620470067560FF7569FFD0E0D0D04329
:1002D000E610D2AD32C2AF53E67F7592FA7593FF46
:1002E000C260759104D2AF32C2AF53E6EFC2ADC067
:1002F000D0C0E0C0F0D2D3D2AFA8FBA9FCC2D830A6
:100300007102614F53DACF207E0343DA10307E034F
:1003100043DA20D271E580307E01F420E5026126C7
:1003200088278928A13453DACF207E0343DA20308E
:100330007E0343DA10C2D8C271307402A120780063
:10034000E580307E01F430E502A120885CA10853ED
:10035000DACF207E0343DA20307E0343DA10C27105
:10036000206102812853DACF207E0343DA10307EE9
:100370000343DA20C2D8D27188578958C3E895550B
:10038000F8E99556F97B007E087A00C3E8948CE979
:1003900094005005755B00811A882178A2E6A82197
:1003A0006055C3E894C8E994005008E4D2E4FB7AAD
:1003B0000A61F5C3E89468E994015008E4D2E3FBCC
:1003C0007A0F61F5C3E894D0E994025008E4D2E2D0
:1003D000FB7A1E61F5C3E894A0E994055008E4D2C5
:1003E000E1FB7A3C61F5C3E89498E994085008E48D
:1003F000D2E0FB7A787E00C3E89559FCE9955AFD76
:1004000030E70AECF42401FCEDF43400FD755B00E8
:10041000C3EC9AED9E5003755B018859895A855744
:10042000558558567802A108C3E89527F8E995281C
:10043000F9307C0281EC307B0281EC307A0281E57C
:10044000207502814BE9FDE8FC816AE9C313F9E8F4
:1004500013F830790281E5E9C313F9E813F830782D
:100460000281E5E9C313FDE813FC20612CC3EC9481
:0F0470001CED940240028181ED701EC3EC94C814
:10047F0050180529E52970021529C3E529940A505A
:10048F0002A120755C00D270A120E5296002152918
:10049F007400207F037896E624FAFEE43400FFC34D
:1004AF00EC9EFCED9FFD50067800790081ECC3ECCB
:1004BF0094FFED9400400678FF790081ECEC857293
:1004CF00F0A4C5F0A2F733F87900400302050878CD
:1004DF00FF7900020508E9C313F9E813F8307C0E21
:1004EF00E9600278FFC3E81338F8E43400F9C3E891
:1004FF0094FFE99400400278FF885CD2702061027B
:10050F00A120741FF4552F4BF52FC274EB7002D23C
:10051F0074752A40307403752A0A306102A13420A1
:10052F00740353DAFE207403752B20D0F0D0E0D083
:10053F00D0D2AD43E610327901020564790302058A
:10054F0064790A020564791E020564796402056400
:10055F0079C80205647817E4D5E0FDD8FAD9F622F8
:10056F007A147B7802058B7A107B8C02058B7A0DBF
:10057F007BB402058B7A0B7BC802058BE573D5E044
:10058F0001227902E4C292D5E0FDD293D5E0FDC2FB
:10059F0093D5E0FDD292D5E0FDE920E002D2913073
:1005AF00E002D295E573D5E0FDE920E002C291307B
:1005BF00E002C2957496D5E0FDD9C9EAF8D5E0FD01
:1005CF00D8FBDBB8C29222C37C007D0075F000051A
:1005DF00F0EA33FAEB33FB50F6EB13FBEA13FAC3F3
:1005EF00E9FFE8FEE89AF8E99BF95004EFF9EEF815
:1005FF00B3EC33FCED33FDD5F0DFEDF9ECF822E889
:10060F0089F08A20D2D4F8A9F07B0030F70B7BFF5A
:10061F00F42401F8E9F43400F9E88520F0A4ADF0F2
:10062F00F8E98520F0A4AFF0FEED2EF974003FFA43
:10063F007C04C3EA13FAE913F9E813F8DCF48BF03E
:10064F0030F70AE8F42401F8E9F43400F9E889F006
:10065F00C2D4F8A9F0227882B60403020704C3E5D6
:10066F005C9419401EE52D54067018206E367805DF
:10067F007994E7146007780A1460027812C3E54191
:10068F0098401F306E098564627569FF756A018530
:10069F002224E4F544F545F546F547F548C26E02C8
:1006AF000704D26E7994E7147013E523F43333F90A
:1006BF0013F8E9540104F9E854FE0206F8E714149C
:1006CF007014E523F4333333F913F8E9540304F9C1
:1006DF00E854FC020700E523F433333333F913F8FE
:1006EF00E954070404F9E854F8C39440F8E9940076
:1006FF00F98844894522C3E54113F9E54013F8C34E
:10070F00E54498F8E54599F9500CC3E89480E994CD
:10071F00FF401602073CC3E8947FE99400500302A0
:10072F00073C787F790002073C788079FF884989F8
:10073F004A22E5492546F8E54A3547F9854A20E436
:10074F00300701F43548FA30E709C3EA94F0401551
:10075F0002077AC3EA940F500302077A78FF79FFF2
:10076F007A0F02077A780079007AF0C3E524956151
:10077F00500AC374019524500B020798E54A20E7ED
:10078F000E020798E54A30E706884689478A4822CD
:10079F0078A5E6FAC3E54933F8E54A33F9D10EE90E
:1007AF0030E70BC3E89480E994FF4013E1D2C3E82C
:1007BF00947FE994005002E1D2787F7900E1D278FA
:1007CF008079FFE820E715C3E52398F84009C3E8CF
:1007DF00940140030207F978010207F9E8F42401B4
:1007EF002523F840030207F978FF884B2278A6E605
:1007FF00FAA847A94812060EE930E70CC3E894019E
:10080F00E994FF401602082EC3E894FFE9940050C4
:10081F000302082E78FF790002082E780179FFE98C
:10082F0020E715C3E54B98F84009C3E8940140034E
:10083F000208557801020855E8F42401254BF840C9
:10084F000302085578FF88242278FF20692879A1B0
:10085F00E76023E541601F74FF8541F0848539F01F
:0F086F00306A0375F005A4F8C5F0600278FFC386
:10087E00E895645002A864886322C3E5409440E57D
:10088E00419401E5635003140199046002F563225B
:10089E007883E6F520120F1B75E89012054675E871
:1008AE009030EDFDA8BDA9BE120FC2756E55756FC5
:1008BE0000C3740013FD7455606613FC74552CFC54
:1008CE0074003DFDECFAEDFBC3E89AE99B4014E59C
:1008DE006E2455F56EE56F3400F56FEA2CFAEB3D9C
:1008EE00FB80E5AE6EAF6FC3E56F13F9E56E13F8DF
:1008FE00C3E913F9E813F87A03C3E913F9E813F817
:10090E00DAF7AA201A7009756E00756F0002092EAB
:10091E001AEA6008EE28FEEF39FFDAF88E6E8F6F56
:10092E002275E890227883E6FF30EDF9A8BDA9BEC6
:10093E000570C3E57094084052757000E9FA79A00D
:10094E00E76044EA7007E571601B020967C3E8952A
:10095E00716010E5715006600C140209730460F9A1
:10096E00020973E571F571C39467401B7561C0C3CD
:10097E0094044013756180C39404400B756140C3A9
:10098E009404400375610075BB0622EFC3940160A9
:10099E001F7455601BC3E894FFE994035012C3E81B
:1009AE00956EE9956F5009E561600C15610209C5F8
:1009BE00E561F460020561A861C3E524985002A8C0
:1009CE0024C3E89562400AA862E562F4600385627A
:1009DE006188258826E570B4070375BB1022743232
:1009EE0079A787F0A4C5F0A2F733F8C3E895614064
:1009FE0002A861882288248825882688642275406A
:100A0E00007541F022C2AF75C820A8CCA9CDAA3A74
:100A1E0030CF010A75C824D2AFAB3BAC3C883B89C2
:100A2E003CC3E89BF8E99C206908F9306602612412
:100A3E00417EAD3D8A3DF9EA9DFA600678FF79FF69
:100A4E004163AE3EAF3F8B3E8C3FA83BA93CC3E813
:100A5E009EF8E99FF9C3E54113FBE54013FAE82A36
:100A6E00F540E93BF54150067540FF7541FF41CB1E
:100A7E00AA40AB41AC40AD417E047F02C3EB94046F
:100A8E00400D1E1FC3EB94084005206A021E1FC3B3
:100A9E00ED13FDEC13FCDEF7C3EA9CFAEB9DFBEFC6
:100AAE006009C3E913F9E813F8DFF7EA28FAEB391E
:100ABE00FB8A408B4150067BFF8B408B41C3EB94EE
:100ACE00025002D2663069047F0341F67892E6FF47
:100ADE00C3E537948240110FC3E53794A040010F50
:100AEE00C3EF940640027F057E02E541C4540FF920
:100AFE00E541C454F0F8E540C4540F28F8C3E89E0D
:100B0E00FAE99400FB4009C3EA9402EB9400500406
:100B1E007A02E4FB6170AA40AB41EBC4FEEAC45416
:100B2E000F4EFCC3EA9CFAEB9400FBC3E813C3130D
:100B3E00F8EA28FAEB3400FB8A408B41C3EB9402AF
:100B4E004002C2667802EBC4FE7B00EAC4540F4E2C
:100B5E00FAC3EA98FA4005C3940250027A027892D8
:100B6E00E6FF3060026170855192855293D26043E8
:100B7E00E680C3E49AF8E49BF930660261FCE8FA79
:100B8E00E9FBD3E913FDE813FC88518952C3EF94B6
:100B9E00036038EF20E00DE82CF8E93DF9ECFAEDB2
:100BAE00FB020BC5E828F8E939F9C3E82402F8E995
:100BBE003400F97AFE7BFFC3EF9403400E8A538B09
:100BCE0054884D894E8C4F8D508130885389548A6C
:100BDE004D8B4E8C4F8D503069127553F07554FFFE
:100BEE00754FF07550FF7551F07552FF8130E8FA70
:100BFE00D3E813FC8851C3EF94036020EF20E00785
:100C0E00E82CF8ECFA811CE8282402F87AFEC3EFEF
:100C1E00940340088A53884D8C4F813088538A4DF7
:100C2E008C4FE568C3335002646BF5683060028107
:100C3E003A753402D26043E680E52D54066034A83E
:100C4E0040A941C3E913F9E813F8C3E913F9E8130E
:100C5E00F8306904E92440F9C2AF53E67F7591007C
:0E0C6E00C3E498F594E499F595759104D2606D
:100C7C0043E680D2AF22D264754300752000306CFD
:100C8C0003752040020CA1D26475430075204030DE
:100C9C006C0375200078017901206620E52D54063F
:100CAC006002C2647914E541C313700104F8C39463
:100CBC001440027814306904781B791B206010E50D
:100CCC0043600C306903D53404D26DA14B914205BD
:100CDC0043E59B5440B52002A13530690908C3E8AF
:100CEC009940011881C820640A08C3E89940028120
:100CFC00A181C8C264C2AF53E67F75910030661201
:100D0C007594007595F8759104D26043E680D2AF66
:100D1C0081A1E5417EFFC3334005C3334001FEC3CF
:100D2C00E49E759400F595A112C3E533940150022D
:100D3C0081A130640281A1D802A14981C8C26DC2CF
:100D4C00AF53E67F75910085539485549575910446
:100D5C00854D92854E93D26043E680D2AFE52D54FB
:100D6C00066008206A020533020D87306D0D206C79
:100D7C000A2064071581158102163122780030642F
:100D8C00027801E53775F007A4F9E5F028F5F0E9EC
:100D9C00A2F013A2F113A2F213F537C39478500307
:100DAC00753778C3E53795384008D265C291C29340
:100DBC00C295306002A1BE854F92855093D260439C
:100DCC00E68022207D16C2AF754202C292D29030CC
:100DDC006202D295D2AF759F02020FBFC2AF7542AD
:100DEC0002C292D294306202D291D2AF759F0202AB
:100DFC000FBF307243207D20C2AF75420390013487
:100E0C00757B04C295C294306204D293C11CD292F9
:100E1C00D2AF759F03020FBFC2AF7542039001346E
:100E2C00757B04C291C290306204D293C13CD292C1
:100E3C00D2AF759F01020FBF207D17C2AF75420361
:100E4C0090010FC295306202D293D2AF759F03020C
:100E5C000FBFC2AF75420390010FC291306202D234
:100E6C0093D2AF759F01020FBF207D16C2AF7542A2
:100E7C0004C290D294306202D293D2AF759F010219
:100E8C000FBFC2AF754204C294D290306202D293AB
:100E9C00D2AF759F03020FBF307243207D20C2AFCB
:100EAC00754205900123757B01C293C29230620496
:100EBC00D291C1C2D290D2AF759F02020FBFC2AF06
:100ECC00754205900145757B10C293C29230620445
:100EDC00D295C1E2D294D2AF759F02020FBF207D92
:100EEC0017C2AF754205900105C293306202D291D0
:100EFC00D2AF759F02020FBFC2AF754205900119A8
:100F0C00C2933062EBD295D2AF759F02020FBF2015
:100F1C007D16C2AF754206C294D292306202D29153
:100F2C00D2AF759F03020FBFC2AF754206C290D2FB
:100F3C0092306202D295D2AF759F01020FBF307210
:100F4C0044207D20C2AF754201900145757B10C2D3
:100F5C0091C290306204D295E168D294D2AF759F61
:100F6C0001020FBFC2AF754201900123757B01C214
:100F7C0095C294306205D291020F89D290D2AF758E
:100F8C009F03020FBF207D17C2AF7542019001195C
:100F9C00C291306202D295D2AF759F01020FBFC2CF
:100FAC00AF754201900105C295306202D291D2AF69
:100FBC00759F03C26522900103757B00C291C29399
:100FCC00C295C290C292C294C262227880760708FF
:100FDC0076070876010876040876FF0876FF08760F
:100FEC000B087602087601087601788C7601087673
:100FFC00000876B40876FF0876FF0876FF087603BB
:10100C000876FF0876010876FF0876250876D00862
:10101C0076780876C80876040876FF087601087694
:10102C000008767A087607087601087601087600BB
:10103C000876FF087600227887E6FFC2727888C2AD
:10104C007DE630E102D27DC27E7889E630E102D2C3
:10105C007EC3EF94026008758E01D2730210707516
:0F106C008E00C273227880E6149000809378A5DE
:10107B00F67881E6149000809378A6F67886E614CD
:10108B0090008D9378A7F6789FE6F87005756B0046
:10109B0001B7C3E8941140027811E82828F56B25B5
:1010AB006B256B28F56C256B2828F56D7886E6F596
:1010BB0039C394025003753902789CE67538FFB436
:1010CB0002037538A0B4030375388278A3E6149035
:1010DB00009A93F566120FC222227896E6FA789759
:1010EB00E6FB7888E6B40305C3EB940EFB307F0474
:1010FB007A007BFFC3EB9AFCC3948250027C82750F
:10110B0072000572EC8572F0A4C3E5F0947D40F299
:10111B0022D27F11E51205551205557A007B007C12
:10112B001012054BE55C2AFA74003BFBDCF37C04E4
:10113B00C3EB13FBEA13FADCF7FEC27F11E5227552
:10114B007C00757D00E5EF20E603752000052090FF
:10115B003FFFE520146006901FFF146000930460AE
:10116B000375EF167597DE7597AD7581C043FF80DC
:10117B0012054675EF0675A900E5C7240220E70D99
:10118B00F521E5B120E0068521C743B101120FC25D
:10119B007580FF75A40075F1B075D4DF759000757F
:1011AB00A53F75F23F75D50075A60175E34075E255
:1011BB0001120FC2E4F8F6D8FD756801120FD712B1
:1011CB00168878988673753001C2AF12055F1205C9
:1011DB006F12055512057612055512057D12055530
:1011EB001217BB12055F12055F12055AC2AF757C51
:1011FB0000757D0078FA79FA308507D9FBD8F702AC
:10120B001C001143117111E411E578988673120FCC
:10121B00C275881075890275C82475910475D840FC
:10122B0075A82275B80275E690759B80759D007543
:10123B00D10C75BC5975BB0675E88075B2011205EA
:10124B0046D2AF12089E75360053DACF207E034389
:10125B00DA20307E0343DA1043DA01C2D8C27112AE
:10126B00055FD2617B037A0CE55B70077A0CDB03BD
:10127B000211F71205552070030211F7C270E55CDD
:10128B00C3940240E1E52F541F855E5DF55EB55DAD
:10129B00D5DAD5C26153DACF207E0343DA20307E14
:1012AB000343DA10C2D8C27178A2E67008D274E593
:1012BB002F54E0F52FC27575290012055A307409A9
:1012CB00C3E529940A4002D27512054B780230749B
:1012DB00027800C3E55C9840F0C2AF12056F1205AF
:1012EB006F12056FD2AF12055F754C0012054B786C
:1012FB008CE6C3940150030213E4E530C394015010
:10130B00030213E4757CA5757DF1207435C3E55C90
:10131B0094FF50030213E4C2AF120584D2AF12053F
:10132B005AC3E55C940150EFC2AF12056F12055022
:10133B0012056FD2AF12055AC3E55C94FF40E90268
:10134B0018407F05D27F11E512055AC2AFC27F113B
:10135B00E5AE5CC3E55C947FD2AF500261F412053D
:10136B0046C2AF120584D2AFDFDA311CC3EE94054F
:10137B007897F612055F1217C37F0AD27F11E51219
:10138B00055AC2AFC27F11E5AE5CC3E55C947FD258
:10139B00AF50E6120546C2AF12056F12055012058B
:1013AB006FD2AFDFD6311CEE24037896F6F879971F
:1013BB00E7C394824003985006E824827897F6128C
:1013CB00055F1216D61217F212055A11E5C3E55C2A
:1013DB0094FF5002610F021840757C00757D00C3AD
:1013EB00E55C954C4003855C4C12055A7801798875
:1013FB00E7B403027805C3E55C98400241F7C2AF3E
:10140B00120584120584120584D2AF12055F753064
:10141B0000E4F531F5320531E531F4703F053278F2
:10142B009AE67819146012783214600D787D146086
:10143B000878FA146003753200C3E53298401D1228
:10144B000FC2120546153275310078998673C2AFFB
:10145B00120584D2AF7898867312055A120550E59F
:0F146B002A700530740221F77801207402780688
:10147A00C3E55C9840A112055AE52A70030211F7E8
:10148A00C2AF120FC2E4F522F523F524F525F5269D
:10149A00F567D2AF7885E6C333F565E4F544F545DB
:1014AA00F546F547F548F570F52CF52DF5377570C5
:1014BA000875BB1012054612092F30EDFDA8BDA90B
:1014CA00BEE97001F8887112093375700875BB108E
:1014DA001143C2AF7561FF1209EC85226185226250
:1014EA00852263D2AF7522017524017525017526FF
:1014FA0001856069756A017888E6B40307C27D30A0
:10150A007602D27DD268D269753300120F1B120F90
:10151A004A120A0C120A13120A0C120A13120A0CA1
:10152A00120C93120665120D88120DCF120A1312AD
:10153A000C82306E031207052066031208583066C3
:10154A0003120888120D88120DFE120A13120C9348
:10155A00306E03120741120D88120E75120A131209
:10156A000C82306E0312079F120D88120EA4120A03
:10157A0013120C93306E031207FC120D88120F1B04
:10158A00120A1312092F120C82120D88120F4A1214
:10159A000933120A1330692C856461856462856097
:1015AA0069756A0179187A0CC3E533994009C269E9
:1015BA00D26A8A350215CEC3E55C9401400302154E
:1015CA002A021639306A25206C22E535147006C2C3
:1015DA006AD26BA12AF535C3E55C94014003021572
:1015EA002A7888E6C394036003021639753600C365
:1015FA00E55F94014009856462856069756A0178CE
:10160A00FA79A4E760027803C3E55F985021307441
:10161A0004E52A601A78F0306C058564617820C385
:10162A00E541985002A12A0536E55C6002C13C7585
:10163A003600C2AF120FC27887E6FE7602114378EF
:10164A0087EEF6E4F522F523F524F525F526F5656A
:10165A00752C00752D00D2AF12055A120FC278A44C
:10166A00E66006D291D293D295307406E52A7002CA
:10167A0021F7788DE6C39401400241D4811C901A67
:10168A000D7820121718E520B4A50CA3121718E537
:10169A0020B45A030216B6757CA5757DF1120FD7D0
:1016AA001216D6757C00757D000216D5901A03783D
:1016BA00807B0A121718A308DBF9901A0F788C7B23
:1016CA0019121718A308DBF9901A2822C2AF1217A9
:1016DA005B121738901A00740E12171DA3740912A0
:1016EA00171DA3741512171D901A0378807B0A120E
:1016FA00171CA308DBF9901A0F788C7B1912171C98
:10170A00A308DBF912176E12174C901A2822E493D9
:10171A00F622E6438F01538FFDFFC3E583941C40F5
:10172A000122EF857CB7857DB7F0538FFE22438F68
:10173A0002438F01857CB7857DB7901A0DF0538FD0
:10174A00FC22901A0D74A5F11D901A0E745AF11DFF
:10175A00227A3079D07820901A40F118E520F709DA
:10176A00A3DAF7227A3079D0901A40E7F11D09A35B
:10177A00DAF922AB74A875BB01027980BB0202793F
:10178A0081BB03027982BB04027994BB0502798387
:10179A00BB06027986BB07027992BB08027987BB2E
:1017AA000902799CBB0A027988BB0B027989E8F79E
:1017BA00227C0512055FDCFB22C2AF12056F1205FF
:1017CA007612057D12058412055012056F120576F0
:1017DA0012057D12058412055012056F1205761244
:1017EA00057D120584D2AF22C2AF12058412057D8F
:1017FA0012057612056F12055012058412057D1224
:10180A00057612056F12055012058412057D120520
:10181A007612056FD2AF22AE74AF75C2AF12056FE2
:10182A0012056F12056F120550DEF21205841205B9
:10183A0050DFF8D2AF221217C31217BB1217BB75AB
:10184A00740175750175760011217C05AD5C120570
:10185A005FC3ED955C70F5C3E55C9401400AC3E58E
:0E186A005C94FF403702188312177D1216D6C9
:101878001217C3C2AF75EF161217BBDCD10576C3BA
:10188800E5769403500280C21217BB0575E57414FF
:1018980090009F93F808C3E57598500280A9121725
:1018A800BB1217BB0574C3E574940C5002809512E3
:0D18B8000FD71216D6C2AF75EF161217BB70
:0319FD0002114A8A
:101A00000E091507070104FFFF0B020101A55A018A
:101A100000B4FFFFFF03FF01FF25D078C804FF01DA
:091A200000FF07010100FF00FFB7
:101A40002346435F46616972795F36412320202037
:101A500023424C48454C492346383530232020202A
:101A60002020202020202020202020202020202076
:101C0000C2AFC2D37597DE7597AD7581C075A90057
:101C100043FF80752438752503B1DB7529A5752A26
:101C2000F175E34043F12053A4DF75D4FFD2857DE5
:101C3000FA780379E67C10752200752300901DE880
:101C40007B0675249875250130850281482085081A
:101C5000D8FBD9F9DCF781BA308508D8FBD9F9DC93
:101C6000F781BAB19BE493A3C39A6004DDC381BA40
:101C7000DBDBB18D600281317B08E493FAA3B16EA6
:101C8000DBF87A30B16E752200752300B18DEAFC65
:101C9000EBFDC3ED94FE400EB18D8A278B28ED300D
:101CA000E0048A828B83B18D7AC270D8C3ED94FE32
:101CB000601950CEBD0029EC600F7520007521FF22
:101CC000752900752A000200008100A827A92808AC
:101CD00009D804D90281DDB191EAF281D10D81A642
:101CE000C3ED94035051EDA2E092007AC5C3E582A2
:101CF0009400E583941C508C200010438F02438F86
:101D0000018529B7852AB7F0300027A827A9280818
:101D100009438F01538FFDD804D902A132C3E58353
:101D2000941C4003A3A117E28529B7852AB7F0A325
:101D3000A117538FFC81827AC1BD030CE493A3FAEF
:101D4000B152DCF8B14A81828184AA22AB23B16E00
:101D5000EBFAEA6222752608C3E52313F523E52290
:101D600013F52250066323A0632201D526EAB1DBD6
:101D7000B1DB75260AEAF4200102D285300102C2E5
:101D800085B1DBC3134002C201D526EB22B191EA33
:101D9000FB208502A191308502A196752608AE240C
:101DA000AF25C3EF13FFEE13FEB1DFB1DBC3EA13C0
:101DB0003085024480FA30E703632201C3E5231330
:101DC000F523E52213F52250066323A0632201D5F3
:101DD00026D9E52265236523F52222AE24AF250E00
:101DE0000FDEFEDFFCD20122424C48656C693437BD
:061DF0003164F850060109
:00000001FF
