:030000000219FDE5
:03000B000200AA46
:03002B0002018748
:03005B0002033964
:030073000203265F
:1000800002030406080C10182030406080040608A3
:100090000C10182030406080A0C00003070F1F0D17
:1000A0000D0403060D0503030202C2AF306308C24C
:1000B0006385798AD2AF32C0D0C0E0206221E525C5
:1000C0006016E473E525F4C3334009758A00D263F2
:1000D000F57901D6F58AD262D0E0D0D0D2AF32C362
:1000E000E526334009758A00D263F57901F0F58A77
:1000F000C262E526F4602F30682520720DD0E0D072
:10010000D0C295C293C297D2AF32C295C293C29762
:10011000206F0C2065097408D5E0FDE57B4290D086
:10012000E0D0D0D2AF32758A00D263757900C28D2B
:10013000D262211F01C4306805206502D29501C436
:10014000306805206502D29701C430680520650239
:10015000D29301C4C29430680A2065077408D5E0C0
:10016000FDD29501C4C29630680A2065077408D58F
:10017000E0FDD29701C4C29230680A206507740876
:10018000D5E0FDD29301C4C2AFC2AD53E6EFC0D0FB
:10019000C0E0D2D3D2AFE57A6009E5776005757724
:1001A000004129757701C2CEE52A600720744F15FA
:1001B0002A21FE7800790020742EE580307E01F43B
:1001C00030E50278FF53DACF207E0343DA20307E19
:1001D0000343DA10C2D8C271E580307E01F430E505
:1001E0000279FFC3E89970CB306103752A4020740F
:1001F00003752A40885CD270E86003755F00207444
:100200000DE52B6004152B410E43DA01C2D8207096
:10021000024121A85C206102C270207402411F8843
:10022000227882B6040385222420CF0AD0E0D0D0E1
:1002300043E610D2AD32C2CF053AE57A6009E578DF
:100240006005757800611C7578017802E52A600503
:10025000307402152AC3E55C94014005755F0041C6
:1002600072756000756900E55F2401F55F500375E4
:100270005FFF7982B7020D306E1DC3E522943240D4
:1002800016854C227982B7030E306E0BC3E522949B
:10029000324004798E8722C3E5239522600840040A
:1002A000152341A60523D8CA0569E56970021569B9
:1002B000D56A69756A017808E56B60497805C3E518
:1002C00069956B4057C3E569956C50087801756A6C
:1002D000030202E0C3E569956D50057801756A0176
:1002E000C3E5629524401E7982B704026111206E35
:1002F00014852462E569046003856B69756A01757C
:10030000233C02031CE5622850057562FF6111F56C
:1003100062E5620470067560FF7569FFD0E0D0D0B9
:1003200043E610D2AD32C2AF53E67F7592FA7593B1
:10033000FFC260759104D2AF32C2AF53E6EFC2ADD7
:10034000C0D0C0E0C0F0D2D3D2AFA8FBA9FCE57A00
:100350006007C3E913F9E813F8C2D830710261AB42
:1003600053DACF207E0343DA10307E0343DA20D203
:1003700071E580307E01F420E502618288278928BA
:10038000A19053DACF207E0343DA20307E0343DA94
:1003900010C2D8C271307402A17C7800E580307E32
:1003A00001F430E502A17C885CA16453DACF207EA1
:1003B0000343DA20307E0343DA10C27120610281E8
:1003C0008453DACF207E0343DA10307E0343DA20F1
:1003D000C2D8D27188578958C3E89555F8E995561F
:1003E000F97B007E087A00C3E8948CE994005005FC
:1003F000755B008176882178A2E6A8216055C3E864
:1004000094C8E994005008E4D2E4FB7A0A8151C30D
:10041000E89468E994015008E4D2E3FB7A0F815133
:10042000C3E894D0E994025008E4D2E2FB7A1E813A
:1004300051C3E894A0E994055008E4D2E1FB7A3C6A
:100440008151C3E89498E994085008E4D2E0FB7A1B
:10045000787E00C3E89559FCE9955AFD30E70AEC2F
:10046000F42401FCEDF43400FD755B00C3EC9AED5F
:0D0470009E5003755B018859895A855755C8
:10047D008558567802A164C3E89527F8E99528F9BF
:10048D00307C02A148307B02A148307A02A1412084
:10049D00750281A7E9FDE8FC81C6E9C313F9E813EC
:1004AD00F8307902A141E9C313F9E813F830780265
:1004BD00A141E9C313FDE813FC20612CC3EC941C8E
:1004CD00ED9402400281DDED701EC3EC94C850180E
:1004DD000529E52970021529C3E529940A5002A1C1
:1004ED007C755C00D270A17CE52960021529740031
:1004FD00207F037896E624FAFEE43400FFC3EC9ED9
:10050D00FCED9FFD500678007900A148C3EC94FFE7
:10051D00ED9400400678FF7900A148EC8572F0A4B7
:10052D00C5F0A2F733F87900400302056478FF792E
:10053D0000020564E9C313F9E813F8307C0EE96095
:10054D000278FFC3E81338F8E43400F9C3E894FFE8
:10055D00E99400400278FF885CD270206102A17C92
:10056D00741FF4552F4BF52FC274EB7002D27475B6
:10057D002A40307403752A0A306102A19020740359
:10058D0053DAFE207403752B20D0F0D0E0D0D0D2FA
:10059D00AD43E6103279010205C079030205C07939
:1005AD000A0205C0791E0205C079640205C079C82A
:1005BD000205C07817E4D5E0FDD8FAD9F6227A14F1
:1005CD007B780205E77A107B8C0205E77A0D7BB408
:1005DD000205E77A0B7BC80205E7E573D5E001223A
:1005ED007902E4C296D5E0FDD297D5E0FDC297D54C
:1005FD00E0FDD296D5E0FDE920E002D29530E00293
:10060D00D293E573D5E0FDE920E002C29530E0021A
:10061D00C2937496D5E0FDD9C9EAF8D5E0FDD8FBB3
:10062D00DBB8C29622C37C007D0075F00005F0EAB0
:10063D0033FAEB33FB50F6EB13FBEA13FAC3E9FF86
:10064D00E8FEE89AF8E99BF95004EFF9EEF8B3ECFF
:10065D0033FCED33FDD5F0DFEDF9ECF822E889F050
:10066D008A20D2D4F8A9F07B0030F70B7BFFF4245D
:10067D0001F8E9F43400F9E88520F0A4ADF0F8E9CB
:10068D008520F0A4AFF0FEED2EF974003FFA7C0446
:10069D00C3EA13FAE913F9E813F8DCF48BF030F739
:1006AD000AE8F42401F8E9F43400F9E889F0C2D439
:1006BD00F8A9F0227882B60403020760C3E55C94C2
:1006CD0019401EE52D54067018206E367805799464
:1006DD00E7146007780A1460027812C3E541984068
:1006ED001F306E098564627569FF756A0185222464
:1006FD00E4F544F545F546F547F548C26E02076049
:10070D00D26E7994E7147013E523F43333F913F8AB
:10071D00E9540104F9E854FE020754E71414701467
:10072D00E523F4333333F913F8E9540304F9E854AA
:10073D00FC02075CE523F433333333F913F8E95442
:10074D00070404F9E854F8C39440F8E99400F988D3
:10075D0044894522C3E54113F9E54013F8C3E54447
:10076D0098F8E54599F9500CC3E89480E994FF4059
:10077D0016020798C3E8947FE99400500302079886
:10078D00787F7900020798788079FF8849894A2215
:10079D00E5492546F8E54A3547F9854A20E430070D
:1007AD0001F43548FA30E709C3EA94F04015020721
:1007BD00D6C3EA940F50030207D678FF79FF7A0F5C
:1007CD000207D6780079007AF0C3E5249561500AC6
:1007DD00C374019524500B0207F4E54A20E70E027D
:1007ED0007F4E54A30E706884689478A482278A506
:1007FD00E6FAC3E54933F8E54A33F912066AE930FA
:10080D00E70BC3E89480E994FF4013012FC3E894EC
:10081D007FE994005002012F787F7900012F7880B5
:10082D0079FFE820E715C3E52398F84009C3E8945C
:10083D000140030208567801020856E8F424012508
:10084D0023F8400302085678FF884B2278A6E6FA73
:10085D00A847A94812066AE930E70CC3E89401E9F4
:0E086D0094FF401602088BC3E894FFE9940044
:10087B00500302088B78FF790002088B780179FF0F
:10088B00E920E715C3E54B98F84009C3E89401400C
:10089B00030208B278010208B2E8F42401254BF8F0
:1008AB0040030208B278FF88242278FF2069287958
:1008BB00A1E76023E541601F74FF8541F084853912
:1008CB00F0306A0375F005A4F8C5F0600278FFC339
:1008DB00E895645002A864886322C3E54094C8E598
:1008EB00419400E56350031401F6046002F56322A2
:1008FB007883E6F520120F9275E8901205A275E841
:10090B009030EDFDA8BDA9BE121039756E55756FEF
:10091B0000C3740013FD7455606613FC74552CFCF6
:10092B0074003DFDECFAEDFBC3E89AE99B4014E53E
:10093B006E2455F56EE56F3400F56FEA2CFAEB3D3E
:10094B00FB80E5AE6EAF6FC3E56F13F9E56E13F881
:10095B00C3E913F9E813F87A03C3E913F9E813F8B9
:10096B00DAF7AA201A7009756E00756F0002098BF1
:10097B001AEA6008EE28FEEF39FFDAF88E6E8F6FF9
:10098B002275E890227883E6FF30EDF9A8BDA9BE69
:10099B000570C3E57094084052757000E9FA79A0B0
:1009AB00E76044EA7007E571601B0209C4C3E89570
:1009BB00716010E5715006600C140209D00460F9E7
:1009CB000209D0E571F571C39472401B7561C0C308
:1009DB0094044013756180C39404400B756140C34C
:1009EB009404400375610075BB0822EFC39401604A
:1009FB001F7455601BC3E894FFE994035012C3E8BE
:100A0B00956EE9956F5009E561600C1561020A223C
:100A1B00E561F460020561A861C3E524985002A862
:100A2B0024C3E89562400AA862E562F4600385621C
:100A3B006188258826E570B4070375BB10227432D4
:100A4B0079A787F0A4C5F0A2F733F8C3E895614006
:100A5B0002A861882288248825882688642275400C
:100A6B00007541F022C2AF75C820A8CCA9CDAA3A17
:100A7B0030CF010A75C824D2AFC3EA13FAE913F9D0
:100A8B00E813F8AB3BAC3C883B893CC3E89BF8E9EB
:100A9B009C20690A547FF9306602618F41E9AD3DB4
:100AAB008A3DF9EA9D547FFA600678FF79FF41CEC3
:100ABB00AE3EAF3F8B3E8C3FA83BA93CC3E89EF8B4
:100ACB00E99FF9C3E54113FBE54013FAE82AF5402A
:100ADB00E93BF54150067540FF7541FF6136AA4071
:100AEB00AB41AC40AD417E047F02C3EB9404400D9F
:100AFB001E1FC3EB94084005206A021E1FC3ED1393
:100B0B00FDEC13FCDEF7C3EA9CFAEB9DFBEF6009EF
:100B1B00C3E913F9E813F8DFF7EA28FAEB39FB8A94
:100B2B00408B4150067BFF8B408B41C3EB940250B3
:100B3B0002D2663069047F0361617892E6FFC3E5F8
:100B4B0037948240110FC3E53794A040010FC3EFD8
:100B5B00940640027F057E02E541C4540FF9E5413E
:100B6B00C454F0F8E540C4540F28F8C3E89EFAE9E2
:100B7B009400FB4009C3EA9402EB940050047A0200
:100B8B00E4FB61DBAA40AB41EBC4FEEAC4540F4E5D
:100B9B00FCC3EA9CFAEB9400FBC3E813C313F8EA1B
:100BAB0028FAEB3400FB8A408B41C3EB94024002E2
:100BBB00C2667802EBC4FE7B00EAC4540F4EFAC344
:100BCB00EA98FA4005C3940250027A027892E6FF43
:100BDB0030600261DB855192855293D26043E6808F
:100BEB00C3E49AF8E49BF9C3E833F8E933F93066C8
:100BFB0002816EE8FAE9FBD3E913FDE813FC885197
:100C0B008952C3EF94036038EF20E00DE82CF8E92C
:100C1B003DF9ECFAEDFB020C37E828F8E939F9C39A
:100C2B00E82402F8E93400F97AFE7BFFC3EF940362
:100C3B00400E8A538B54884D894E8C4F8D5081A218
:100C4B00885389548A4D8B4E8C4F8D503069127559
:100C5B0053F07554FF754FF07550FF7551F0755289
:0F0C6B00FF81A2E8FAD3E813FC8851C3EF94038A
:100C7A006020EF20E007E82CF8ECFA818EE82824BF
:100C8A0002F87AFEC3EF940340088A53884D8C4FCA
:100C9A0081A288538A4D8C4FE568C3335002646B36
:100CAA00F56830600281AC753402D26043E680E5B3
:100CBA002D5406602DA840A941C3E913F9E813F899
:100CCA00306904E92440F9C2AF53E67F759100C345
:100CDA00E498F594E499F595759104D26043E68019
:100CEA00D2AF22D264754300752000306C037520A0
:100CFA0040020D0CD264754300752040306C0375B8
:100D0A00200078017901206620E52D54066002C290
:100D1A00647914E541C313700104F8C394144002C2
:100D2A007814306904781B791BC3E833F8C3E933B4
:100D3A00F9206010E543600C306903D53404D26DA4
:100D4A00A1C291B40543E59B5440B52002A1AC3041
:100D5A00690908C3E899400118A13B20640A08C33D
:100D6A00E8994002A10CA13BC264C2AF53E67F7569
:100D7A0091003066127594007595F0759104D260F1
:100D8A0043E680D2AFA10CE5417EFFC3334009C3DD
:100D9A00334005C3334001FEC3E49E759400F595C4
:100DAA00A185C3E53394015002A10C306402A10C61
:100DBA00D802A1C0A13BC26DC2AF53E67F759100B4
:100DCA00855394855495759104854D92854E93D299
:100DDA006043E680D2AFE52D54066008206A02051A
:100DEA0033020DFE306D0D206C0A20640715811543
:100DFA00810216B22278003064027801E53775F074
:100E0A0007A4F9E5F028F5F0E9A2F013A2F113A27C
:100E1A00F213F537C394785003753778C3E53795DD
:100E2A00384008D265C295C293C297306002C13574
:100E3A00854F92855093D26043E68022207D16C268
:100E4A00AF754202C296D294306202D293D2AF7583
:100E5A009F11021036C2AF754202C296D292306218
:100E6A0002D295D2AF759F11021036307243207D9F
:100E7A0020C2AF754203900165757B40C293C2924E
:100E8A00306204D297C193D296D2AF759F130210E3
:100E9A0036C2AF754203900165757B40C295C29414
:100EAA00306204D297C1B3D296D2AF759F100210A6
:100EBA0036207D17C2AF754203900140C29330625B
:100ECA0002D297D2AF759F13021036C2AF75420392
:100EDA00900140C295306202D297D2AF759F10023C
:100EEA001036207D16C2AF754204C294D292306287
:100EFA0002D297D2AF759F10021036C2AF75420464
:100F0A00C292D294306202D297D2AF759F13021066
:100F1A0036307243207D20C2AF7542059001547568
:100F2A007B10C297C296306204D295E139D294D22C
:100F3A00AF759F11021036C2AF75420590017675E2
:100F4A007B04C297C296306204D293E159D292D2FC
:100F5A00AF759F11021036207D17C2AF75420590FA
:100F6A000136C297306202D295D2AF759F11021034
:100F7A0036C2AF75420590014AC2973062EBD293EE
:100F8A00D2AF759F11021036207D16C2AF75420688
:100F9A00C292D296306202D295D2AF759F130210D6
:100FAA0036C2AF754206C294D296306202D293D24A
:100FBA00AF759F10021036307244207D20C2AF7583
:100FCA004201900176757B04C295C294306204D2C4
:100FDA0093E1DFD292D2AF759F10021036C2AF757D
:100FEA004201900154757B10C293C292306205D2BD
:100FFA0095021000D294D2AF759F13021036207D4D
:10100A0017C2AF75420190014AC295306202D2936B
:10101A00D2AF759F10021036C2AF754201900136E9
:10102A00C293306202D295D2AF759F13C2652290E5
:10103A000134757B00C295C293C297C294C292C210
:10104A0096C26222788076070876070876010876C3
:10105A00040876FF0876FF08760B08760208760100
:0E106A00087601788C76010876000876B408C6
:1010780076FF0876FF0876FF0876030876FF08767D
:10108800010876FF0876250876D00876780876C8AD
:101098000876040876FF08760108760008767A084C
:1010A80076070876010876010876000876FF087644
:1010B80000227887E6FFC272BF0302D2727888C224
:1010C8007DE630E102D27DC27E7889E630E102D247
:1010D8007EC3EF94026008758E01D2730210EC751E
:1010E8008E00C273227880E6149000809378A5F66B
:1010F8007881E6149000809378A6F67886E61490B6
:10110800008D9378A7F6789FE6F87005756B002137
:1011180033C3E8941140027811E82828F56B256B51
:10112800256B28F56C256B2828F56D7886E6F5394A
:10113800C394025003753902789CE67538FFB402EF
:10114800037538A0B4030375388278A3E6149000B9
:101158009A93F566113922227896E6FA7897E6FB93
:101168007888E6B40305C3EB940EFB307F047A005D
:101178007BFFC3EB9AFCC3948250027C8275720099
:101188000572EC8572F0A4C3E5F0947D40F222D29A
:101198007F31601205B11205B17A007B007C101214
:1011A80005A7E55C2AFA74003BFBDCF37C04C3EB7F
:1011B80013FBEA13FADCF7FEC27F316022757C006C
:1011C800757D00E5EF20E6037520000520903FFFC0
:1011D800E520146006901FFF1460009304600375F7
:1011E800EF1653D9BF7581C043FF801205A275EF72
:1011F8000643B203E5B3240220E70DF521E5E32019
:10120800E0068521B343E30111397580FF75A40019
:1012180075F1B275D4DF75900175A5FC75F2FE7590
:10122800D50175A60175E2411139E4F8F6D8FD75C6
:101238006801114E12171078988673753001C2AF85
:101248001205BB1205CB1205B11205D21205B11257
:1012580005D91205B11218421205BB1205BB1205B9
:10126800B6C2AF757C00757D0078FA79FA308507CB
:10127800D9FBD8F7021C0011BA11ED315F31607843
:10128800988673113975A90075B680757A007588C6
:101298001075890275C82475910475D84075A822FF
:1012A80075B80275E690759B80759D0075D10E75B1
:1012B800BCC075BB0875BA1175E8801205A2D2AF1B
:1012C8001208FB75360053DACF207E0343DA20304C
:1012D8007E0343DA1043DA01C2D8C2711205BBD2C9
:1012E800617B037A0CE55B70077A0CDB03021269F9
:1012F8001205B1207003021269C270E55CC3940242
:1013080040E1E52F541F855E5DF55EB55DD5DAD504
:10131800C26153DACF207E0343DA20307E0343DAFA
:1013280010C2D8C27178A2E67008D274E52F54E0D2
:10133800F52FC2757529001205B6307409C3E52961
:10134800940A4002D2751205A77802307402780018
:10135800C3E55C9840F0C2AF1205CB1205CB12056D
:10136800CBD2AF1205BB754C001205A7788CE6C32B
:101378009401500302145EE530C394015003021433
:101388005E757CA5757DF1207435C3E55C94FF50CE
:101398000302145EC2AF1205E0D2AF1205B6C3E570
:1013A8005C940150EFC2AF1205CB1205AC1205CB0D
:1013B800D2AF1205B6C3E55C94FF40E90218C77FB7
:1013C80005D27F31601205B6C2AFC27F3160AE5C14
:1013D800C3E55C947FD2AF5002816E1205A2C2AF02
:1013E8001205E0D2AFDFDA3197C3EE94057897F6AD
:1013F8001205BB12184A7F0AD27F31601205B6C2A5
:10140800AFC27F3160AE5CC3E55C947FD2AF50E67B
:101418001205A2C2AF1205CB1205AC1205CBD2AF92
:10142800DFD63197EE24037896F6F87997E7C394D8
:10143800824003985006E824827897F61205BB127A
:10144800175D1218791205B63160C3E55C94FF5038
:101458000261890218C7757C00757D00C3E55C953B
:0E1468004C4003855C4C1205B678017988E78C
:10147600B403027805C3E55C9840026171C2AF12FD
:1014860005E01205E01205E0D2AF1205BB7530008B
:10149600E4F531F5320531E531F4703E0532789ADE
:1014A600E67819146012783214600D787D1460089D
:1014B60078FA146003753200C3E53298401C11397E
:1014C6001205A2153275310078998673C2AF1205DE
:1014D600E0D2AF789886731205B61205ACE52A708D
:1014E60005307402416978012074027806C3E55C10
:1014F6009840A21205B6E52A7003021269C2AF111E
:1015060039E4F522F523F524F525F526F567D2AF5E
:101516007885E6C333F565E4F544F545F546F547C4
:10152600F548F570F52CF52DF53775700875BB1077
:101536001205A212098C30EDFDA8BDA9BEE9700105
:10154600F8887112099075700875BB1011BAC2AF90
:101556007561FF120A49852261852262852263D25E
:10156600AF7522017524017525017526018560690F
:10157600756A0175B69075A903757A017888E6B41F
:101586000307C27D307602D27DD268D269753300F8
:10159600120F92120FC1120A69120A70120A691208
:1015A6000A70120A69120CFE1206C1120DFF120E03
:1015B60046120A70120CED306E03120761206603A4
:1015C6001208B53066031208E5120DFF120E7512E9
:1015D6000A70120CFE306E0312079D120DFF120EDA
:1015E600EC120A70120CED306E031207FB120DFF9F
:1015F600120F1B120A70120CFE306E0312085912DB
:101606000DFF120F92120A7012098C120CED120DB8
:10161600FF120FC1120990120A7030692C8564619D
:10162600856462856069756A0179187A0CC3E53349
:10163600994009C269D26A8A3502164FC3E55C949D
:101646000140030215AB0216BA306A25206C22E56A
:1016560035147006C26AD26BA1ABF535C3E55C944E
:101666000140030215AB7888E6C3940360030216B3
:10167600BA753600C3E55F940140098564628560EA
:1016860069756A0178FA79A4E760027803C3E55FB1
:10169600985021307404E52A601A78F0306C05857C
:1016A60064617820C3E541985002A1AB0536E55C3C
:1016B6006002C1BD753600C2AF11397887E6FE7685
:1016C6000211BA7887EEF6E4F522F523F524F5251E
:1016D600F526F565752C00752D0075A90075B68083
:1016E600757A00D2AF1205B6113978A4E66006D233
:1016F60095D297D293307406E52A70024169788DA7
:10170600E6C394014002614E8196901A0D7820122C
:10171600179FE520B4A50CA312179FE520B45A0322
:1017260002173D757CA5757DF1114E12175D757C0E
:1017360000757D0002175C901A0378807B0A1217E9
:101746009FA308DBF9901A0F788C7B1912179FA3B9
:1017560008DBF9901A2822C2AF1217E21217BF90BF
:101766001A00740E1217A4A374091217A4A37415F1
:101776001217A4901A0378807B0A1217A3A308DB1A
:10178600F9901A0F788C7B191217A3A308DBF912AC
:1017960017F51217D3901A2822E493F622E6438F00
:1017A60001538FFDFFC3E583941C400122EF857C26
:1017B600B7857DB7F0538FFE22438F02438F018595
:1017C6007CB7857DB7901A0DF0538FFC22901A0DC9
:1017D60074A5F1A4901A0E745AF1A4227A3079D025
:1017E6007820901A40F19FE520F709A3DAF7227ACC
:1017F6003079D0901A40E7F1A409A3DAF922AB7444
:10180600A875BB01027980BB02027981BB0302790C
:1018160082BB04027994BB05027983BB06027986F2
:10182600BB07027992BB08027987BB0902799CBB88
:101836000A027988BB0B027989E8F7227C05120532
:10184600BBDCFB22C2AF1205CB1205D21205D912A0
:1018560005E01205AC1205CB1205D21205D9120508
:0D186600E01205AC1205CB1205D21205D917
:101873001205E0D2AF22C2AF1205E01205D912055C
:10188300D21205CB1205AC1205E01205D91205D20E
:101893001205CB1205AC1205E01205D91205D212BE
:1018A30005CBD2AF22AE74AF75C2AF1205CB120512
:1018B300CB1205CB1205ACDEF21205E01205ACDF4C
:1018C300F8D2AF22114A11421142757401757501A4
:1018D30075760011A87C05AD5C1205BBC3ED955C64
:1018E30070F5C3E55C9401400AC3E55C94FF4033A3
:1018F300021904110412175D114AC2AF75EF1611D4
:1019030042DCD40576C3E5769403500280C51142C8
:101913000575E5741490009F93F808C3E575985016
:101923000280AD114211420574C3E574940C500258
:0F193300809B12104E12175DC2AF75EF16114256
:0319FD000211C50F
:101A00000E091507070104FFFF0B020101A55A018A
:101A100000B4FFFFFF03FF01FF25D078C804FF01DA
:091A200000FF07010100FF00FFB7
:101A4000234656544C69626565313241232020207B
:101A500023424C48454C492346333930232020202B
:101A60002020202020202020202020202020202076
:101C0000C2AFC2D353D9BF7581C043B20343FF8073
:101C1000752438752503B1DC7529A5752AF175E29F
:101C20004043F12053A4DF75D4FFD2857DFA7803B9
:101C300079E67C10752200752300901DE97B0675FE
:101C400024987525013085028145208508D8FBD967
:101C5000F9DCF781B7308508D8FBD9F9DCF781B713
:101C6000B19CE493A3C39A6004DDC381B7DBDBB10D
:101C70008E6002812E7B08E493FAA3B16FDBF87AC1
:101C800030B16F752200752300B18EEAFCEBFDC305
:101C9000ED94FE400EB18E8A278B28ED30E0048A49
:101CA000828B83B18E7AC270D8C3ED94FE601950D6
:101CB000CEBD002BEC600F7520007521FF7529004B
:101CC000752A000200008100A827A9280809D80465
:101CD000D90281DCB192EA89AAF281CE0D81A3C337
:101CE000ED94035053EDA2E092007AC5C3E58294CF
:101CF00000E583941C508A200010438F02438F011B
:101D00008529B7852AB7F0300029A827A92808090E
:101D1000438F01538FFDD804D902A133C3E58394C7
:101D20001C4003A3A11689AAE28529B7852AB7F02A
:101D3000A3A116538FFC817F7AC1BD030CE493A34A
:101D4000FAB153DCF8B14B817F8181AA22AB23B178
:101D50006FEBFAEA6222752608C3E52313F523E543
:101D60002213F52250066323A0632201D526EAB18F
:101D7000DCB1DC75260AEAF4200102D285300102CA
:101D8000C285B1DCC3134002C201D526EB22B19259
:101D9000EAFB208502A192308502A197752608AE44
:101DA00024AF25C3EF13FFEE13FEB1E0B1DCC3EAAD
:101DB000133085024480FA30E703632201C3E52330
:101DC00013F523E52213F52250066323A0632201B5
:101DD000D526D9E52265236523F52222AE24AF2539
:101DE0000E0FDEFEDFFCD20122424C48656C6934E6
:071DF000373164F390060196
:00000001FF
