:030000000219FDE5
:03000B000200A848
:03002B000201854A
:03005B0002033667
:0300730002032362
:1000800002030406080C10182030406080040608A3
:100090000C10182030406080A0C00003070F1F051F
:1000A000050D050305030302C2AF306308C2638573
:1000B000798AD2AF32C0D0C0E0206221E525601637
:1000C000E473E525F4C3334009758A00D263F579FA
:1000D00001D4F58AD262D0E0D0D0D2AF32C3E526C7
:1000E000334009758A00D263F57901EEF58AC26260
:1000F000E526F4602F30682520720DD0E0D0D0C204
:1001000092C294C296D2AF32C292C294C296206F6B
:100110000C206509740AD5E0FDE57B4290D0E0D063
:10012000D0D2AF32758A00D263757900C28DD262A7
:10013000211D01C2306805206502D29201C23068DB
:1001400005206502D29401C2306805206502D2966E
:1001500001C2C29330680A2065077408D5E0FDD259
:100160009201C2C29530680A2065077408D5E0FD87
:10017000D29401C2C29730680A2065077408D5E09E
:10018000FDD29601C2C2AFC2AD53E6EFC0D0C0E00F
:10019000D2D3D2AFE57A6009E57760057577004183
:1001A000D0757701C2CEE52A600720744F152A2149
:1001B000FC7800790020742EE580307E01F430E672
:1001C0000278FF53DACF207E0343DA20307E0343E8
:1001D000DA10C2D8C271E580307E01F430E60279CF
:1001E000FFC3E89970CB306103752A18207403753A
:1001F0002A18885CD270E86003755F0020740DE5F2
:100200002B6004152B410C43DA01C2D82070024147
:100210007FA85C206102C270207431C3E894F04072
:100220000374F0F8E8C4540F28F87984B703024146
:100230004CC313C3138721200802C313200A06C32B
:10024000C898F8414C28F8500374FFF8C3E8956546
:100250005003E565F88822E52D54066022206B1FC7
:10026000E536C333C333F8E564C313C313F9C39549
:100270002240028922E82522F52250037522FF85BB
:100280002224A824C3E52495614002A8618825E5BD
:1002900066700241C3C3E8AA669A5003E8FAE4F91B
:1002A000EAC333FBE568F45B29400D2567F8E56791
:1002B00060021567400B41C30AC3E5679A50020507
:1002C0006778FF8826C26FC3E52694F84002D26F94
:1002D00020CF0AD0E0D0D043E610D2AD32C2CF0555
:1002E0003AE57A6009E578600575780061197578F6
:1002F000017801E52A6005307402152AC3E55C9493
:10030000014005755F006119756000756900E55F62
:100310002401F55F5003755FFFD0E0D0D043E610B5
:10032000D2AD32C2AF53E67F7592FA7593FFC260C9
:10033000759104D2AF32C2AF53E6EFC2ADC0D0C0A8
:10034000E0C0F0D2D3D2AFA8FBA9FCE57A6007C326
:10035000E913F9E813F8C2D830710261A853DACF73
:10036000207E0343DA10307E0343DA20D271E58029
:10037000307E01F420E602617F88278928A1D553C9
:10038000DACF207E0343DA20307E0343DA10C2D86E
:10039000C271307402A1C17800E580307E01F43072
:1003A000E602A1C1885CA1A953DACF207E0343DA1B
:1003B00020307E0343DA10C271206102818153DA5A
:1003C000CF207E0343DA10307E0343DA20C2D8D236
:1003D0007188578958C3E89555F8E99556F97B0017
:1003E0007E087A00C3E8948CE994005005755B00A0
:1003F0008173882178A2E6A8216055C3E894C8E9F2
:1004000094005008E4D2E4FB7A0A814EC3E8946871
:10041000E994015008E4D2E3FB7A0F814EC3E894DB
:10042000D0E994025008E4D2E2FB7A1E814EC3E880
:1004300094A0E994055008E4D2E1FB7A3C814EC3D4
:10044000E89498E994085008E4D2E0FB7A787E00BA
:10045000C3E89559FCE9955AFD30E70AECF424010C
:10046000FCEDF43400FD755B00C3EC9AED9E500387
:0F047000755B018859895A85575585585678020A
:10047F00A1A9C3E89527F8E99528F9307C02A18D49
:10048F00307B02A18D307A02A18620750281A4E90A
:10049F00FDE8FC81C3E9C313F9E813F8307902A131
:1004AF0086E9C313F9E813F8307802A186E9C3137C
:1004BF00FDE813FC20612CC3EC941CED9402400268
:1004CF0081DAED701EC3EC94C850180529E5297028
:1004DF00021529C3E529940A5002A1C1755C00D207
:1004EF0070A1C1E529600215297888E6F97400200A
:1004FF007F087896B90302789EE624FAFEE434006A
:10050F00FFC3EC9EFCED9FFD9208B90310A20850AB
:10051F0007207609D276A12C307602C276A2085037
:10052F0016B9030DECF42401FCEDF43400FD0205C3
:10053F004678007900A18DB90315EC33FCED33FD3E
:10054F00C3EC940AFCED9400FD50047C007D00C3C5
:10055F00EC94FFED9400400678FF7900A18DEC85B7
:10056F0072F0A4C5F0A2F733F8790040030205A991
:10057F0078FF79000205A9E9C313F9E813F8307C75
:10058F000EE9600278FFC3E81338F8E43400F9C3CA
:10059F00E894FFE99400400278FF885CD2702061F4
:1005AF0002A1C1741FF4552F4BF52FC274EB7002CB
:1005BF00D274752A18307403752A0A306102A1D5D6
:1005CF0020740353DAFE207403752B06D0F0D0E0AD
:1005DF00D0D0D2AD43E6103279010206057903027D
:1005EF000605790A020605791E02060579640206D8
:1005FF000579C80206057817E4D5E0FDD8FAD9F6D3
:10060F00227A147B7802062C7A107B8C02062C7AC5
:10061F000D7BB402062C7A0B7BC802062CE573D532
:10062F00E001227902E4C295D5E0FDD294D5E0FD38
:10063F00C294D5E0FDD295D5E0FDE920E002D2923B
:10064F0030E002D296E573D5E0FDE920E002C292D8
:10065F0030E002C2967496D5E0FDD9C9EAF8D5E02C
:10066F00FDD8FBDBB8C29522C37C007D0075F0007E
:10067F0005F0EA33FAEB33FB50F6EB13FBEA13FA10
:10068F00C3E9FFE8FEE89AF8E99BF95004EFF9EEA9
:10069F00F8B3EC33FCED33FDD5F0DFEDF9ECF822D8
:1006AF00E889F08A20D2D4F8A9F07B0030F70B7BD1
:1006BF00FFF42401F8E9F43400F9E88520F0A4AD43
:1006CF00F0F8E98520F0A4AFF0FEED2EF974003FAD
:1006DF00FA7C04C3EA13FAE913F9E813F8DCF48B94
:1006EF00F030F70AE8F42401F8E9F43400F9E88966
:1006FF00F0C2D4F8A9F02222C3E54113F9E5401363
:10070F00F8C3E54498F8E54599F9500CC3E894808F
:10071F00E994FF401602073EC3E8947FE994005026
:10072F000302073E787F790002073E788079FF88C1
:10073F0049894A22E5492546F8E54A3547F9854A68
:10074F0020E4300701F43548FA30E709C3EA94F0A2
:10075F00401502077CC3EA940F500302077C78FF11
:10076F0079FF7A0F02077C780079007AF0C3E524CD
:10077F009561500AC374019524500B02079AE54AFC
:10078F0020E70E02079AE54A30E706884689478A2E
:10079F00482278A5E6FAC3E54933F8E54A33F9D19B
:1007AF00AFE930E70BC3E89480E994FF4013E1D43D
:1007BF00C3E8947FE994005002E1D4787F7900E197
:1007CF00D4788079FFE820E715C3E52398F840092E
:1007DF00C3E8940140030207FB78010207FBE8F42A
:1007EF0024012523F840030207FB78FF884B22786A
:1007FF00A6E6FAA847A9481206AFE930E70CC3E806
:10080F009401E994FF4016020830C3E894FFE9947D
:10081F0000500302083078FF790002083078017920
:10082F00FFE920E715C3E54B98F84009C3E89401A9
:10083F0040030208577801020857E8F42401254BBA
:10084F00F8400302085778FF88242278FF20692890
:10085F0079A1E76023E541601F74FF8541F084852E
:0E086F0039F0306A0375F005A4F8C5F0600298
:10087D0078FFC3E895645002A864886322C3E540FD
:10088D0094C8E5419400E563500314019B04600294
:10089D00F563220208A32275E890227883E6FF30E3
:1008AD00EDF9A8BDA9BE0570C3E570940840527559
:1008BD007000E9FA79A0E76044EA7007E571601B02
:1008CD000208DCC3E895716010E5715006600C14E8
:1008DD000208E80460F90208E8E571F571C3947245
:1008ED00401B7561C0C394044013756180C39404AB
:1008FD00400B756140C39404400375610075BB09DD
:10090D0022E561F460020561E570B4070375BB1063
:10091D0022743279A787F0A4C5F0A2F733F8C3E8A3
:10092D0095614002A86188228824882588268864DC
:10093D00227540007541F022C2AF75C820A8CCA920
:10094D00CDAA3A30CF010A75C824D2AFC3EA13FA43
:10095D00E913F9E813F8AB3BAC3C883B893CC3E8A1
:10096D009BF8E99C20690A547FF9306602416421A5
:10097D00BEAD3D8A3DF9EA9D547FFA600678FF7958
:10098D00FF21A3AE3EAF3F8B3E8C3FA83BA93CC39E
:10099D00E89EF8E99FF9C3E54113FBE54013FAE83A
:1009AD002AF540E93BF54150067540FF7541FF4181
:1009BD000BAA40AB41AC40AD417E047F02C3EB942A
:1009CD0004400D1E1FC3EB94084005206A021E1F34
:1009DD00C3ED13FDEC13FCDEF7C3EA9CFAEB9DFBB4
:1009ED00EF6009C3E913F9E813F8DFF7EA28FAEB2A
:1009FD0039FB8A408B4150067BFF8B408B41C3EB0B
:100A0D0094025002D2663069047F0341367892E633
:100A1D00FFC3E537948240110FC3E53794A0400121
:100A2D000FC3EF940640027F057E02E541C4540FCB
:100A3D00F9E541C454F0F8E540C4540F28F8C3E873
:100A4D009EFAE99400FB4009C3EA9402EB9400502E
:100A5D00047A02E4FB41B0AA40AB41EBC4FEEAC408
:100A6D00540F4EFCC3EA9CFAEB9400FBC3E813C38E
:100A7D0013F8EA28FAEB3400FB8A408B41C3EB9460
:100A8D00024002C2667802EBC4FE7B00EAC4540F3A
:100A9D004EFAC3EA98FA4005C3940250027A0278DE
:100AAD0092E6FF30600241B0855192855293D2603B
:100ABD0043E680C3E49AF8E49BF9C3E833F8E933DD
:100ACD00F93066026143E8FAE9FBD3E913FDE81357
:100ADD00FC88518952C3EF94036038EF20E00DE894
:100AED002CF8E93DF9ECFAEDFB020B0CE828F8E9DE
:100AFD0039F9C3E82402F8E93400F97AFE7BFFC323
:100B0D00EF9403400E8A538B54884D894E8C4F8D34
:100B1D00506177885389548A4D8B4E8C4F8D503050
:100B2D0069127553F07554FF754FF07550FF75517F
:100B3D00F07552FF6177E8FAD3E813FC8851C3EFE3
:100B4D0094036020EF20E007E82CF8ECFA6163E8ED
:100B5D00282402F87AFEC3EF940340088A53884D87
:100B6D008C4F617788538A4D8C4FE568C3335002A3
:100B7D00646BF5683060026181753402D26043E6C2
:100B8D0080E52D5406602DA840A941C3E913F9E86D
:100B9D0013F8306904E92440F9C2AF53E67F75912B
:100BAD0000C3E498F594E499F595759104D26043EA
:100BBD00E680D2AF22D264754300752000306C03FD
:100BCD00752040020BE1D264754300752040306CF6
:100BDD000375200078017901206620E52D5406600B
:100BED0002C2647914E541C313700104F8C394146F
:100BFD0040027814306904781B791BC3E833F8C3BD
:100C0D00E933F9206010E543600C306903D53404F5
:100C1D00D26D819771890543E59B5440B5200281C2
:100C2D008130690908C3E899400118811020640AD0
:100C3D0008C3E899400261E18110C264C2AF53E676
:100C4D007F7591003066127594007595F07591045D
:100C5D00D26043E680D2AF61E1E5417EFFC3334010
:0D0C6D0009C3334005C3334001FEC3E49EBC
:100C7A00759400F595815AC3E5339401500261E1F8
:100C8A0030640261E1D80281958110C26DC2AF530E
:100C9A00E67F759100855394855495759104854D29
:100CAA0092854E93D26043E680D2AFE52D5406601A
:100CBA0008206A020533020CD3306D0D206C0A201D
:100CCA006407158115810215CF22780030640278F5
:100CDA0001E53775F007A4F9E5F028F5F0E9A2F087
:100CEA0013A2F113A2F213F537C3947850037537A0
:100CFA0078C3E53795384008D265C292C294C29645
:100D0A00306002A10A854F92855093D26043E680F3
:100D1A0022D287207D16C2AF754202C295D2933085
:100D2A006202D296D2AF759F80020F17C2AF754288
:100D3A0002C295D297306202D292D2AF759F8002D8
:100D4A000F17C287307243207D20C2AF75420390CD
:100D5A000163757B20C296C297306204D294A16C5B
:100D6A00D295D2AF759F89020F17C2AF7542039011
:100D7A000163757B20C292C293306204D294A18C23
:100D8A00D295D2AF759F81020F17207D17C2AF751A
:100D9A00420390013EC296306202D294D2AF759F4E
:100DAA0089020F17C2AF75420390013EC2923062A8
:100DBA0002D294D2AF759F81020F17D287207D1677
:100DCA00C2AF754204C293D297306202D294D2AFB4
:100DDA00759F81020F17C2AF754204C297D2933032
:100DEA006202D294D2AF759F89020F17C2873072FE
:100DFA0043207D20C2AF754205900152757B08C21F
:100E0A0094C295306204D292C116D293D2AF759F22
:100E1A0080020F17C2AF754205900174757B80C2BC
:100E2A0094C295306204D296C136D297D2AF759FDA
:100E3A0080020F17207D17C2AF754205900134C298
:100E4A0094306202D292D2AF759F80020F17C2AF5E
:100E5A00754205900148C2943062EBD296D2AF75C2
:100E6A009F80020F17D287207D16C2AF754206C235
:100E7A0097D295306202D292D2AF759F89020F172C
:100E8A00C2AF754206C293D295306202D296D2AFF1
:100E9A00759F81020F17C287307244207D20C2AF2E
:100EAA00754201900174757B80C292C293306204CC
:100EBA00D296C1C0D297D2AF759F81020F17C2AF27
:100ECA00754201900152757B08C296C2973062053D
:100EDA00D292020EE1D293D2AF759F89020F1720E8
:100EEA007D17C2AF754201900148C292306202D2A8
:100EFA0096D2AF759F81020F17C2AF75420190015A
:100F0A0034C296306202D292D2AF759F89C26522EC
:100F1A00900132757B00C292C294C296C293C29566
:100F2A00C297C26222788076FF0876FF0876FF08A9
:100F3A0076FF0876030876040876090876030876A9
:100F4A0001087601788C76010876FF0876FF087624
:100F5A00FF0876FF0876FF0876030876FF0876FF13
:100F6A000876FF0876250876D00876FA0876FA0811
:100F7A0076040876FF08760108760008767A0876FD
:100F8A00FF087601087601087600087603087600DD
:100F9A00227887E6FFC272BF0302D2727888E6C35C
:100FAA0094036008C27DE630E102D27DC27E788970
:100FBA00E630E102D27EC3EF94026008758E01D258
:100FCA0073020FD3758E00C273227880E6149000E4
:100FDA00809378A5F67881E6149000809378A6F637
:100FEA007886E61490008D9378A7F67886E6F53928
:100FFA00C394025003753902789CE67538FFB4022F
:10100A00037538A0B4030375388278A3E6149000F8
:10101A009A93F566120F1A22C2A4C2A0789DE6B46A
:10102A000104D2A4C2A0B40204C2A4D2A022789617
:10103A00E6FA7897E6FB7888E6B40305C3EB940EE4
:10104A00FB307F047A007BFFC3EB9AFCC394825087
:10105A00027C827572000572EC8572F0A4C3E5F019
:0F106A00947D40F222D27F11381205F61205F65E
:101079007A007B007C101205ECE55C2AFA74003BCF
:10108900FBDCF37C04C3EB13FBEA13FADCF7FEC2C7
:101099007F113822757C00757D00E5EF20E6037528
:1010A90020000520903FFFE520146006901FFF14E3
:1010B90060009304600375EF1653D9BF7581C0436F
:1010C900FF801205E775EF0643B203E5B32402205A
:1010D900E70DF521E5E320E0068521B343E301129D
:1010E9000F1A7580FF75A48075F1F075D4BF7590DE
:1010F9000275A5FC75F2FD75D50275A61175A0EEF0
:1011090075F3F175E241120F1AE4F8F6D8FD756826
:1011190001120F2F12162978988673753001C2AF04
:101129001206001206101205F61206171205F6121B
:10113900061E1205F61217521206001206001205B3
:10114900FBC2AF757C00757D0078FA79FA308607A5
:10115900D9FBD8F7021C00120F9B120FD4112211D0
:101169003878988673120F1A75A90075B680757A42
:101179000075881075890275C82475910475D84061
:1011890075A82275B80275E690759B80759D0075E6
:10119900D10E75BCC075BB0975BA1175E880120509
:1011A900E7D2AF1208A075360053DACF207E034389
:1011B900DA20307E0343DA1043DA01C2D8C2711251
:1011C9000600D2617B037A0CE55B70077A0CDB03BE
:1011D90002114A1205F620700302114AC270E55C39
:1011E900C3940240E1E52F541F855E5DF55EB55D50
:1011F900D5DAD5C26153DACF207E0343DA20307EB7
:101209000343DA10C2D8C27178A2E67008D274E535
:101219002F54E0F52FC2757529001205FB307409AA
:10122900C3E529940A4002D2751205EC780230749C
:10123900027800C3E55C9840F0C2AF1206101206AE
:1012490010120610D2AF120600754C007888E6B469
:101259000302614A1205EC788CE6C394015003023B
:10126900134AE530C39401500302134A757CA575EE
:101279007DF1207435C3E55C94FF500302134AC223
:10128900AF120625D2AF1205FBC3E55C940150EFFE
:10129900C2AF1206101205F1120610D2AF1205FBE9
:1012A900C3E55C94FF40E90217D77F05D27F113867
:1012B9001205FBC2AFC27F1138AE5CC3E55C947FF7
:1012C900D2AF5002615A1205E7C2AF120625D2AF5A
:1012D900DFDA116FC3EE94057897F612060012173C
:1012E9005A7F0AD27F11381205FBC2AFC27F11386B
:1012F900AE5CC3E55C947FD2AF50E61205E7C2AF9E
:101309001206101205F1120610D2AFDFD6116FEED8
:1013190024037896F6F87997E7C3948240039850A6
:1013290006E824827897F6120600121677121789B2
:101339001205FB1138C3E55C94FF50024175021791
:10134900D7757C00757D00C3E55C954C4003855CD1
:101359004C1205FB78017988E7B403027805C3E5E7
:101369005C9840024155C2AF1206251206251206A5
:1013790025D2AF120600753000E4F531F53205319A
:10138900E531F4703F0532789AE6781914601278DD
:101399003214600D787D14600878FA146003753290
:1013A90000C3E53298401D120F1A1205E715327570
:1013B900310078998673C2AF120625D2AF78988624
:1013C900731205FB1205F1E52A7005307402214AF2
:1013D90078012074027806C3E55C9840A17888E614
:1013E900C3940360031205FBE52A700302114AC284
:1013F900AF120F1AE4F522F523F524F525F526F5A4
:1014090067D2AF7885E6C333F565E4F544F545F56C
:1014190046F547F548F570F52CF52DF53775700843
:1014290075BB101205E71208A430EDFDA8BDA9BED1
:10143900E97001F888711208A875700875BB101257
:101449000F9BC2AF7561FF12091E85226185226259
:10145900852263D2AF752201752401752501752690
:0D14690001856069756A0175B69075A9036B
:10147600757A017888E6B40307C27D307602D27D9C
:10148600D268D269753300120E6F120EA012093E91
:1014960012094512093E12094512093E120BD312D2
:1014A6000706120CD4120D1B120945120BC2306E20
:1014B6000312070720660312085A30660312088AC9
:1014C600120CD4120D4C120945120BD3306E0312B6
:1014D6000743120CD4120DC5120945120BC2306E09
:1014E600031207A1120CD4120DF6120945120BD3E2
:1014F600306E031207FE120CD4120E6F120945123B
:1015060008A4120BC2120CD4120EA01208A81209BB
:101516004530692F856461856462856069756A01F5
:1015260079187A0CC3E53399400CC269D26A8A35B8
:101536007561FF021549C3E55C940140030214A2DC
:101546000215D7306A25206C22E535147006C26A6A
:10155600D26B81A2F535C3E55C940140030214A267
:101566007888E6C3940360030215D775360078823F
:1015760079A4E760027803C3E55F98505430740499
:10158600E52A604D7888E6B40317207D05207607A6
:10159600A1A7307602A1A7206C07D26C8564618171
:1015A600E178F0306C058564617820C3E541985098
:1015B6000281A2306C1BC26CC27D307602D27DD213
:1015C6006A75351285646181A20536E55C6002A103
:1015D600DA753600C2AF120F1A7887E6FE76021267
:1015E6000F9B7887EEF6E4F522F523F524F525F52D
:1015F60026F565752C00752D0075A90075B68075E4
:101606007A00D2AF1205FB120F1A78A4E66006D252
:1016160092D294D296307409C3E5369404400221DE
:101626004A6182901A0D78201216B9E520B45A0C38
:10163600A31216B9E520B4A503021657757CA57545
:101646007DF1120F2F121677757C00757D0002163C
:1016560076901A0378807B0A1216B9A308DBF990F4
:101666001A0F788C7B191216B9A308DBF9901A2881
:1016760022C2AF1216FC1216D9901A00740E121658
:10168600BEA374091216BEA374151216BE901A03D1
:1016960078807B0A1216BDA308DBF9901A0F788CA6
:1016A6007B191216BDA308DBF912170F1216ED905F
:1016B6001A2822E493F622E6438F01538FFDFFC3D7
:1016C600E583941C400122EF857CB7857DB7F053F6
:1016D6008FFE22438F02438F01857CB7857DB790AD
:1016E6001A0DF0538FFC22901A0D745AD1BE901A1F
:1016F6000E74A5D1BE227A3079D07820901A40D1C6
:10170600B9E520F709A3DAF7227A3079D0901A40A2
:10171600E7D1BE09A3DAF922AB74A875BB01027939
:1017260084BB02027985BB03027986BB04027992E7
:10173600BB05027987BB060279A3BB0702799CBB6E
:1017460008027988BB09027989E8F7227C05120626
:1017560000DCFB22C2AF12061012061712061E127A
:1017660006251205F112061012061712061E12069B
:10177600251205F112061012061712061E1206256C
:10178600D2AF22C2AF12062512061E120617120685
:10179600101205F112062512061E12061712061061
:1017A6001205F112062512061E120617120610D28F
:1017B600AF22AE74AF75C2AF120610120610120633
:1017C600101205F1DEF21206251205F1DFF8D2AF8E
:1017D60022F15AF152F15275740175750175760050
:1017E600F1B87C05AD5C120600C3ED955C70F5C3DF
:1017F600E55C9401400AC3E55C94FF403702181784
:1018060012171E12167712175AC2AF75EF16121755
:1018160052DCD10576C3E5769403500280C21217D6
:10182600520575E5741490009F93F808C3E5759802
:10183600500280A91217521217520574C3E5749408
:101846000A50028095120F2F121677C2AF75EF1647
:0318560012175214
:0319FD0002109D38
:101A00000E0915FFFFFFFF0304090301015AA50199
:101A1000FFFFFFFFFF03FFFFFF25D0FAFA04FF01DE
:091A2000007AFF0101000300FF40
:101A400023506C6174696E756D3530417633232097
:101A500023424C48454C492346333930232020202B
:101A60002020202020202020202020202020202076
:101C0000C2AFC2D353D9BF7581C043B20343FF8073
:101C1000752438752503B1DC7529A5752AF175E29F
:101C20004043F14053A4BF75D4FFD2867DFA7803B8
:101C300079E67C10752200752300901DE97B0675FE
:101C400024987525013086028145208608D8FBD965
:101C5000F9DCF781B7308608D8FBD9F9DCF781B712
:101C6000B19CE493A3C39A6004DDC381B7DBDBB10D
:101C70008E6002812E7B08E493FAA3B16FDBF87AC1
:101C800030B16F752200752300B18EEAFCEBFDC305
:101C9000ED94FE400EB18E8A278B28ED30E0048A49
:101CA000828B83B18E7AC270D8C3ED94FE601950D6
:101CB000CEBD002BEC600F7520007521FF7529004B
:101CC000752A000200008100A827A9280809D80465
:101CD000D90281DCB192EA89AAF281CE0D81A3C337
:101CE000ED94035053EDA2E092007AC5C3E58294CF
:101CF00000E583941C508A200010438F02438F011B
:101D00008529B7852AB7F0300029A827A92808090E
:101D1000438F01538FFDD804D902A133C3E58394C7
:101D20001C4003A3A11689AAE28529B7852AB7F02A
:101D3000A3A116538FFC817F7AC1BD030CE493A34A
:101D4000FAB153DCF8B14B817F8181AA22AB23B178
:101D50006FEBFAEA6222752608C3E52313F523E543
:101D60002213F52250066323A0632201D526EAB18F
:101D7000DCB1DC75260AEAF4200102D286300102C9
:101D8000C286B1DCC3134002C201D526EB22B19258
:101D9000EAFB208602A192308602A197752608AE42
:101DA00024AF25C3EF13FFEE13FEB1E0B1DCC3EAAD
:101DB000133086024480FA30E703632201C3E5232F
:101DC00013F523E52213F52250066323A0632201B5
:101DD000D526D9E52265236523F52222AE24AF2539
:101DE0000E0FDEFEDFFCD20122424C48656C6934E6
:071DF000373164F390060196
:00000001FF
