:030000000219FDE5
:03000B000200A848
:03002B0002015A75
:03005B000202EBB3
:030073000202D8AE
:1000800002030406080C10182030406080040608A3
:100090000C10182030406080A0C00003070F1F051F
:1000A000050D050305030302C2AFC0D0C0E0206206
:1000B00014E5256009E473E525F4F58AD262D0E001
:1000C000D0D0D2AF3285268AC262E526F4602F30C6
:1000D000682520720DD0E0D0D0D297D295D293D29D
:1000E000AF32D297D295D293206F0C206509740A53
:1000F000D5E0FDE57B4290D0E0D0D0D2AF32758A1A
:1001000000C28DD26201F701B7306805206502C2D6
:100110009701B7306805206502C29501B7306805C0
:10012000206502C29301B7C29630680A2065077441
:1001300008D5E0FDC29701B7C29430680A20650770
:100140007408D5E0FDC29501B7C29230680A2065F7
:10015000077408D5E0FDC29301B7C2AFC2AD53E644
:10016000EFC0D0C0E0D2D3D2AFC2CEE52A60072024
:10017000744F152A21C17800790020742EE5803053
:100180007E01F430E50278FF53DACF207E0343DAB4
:1001900020307E0343DA10C2D8C271E580307E0180
:1001A000F430E50279FFC3E89970CB306103752A1A
:1001B00018207403752A18885CD270E86003755F94
:1001C0000020740DE52B6004152B21D143DA01C208
:1001D000D82070024144A85C206102C270207431B2
:1001E000C3E894F0400374F0F8E8C4540F28F87999
:1001F00084B703024111C313C3138721200802C32C
:1002000013200A06C3C898F8411128F8500374FF58
:10021000F8C3E895655003E565F88822E52D540696
:100220006022206B1FE536C333C333F8E564C31384
:10023000C313F9C3952240028922E82522F52250F2
:10024000037522FF852224A824C3E524956140027A
:10025000A8618825E56670024188C3E8AA669A50BD
:1002600003E8FAE4F9EAC333FBE568F45B29400DDF
:100270002567F8E56760021567400B41880AC3E50A
:10028000679A5002056778FF8826C26FC3E52694F7
:10029000F84002D26F20CF0AD0E0D0D043E610D28F
:1002A000AD32C2CF053A7801E52A600530740215F7
:1002B0002AC3E55C94014005755F0041CE7560007E
:1002C000756900E55F2401F55F5003755FFFD0E0BD
:1002D000D0D043E610D2AD32C2AF53E67F7592FA6A
:1002E0007593FFC260759104D2AF32C2AF53E6EF8F
:1002F000C2ADC0D0C0E0C0F0D2D3D2AFA8FBA9FC41
:10030000C2D8307102615253DACF207E0343DA1033
:10031000307E0343DA20D271E580307E01F420E59F
:1003200002612988278928A17F53DACF207E0343E1
:10033000DA20307E0343DA10C2D8C271307402A1D1
:100340006B7800E580307E01F430E502A16B885CBB
:10035000A15353DACF207E0343DA20307E0343DA01
:1003600010C271206102812B53DACF207E0343DA61
:1003700010307E0343DA20C2D8D27188578958C31F
:10038000E89555F8E99556F97B007E087A00C3E8B0
:10039000948CE994005005755B00811D882178A23A
:1003A000E6A8216055C3E894C8E994005008E4D257
:1003B000E4FB7A0A61F8C3E89468E994015008E420
:1003C000D2E3FB7A0F61F8C3E894D0E994025008B5
:1003D000E4D2E2FB7A1E61F8C3E894A0E9940550E8
:1003E00008E4D2E1FB7A3C61F8C3E89498E9940808
:1003F0005008E4D2E0FB7A787E00C3E89559FCE926
:10040000955AFD30E70AECF42401FCEDF43400FDCC
:10041000755B00C3EC9AED9E5003755B01885989AA
:100420005A8557558558567802A153C3E89527F841
:10043000E99528F9307C02A137307B02A137307A68
:1004400002A130207502814EE9FDE8FC816DE9C30F
:1004500013F9E813F8307902A130E9C313F9E8136E
:10046000F8307802A130E9C313FDE813FC20612CB9
:0F047000C3EC941CED940240028184ED701EC316
:10047F00EC94C850180529E52970021529C3E52900
:10048F00940A5002A16B755C00D270A16BE52960D4
:10049F000215297888E6F97400207F087896B90349
:1004AF0002789EE624FAFEE43400FFC3EC9EFCEDD6
:1004BF009FFD9208B90310A2085007207609D27643
:1004CF0081D6307602C276A2085016B9030DECF42D
:1004DF002401FCEDF43400FD0204F078007900A152
:1004EF0037B90315EC33FCED33FDC3EC940AFCED87
:1004FF009400FD50047C007D00C3EC94FFED94004C
:10050F00400678FF7900A137EC8572F0A4C5F0A200
:10051F00F733F87900400302055378FF790002059D
:10052F0053E9C313F9E813F8307C0EE9600278FF42
:10053F00C3E81338F8E43400F9C3E894FFE99400F2
:10054F00400278FF885CD270206102A16B741FF4A7
:10055F00552F4BF52FC274EB7002D274752A1830D9
:10056F007403752A0A306102A17F20740353DAFEE7
:10057F00207403752B06D0F0D0E0D0D0D2AD43E677
:10058F00103279010205AF79030205AF790A02052E
:10059F00AF791E0205AF79640205AF79C80205AFC6
:1005AF007817E4D5E0FDD8FAD9F6227A147B7802D1
:1005BF0005D67A107B8C0205D67A0D7BB40205D650
:1005CF007A0B7BC80205D6E573D5E001227902E4E8
:1005DF00C294D5E0FDC295D5E0FDD295D5E0FDD210
:1005EF0094D5E0FDE920E002C29730E002C293E526
:1005FF0073D5E0FDE920E002D29730E002D2937488
:10060F0096D5E0FDD9C9EAF8D5E0FDD8FBDBB8C235
:10061F009422C37C007D0075F00005F0EA33FAEBFD
:10062F0033FB50F6EB13FBEA13FAC3E9FFE8FEE8DE
:10063F009AF8E99BF95004EFF9EEF8B3EC33FCEDBF
:10064F0033FDD5F0DFEDF9ECF822E889F08A20D2FE
:10065F00D4F8A9F07B0030F70B7BFFF42401F8E905
:10066F00F43400F9E88520F0A4ADF0F8E98520F026
:10067F00A4AFF0FEED2EF974003FFA7C04C3EA1329
:10068F00FAE913F9E813F8DCF48BF030F70AE8F421
:10069F002401F8E9F43400F9E889F0C2D4F8A9F09C
:1006AF002222C3E54113F9E54013F8C3E54498F856
:1006BF00E54599F9500CC3E89480E994FF40160280
:1006CF0006E8C3E8947FE9940050030206E8787FB8
:1006DF0079000206E8788079FF8849894A22E5493E
:1006EF002546F8E54A3547F9854A20E4300701F4F5
:1006FF003548FA30E709C3EA94F04015020726C3DC
:10070F00EA940F500302072678FF79FF7A0F02074A
:10071F0026780079007AF0C3E5249561500AC374F6
:10072F00019524500B020744E54A20E70E020744C7
:10073F00E54A30E706884689478A482278A5E6FACF
:10074F00C3E54933F8E54A33F9D159E930E70BC32B
:10075F00E89480E994FF4013E17EC3E8947FE99425
:10076F00005002E17E787F7900E17E788079FFE8A2
:10077F0020E715C3E52398F84009C3E89401400327
:10078F000207A578010207A5E8F424012523F84004
:10079F00030207A578FF884B2278A6E6FAA847A997
:1007AF0048D159E930E70CC3E89401E994FF4016AA
:1007BF000207D9C3E894FFE9940050030207D978E0
:1007CF00FF79000207D9780179FFE920E715C3E522
:1007DF004B98F84009C3E8940140030208007801E0
:1007EF00020800E8F42401254BF8400302080078C2
:1007FF00FF88242278FF20692879A1E76023E5414B
:10080F00601F74FF8541F0848539F0306A0375F0FD
:10081F0005A4F8C5F0600278FFC3E895645002A8FC
:10082F0064886322C3E5409440E5419401E5635039
:10083F0003140144046002F5632202084C2275E898
:10084F0090227883E6FF30EDF9A8BDA9BE0570C3ED
:10085F00E57094084052757000E9FA79A0E760449A
:0E086F00EA7007E571601B020885C3E8957109
:10087D006010E5715006600C140208910460F902D5
:10088D000891E571F571C3946D401B7561C0C394FA
:10089D00044013756180C39404400B756140C3948B
:1008AD0004400375610075BB0822E561F460020523
:1008BD0061E570B4070375BB1022743279A787F018
:1008CD00A4C5F0A2F733F8C3E895614002A861888A
:1008DD00228824882588268864227540007541F079
:1008ED0022C2AF75C820A8CCA9CDAA3A30CF010A33
:1008FD0075C824D2AFAB3BAC3C883B893CC3E89B6D
:10090D00F8E99C206908F930660221FF2159AD3DB7
:10091D008A3DF9EA9DFA600678FF79FF213EAE3EE9
:10092D00AF3F8B3E8C3FA83BA93CC3E89EF8E99FA7
:10093D00F9C3E54113FBE54013FAE82AF540E93B1D
:10094D00F54150067540FF7541FF21A6AA40AB4108
:10095D00AC40AD417E047F02C3EB9404400D1E1FDD
:10096D00C3EB94084005206A021E1FC3ED13FDEC76
:10097D0013FCDEF7C3EA9CFAEB9DFBEF6009C3E9BC
:10098D0013F9E813F8DFF7EA28FAEB39FB8A408B05
:10099D004150067BFF8B408B41C3EB94025002D23A
:1009AD00663069047F0321D17892E6FFC3E5379461
:1009BD008240110FC3E53794A040010FC3EF940699
:1009CD0040027F057E02E541C4540FF9E541C45450
:1009DD00F0F8E540C4540F28F8C3E89EFAE99400F6
:1009ED00FB4009C3EA9402EB940050047A02E4FB45
:1009FD00414BAA40AB41EBC4FEEAC4540F4EFCC3BD
:100A0D00EA9CFAEB9400FBC3E813C313F8EA28FA47
:100A1D00EB3400FB8A408B41C3EB94024002C2666B
:100A2D007802EBC4FE7B00EAC4540F4EFAC3EA9879
:100A3D00FA4005C3940250027A027892E6FF3060C4
:100A4D0002414B855192855293D26043E680C3E4B7
:100A5D009AF8E49BF930660241D7E8FAE9FBD3E94D
:100A6D0013FDE813FC88518952C3EF94036038EFEE
:100A7D0020E00DE82CF8E93DF9ECFAEDFB020AA0B7
:100A8D00E828F8E939F9C3E82402F8E93400F97ADD
:100A9D00FE7BFFC3EF9403400E8A538B54884D8920
:100AAD004E8C4F8D50610B885389548A4D8B4E8CD3
:100ABD004F8D503069127553F07554FF754FF075A9
:100ACD0050FF7551F07552FF610BE8FAD3E813FC36
:100ADD008851C3EF94036020EF20E007E82CF8EC79
:100AED00FA41F7E8282402F87AFEC3EF9403400890
:100AFD008A53884D8C4F610B88538A4D8C4FE56816
:100B0D00C3335002646BF5683060026115753402B1
:100B1D00D26043E680E52D54066034A840A941C358
:100B2D00E913F9E813F8C3E913F9E813F830690488
:100B3D00E92440F9C2AF53E67F759100C3E498F5FF
:100B4D0094E499F595759104D26043E680D2AF2275
:100B5D00D264754300752000306C03752040020B84
:100B6D007CD264754300752040306C03752000788D
:100B7D00017901206620E52D54066002C2647914C6
:100B8D00E541C313700104F8C39414400278143086
:100B9D006904781B791B206010E543600C306903F4
:100BAD00D53404D26D8126711D0543E59B5440B5A6
:100BBD002002811030690908C3E89940011861A32A
:100BCD0020640A08C3E8994002617C61A3C264C233
:100BDD00AF53E67F7591003066127594007595F8E8
:100BED00759104D26043E680D2AF617CE5417EFF12
:100BFD00C3334005C3334001FEC3E49E759400F535
:100C0D009561EDC3E53394015002617C306402615E
:100C1D007CD802812461A3C26DC2AF53E67F75916A
:100C2D0000855394855495759104854D92854E9309
:100C3D00D26043E680D2AFE52D54066008206A02EB
:100C4D000533020C62306D0D206C0A20640715818E
:100C5D00158102152E2278003064027801E5377572
:0F0C6D00F007A4F9E5F028F5F0E9A2F013A2F1E1
:100C7C0013A2F213F537C394785003753778C3E594
:100C8C003795384008D265D297D295D2933060020E
:100C9C008199854F92855093D26043E68022207DC6
:100CAC0016C2AF754202C294D296306202C293D27F
:100CBC00AF759F10020E9AC2AF754202C294D292C7
:100CCC00306202C297D2AF759F10020E9A307243F7
:100CDC00207D20C2AF754203900138757B10D293F2
:100CEC00C292306204C29581F7D294D2AF759F1331
:100CFC00020E9AC2AF754203900138757B10D297E1
:100D0C00C296306204C295A117D294D2AF759F11CE
:100D1C00020E9A207D17C2AF754203900113D29335
:100D2C00306202C295D2AF759F13020E9AC2AF7594
:100D3C004203900113D297306202C295D2AF759FD5
:100D4C0011020E9A207D16C2AF754204C296D29241
:100D5C00306202C295D2AF759F11020E9AC2AF7566
:100D6C004204C292D296306202C295D2AF759F13E2
:100D7C00020E9A307243207D20C2AF75420590015D
:100D8C0027757B40D295C294306204C297A19DD244
:100D9C0096D2AF759F10020E9AC2AF7542059001A4
:100DAC0049757B04D295C294306204C293A1BDD222
:100DBC0092D2AF759F10020E9A207D17C2AF75426A
:100DCC0005900109D295306202C297D2AF759F107F
:100DDC00020E9AC2AF75420590011DD2953062EB9E
:100DEC00C293D2AF759F10020E9A207D16C2AF75BA
:100DFC004206C292D294306202C297D2AF759F1350
:100E0C00020E9AC2AF754206C296D294306202C2EA
:100E1C0093D2AF759F11020E9A307244207D20C27E
:100E2C00AF754201900149757B04D297C29630622E
:100E3C0004C293C143D292D2AF759F11020E9AC2D3
:100E4C00AF754201900127757B40D293C2923062FC
:100E5C0005C297020E64D296D2AF759F13020E9AFA
:100E6C00207D17C2AF75420190011DD297306202EE
:100E7C00C293D2AF759F11020E9AC2AF7542019008
:100E8C000109D293306202C297D2AF759F13C2652B
:100E9C0022900107757B00D297D295D293C296C24D
:100EAC0094C292C26222788076FF0876FF0876FFA1
:100EBC000876FF08760308760408760A0876030895
:100ECC007601087601788C76010876FF0876FF08A3
:100EDC0076FF0876FF0876FF0876030876FF08761B
:100EEC00FF0876FF0876250876D00876FA0876FA99
:100EFC000876040876FF08760108760008767A08EA
:100F0C0076FF0876010876010876000876030876E5
:100F1C0000227887E6FFC272BF0302D2727888E69D
:100F2C00C394036008C27DE630E102D27DC27E78B4
:100F3C0089E630E102D27EC3EF94026008758E011F
:100F4C00D273020F56758E00C273227880E614900D
:100F5C0000809378A5F67881E6149000809378A6AB
:100F6C00F67886E61490008D9378A7F67886E6F5E9
:100F7C0039C394025003753902789CE67538FFB476
:100F8C0002037538A0B4030375388278A3E6149075
:100F9C00009A93F566D19D22227896E6FA7897E628
:100FAC00FB7888E6B40305C3EB940EFB307F047A20
:100FBC00007BFFC3EB9AFCC3948250027C82757257
:100FCC00000572EC8572F0A4C3E5F0947D40F2222A
:100FDC00D27FF1A51205A01205A07A007B007C102F
:100FEC00120596E55C2AFA74003BFBDCF37C04C327
:100FFC00EB13FBEA13FADCF7FEC27F120FA5227586
:10100C007C00757D00E5EF20E6037520000520903F
:10101C003FFFE520146006901DFF146000930460F0
:10102C000375EF1653D9BF7581C043FF801205912C
:10103C0075EF0643B203E5B3240220E70DF521E575
:10104C00E320E0068521B343E301120E9D7580FF7A
:10105C0075A40075F1B275D4DF7590A975A5FC75F2
:0F106C00F2FC75D50175A60175E241120E9DE4E7
:10107B00F8F6D8FD756801120EB212157F789886B6
:10108B0073753001C2AF1205AA1205BA1205A01270
:10109B0005C11205A01205C81205A01216A812054B
:1010AB00AA1205AA1205A5C2AF757C00757D007842
:1010BB00FA79FA308507D9FBD8F7021C00120F1EFC
:1010CB00120F57120FA4120FA578988673120E9D4C
:1010DB0075881075890275C82475910475D840758B
:1010EB00A82275B80275E690759B80759D0075D129
:1010FB000E75BC5875BB0875BA1175E88012059151
:10110B00D2AF12084975360053DACF207E0343DA8B
:10111B0020307E0343DA1043DA01C2D8C2711205C4
:10112B00AAD2617B037A0CE55B70077A0CDB0302B6
:10113B0010B21205A02070030210B2C270E55CC39E
:10114B00940240E1E52F541F855E5DF55EB55DD5DC
:10115B00DAD5C26153DACF207E0343DA20307E0327
:10116B0043DA10C2D8C27178A2E67008D274E52FA8
:10117B0054E0F52FC2757529001205A5307409C30B
:10118B00E529940A4002D275120596780230740252
:10119B007800C3E55C9840F0C2AF1205BA1205BAED
:1011AB001205BAD2AF1205AA754C007888E6B403C3
:1011BB000241B2120596788CE6C3940150030212D9
:1011CB00B2E530C3940150030212B2757CA5757D54
:1011DB00F1207435C3E55C94FF50030212B2C2AF29
:1011EB001205CFD2AF1205A5C3E55C940150EFC237
:1011FB00AF1205BA12059B1205BAD2AF1205A5C3E1
:10120B00E55C94FF40E902172D7F05D27F120FA5F5
:10121B001205A5C2AFC27F120FA5AE5CC3E55C94ED
:10122B007FD2AF500241C2120591C2AF1205CFD28D
:10123B00AFDFD8120FDCC3EE94057897F61205AA30
:10124B001216B07F0AD27F120FA51205A5C2AFC22C
:10125B007F120FA5AE5CC3E55C947FD2AF50E41256
:10126B000591C2AF1205BA12059B1205BAD2AFDFB8
:10127B00D4120FDCEE24037896F6F87997E7C39433
:10128B00824003985006E824827897F61205AA123A
:10129B0015CD1216DF1205A5120FA5C3E55C94FF41
:1012AB00500221D602172D757C00757D00C3E55CBD
:1012BB00954C4003855C4C1205A578017988E7B401
:1012CB0003027805C3E55C98400221B6C2AF120554
:1012DB00CF1205CF1205CFD2AF1205AA753000E49D
:1012EB00F531F5320531E531F4703F0532789AE688
:1012FB007819146012783214600D787D14600878B8
:10130B00FA146003753200C3E53298401D120E9D2E
:10131B00120591153275310078998673C2AF12059B
:10132B00CFD2AF789886731205A512059BE52A706C
:10133B000530740201B278012074027806C3E55CB3
:10134B009840A17888E6C3940360031205A5E52AAB
:10135B0070030210B2C2AF120E9DE4F522F523F515
:10136B0024F525F526F567D2AF7885E6C333F56509
:10137B00E4F544F545F546F547F548F570F52CF5DC
:10138B002DF53775700875BB1012059112084D308D
:10139B00EDFDA8BDA9BEE97001F888711208517561
:1013AB00700875BB10120F1EC2AF7561FF1208C714
:1013BB00852261852262852263D2AF752201752455
:1013CB0001752501752601856069756A017888E6C6
:1013DB00B40307C27D307602D27DD268D2697533F1
:1013EB0000120DF6120E251208E71208EE1208E78E
:1013FB001208EE1208E7120B6E1206B0120C6312F3
:10140B000CAA1208EE120B5D306E031206B12066A9
:10141B0003120803306603120833120C63120CD943
:10142B001208EE120B6E306E031206ED120C6312E5
:10143B000D501208EE120B5D306E0312074B120C9F
:10144B0063120D7F1208EE120B6E306E031207A89B
:10145B00120C63120DF61208EE12084D120B5D12F0
:0E146B000C63120E251208511208EE30692F84
:10147900856461856462856069756A0179187A0C89
:10148900C3E53399400CC269D26A8A357561FF0296
:1014990014A8C3E55C940140030214010215363017
:1014A9006A25206C22E535147006C26AD26B810167
:1014B900F535C3E55C940140030214017888E6C35D
:1014C90094036003021536753600788279A4E760C3
:1014D900027803C3E55F985054307404E52A604DDF
:1014E9007888E6B40317207D05207607A1063076B3
:1014F90002A106206C07D26C856461814078F030C6
:101509006C058564617820C3E541985002810130FA
:101519006C1BC26CC27D307602D27DD26A753512DF
:1015290085646181010536E55C6002A13975360083
:10153900C2AF120E9D7887E6FE7602120F1E7887DB
:10154900EEF6E4F522F523F524F525F526F565757E
:101559002C00752D00D2AF1205A5120E9D78A4E6B8
:101569006006C297C295C293307409C3E5369404E4
:10157900400201B241EA901A0D782012160FE520B7
:10158900B45A0CA312160FE520B4A5030215AD75C4
:101599007CA5757DF1120EB21215CD757C00757D95
:1015A900000215CC901A0378807B0A12160FA30843
:1015B900DBF9901A0F788C7B1912160FA308DBF947
:1015C900901A2822C2AF12165212162F901A0074BE
:1015D9000E121614A37409121614A37415121614F4
:1015E900901A0378807B0A121613A308DBF9901A64
:1015F9000F788C7B19121613A308DBF912166512E2
:101609001643901A2822E493F622E6438F01538F5A
:10161900FDFFC3E583941C400122EF857CB7857DDE
:10162900B7F0538FFE22438F02438F01857CB78524
:101639007DB7901A0DF0538FFC22901A0D745AD170
:1016490014901A0E74A5D114227A3079D07820908A
:101659001A40D10FE520F709A3DAF7227A3079D0B9
:10166900901A40E7D11409A3DAF922AB74A875BB23
:1016790001027984BB02027985BB03027986BB0426
:10168900027992BB05027987BB060279A3BB0702DF
:10169900799CBB08027988BB09027989E8F7227C21
:1016A900051205AADCFB22C2AF1205BA1205C11246
:1016B90005C81205CF12059B1205BA1205C11205FC
:1016C900C81205CF12059B1205BA1205C11205C829
:1016D9001205CFD2AF22C2AF1205CF1205C812052B
:1016E900C11205BA12059B1205CF1205C81205C110
:1016F9001205BA12059B1205CF1205C81205C112AF
:1017090005BAD2AF22AE74AF75C2AF1205BA1205CF
:10171900BA1205BA12059BDEF21205CF12059BDF3C
:10172900F8D2AF22D1B0D1A8D1A8757401757501CD
:10173900757600F10E7C05AD5C1205AAC3ED955CCA
:1017490070F5C3E55C9401400AC3E55C94FF40323F
:10175900021769D174B1CDD1B0C2AF75EF16D1A856
:10176900DCD50576C3E5769403500280C6D1A80579
:1017790075E5741490009F93F808C3E575985002B5
:1017890080AED1A8D1A80574C3E574940A5002802B
:0D1799009C120EB2B1CDC2AF75EF16D1A8F3
:0319FD0002100BCA
:101A00000E0915FFFFFFFF03040A0301015AA50198
:101A1000FFFFFFFFFF03FFFFFF25D0FAFA04FF01DE
:091A2000007AFF0101000300FF40
:101A400023536B7977616C6B6572323041232020B0
:101A500023424C48454C4923463333302320202031
:101A60002020202020202020202020202020202076
:101C0000C2AFC2D353D9BF7581C043B20343FF8073
:101C1000752438752503B1DC7529A5752AF175E29F
:101C20004043F12053A4DF75D4FFD2857DFA7803B9
:101C300079E67C10752200752300901DE97B0675FE
:101C400024987525013085028145208508D8FBD967
:101C5000F9DCF781B7308508D8FBD9F9DCF781B713
:101C6000B19CE493A3C39A6004DDC381B7DBDBB10D
:101C70008E6002812E7B08E493FAA3B16FDBF87AC1
:101C800030B16F752200752300B18EEAFCEBFDC305
:101C9000ED94FE400EB18E8A278B28ED30E0048A49
:101CA000828B83B18E7AC270D8C3ED94FE601950D6
:101CB000CEBD002BEC600F7520007521FF7529004B
:101CC000752A000200008100A827A9280809D80465
:101CD000D90281DCB192EA89AAF281CE0D81A3C337
:101CE000ED94035053EDA2E092007AC5C3E58294CF
:101CF00000E583941C508A200010438F02438F011B
:101D00008529B7852AB7F0300029A827A92808090E
:101D1000438F01538FFDD804D902A133C3E58394C7
:101D20001C4003A3A11689AAE28529B7852AB7F02A
:101D3000A3A116538FFC817F7AC1BD030CE493A34A
:101D4000FAB153DCF8B14B817F8181AA22AB23B178
:101D50006FEBFAEA6222752608C3E52313F523E543
:101D60002213F52250066323A0632201D526EAB18F
:101D7000DCB1DC75260AEAF4200102D285300102CA
:101D8000C285B1DCC3134002C201D526EB22B19259
:101D9000EAFB208502A192308502A197752608AE44
:101DA00024AF25C3EF13FFEE13FEB1E0B1DCC3EAAD
:101DB000133085024480FA30E703632201C3E52330
:101DC00013F523E52213F52250066323A0632201B5
:101DD000D526D9E52265236523F52222AE24AF2539
:101DE0000E0FDEFEDFFCD20122424C48656C6934E6
:071DF000373164F3300601F6
:00000001FF
