:030000000219FDE5
:03000B000200AA46
:03002B0002015D72
:03005B000202F7A7
:030073000202E4A2
:1000800002030406080C10182030406080040608A3
:100090000C10182030406080A0C00003070F1F0D17
:1000A0000D04050D050305030302C2AFC0D0C0E077
:1000B000206214E5256009E473E525F4F58AD2622F
:1000C000D0E0D0D0D2AF3285268AC262E526F46075
:1000D0003030682620720DD0E0D0D0C290C291C2DC
:1000E00092D2AF32C290C291C292206F0D20650AA7
:1000F0007401D5E0FDE57BF45290D0E0D0D0D2AFD2
:1001000032758A00C28DD26201FA01B930680520C9
:100110006502D29001B9306805206502D29101B91B
:10012000306805206502D29201B9D29330680A2066
:1001300065077405D5E0FDD29001B9D29430680A04
:100140002065077405D5E0FDD29101B9D2953068DC
:100150000A2065077405D5E0FDD29201B9C2AFC28D
:10016000AD53E6EFC0D0C0E0D2D3D2AFC2CEE52AC5
:10017000600720744F152A21C47800790020742E5E
:10018000E580307E01F430E60278FF53DACF207E3E
:100190000343DA20307E0343DA10C2D8C271E5800F
:1001A000307E01F430E60279FFC3E89970CB30610C
:1001B00003752A18207403752A18885CD270E860C9
:1001C00003755F0020740DE52B6004152B21D443CB
:1001D000DA01C2D82070024143A85C206102C270DB
:1001E0002074367982B70431C3E894F0400374F088
:1001F000F8E8C4540F28F87984B703024119C313EF
:10020000C3138721200802C313200A06C3C898F825
:10021000411928F8500374FFF88822E52D54066030
:1002200022206B1FE536C333C333F8E564C313C321
:1002300013F9C3952240028922E82522F5225003B2
:100240007522FF7882B60459852224A824C3E524A8
:1002500095614002A861C3E895634002A8638825C0
:10026000E56670024194C3E8AA669A5003E8FAE48E
:10027000F9EAC333FBE568F45B29400D2567F8E52F
:100280006760021567400B41940AC3E5679A500204
:10029000056778FF8826C26FC3E52694F84002D22E
:1002A0006F20CF0AD0E0D0D043E610D2AD32C2CF1B
:1002B000053A7801E52A6005307402152AC3E55C29
:1002C00094014005755F0041DA756000756900E5CD
:1002D0005F2401F55F5003755FFFD0E0D0D043E6A7
:1002E00010D2AD32C2AF53E67F7592FA7593FFC25A
:1002F00060759104D2AF32C2AF53E6EFC2ADC0D049
:10030000C0E0C0F0D2D3D2AFA8FBA9FCC2D83071F4
:1003100002615E53DACF207E0343DA10307E03435E
:10032000DA20D271E580307E01F420E60261358862
:10033000278928A18B53DACF207E0343DA20307E31
:100340000343DA10C2D8C271307402A1777800E595
:1003500080307E01F430E602A177885CA15F53DA39
:10036000CF207E0343DA20307E0343DA10C27120AF
:100370006102813753DACF207E0343DA10307E03E7
:1003800043DA20C2D8D27188578958C3E89555F806
:10039000E99556F97B007E087A00C3E8948CE994CD
:1003A000005005755B008129882178A2E6A82160AC
:1003B00055C3E894C8E994005008E4D2E4FB7A0AF3
:1003C0008104C3E89468E994015008E4D2E3FB7A1D
:1003D0000F8104C3E894D0E994025008E4D2E2FB10
:1003E0007A1E8104C3E894A0E994055008E4D2E1A0
:1003F000FB7A3C8104C3E89498E994085008E4D25D
:10040000E0FB7A787E00C3E89559FCE9955AFD3007
:10041000E70AECF42401FCEDF43400FD755B00C345
:10042000EC9AED9E5003755B018859895A855755A2
:100430008558567802A15FC3E89527F8E99528F911
:10044000307C02A143307B02A143307A02A13C20E0
:100450007502815AE9FDE8FC8179E9C313F9E813D3
:10046000F8307902A13CE9C313F9E813F8307802B7
:0E047000A13CE9C313FDE813FC20612CC3EC92
:10047E00941CED940240028190ED701EC3EC94C862
:10048E0050180529E52970021529C3E529940A504B
:10049E0002A177755C00D270A177E529600215295B
:1004AE007888E6F97400207F087896B90302789E62
:1004BE00E624FAFEE43400FFC3EC9EFCED9FFD92B1
:1004CE0008B90310A2085007207609D27681E230CF
:1004DE007602C276A2085016B9030DECF42401FC84
:1004EE00EDF43400FD0204FC78007900A143B90359
:1004FE0015EC33FCED33FDC3EC940AFCED9400FDDA
:10050E0050047C007D00C3EC94FFED94004006780F
:10051E00FF7900A143EC8572F0A4C5F0A2F733F881
:10052E007900400302055F78FF790002055FE9C399
:10053E0013F9E813F8307C0EE9600278FFC3E81374
:10054E0038F8E43400F9C3E894FFE99400400278E7
:10055E00FF885CD270206102A177741FF4552F4B77
:10056E00F52FC274EB7002D274752A1830740375AD
:10057E002A0A306102A18B20740353DAFE20740321
:10058E00752B06D0F0D0E0D0D0D2AD43E610327944
:10059E00010205BB79030205BB790A0205BB791E70
:1005AE000205BB79640205BB79C80205BB7817E466
:1005BE00D5E0FDD8FAD9F6227A147B780205E27AD4
:1005CE00107B8C0205E27A0D7BB40205E27A0B7B7E
:1005DE00C80205E2E573D5E001227902E4D294D592
:1005EE00E0FDD291D5E0FDC291D5E0FDC294D5E0FB
:1005FE00FDE920E002D29030E002D292E573D5E020
:10060E00FDE920E002C29030E002C2927496D5E07D
:10061E00FDD9C9EAF8D5E0FDD8FBDBB8D29422C3E8
:10062E007C007D0075F00005F0EA33FAEB33FB50E9
:10063E00F6EB13FBEA13FAC3E9FFE8FEE89AF8E9D2
:10064E009BF95004EFF9EEF8B3EC33FCED33FDD526
:10065E00F0DFEDF9ECF822E889F08A20D2D4F8A97F
:10066E00F07B0030F70B7BFFF42401F8E9F4340043
:10067E00F9E88520F0A4ADF0F8E98520F0A4AFF0FC
:10068E00FEED2EF974003FFA7C04C3EA13FAE91367
:10069E00F9E813F8DCF48BF030F70AE8F42401F8EB
:1006AE00E9F43400F9E889F0C2D4F8A9F02278828E
:1006BE00B60403020717C3E55C940140030206E18A
:1006CE00852224E4F544F545F546F547F548C26E16
:1006DE000207177882E6FCD26EE522F52378387988
:1006EE00C7AA40AB41C3EB13FBEA13FAEC14601339
:1006FE00C3EB13FBEA13FAEC14146007C3EB13FB02
:10070E00EA13FAD12D8844894522C3E5449523F88E
:10071E00E5459400F9500CC3E89480E994FF401627
:10072E00020748C3E8947FE9940050030207487813
:10073E007F7900020748788079FF8849894A22E547
:10074E00492546F8E54A3547F9854A20E430070140
:10075E00F43548FA30E709C3EA94F04015020786EB
:10076E00C3EA940F500302078678FF79FF7A0F02CF
:10077E000786780079007AF0C3E5249561500AC3A4
:10078E0074019524500B0207A4E54A20E70E0207D8
:10079E00A4E54A30E706884689478A482278A5E6C6
:1007AE00FAC3E54933F8E54A33F9D165E930E70B89
:1007BE00C3E89480E994FF4013E1DEC3E8947FE937
:1007CE0094005002E1DE787F7900E1DE788079FFD7
:1007DE00E820E715C3E52398F84009C3E8940140E3
:1007EE00030208057801020805E8F424012523F820
:1007FE00400302080578FF884B2278A6E6FAA84740
:10080E00A948120665E930E70CC3E89401E994FFA4
:10081E00401602083AC3E894FFE994005003020818
:10082E003A78FF790002083A780179FFE920E71556
:10083E00C3E54B98F84009C3E894014003020861F0
:10084E007801020861E8F42401254BF84003020800
:10085E006178FF88242278FF20692879A1E7602338
:0D086E00E541601F74FF8541F0848539F07D
:10087B00306A0375F005A4F8C5F0600278FFC3E891
:10088B0095645002A864886322C3E5409440E54117
:10089B009401E56350031401A5046002F563220281
:1008AB0008AD2275E890227883E6FF30EDF9A8BDFC
:1008BB00A9BE0570C3E57094084052757000E9FA43
:1008CB0079A0E76044EA7007E571601B0208E6C394
:1008DB00E895716010E5715006600C140208F20483
:1008EB0060F90208F2E571F571C394F6401B75616E
:1008FB00C0C394064013756180C39406400B7561A9
:10090B0040C39406400375610075BB0E22E561245C
:10091B0010500274FFF5617982B70402213FC3A81E
:10092B0061E524985002A824C3E895634002A863AC
:10093B0088258826E570B4070375BB1022743279BD
:10094B00A787F0A4C5F0A2F733F8C3E8956140027E
:10095B00A86188228824882588268864227540000F
:10096B007541F022C2AF75C820A8CCA9CDAA3A30E8
:10097B00CF010A75C824D2AFAB3BAC3C883B893C5A
:10098B00C3E89BF8E99C206908F930660241802195
:10099B00DAAD3D8A3DF9EA9DFA600678FF79FF21D1
:1009AB00BFAE3EAF3F8B3E8C3FA83BA93CC3E89EFE
:1009BB00F8E99FF9C3E54113FBE54013FAE82AF583
:1009CB0040E93BF54150067540FF7541FF4127AAB1
:1009DB0040AB41AC40AD417E047F02C3EB9404407D
:1009EB000D1E1FC3EB94084005206A021E1FC3EDAA
:1009FB0013FDEC13FCDEF7C3EA9CFAEB9DFBEF60F7
:100A0B0009C3E913F9E813F8DFF7EA28FAEB39FB26
:100A1B008A408B4150067BFF8B408B41C3EB94028A
:100A2B005002D2663069047F0341527892E6FFC3CD
:100A3B00E537948240110FC3E53794A040010FC3F3
:100A4B00EF940640027F057E02E541C4540FF9E5A1
:100A5B0041C454F0F8E540C4540F28F8C3E89EFA9B
:100A6B00E99400FB4009C3EA9402EB940050047A2A
:100A7B0002E4FB41CCAA40AB41EBC4FEEAC4540FE9
:100A8B004EFCC3EA9CFAEB9400FBC3E813C313F8C8
:100A9B00EA28FAEB3400FB8A408B41C3EB9402400B
:100AAB0002C2667802EBC4FE7B00EAC4540F4EFA16
:100ABB00C3EA98FA4005C3940250027A027892E690
:100ACB00FF30600241CC855192855293D26043E650
:100ADB0080C3E49AF8E49BF93066026158E8FAE9BE
:100AEB00FBD3E913FDE813FC88518952C3EF940340
:100AFB006038EF20E00DE82CF8E93DF9ECFAEDFB5E
:100B0B00020B21E828F8E939F9C3E82402F8E934A3
:100B1B0000F97AFE7BFFC3EF9403400E8A538B548C
:100B2B00884D894E8C4F8D50618C885389548A4DDA
:100B3B008B4E8C4F8D503069127553F07554FF7579
:100B4B004FF07550FF7551F07552FF618CE8FAD379
:100B5B00E813FC8851C3EF94036020EF20E007E813
:100B6B002CF8ECFA6178E8282402F87AFEC3EF94AB
:100B7B000340088A53884D8C4F618C88538A4D8C67
:100B8B004FE568C3335002646BF5683060026196C1
:100B9B00753402D26043E680E52D54066034A840DC
:100BAB00A941C3E913F9E813F8C3E913F9E813F8FA
:100BBB00306904E92440F9C2AF53E67F759100C355
:100BCB00E498F594E499F595759104D26043E68029
:100BDB00D2AF22D264754300752000306C037520B0
:100BEB0040020BFDD264754300752040306C0375D9
:100BFB00200078017901206620E52D54066002C2A1
:100C0B00647914E541C313700104F8C394144002D2
:100C1B007814306904781B791B206010E543600C55
:100C2B00306903D53404D26D81A8719E0543E59BD1
:100C3B00F45440B52002819230690908C3E8994009
:100C4B000118812420640A08C3E899400261FD81E0
:100C5B0024C264C2AF53E67F75910030661275945F
:0E0C6B00007595F8759104D26043E680D2AF13
:100C790061FDE5417EFFC3334005C3334001FEC337
:100C8900E49E759400F595816FC3E5339401500294
:100C990061FD30640261FDD80281A68124C26DC262
:100CA900AF53E67F759100855394855495759104EA
:100CB900854D92854E93D26043E680D2AFE52D549F
:100CC900066008206A020533020CE4306D0D206CC1
:100CD9000A2064071581158102159C227800306469
:100CE900027801E53775F007A4F9E5F028F5F0E990
:100CF900A2F013A2F113A2F213F537C394785003AB
:100D0900753778C3E53795384008D265C290C291E6
:100D1900C292306002A11B854F92855093D26043E5
:100D2900E68022207D16C2AF754202D294C293306A
:100D39006202D292D2AF759F11020F1CC2AF7542E7
:100D490002D294C295306202D290D2AF759F11023D
:100D59000F1C307243207D20C2AF75420390013BC6
:100D6900757B10C292D295306204D291A179C29456
:100D7900D2AF759F01020F1CC2AF75420390013BB0
:100D8900757B10C290D293306204D291A199C2941A
:100D9900D2AF759F21020F1C207D17C2AF75420388
:100DA900900116C292306202D291D2AF759F0102B0
:100DB9000F1CC2AF754203900116C290306202D275
:100DC90091D2AF759F21020F1C207D16C2AF7542CB
:100DD90004D293C295306202D291D2AF759F21029B
:100DE9000F1CC2AF754204D295C293306202D291F0
:100DF900D2AF759F01020F1C307243207D20C2AF14
:100E090075420590012A757B08C291D2943062041B
:100E1900D290C11FC293D2AF759F11020F1CC2AFEE
:100E290075420590014C757B20C291D294306204C1
:100E3900D292C13FC295D2AF759F11020F1C207D7E
:100E490017C2AF75420590010CC291306202D2906F
:100E5900D2AF759F11020F1CC2AF754205900120D8
:100E6900C2913062EBD292D2AF759F11020F1C2052
:100E79007D16C2AF754206D295C294306202D290F5
:100E8900D2AF759F01020F1CC2AF754206D293C241
:100E990094306202D292D2AF759F21020F1C307238
:100EA90044207D20C2AF75420190014C757B20C260
:100EB90090D293306204D292C1C5C295D2AF759FC8
:100EC90021020F1CC2AF75420190012A757B08C22D
:100ED90092D295306205D290020EE6C293D2AF75D6
:100EE9009F01020F1C207D17C2AF7542019001209E
:100EF900C290306202D292D2AF759F21020F1CC2FA
:100F0900AF75420190010CC292306202D290D2AF09
:100F1900759F01C2652290010A757B00C290C2913A
:100F2900C292D293D294D295C2622278807609086D
:100F390076090876040876FF0876030876FF0876AE
:100F49000B087603087601087601788C7601087615
:100F5900FF0876FF0876FF0876FF0876FF08760314
:100F69000876FF0876FF0876FF0876250876D00808
:100F790076280876500876040876FF0876020876FF
:100F89000008767A0876FF08760108760108760067
:100F9900087603087600227887E6FFC272BF03024B
:100FA900D2727888E6C394036008C27DE630E10214
:100FB900D27DC27E7889E630E102D27EC3EF940207
:100FC9006008758E01D273020FD8758E00C2732224
:100FD9007880E6149000809378A5F67881E61490DD
:100FE90000809378A6F67886E61490008D9378A70A
:100FF900F67886E6F539C394025003753902789C70
:10100900E67538FFB402037538A0B4030375388256
:1010190078A3E61490009A93F566120F1F2222789E
:1010290096E6FA7897E6FB7888E6B40305C3EB946D
:101039000EFB307F047A007BFFC3EB9AFCC39482DA
:1010490050027C827572000572EC8572F0A4C3E5CA
:10105900F0947D40F222D27F11281205AC1205AC22
:0F1069007A007B007C101205A2E55C2AFA740065
:101078003BFBDCF37C04C3EB13FBEA13FADCF7FE5F
:10108800C27F112822757C00757D00E5EF20E603FC
:101098007520000520903FFFE520146006901DFF95
:1010A8001460009304600375EF1453D9BF7581C0B1
:1010B80043FF8012059D75EF0443B203E5B3240294
:1010C80020E70DF521E5E320E0068521B343E301A0
:1010D800120F1F7580FF75A40075F1D075D4BF7508
:1010E800907875A53F75F2BF75D54075A60175E274
:1010F80041120F1FE4F8F6D8FD756801120F34127B
:1011080015ED78988673753001C2AF1205B61205D1
:10111800C61205AC1205CD1205AC1205D41205ACE9
:10112800C2AF757C00757D0078FA79FA308607D9E8
:10113800FBD8F7021C00120FA0120FD91127112893
:1011480078988673120F1F75881075890275C824E0
:1011580075910475D84075A82275B80275E6907522
:101168009B80759D0075D10775BC5875BB0E75BA07
:101178001175E88012059DD2AF1208AA7536005382
:10118800DACF207E0343DA20307E0343DA1043DAD5
:1011980001C2D8C2711205B6D2617B037A0CE55B35
:1011A80070077A0CDB030211281205AC20700302C9
:1011B8001128C270E55CC3940240E1E52F541F85F5
:1011C8005E5DF55EB55DD5DAD5C26153DACF207EB6
:1011D8000343DA20307E0343DA10C2D8C27178A202
:1011E800E67008D274E52F54E0F52FC27575290012
:1011F8001205B1307409C3E529940A4002D2751268
:1012080005A278023074027800C3E55C9840F0C209
:10121800AF1205C61205C61205C6D2AF1205B675BD
:101228004C007888E6B40302611D1205A2788CE6AA
:10123800C39401500302131DE530C3940150030207
:10124800131D757CA5757DF1207435C3E55C94FF8D
:10125800500302131DC2AF1205DBD2AF1205B1C392
:10126800E55C940150EFC2AF1205C61205A712053E
:10127800C6D2AF1205B1C3E55C94FF40E90217A5D9
:101288007F02D27F11281205B1C2AFC27F1128AEEA
:101298005CC3E55C947FD2AF5002612D12059DC2FC
:1012A800AF1205DBD2AFDFDA115FC3EE7897F61223
:1012B80005B61217287F0AD27F11281205B1C2AFCE
:1012C800C27F1128AE5CC3E55C947FD2AF50E612B2
:1012D800059DC2AF1205C61205A71205C6D2AFDF1B
:1012E800D6115FEE24037896F6F87997E7C39482CF
:1012F8004003985006E824827897F61205B612162D
:101308003B1217571205B11128C3E55C94FF500230
:10131800414A0217A5757C00757D00C3E55C954CB4
:101328004003855C4C1205B178017988E7B4030263
:101338007805C3E55C984002412AC2AF1205DB126A
:1013480005DB1205DBD2AF1205B6753000E4F531C6
:10135800F5320531E531F4703F0532789AE67819AF
:10136800146012783214600D787D14600878FA14CD
:101378006003753200C3E53298401D120F1F120535
:101388009D153275310078998673C2AF1205DBD28C
:10139800AF789886731205B11205A7E52A70053053
:1013A8007402212878012074027806C3E55C98400D
:1013B800A17888E6C3940360031205B1E52A700397
:1013C800021128C2AF120F1FE4F522F523F524F508
:1013D80025F526F567D2AF7885E6C333F565E4F5DC
:1013E80044F545F546F547F548F570F52CF52DF526
:1013F8003775700875BB1012059D1208AE30EDFDEB
:10140800A8BDA9BEE97001F888711208B275700804
:1014180075BB10120FA0C2AF7561FF120948852273
:1014280061852262852263D2AF7522017524017518
:101438002501752601856069756A017888E6B40317
:1014480007C27D307602D27DD268D2697533001228
:101458000E78120EA712096812096F12096812098C
:0D1468006F120968120BEF1206BC120CE5A2
:10147500120D2C12096F120BDE306E0312071820A5
:101485006603120864306603120894120CE5120D07
:101495005B12096F120BEF306E0312074D120CE54C
:1014A500120DD212096F120BDE306E031207AB124A
:1014B5000CE5120E0112096F120BEF306E031208C4
:1014C50008120CE5120E7812096F1208AE120BDE27
:1014D500120CE5120EA71208B212096F3069328597
:1014E5006461856462856069756A0179187A0CC3DF
:1014F500E53399400FC269D26A8A3585646185648E
:1015050063021516C3E55C9401400302146C0215D1
:10151500A4306A25206C22E535147006C26AD26BA8
:10152500816CF535C3E55C9401400302146C788841
:10153500E6C3940360030215A475360078FA79A40E
:10154500E760027803C3E55F985054307404E52AD8
:10155500604D7888E6B40317207D05207607A174D1
:10156500307602A174206C07D26C85646181AB78FA
:10157500F0306C058564617820C3E541985002819F
:101585006C306C1BC26CC27D307602D27DD26A751E
:101595003512856461816C0536E55C6002A1A7752D
:1015A5003600C2AF120F1F7887E6FE7602120FA033
:1015B5007887EEF6E4F522F523F524F525F526F5ED
:1015C50065752C00752D00D2AF1205B1120F1F786D
:1015D500A4E66006D290D291D292307409C3E53662
:1015E5009404400221286155901A0D782012167D29
:1015F500E520B4550CA312167DE520B4AA03021606
:101605001B757CA5757DF1120F3412163B757C0098
:10161500757D0002163A901A0378807B0A12167DB2
:10162500A308DBF9901A0F788C7B1912167DA30895
:10163500DBF9901A2822C2AF1216C012169D901A15
:1016450000740E121682A37409121682A374151261
:101655001682901A0378807B0A121681A308DBF99B
:10166500901A0F788C7B19121681A308DBF91216D4
:10167500D31216B1901A2822E493F622E6438F017D
:10168500538FFDFFC3E583941C400122EF857CB792
:10169500857DB7F0538FFE22438F02438F01857CF2
:1016A500B7857DB7901A0DF0538FFC22901A0D74F3
:1016B50055D182901A0E74AAD182227A3079D078C7
:1016C50020901A40D17DE520F709A3DAF7227A3078
:1016D50079D0901A40E7D18209A3DAF922AB74A830
:1016E50075BB01027980BB02027981BB0302798255
:1016F500BB04027984BB05027986BB06027992BBDD
:1017050007027987BB080279A3BB0902799CBB0A4A
:10171500027988BB0B027989E8F7227C051205B6A8
:10172500DCFB22C2AF1205C61205CD1205D4120587
:10173500DB1205A71205C61205CD1205D41205DB6D
:101745001205A71205C61205CD1205D41205DBD266
:10175500AF22C2AF1205DB1205D41205CD1205C6A4
:101765001205A71205DB1205D41205CD1205C61206
:1017750005A71205DB1205D41205CD1205C6D2AF99
:1017850022AE74AF75C2AF1205C61205C61205C6E4
:101795001205A7DEF21205DB1205A7DFF8D2AF228C
:1017A500F128F120F120757401757501757600F148
:1017B500867C05AD5C1205B6C3ED955C70F5C3E599
:1017C5005C9401400AC3E55C94FF40320217E1D105
:1017D500E2D13BF128C2AF75EF14F120DCD50576D7
:1017E500C3E5769403500280C6F1200575E57414AF
:1017F50090009F93F808C3E57598500280AE1217C4
:10180500201217200574C3E574940C5002809A12B7
:0D1815000F3412163BC2AF75EF14121720EE
:0319FD0002108D48
:101A00000E0915090904FF03FF0B03010155AA0183
:101A1000FFFFFFFFFF03FFFFFF25D0285004FF0259
:091A2000007AFF0101000300FF40
:101A40002353757065726D6963726F33703541230E
:101A500023424C48454C4923463333302320202031
:101A60002020202020202020202020202020202076
:101C0000C2AFC2D353D9BF7581C043B20343FF8073
:101C1000752438752503B1DC7529A5752AF175E29F
:101C20004043F14053A4BF75D4FFD2867DFA7803B8
:101C300079E67C10752200752300901DE97B0675FE
:101C400024987525013086028145208608D8FBD965
:101C5000F9DCF781B7308608D8FBD9F9DCF781B712
:101C6000B19CE493A3C39A6004DDC381B7DBDBB10D
:101C70008E6002812E7B08E493FAA3B16FDBF87AC1
:101C800030B16F752200752300B18EEAFCEBFDC305
:101C9000ED94FE400EB18E8A278B28ED30E0048A49
:101CA000828B83B18E7AC270D8C3ED94FE601950D6
:101CB000CEBD002BEC600F7520007521FF7529004B
:101CC000752A000200008100A827A9280809D80465
:101CD000D90281DCB192EA89AAF281CE0D81A3C337
:101CE000ED94035053EDA2E092007AC5C3E58294CF
:101CF00000E583941C508A200010438F02438F011B
:101D00008529B7852AB7F0300029A827A92808090E
:101D1000438F01538FFDD804D902A133C3E58394C7
:101D20001C4003A3A11689AAE28529B7852AB7F02A
:101D3000A3A116538FFC817F7AC1BD030CE493A34A
:101D4000FAB153DCF8B14B817F8181AA22AB23B178
:101D50006FEBFAEA6222752608C3E52313F523E543
:101D60002213F52250066323A0632201D526EAB18F
:101D7000DCB1DC75260AEAF4200102D286300102C9
:101D8000C286B1DCC3134002C201D526EB22B19258
:101D9000EAFB208602A192308602A197752608AE42
:101DA00024AF25C3EF13FFEE13FEB1E0B1DCC3EAAD
:101DB000133086024480FA30E703632201C3E5232F
:101DC00013F523E52213F52250066323A0632201B5
:101DD000D526D9E52265236523F52222AE24AF2539
:101DE0000E0FDEFEDFFCD20122424C48656C6934E6
:071DF000373164F3300601F6
:00000001FF
