:030000000219FDE5
:03000B000200AA46
:03002B0002015679
:03005B000202E5B9
:030073000202D2B4
:1000800002030406080C10182030406080040608A3
:100090000C10182030406080A0C00003070F1F0D17
:1000A0000D04050D050205030302C2AFC0D0C0E078
:1000B000206214E5256009E473E525F4F58AD2622F
:1000C000D0E0D0D0D2AF3285268AC262E526F46075
:1000D00029D0E0D0D0C297C295C293D2AF32C29796
:1000E000C295C293206F0C206509740ED5E0FDE522
:1000F0007B4290D0E0D0D0D2AF32758A00C28DD290
:100100006201F301B9306805206502D29701B93068
:100110006805206502D29501B9306805206502D2D4
:100120009301B9C29630680A206507740CD5E0FDCA
:10013000D29701B9C29430680A206507740CD5E0E3
:10014000FDD29501B9C29230680A206507740CD5BA
:10015000E0FDD29301B9C2AFC2AD53E6EFC0D0C04B
:10016000E0D2D3D2AFC2CEE52A600720744F152A61
:1001700021BD7800790020742EE580307E01F430B6
:10018000E30278FF53DACF207E0343DA20307E0388
:1001900043DA10C2D8C271E580307E01F430E30248
:1001A00079FFC3E89970CB306103752A1820740376
:1001B000752A18885CD270E86003755F0020740DA2
:1001C000E52B6004152B21CD43DA01C2D820700243
:1001D000413CA85C206102C2702074367982B70469
:1001E00031C3E894F0400374F0F8E8C4540F28F8E1
:1001F0007984B703024112C313C313872120080275
:10020000C313200A06C3C898F8411228F850037493
:10021000FFF88822E52D54066022206B1FE536C3C7
:1002200033C333F8E564C313C313F9C39522400203
:100230008922E82522F52250037522FF7882B60430
:100240004E852224A824C3E52495614002A861C3F9
:10025000E895634002A8638825E5667002418DC376
:10026000E8AA669A5003E8FAE4F9EAC333FBE568C2
:10027000F45B29400D2567F8E56760021567400BC0
:10028000418D0AC3E5679A5002056778FF882620EA
:10029000CF0AD0E0D0D043E610D2AD32C2CF053A7B
:1002A0007801E52A6005307402152AC3E55C9401E3
:1002B0004005755F0041C8756000756900E55F2401
:1002C00001F55F5003755FFFD0E0D0D043E610D258
:1002D000AD32C2AF53E67F7592FA7593FFC2607577
:1002E0009104D2AF32C2AF53E6EFC2ADC0D0C0E08E
:1002F000C0F0D2D3D2AFA8FBA9FCC2D83071026142
:100300004C53DACF207E0343DA10307E0343DA20E9
:10031000D271E580307E01F420E3026123882789D1
:1003200028A17953DACF207E0343DA20307E0343BD
:10033000DA10C2D8C271307402A1657800E580304D
:100340007E01F430E302A165885CA14D53DACF2031
:100350007E0343DA20307E0343DA10C2712061024B
:10036000812553DACF207E0343DA10307E0343DA4F
:1003700020C2D8D27188578958C3E89555F8E995B5
:1003800056F97B007E087A00C3E8948CE99400500B
:1003900005755B008117882178A2E6A8216055C306
:1003A000E894C8E994005008E4D2E4FB7A0A61F2C8
:1003B000C3E89468E994015008E4D2E3FB7A0F6142
:1003C000F2C3E894D0E994025008E4D2E2FB7A1E2A
:1003D00061F2C3E894A0E994055008E4D2E1FB7A05
:1003E0003C61F2C3E89498E994085008E4D2E0FB39
:1003F0007A787E00C3E89559FCE9955AFD30E70A02
:10040000ECF42401FCEDF43400FD755B00C3EC9AC0
:10041000ED9E5003755B018859895A85575585585B
:10042000567802A14DC3E89527F8E99528F9307C64
:1004300002A131307B02A131307A02A12A2075025B
:100440008148E9FDE8FC8167E9C313F9E813F83056
:100450007902A12AE9C313F9E813F8307802A12A36
:10046000E9C313FDE813FC20612CC3EC941CED944C
:0E047000024002817EED701EC3EC94C850184D
:10047E000529E52970021529C3E529940A5002A120
:10048E0065755C00D270A165E52960021529788832
:10049E00E6F97400207F087896B90302789EE62468
:1004AE00FAFEE43400FFC3EC9EFCED9FFD9208B90A
:1004BE000310A2085007207609D27681D03076023A
:1004CE00C276A2085016B9030DECF42401FCEDF42B
:1004DE003400FD0204EA78007900A131B90315EC6D
:1004EE0033FCED33FDC3EC940AFCED9400FD500497
:1004FE007C007D00C3EC94FFED9400400678FF79FC
:10050E0000A131EC8572F0A4C5F0A2F733F87900A2
:10051E00400302054D78FF790002054DE9C313F93A
:10052E00E813F8307C0EE9600278FFC3E81338F860
:10053E00E43400F9C3E894FFE99400400278FF88A0
:10054E005CD270206102A165741FF4552F4BF52FFC
:10055E00C274EB7002D274752A18307403752A0AAD
:10056E00306102A17920740353DAFE207403752BD7
:10057E0006D0F0D0E0D0D0D2AD43E61032790102F1
:10058E0005A979030205A9790A0205A9791E0205B2
:10059E00A979640205A979C80205A97817E4D5E0FE
:1005AE00FDD8FAD9F6227A147B780205D07A107B20
:1005BE008C0205D07A0D7BB40205D07A0B7BC80273
:1005CE0005D0E573D5E001227902E4C294D5E0FDB1
:1005DE00D295D5E0FDC295D5E0FDD294D5E0FDE9EA
:1005EE0020E002D29730E002D293E573D5E0FDE928
:1005FE0020E002C29730E002C2937496D5E0FDD996
:10060E00C9EAF8D5E0FDD8FBDBB8C29422C37C0062
:10061E007D0075F00005F0EA33FAEB33FB50F6EB94
:10062E0013FBEA13FAC3E9FFE8FEE89AF8E99BF92F
:10063E005004EFF9EEF8B3EC33FCED33FDD5F0DFFB
:10064E00EDF9ECF822E889F08A20D2D4F8A9F07BF3
:10065E000030F70B7BFFF42401F8E9F43400F9E8DD
:10066E008520F0A4ADF0F8E98520F0A4AFF0FEED02
:10067E002EF974003FFA7C04C3EA13FAE913F9E881
:10068E0013F8DCF48BF030F70AE8F42401F8E9F4FF
:10069E003400F9E889F0C2D4F8A9F0227882B604C1
:1006AE0003020705C3E55C940140030206CF8522D1
:1006BE0024E4F544F545F546F547F548C26E0207C4
:1006CE00057882E6FCD26EE522F523783879C7AA42
:1006DE0040AB41C3EB13FBEA13FAEC146013C3EB0C
:1006EE0013FBEA13FAEC14146007C3EB13FBEA13C3
:1006FE00FAD11B8844894522C3E5449523F8E54584
:10070E009400F9500CC3E89480E994FF4016020758
:10071E0036C3E8947FE994005003020736787F7958
:10072E0000020736788079FF8849894A22E54925F3
:10073E0046F8E54A3547F9854A20E4300701F43595
:10074E0048FA30E709C3EA94F04015020774C3EA89
:10075E00940F500302077478FF79FF7A0F02077423
:10076E00780079007AF0C3E5249561500AC37401CC
:10077E009524500B020792E54A20E70E020792E5F8
:10078E004A30E706884689478A482278A5E6FAC3A2
:10079E00E54933F8E54A33F9D153E930E70BC3E8BD
:1007AE009480E994FF4013E1CCC3E8947FE9940070
:1007BE005002E1CC787F7900E1CC788079FFE82097
:1007CE00E715C3E52398F84009C3E89401400302F6
:1007DE0007F378010207F3E8F424012523F8400318
:1007EE000207F378FF884B2278A6E6FAA847A948B5
:1007FE00120653E930E70CC3E89401E994FF401662
:10080E00020828C3E894FFE99400500302082878F0
:10081E00FF7900020828780179FFE920E715C3E582
:10082E004B98F84009C3E89401400302084F780141
:10083E0002084FE8F42401254BF8400302084F78D4
:10084E00FF88242278FF20692879A1E76023E541FB
:10085E00601F74FF8541F0848539F0306A0375F0AE
:0F086E0005A4F8C5F0600278FFC3E89564500256
:10087D00A864886322C3E5409440E5419401E56393
:10088D005003140193046002F5632202089B227544
:10089D00E890227883E6FF30EDF9A8BDA9BE05707A
:1008AD00C3E57094084052757000E9FA79A0E760CD
:1008BD0044EA7007E571601B0208D4C3E8957160C6
:1008CD0010E5715006600C140208E00460F902088E
:1008DD00E0E571F571C394A8401B7561C0C3940523
:1008ED004013756180C39405400B756140C3940539
:1008FD00400375610075BB0122E56124105002743F
:10090D00FFF5617982B70402212DC3A861E5249812
:10091D005002A824C3E895634002A8638825882661
:10092D00E570B4070375BB1E22743279A787F0A456
:10093D00C5F0A2F733F8C3E895614002A86188229B
:10094D008824882588268864227540007541F02208
:10095D00C2AF75C820A8CCA9CDAA3A30CF010A756F
:10096D00C824D2AFAB3BAC3C883B893CC3E89BF879
:10097D00E99C206908F9306602416E21C8AD3D8AB7
:10098D003DF9EA9DFA600678FF79FF21ADAE3EAFE5
:10099D003F8B3E8C3FA83BA93CC3E89EF8E99FF9ED
:1009AD00C3E54113FBE54013FAE82AF540E93BF5B1
:1009BD004150067540FF7541FF4115AA40AB41AC52
:1009CD0040AD417E047F02C3EB9404400D1E1FC356
:1009DD00EB94084005206A021E1FC3ED13FDEC13B6
:1009ED00FCDEF7C3EA9CFAEB9DFBEF6009C3E9134C
:1009FD00F9E813F8DFF7EA28FAEB39FB8A408B4167
:100A0D0050067BFF8B408B41C3EB94025002D266A4
:100A1D003069047F0341407892E6FFC3E537948245
:100A2D0040110FC3E53794A040010FC3EF9406406A
:100A3D00027F057E02E541C4540FF9E541C454F02F
:100A4D00F8E540C4540F28F8C3E89EFAE99400FB7A
:100A5D004009C3EA9402EB940050047A02E4FB418E
:100A6D00BAAA40AB41EBC4FEEAC4540F4EFCC3EA34
:100A7D009CFAEB9400FBC3E813C313F8EA28FAEBD6
:100A8D003400FB8A408B41C3EB94024002C266786E
:100A9D0002EBC4FE7B00EAC4540F4EFAC3EA98FA87
:100AAD004005C3940250027A027892E6FF3060024C
:100ABD0041BA855192855293D26043E680C3E49A40
:100ACD00F8E49BF93066026146E8FAE9FBD3E913D5
:100ADD00FDE813FC88518952C3EF94036038EF2071
:100AED00E00DE82CF8E93DF9ECFAEDFB020B0FE80F
:100AFD0028F8E939F9C3E82402F8E93400F97AFE57
:100B0D007BFFC3EF9403400E8A538B54884D894E5F
:100B1D008C4F8D50617A885389548A4D8B4E8C4FF2
:100B2D008D503069127553F07554FF754FF0755037
:100B3D00FF7551F07552FF617AE8FAD3E813FC881E
:100B4D0051C3EF94036020EF20E007E82CF8ECFA96
:100B5D006166E8282402F87AFEC3EF940340088A00
:100B6D0053884D8C4F617A88538A4D8C4FE568C3FD
:100B7D00335002646BF5683060026184753402D2C3
:100B8D006043E680E52D54066034A840A941C3E9D1
:100B9D0013F9E813F8C3E913F9E813F8306904E918
:100BAD002440F9C2AF53E67F759100C3E498F594E4
:100BBD00E499F595759104D26043E680D2AF22D2C7
:100BCD0064754300752000306C03752040020BEBFB
:100BDD00D264754300752040306C03752000780198
:100BED007901206620E52D54066002C2647914E572
:100BFD0041C313700104F8C3941440027814306992
:100C0D0004781B791B206010E543600C306903D517
:100C1D003404D26D819E718C0543E59E7005E59B74
:100C2D00020C32E59A5440B52002818830690908DA
:100C3D00C3E899400118811220640A08C3E899405D
:100C4D000261EB8112C264C2AF53E67F7591003031
:100C5D0066127594007595F8759104D26043E6801F
:0E0C6D00D2AF61EBE5417EFFC3334005C333D8
:100C7B004001FEC3E49E759400F5958165C3E53391
:100C8B009401500261EB30640261EBD802819C81CC
:100C9B0012C26DC2AF53E67F759100855394855494
:100CAB0095759104854D92854E93D26043E680D223
:100CBB00AFE52D54066008206A020533020CDA30CA
:100CCB006D0D206C0A206407158115810215B72262
:100CDB0078003064027801E53775F007A4F9E5F088
:100CEB0028F5F0E9A2F013A2F113A2F213F537C322
:100CFB0094785003753778C3E53795384008D2653B
:100D0B00C297C295C293306002A111854F92855054
:100D1B0093D26043E68022207D19C2AF754202C296
:100D2B0094D296306202D293D2AF759F33759E00E8
:100D3B00020F24C2AF754202C294D292306202D229
:100D4B0097D2AF759F33759E00020F2430724320EC
:100D5B007D20C2AF754203900134757B10C293C2E4
:100D6B0092306204D295A175D294D2AF759E2202B5
:100D7B000F24C2AF754203900134757B10C297C22A
:100D8B0096306204D295A195D294D2AF759E230270
:100D9B000F24207D17C2AF75420390010FC2933011
:100DAB006202D295D2AF759E22020F24C2AF75425A
:100DBB000390010FC297306202D295D2AF759E237A
:100DCB00020F24207D16C2AF754204C296D2923018
:100DDB006202D295D2AF759E23020F24C2AF754229
:100DEB0004C292D296306202D295D2AF759E220285
:100DFB000F24307249207D23C2AF75420590012329
:100E0B00757B40C295C294306204D297C11BD296B7
:100E1B00D2AF759F33759E00020F24C2AF7542058A
:100E2B00900145757B04C295C294306204D293C184
:100E3B003ED292D2AF759F33759E00020F24207D58
:100E4B001AC2AF754205900105C295306202D29766
:100E5B00D2AF759F33759E00020F24C2AF7542054A
:100E6B00900119C2953062E8D293D2AF759F33755A
:100E7B009E00020F24207D16C2AF754206C292D28D
:100E8B0094306202D297D2AF759E22020F24C2AF6A
:100E9B00754206C296D294306202D293D2AF759E3F
:100EAB0023020F24307244207D20C2AF7542019083
:100EBB000145757B04C297C296306204D293C1CDB3
:100ECB00D292D2AF759E23020F24C2AF754201900E
:100EDB000123757B40C293C292306205D297020EFA
:100EEB00EED296D2AF759E22020F24207D17C2AF91
:100EFB00754201900119C297306202D293D2AF753D
:100F0B009E23020F24C2AF754201900105C293309C
:100F1B006202D297D2AF759E22C2652290010375F1
:100F2B007B00C297C295C293C296C294C292C26210
:100F3B0022788076090876090876040876FF087609
:100F4B00030876FF08760808760108760108760113
:100F5B00788C76010876FF0876FF0876FF0876FF17
:100F6B000876FF0876030876FF0876FF0876FF08F9
:100F7B0076250876D0087628087650087604087609
:100F8B00FF08760208760008767A0876FF08760165
:100F9B00087601087600087603087600227887E643
:100FAB00FFC2727888E6C394036008C27DE630E125
:100FBB0002D27DC27E7889E630E102D27EC3EF9405
:100FCB00026008758E01D273020FDB758E00C2733F
:100FDB00227880E6149000809378A5F67881E61449
:100FEB009000809378A6F67886E61490008D93781F
:100FFB00A7F67886E6F539C3940250037539027863
:10100B009CE67538FFB402037538A0B4030375383A
:10101B008278A3E61490009A93F566120F2722228A
:10102B007896E6FA7897E6FB7888E6B40305C3EB87
:10103B00940EFB307F047A007BFFC3EB9AFCC394C6
:10104B008250027C827572000572EC8572F0A4C32B
:10105B00E5F0947D40F222D27F112B12059A1205F6
:0E106B009A7A007B007C10120590E55C2AFA50
:1010790074003BFBDCF37C04C3EB13FBEA13FADCDF
:10108900F7FEC27F112B22757C00757D00E5EF20EC
:10109900E6037520000520903DFFE52014600690C9
:1010A9001FFF1460009304600375EF1653D9BF75D1
:1010B90081C043FF8012058B75EF0643B203E5B388
:1010C900240220E70DF521E5B120E0068521B3438F
:1010D900B101120F2775800875A40075F1FF75D449
:1010E900F775900275A5FC75F2FD75D50075A0FF21
:1010F90075A60075F30075D60075B0FF75A7017563
:10110900F4FF75E241120F27E4F8F6D8FD7568017E
:10111900120F3C12160878988673753001C2AF1207
:1011290005A41205B412059A1205BB12059A1205F7
:10113900C212059AC2AF757C00757D0078FA79FAFA
:10114900308307D9FBD8F7021C00120FA8120FDC55
:10115900112A112B78988673120F277588107589B3
:101169000275C82475910475D84075A82275B8020E
:1011790075E690759B80759D00759A80759C0075C4
:10118900D10E75BC5875BB0175BA1F75E88012057B
:101199008BD2AF12089875360053DACF207E0343FD
:1011A900DA20307E0343DA1043DA01C2D8C2711261
:1011B90005A4D2617B037A0CE55B70077A0CDB032B
:1011C90002113D12059A20700302113DC270E55CBF
:1011D900C3940240E1E52F541F855E5DF55EB55D60
:1011E900D5DAD5C26153DACF207E0343DA20307EC7
:1011F9000343DA10C2D8C27178A2E67008D274E546
:101209002F54E0F52FC27575290012059F30740916
:10121900C3E529940A4002D2751205907802307408
:10122900027800C3E55C9840F0C2AF1205B412051C
:10123900B41205B4D2AF1205A4754C007888E6B48F
:1012490003026138120590788CE6C39401500302B9
:101259001338E530C394015003021338757CA57522
:101269007DF1207435C3E55C94FF5003021338C245
:10127900AF1205C9D2AF12059FC3E55C940150EFC7
:10128900C2AF1205B41205951205B4D2AF12059F6B
:10129900C3E55C94FF40E90217C07F02D27F112B9E
:1012A90012059FC2AFC27F112BAE5CC3E55C947F70
:1012B900D2AF5002614812058BC2AF1205C9D2AF35
:1012C900DFDA1162C3EE7897F61205A41217437F8D
:1012D9000AD27F112B12059FC2AFC27F112BAE5CC0
:1012E900C3E55C947FD2AF50E612058BC2AF1205FD
:1012F900B41205951205B4D2AFDFD61162EE2403FC
:101309007896F6F87997E7C394824003985006E8EF
:1013190024827897F61205A412165612177212052E
:101329009F112BC3E55C94FF500241650217C075FC
:101339007C00757D00C3E55C954C4003855C4C12CF
:10134900059F78017988E7B403027805C3E55C98BD
:1013590040024145C2AF1205C91205C91205C9D2D9
:10136900AF1205A4753000E4F531F5320531E531E8
:10137900F4703F0532789AE67819146012783214BD
:10138900600D787D14600878FA146003753200C323
:10139900E53298401D120F2712058B153275310061
:1013A90078998673C2AF1205C9D2AF78988673123D
:1013B900059F120595E52A7005307402213D7801D3
:1013C9002074027806C3E55C9840A17888E6C39446
:1013D90003600312059FE52A700302113DC2AF1293
:1013E9000F27E4F522F523F524F525F526F567D22F
:1013F900AF7885E6C333F565E4F544F545F546F57B
:1014090047F548F570F52CF52DF53775700875BB5E
:101419001E12058B12089C30EDFDA8BDA9BEE9700E
:1014290001F888711208A075700875BB1E120FA803
:10143900C2AF7561FF120936852261852262852254
:1014490063D2AF75220175240175250175260185C1
:101459006069756A017888E6B40307C27D3076024F
:0F146900D27DD268D269753300120E80120EAF99
:1014780012095612095D12095612095D120956120F
:101488000BDD1206AA120CDB120D2212095D120BDB
:10149800CC306E031207062066031208523066032A
:1014A800120882120CDB120D5712095D120BDD3087
:1014B8006E0312073B120CDB120DCE12095D120BE4
:1014C800CC306E03120799120CDB120DFD12095D68
:1014D800120BDD306E031207F6120CDB120E8012AF
:1014E800095D12089C120BCC120CDB120EAF12080D
:1014F800A012095D3069328564618564628560691E
:10150800756A0179187A0CC3E53399400FC269D21C
:101518006A8A35856461856463021531C3E55C9424
:101528000140030214870215BF306A25206C22E5AA
:1015380035147006C26AD26B8187F535C3E55C94B1
:101548000140030214877888E6C3940360030215F8
:10155800BF75360078FA79A4E760027803C3E55FBF
:10156800985054307404E52A604D7888E6B403171F
:10157800207D05207607A18F307602A18F206C0789
:10158800D26C85646181C678F0306C0585646178B9
:1015980020C3E5419850028187306C1BC26CC27D24
:1015A800307602D27DD26A753512856461818705ED
:1015B80036E55C6002A1C2753600C2AF120F27780B
:1015C80087E6FE7602120FA87887EEF6E4F522F594
:1015D80023F524F525F526F565752C00752D00D223
:1015E800AF12059F120F2778A4E66006D297D2950E
:1015F800D293307409C3E53694044002213D6170EA
:10160800901A0D7820121698E520B4550CA31216DE
:1016180098E520B4AA03021636757CA5757DF112EB
:101628000F3C121656757C00757D00021655901AEF
:101638000378807B0A121698A308DBF9901A0F78B2
:101648008C7B19121698A308DBF9901A2822C2AFCE
:101658001216DB1216B8901A00740E12169DA37497
:101668000912169DA3741512169D901A0378807B93
:101678000A12169CA308DBF9901A0F788C7B1912B2
:10168800169CA308DBF91216EE1216CC901A282223
:10169800E493F622E6438F01538FFDFFC3E583945D
:1016A8001C400122EF857CB7857DB7F0538FFE2261
:1016B800438F02438F01857CB7857DB7901A0DF063
:1016C800538FFC22901A0D7455D19D901A0E74AA4E
:1016D800D19D227A3079D07820901A40D198E5208F
:1016E800F709A3DAF7227A3079D0901A40E7D19D2A
:1016F80009A3DAF922AB74A875BB01027980BB0291
:10170800027981BB03027982BB04027984BB05029A
:101718007986BB06027992BB07027987BB080279F2
:10172800A3BB0902799CBB0A027988BB0B027989A1
:10173800E8F7227C051205A4DCFB22C2AF1205B42F
:101748001205BB1205C21205C91205951205B4127D
:1017580005BB1205C21205C91205951205B412057A
:10176800BB1205C21205C9D2AF22C2AF1205C912F7
:1017780005C21205BB1205B41205951205C912055A
:10178800C21205BB1205B41205951205C91205C28D
:101798001205BB1205B4D2AF22AE74AF75C2AF1238
:1017A80005B41205B41205B4120595DEF21205C986
:1017B800120595DFF8D2AF22F143F13BF13B757486
:1017C80001757501757600F1A17C05AD5C1205A463
:1017D800C3ED955C70F5C3E55C9401400AC3E55C14
:1017E80094FF40330217FCD1FDD156F143C2AF75C7
:1017F800EF16F13BDCD50576C3E5769403500280FD
:10180800C612173B0575E5741490009F93F808C33A
:10181800E57598500280AD12173B12173B0574C34B
:10182800E574940C50028099120F3C121656C2AF00
:0618380075EF1612173BCC
:0319FD0002109045
:101A00000E0915090904FF03FF0801010155AA0188
:101A1000FFFFFFFFFF03FFFFFF25D0285004FF0259
:091A2000007AFF0101000300FF40
:101A4000235467794B4637304148562320202020C5
:101A500023424C48454C4923463331302320202033
:101A60002020202020202020202020202020202076
:101C0000C2AFC2D353D9BF7581C043B20343FF8073
:101C1000752438752503B1DC7529A5752AF175E29F
:101C20004043F10853A4F775D4FFD2837DFA7803BB
:101C300079E67C10752200752300901DE97B0675FE
:101C400024987525013083028145208308D8FBD96B
:101C5000F9DCF781B7308308D8FBD9F9DCF781B715
:101C6000B19CE493A3C39A6004DDC381B7DBDBB10D
:101C70008E6002812E7B08E493FAA3B16FDBF87AC1
:101C800030B16F752200752300B18EEAFCEBFDC305
:101C9000ED94FE400EB18E8A278B28ED30E0048A49
:101CA000828B83B18E7AC270D8C3ED94FE601950D6
:101CB000CEBD002BEC600F7520007521FF7529004B
:101CC000752A000200008100A827A9280809D80465
:101CD000D90281DCB192EA89AAF281CE0D81A3C337
:101CE000ED94035053EDA2E092007AC5C3E58294CF
:101CF00000E583941C508A200010438F02438F011B
:101D00008529B7852AB7F0300029A827A92808090E
:101D1000438F01538FFDD804D902A133C3E58394C7
:101D20001C4003A3A11689AAE28529B7852AB7F02A
:101D3000A3A116538FFC817F7AC1BD030CE493A34A
:101D4000FAB153DCF8B14B817F8181AA22AB23B178
:101D50006FEBFAEA6222752608C3E52313F523E543
:101D60002213F52250066323A0632201D526EAB18F
:101D7000DCB1DC75260AEAF4200102D283300102CC
:101D8000C283B1DCC3134002C201D526EB22B1925B
:101D9000EAFB208302A192308302A197752608AE48
:101DA00024AF25C3EF13FFEE13FEB1E0B1DCC3EAAD
:101DB000133083024480FA30E703632201C3E52332
:101DC00013F523E52213F52250066323A0632201B5
:101DD000D526D9E52265236523F52222AE24AF2539
:101DE0000E0FDEFEDFFCD20122424C48656C6934E6
:071DF000373164F310060116
:00000001FF
