:030000000219FDE5
:03000B000200A848
:03002B0002015778
:03005B000202DDC1
:030073000202CABC
:1000800002030406080C10182030406080040608A3
:100090000C10182030406080A0C00003070F1F051F
:1000A000050D050205030302C2AFC0D0C0E0206207
:1000B00014E5256009E473E525F4F58AD262D0E001
:1000C000D0D0D2AF3285268AC262E526F4602AD02B
:1000D000E0D0D0C295C294C293D2AF32C295C2943E
:1000E000C293206F0D20650A7405D5E0FDE57BF411
:1000F0005290D0E0D0D0D2AF32758A00C28DD26299
:1001000001F201B7306805206502D29501B7306869
:1001100005206502D29401B7306805206502D293AC
:1001200001B7D29230680A2065077403D5E0FDD28A
:100130009501B7D29130680A2065077403D5E0FDB8
:10014000D29401B7D290D29230680A206507740326
:10015000D5E0FDD29301B7C2AFC2AD53E6EFC0D038
:10016000C0E0D2D3D2AFC2CEE52A600720744F15CB
:100170002A21BE7800790020742EE580307E01F4BB
:1001800030E70278FF53DACF207E0343DA20307E57
:100190000343DA10C2D8C271E580307E01F430E743
:1001A0000279FFC3E89970CB306103752A18207477
:1001B00003752A18885CD270E86003755F002074AC
:1001C0000DE52B6004152B21CE43DA01C2D8207037
:1001D000024141A85C206102C270207431C3E894DE
:1001E000F0400374F0F8E8C4540F28F87984B7039A
:1001F00002410EC313C3138721200802C313200A30
:1002000006C3C898F8410E28F8500374FFF8C3E8F5
:1002100095655003E565F88822E52D540660222097
:100220006B1FE536C333C333F8E564C313C313F957
:10023000C3952240028922E82522F5225003752227
:10024000FF852224A824C3E52495614002A8618883
:1002500025E56670024185C3E8AA669A5003E8FA6C
:10026000E4F9EAC333FBE568F45B29400D2567F840
:10027000E56760021567400B41850AC3E5679A5040
:1002800002056778FF882620CF0AD0E0D0D043E669
:1002900010D2AD32C2CF053A7801E52A600530743C
:1002A00002152AC3E55C94014005755F0041C075E5
:1002B0006000756900E55F2401F55F5003755FFF1D
:1002C000D0E0D0D043E610D2AD32C2AF53E67F7556
:1002D00092FA7593FFC260759104D2AF32C2AF53E8
:1002E000E6EFC2ADC0D0C0E0C0F0D2D3D2AFA8FB21
:1002F000A9FCC2D8307102614453DACF207E034397
:10030000DA10307E0343DA20D271E580307E01F4CA
:1003100020E702611B88278928A17153DACF207E4C
:100320000343DA20307E0343DA10C2D8C27130743E
:1003300002A15D7800E580307E01F430E702A15D26
:10034000885CA14553DACF207E0343DA20307E0358
:1003500043DA10C271206102811D53DACF207E037F
:1003600043DA10307E0343DA20C2D8D2718857892D
:1003700058C3E89555F8E99556F97B007E087A0050
:10038000C3E8948CE994005005755B00810F8821C7
:1003900078A2E6A8216055C3E894C8E99400500803
:1003A000E4D2E4FB7A0A61EAC3E89468E994015074
:1003B00008E4D2E3FB7A0F61EAC3E894D0E994023F
:1003C0005008E4D2E2FB7A1E61EAC3E894A0E99403
:1003D000055008E4D2E1FB7A3C61EAC3E89498E96D
:1003E00094085008E4D2E0FB7A787E00C3E895597F
:1003F000FCE9955AFD30E70AECF42401FCEDF434F5
:1004000000FD755B00C3EC9AED9E5003755B01889F
:1004100059895A8557558558567802A145C3E8959C
:1004200027F8E99528F9307C02A129307B02A1291F
:10043000307A02A1222075028140E9FDE8FC815F4B
:10044000E9C313F9E813F8307902A122E9C313F9DB
:10045000E813F8307802A122E9C313FDE813FC2069
:10046000612CC3EC941CED940240028176ED701E69
:0F047000C3EC94C850180529E52970021529C35B
:10047F00E529940A5002A15D755C00D270A15DE57B
:10048F0029600215297888E6F97400207F0878968C
:10049F00B90302789EE624FAFEE43400FFC3EC9E13
:1004AF00FCED9FFD9208B90310A2085007207609B2
:1004BF00D27681C8307602C276A2085016B9030DE3
:1004CF00ECF42401FCEDF43400FD0204E278007931
:1004DF0000A129B90315EC33FCED33FDC3EC940AED
:1004EF00FCED9400FD50047C007D00C3EC94FFED07
:1004FF009400400678FF7900A129EC8572F0A4C51D
:10050F00F0A2F733F87900400302054578FF790030
:10051F00020545E9C313F9E813F8307C0EE96002D0
:10052F0078FFC3E81338F8E43400F9C3E894FFE91F
:10053F009400400278FF885CD270206102A15D7444
:10054F001FF4552F4BF52FC274EB7002D274752A1E
:10055F0018307403752A0A306102A1712074035395
:10056F00DAFE207403752B06D0F0D0E0D0D0D2ADD8
:10057F0043E6103279010205A179030205A1790A38
:10058F000205A1791E0205A179640205A179C802AD
:10059F0005A17817E4D5E0FDD8FAD9F6227A147BB5
:1005AF00780205C87A107B8C0205C87A0D7BB402DD
:1005BF0005C87A0B7BC80205C8E573D5E00122791F
:1005CF0002E4D291D5E0FDD294D5E0FDC294D5E0FE
:1005DF00FDC291D5E0FDE920E002D29530E002D2D4
:1005EF0093E573D5E0FDE920E002C29530E002C249
:1005FF00937496D5E0FDD9C9EAF8D5E0FDD8FBDBB9
:10060F00B8D29122C37C007D0075F00005F0EA336B
:10061F00FAEB33FB50F6EB13FBEA13FAC3E9FFE8EF
:10062F00FEE89AF8E99BF95004EFF9EEF8B3EC33D2
:10063F00FCED33FDD5F0DFEDF9ECF822E889F08A17
:10064F0020D2D4F8A9F07B0030F70B7BFFF4240104
:10065F00F8E9F43400F9E88520F0A4ADF0F8E98565
:10066F0020F0A4AFF0FEED2EF974003FFA7C04C326
:10067F00EA13FAE913F9E813F8DCF48BF030F70A10
:10068F00E8F42401F8E9F43400F9E889F0C2D4F869
:10069F00A9F02222C3E54113F9E54013F8C3E5445D
:1006AF0098F8E54599F9500CC3E89480E994FF4018
:1006BF00160206DAC3E8947FE9940050030206DAC3
:1006CF00787F79000206DA788079FF8849894A2293
:1006DF00E5492546F8E54A3547F9854A20E43007CC
:1006EF0001F43548FA30E709C3EA94F040150207E0
:1006FF0018C3EA940F500302071878FF79FF7A0F97
:10070F00020718780079007AF0C3E5249561500A42
:10071F00C374019524500B020736E54A20E70E02F9
:10072F000736E54A30E706884689478A482278A582
:10073F00E6FAC3E54933F8E54A33F9D14BE930E737
:10074F000BC3E89480E994FF4013E170C3E8947FF2
:10075F00E994005002E170787F7900E17078807938
:10076F00FFE820E715C3E52398F84009C3E8940193
:10077F0040030207977801020797E8F42401252325
:10078F00F8400302079778FF884B2278A6E6FAA86D
:10079F0047A948D14BE930E70CC3E89401E994FF2E
:1007AF0040160207CBC3E894FFE9940050030207F9
:1007BF00CB78FF79000207CB780179FFE920E715A5
:1007CF00C3E54B98F84009C3E8940140030207F2D0
:1007DF0078010207F2E8F42401254BF840030207E1
:1007EF00F278FF88242278FF20692879A1E7602317
:1007FF00E541601F74FF8541F0848539F0306A034D
:10080F0075F005A4F8C5F0600278FFC3E895645051
:10081F0002A864886322C3E5409440E5419401E552
:10082F00635003140136046002F5632202083E226E
:10083F0075E890227883E6FF30EDF9A8BDA9BE05D3
:10084F0070C3E57094084052757000E9FA79A0E71B
:10085F006044EA7007E571601B020877C3E8957181
:0F086F006010E5715006600C140208830460F9F4
:10087E00020883E571F571C3946D401B7561C0C3A9
:10088E0094044013756180C39404400B756140C39A
:10089E009404400375610075BB0622E561F46002A5
:1008AE000561E570B4070375BB1022743279A78712
:1008BE00F0A4C5F0A2F733F8C3E895614002A86131
:1008CE0088228824882588268864227540007541F0
:1008DE00F022C2AF75C820A8CCA9CDAA3A30CF015C
:1008EE000A75C824D2AFAB3BAC3C883B893CC3E80D
:1008FE009BF8E99C206908F930660221F1214BAD85
:10090E003D8A3DF9EA9DFA600678FF79FF2130AE07
:10091E003EAF3F8B3E8C3FA83BA93CC3E89EF8E917
:10092E009FF9C3E54113FBE54013FAE82AF540E9C8
:10093E003BF54150067540FF7541FF2198AA40AB2B
:10094E0041AC40AD417E047F02C3EB9404400D1ECA
:10095E001FC3EB94084005206A021E1FC3ED13FD52
:10096E00EC13FCDEF7C3EA9CFAEB9DFBEF6009C3C8
:10097E00E913F9E813F8DFF7EA28FAEB39FB8A40B6
:10098E008B4150067BFF8B408B41C3EB9402500290
:10099E00D2663069047F0321C37892E6FFC3E53740
:1009AE00948240110FC3E53794A040010FC3EF941A
:1009BE000640027F057E02E541C4540FF9E541C4AD
:1009CE0054F0F8E540C4540F28F8C3E89EFAE994B1
:1009DE0000FB4009C3EA9402EB940050047A02E44F
:1009EE00FB413DAA40AB41EBC4FEEAC4540F4EFCA2
:1009FE00C3EA9CFAEB9400FBC3E813C313F8EA288E
:100A0E00FAEB3400FB8A408B41C3EB94024002C2E6
:100A1E00667802EBC4FE7B00EAC4540F4EFAC3EABA
:100A2E0098FA4005C3940250027A027892E6FF309B
:100A3E006002413D855192855293D26043E680C358
:100A4E00E49AF8E49BF930660241C9E8FAE9FBD36F
:100A5E00E913FDE813FC88518952C3EF9403603803
:100A6E00EF20E00DE82CF8E93DF9ECFAEDFB020A77
:100A7E0092E828F8E939F9C3E82402F8E93400F9D4
:100A8E007AFE7BFFC3EF9403400E8A538B54884D3E
:100A9E00894E8C4F8D5041FD885389548A4D8B4E13
:100AAE008C4F8D503069127553F07554FF754FF0A1
:100ABE007550FF7551F07552FF41FDE8FAD3E813FA
:100ACE00FC8851C3EF94036020EF20E007E82CF878
:100ADE00ECFA41E9E8282402F87AFEC3EF940340C9
:100AEE00088A53884D8C4F41FD88538A4D8C4FE5B3
:100AFE0068C3335002646BF5683060026107753469
:100B0E0002D26043E680E52D54066034A840A94128
:100B1E00C3E913F9E813F8C3E913F9E813F83069D8
:100B2E0004E92440F9C2AF53E67F759100C3E498FF
:100B3E00F594E499F595759104D26043E680D2AFB1
:100B4E0022D264754300752000306C03752040027C
:100B5E000B6ED264754300752040306C0375200017
:100B6E0078017901206620E52D54066002C2647971
:100B7E0014E541C313700104F8C3941440027814B1
:100B8E00306904781B791B206010E543600C3069D6
:100B9E0003D53404D26D8118710F0543E59B544083
:100BAE00B52002810230690908C3E8994001186135
:100BBE009520640A08C3E8994002616E6195C2648B
:100BCE00C2AF53E67F75910030661275940075952D
:100BDE00F8759104D26043E680D2AF616EE5417E36
:100BEE00FFC3334005C3334001FEC3E49E7594003A
:100BFE00F59561DFC3E53394015002616E306402F6
:100C0E00616ED80281166195C26DC2AF53E67F75D3
:100C1E009100855394855495759104854D92854E1A
:100C2E0093D26043E680D2AFE52D54066008206A69
:100C3E00020533020C54306D0D206C0A206407152A
:100C4E008115810215222278003064027801E53781
:100C5E0075F007A4F9E5F028F5F0E9A2F013A2F17A
:0F0C6E0013A2F213F537C394785003753778C388
:100C7D00E53795384008D265C295C294C29330606D
:100C8D0002818B854F92855093D26043E68022205E
:100C9D007D16C2AF754202D291C292306202D293DA
:100CAD00D2AF759F11020E94C2AF754202D291C29E
:100CBD0090306202D295D2AF759F11020E943072B0
:100CCD0045207D22C2AF754203900133757B02C270
:100CDD0093D290D292306204D29481EBC291D2AF72
:100CED00759F01020E94C2AF754203900133757B5F
:100CFD0002C295D292306204D294A10BC291D2AFAE
:100D0D00759F21020E94207D17C2AF75420390018D
:100D1D000EC293306202D294D2AF759F01020E942F
:100D2D00C2AF75420390010EC295306202D294D2C9
:100D3D00AF759F21020E94207D16C2AF754204D26D
:100D4D0092C290306202D294D2AF759F21020E945E
:100D5D00C2AF754204D290D292C292306202D29446
:100D6D00D2AF759F01020E94307243207D20C2AF29
:100D7D00754205900122757B04C294D291306204B4
:100D8D00D295A193C292D2AF759F11020E94C2AFAC
:100D9D00754205900144757B01C294D29130620475
:100DAD00D293A1B3C290D2AF759F11020E94207D44
:100DBD0017C2AF754205900104C294306202D295FC
:100DCD00D2AF759F11020E94C2AF754205900118F6
:100DDD00C2943062EBD293D2AF759F11020E942064
:100DED007D18C2AF754206D290D292C29130620286
:100DFD00D295D2AF759F01020E94C2AF754206D245
:100E0D0092C291306202D293D2AF759F21020E949D
:100E1D00307246207D20C2AF754201900144757B32
:100E2D0001C295D292306204D293C13BC290D2AF2F
:100E3D00759F21020E94C2AF754201900122757B00
:100E4D0004C293D290D292306205D295020E5EC248
:100E5D0092D2AF759F01020E94207D17C2AF7542DD
:100E6D0001900118C295306202D293D2AF759F21C5
:100E7D00020E94C2AF754201900104C2933062021A
:100E8D00D295D2AF759F01C26522900102757B008C
:100E9D00C295C294C293D292D291D290C26222785C
:100EAD008076FF0876FF0876FF0876FF0876030840
:100EBD00760408760A087601087601087601788CA2
:100ECD0076010876FF0876FF0876FF0876FF08762C
:100EDD00FF0876030876FF0876FF0876FF0876256B
:100EED000876D00876FA0876FA0876040876FF08B0
:100EFD00760108760008767A0876FF08760108767E
:100F0D0001087600087603087600227887E6FFC28E
:100F1D00727888E6C394036008C27DE630E102D2A0
:100F2D007DC27E7889E630E102D27EC3EF94026005
:100F3D0008758E01D273020F4B758E00C273227825
:100F4D0080E6149000809378A5F67881E6149000E1
:100F5D00809378A6F67886E61490008D9378A7F6A0
:100F6D007886E6F539C394025003753902789CE60C
:100F7D007538FFB402037538A0B403037538827851
:100F8D00A3E61490009A93F566D19722227896E6FF
:100F9D00FA7897E6FB7888E6B40305C3EB940EFB6D
:100FAD00307F047A007BFFC3EB9AFCC3948250021E
:100FBD007C827572000572EC8572F0A4C3E5F09425
:100FCD007D40F222D27FF19A1205921205927A009B
:100FDD007B007C10120588E55C2AFA74003BFBDC73
:100FED00F37C04C3EB13FBEA13FADCF7FEC27FF1CB
:100FFD009A22757C00757D00E5EF20E603752000D3
:10100D000520903FFFE520146006901DFF14600041
:10101D009304600375EF1653D9BF7581C043FF80EC
:10102D0012058375EF0643B203E5B3240220E70DE5
:10103D00F521E5E320E0068521B343E301120E9788
:10104D007580FF75A40075F19075D47F75908775C7
:10105D00A5BF75F2BF75D50075A60175E241120EDB
:0F106D0097E4F8F6D8FD756801120EAC121573F2
:10107C0078988673753001C2AF12059C1205AC12BC
:10108C0005921205B31205921205BA1205921216A8
:10109C009C12059C12059C120597C2AF757C0075BD
:1010AC007D0078FA79FA308707D9FBD8F7021C0053
:1010BC00120F18120F4C120F99120F9A7898867300
:1010CC00120E9775881075890275C8247591047570
:1010DC00D84075A82275B80275E690759B80759DF1
:1010EC000075D10E75BC5875BB0675BA1175E880C4
:1010FC00120583D2AF12083B75360053DACF207E2F
:10110C000343DA20307E0343DA1043DA01C2D8C23B
:10111C007112059CD2617B037A0CE55B70077A0C2B
:10112C00DB030210A61205922070030210A6C270F7
:10113C00E55CC3940240E1E52F541F855E5DF55ECE
:10114C00B55DD5DAD5C26153DACF207E0343DA2000
:10115C00307E0343DA10C2D8C27178A2E67008D28E
:10116C0074E52F54E0F52FC27575290012059730E0
:10117C007409C3E529940A4002D2751205887802D5
:10118C003074027800C3E55C9840F0C2AF1205AC35
:10119C001205AC1205ACD2AF12059C754C007888C8
:1011AC00E6B4030241A6120588788CE6C39401507C
:1011BC00030212A6E530C3940150030212A6757CFB
:1011CC00A5757DF1207435C3E55C94FF50030212C4
:1011DC00A6C2AF1205C1D2AF120597C3E55C94014C
:1011EC0050EFC2AF1205AC12058D1205ACD2AF1286
:1011FC000597C3E55C94FF40E90217217F05D27F78
:10120C00120F9A120597C2AFC27F120F9AAE5CC32F
:10121C00E55C947FD2AF500241B6120583C2AF1287
:10122C0005C1D2AFDFD8120FD1C3EE94057897F673
:10123C0012059C1216A47F0AD27F120F9A120597E0
:10124C00C2AFC27F120F9AAE5CC3E55C947FD2AF83
:10125C0050E4120583C2AF1205AC12058D1205AC19
:10126C00D2AFDFD4120FD1EE24037896F6F879972B
:10127C00E7C394824003985006E824827897F612CC
:10128C00059C1215C11216D3120597120F9AC3E5BD
:10129C005C94FF500221CA021721757C00757D00F9
:1012AC00C3E55C954C4003855C4C1205977801793D
:1012BC0088E7B403027805C3E55C98400221AAC212
:1012CC00AF1205C11205C11205C1D2AF12059C7532
:1012DC003000E4F531F5320531E531F4703F05327B
:1012EC00789AE67819146012783214600D787D14AF
:1012FC00600878FA146003753200C3E53298401D1B
:10130C00120E97120583153275310078998673C2C7
:10131C00AF1205C1D2AF7898867312059712058D5E
:10132C00E52A700530740201A67801207402780653
:10133C00C3E55C9840A17888E6C39403600312056A
:10134C0097E52A70030210A6C2AF120E97E4F5229D
:10135C00F523F524F525F526F567D2AF7885E6C398
:10136C0033F565E4F544F545F546F547F548F57074
:10137C00F52CF52DF53775700875BB101205831219
:10138C00083F30EDFDA8BDA9BEE97001F8887112C7
:10139C00084375700875BB10120F18C2AF7561FF4A
:1013AC001208B9852261852262852263D2AF75222B
:1013BC0001752401752501752601856069756A0121
:1013CC007888E6B40307C27D307602D27DD268D22B
:1013DC0069753300120DEC120E1D1208D91208E0BB
:1013EC001208D91208E01208D9120B601206A212C8
:1013FC000C55120C9C1208E0120B4F306E031206A7
:10140C00A32066031207F5306603120825120C554B
:10141C00120CCB1208E0120B60306E031206DF12B6
:10142C000C55120D441208E0120B4F306E031207CC
:10143C003D120C55120D751208E0120B60306E0344
:10144C0012079A120C55120DEC1208E012083F12FA
:10145C000B4F120C55120E1D1208431208E0306986
:0F146C002F856461856462856069756A017918EE
:10147B007A0CC3E53399400CC269D26A8A3575611F
:10148B00FF02149CC3E55C940140030213F50215A3
:10149B002A306A25206C22E535147006C26AD26B9D
:1014AB0061F5F535C3E55C940140030213F57888CB
:1014BB00E6C39403600302152A753600788279A47B
:1014CB00E760027803C3E55F985054307404E52A53
:1014DB00604D7888E6B40317207D0520760781FAE6
:1014EB0030760281FA206C07D26C85646181347886
:1014FB00F0306C058564617820C3E541985002613A
:10150B00F5306C1BC26CC27D307602D27DD26A750F
:10151B00351285646161F50536E55C6002A12D75B8
:10152B003600C2AF120E977887E6FE7602120F18BE
:10153B007887EEF6E4F522F523F524F525F526F567
:10154B0065752C00752D00D2AF120597120E97788A
:10155B00A4E66006C292C291C290307409C3E5360C
:10156B009404400201A641DE901A0D782012160356
:10157B00E520B45A0CA3121603E520B4A5030215FB
:10158B00A1757CA5757DF1120EAC1215C1757C0091
:10159B00757D000215C0901A0378807B0A12160322
:1015AB00A308DBF9901A0F788C7B19121603A3088A
:1015BB00DBF9901A2822C2AF121646121623901A84
:1015CB0000740E121608A37409121608A3741512D0
:1015DB001608901A0378807B0A121607A308DBF90A
:1015EB00901A0F788C7B19121607A308DBF91216C9
:1015FB0059121637901A2822E493F622E6438F01EC
:10160B00538FFDFFC3E583941C400122EF857CB70C
:10161B00857DB7F0538FFE22438F02438F01857C6C
:10162B00B7857DB7901A0DF0538FFC22901A0D746D
:10163B005AD108901A0E74A5D108227A3079D07835
:10164B0020901A40D103E520F709A3DAF7227A306C
:10165B0079D0901A40E7D10809A3DAF922AB74A824
:10166B0075BB01027984BB02027985BB03027986C3
:10167B00BB04027992BB05027987BB060279A3BB37
:10168B000702799CBB08027988BB09027989E8F7C4
:10169B00227C0512059CDCFB22C2AF1205AC1205A5
:1016AB00B31205BA1205C112058D1205AC1205B3A2
:1016BB001205BA1205C112058D1205AC1205B31233
:1016CB0005BA1205C1D2AF22C2AF1205C11205BABB
:1016DB001205B31205AC12058D1205C11205BA1213
:1016EB0005B31205AC12058D1205C11205BA120510
:1016FB00B31205ACD2AF22AE74AF75C2AF1205AC4C
:10170B001205AC1205AC12058DDEF21205C11205E5
:10171B008DDFF8D2AF22D1A4D19CD19C7574017509
:10172B007501757600F1027C05AD5C12059CC3ED6D
:10173B00955C70F5C3E55C9401400AC3E55C94FFCE
:10174B00403202175DD168B1C1D1A4C2AF75EF169B
:10175B00D19CDCD50576C3E5769403500280C6D1C7
:10176B009C0575E5741490009F93F808C3E5759874
:10177B00500280AED19CD19C0574C3E574940A5081
:0F178B0002809C120EACB1C1C2AF75EF16D19C9B
:0319FD00020FFFD7
:101A00000E0915FFFFFFFF03040A0101015AA5019A
:101A1000FFFFFFFFFF03FFFFFF25D0FAFA04FF01DE
:091A2000007AFF0101000300FF40
:101A400023585032354123202020202020202020E0
:101A500023424C48454C4923463333302320202031
:101A60002020202020202020202020202020202076
:101C0000C2AFC2D353D9BF7581C043B20343FF8073
:101C1000752438752503B1DC7529A5752AF175E29F
:101C20004043F18053A47F75D4FFD2877DFA7803B7
:101C300079E67C10752200752300901DE97B0675FE
:101C400024987525013087028145208708D8FBD963
:101C5000F9DCF781B7308708D8FBD9F9DCF781B711
:101C6000B19CE493A3C39A6004DDC381B7DBDBB10D
:101C70008E6002812E7B08E493FAA3B16FDBF87AC1
:101C800030B16F752200752300B18EEAFCEBFDC305
:101C9000ED94FE400EB18E8A278B28ED30E0048A49
:101CA000828B83B18E7AC270D8C3ED94FE601950D6
:101CB000CEBD002BEC600F7520007521FF7529004B
:101CC000752A000200008100A827A9280809D80465
:101CD000D90281DCB192EA89AAF281CE0D81A3C337
:101CE000ED94035053EDA2E092007AC5C3E58294CF
:101CF00000E583941C508A200010438F02438F011B
:101D00008529B7852AB7F0300029A827A92808090E
:101D1000438F01538FFDD804D902A133C3E58394C7
:101D20001C4003A3A11689AAE28529B7852AB7F02A
:101D3000A3A116538FFC817F7AC1BD030CE493A34A
:101D4000FAB153DCF8B14B817F8181AA22AB23B178
:101D50006FEBFAEA6222752608C3E52313F523E543
:101D60002213F52250066323A0632201D526EAB18F
:101D7000DCB1DC75260AEAF4200102D287300102C8
:101D8000C287B1DCC3134002C201D526EB22B19257
:101D9000EAFB208702A192308702A197752608AE40
:101DA00024AF25C3EF13FFEE13FEB1E0B1DCC3EAAD
:101DB000133087024480FA30E703632201C3E5232E
:101DC00013F523E52213F52250066323A0632201B5
:101DD000D526D9E52265236523F52222AE24AF2539
:101DE0000E0FDEFEDFFCD20122424C48656C6934E6
:071DF000373164F3300601F6
:00000001FF
