:0300000002139256
:03000B000200A24E
:03002B000202C509
:03005B0002041D7F
:030073000203F78E
:1000800002030406080C10182030406080040608A3
:100090000C10182030406080A0C002050D0402043E
:1000A0000203C2AFC0D0C0E020622620680241B483
:1000B0003065024174E4730563C37405952540F50A
:1000C000956340F1758A78E5257003758A00020210
:1000D000BE85258AC262E525F47002213B206802B4
:1000E0002128207210758B00D0E0D0D0C295C29428
:1000F000C293D2AF32C295C294C2937406D5E0FDCA
:10010000E53C1420E21520E10D207D02C290307DF7
:1001100002C292020138C291020138207D02C292CD
:10012000307D02C290020138758B00D0E0D0D0C281
:1001300095C294C293D2AF32758B00D0E0D0D0D2AA
:10014000AF3241B4E525600A207D02D295307D02B0
:10015000D293C29441B4E5256002D294207D02C2BC
:1001600093307D02C29541B4E525600A207D02D21C
:1001700093307D02D295207D02C295307D02C293DC
:1001800041B4207D02D292307D02D290207D02D2F5
:1001900090307D02D2927406D5E0FDE525600A20FC
:1001A0007D02D295307D02D293C29441B4207D026B
:1001B000D292307D02D290D2917406D5E0FDE52531
:1001C000600A207D02D295307D02D293C29441B460
:1001D000D291207D02D292307D02D2907406D5E079
:1001E000FDE5256002D294207D02C293307D02C2DB
:1001F0009541B4D291207D02D290307D02D292748A
:1002000006D5E0FDE5256002D294207D02C2933040
:100210007D02C29541B4207D02D290307D02D292FF
:10022000D2917406D5E0FDE525600A207D02D293C7
:10023000307D02D295207D02C295307D02C293416D
:10024000B4207D02D290307D02D292207D02D292E3
:10025000307D02D2907406D5E0FDE525600A207D50
:1002600002D293307D02D295207D02C295307D026C
:10027000C29341B430723DE53C20E21A20E12920CE
:100280007D02D292307D02D290207D02D290307DCC
:1002900002D2920202B420E1E6207D02D292307DA9
:1002A00002D290D2910202B4D291207D02D290303B
:1002B0007D02D292E525F4F58A758B00D262D0E0FA
:1002C000D0D0D2AF32C2AFC2AD53E6EFC0D0C0E0A3
:1002D000D2D3D2AFC2CEE52960072074461529617A
:1002E0002378007900E580307E01F430E70278FF62
:1002F00053DACF207E0343DA20307E0343DA10C284
:10030000D8C271E580307E01F430E70279FFC3E89E
:100310009970CE30610375291820740375291888E7
:1003200059D270E52A6004152A613320740543DA36
:1003300001C2D82070026194A859C2702074367925
:1003400083B70131C3E894F0400374F0F8E8C45473
:100350000F28F87986B703026175C313C313872189
:10036000200802C313200A06C3C898F8617528F84C
:10037000500374FFF88822306912C3E522955E406D
:1003800005855E22618CE522240BF5227883B60177
:1003900018852224A824C3E524955E4002A85EC3E4
:1003A000E895604002A8608825C3E5259440400296
:1003B000D26320CF0CD0E0D0D0C2D343E610D2AD70
:1003C00032C2CF7801E52960053074021529C3E5F2
:1003D0005994014005755C0061EB755D0075640022
:1003E000E55C2401F55C5003755CFFD0E0D0D0C221
:1003F000D343E610D2AD32C0D0C0E0C2AF53917F3C
:1004000053E67FC260759100C3E49550F594E4957E
:1004100051F595759104D0E0D0D0D2AF32C2AF5330
:10042000E6EFC2ADC0D0C0E0C0F0D2D3D2AFA8FBDF
:10043000A9FCC2D8307102818453DACF207E0343F5
:10044000DA10307E0343DA20D271E580307E01F489
:1004500020E702815B88268927C1BE53DACF207E40
:100460000343DA20307E0343DA10C2D8C2713074FD
:0E04700002C1AA7800E580307E01F430E70278
:10047E00C1AA8859C19153DACF207E0343DA2030C6
:10048E007E0343DA10C271206102A15253DACF20EB
:10049E007E0343DA10307E0343DA20C2D8D271884D
:1004AE00548955C3E89552F8E99553F9E4FB7E0259
:1004BE007A00C3E8948CE994005005755800A14663
:1004CE00C3E894C8E994005008E4D2E4FB7A0AA188
:1004DE0021C3E89468E994015008E4D2E3FB7A0F53
:1004EE00A121C3E894D0E994025008E4D2E2FB7A49
:1004FE001EA121C3E894A0E994055008E4D2E1FBC3
:10050E007A3CA121C3E89498E994085008E4D2E01B
:10051E00FB7A787E00C3E89556FCE99557FD30E7E7
:10052E0008ECF42401FCEDF4FD7558000579C3ECDC
:10053E009AED9E500375580188568957A854A955AF
:10054E0088528953C3E89526F8E99527F9307C023D
:10055E00C175307B02C175307A02C16E207502A161
:10056E0075E9FDE8FCA194E9C313F9E813F83079B5
:10057E0002C16EE9C313F9E813F8307802C16EE9CF
:10058E00C313FDE813FC206126C3EC941CED94020A
:10059E004002A1ABED7018C3EC94C850120528C3ED
:1005AE00E528940A5002C1AA755900D270C1AAE575
:1005BE0028600215287400207F0B788AE67898B49C
:1005CE00030278A0E624FAFEE43400FFC3EC9EFC9E
:1005DE00ED9FFD9208788AE6B40327A20850092001
:1005EE007D20C2AFD27DA1FD307D17C2AFC27DC2CC
:1005FE0095C294C293D292D291D290206902D266C1
:10060E00D2AFA2085017E6B4030DECF42401FCEDB2
:10061E00F43400FD02062B78007900C175788AE665
:10062E00B40315EC33FCED33FDC3EC9405FCED94F3
:10063E0000FD50047C007D00C3EC94FFED9400405F
:10064E000678FF7900C175EC8570F0A4C5F0A2F7AD
:10065E0033F87900400302069178FF790002069183
:10066E00E9C313F9E813F8307C0EE9600278FFC392
:10067E00E81338F8E43400F9C3E894FFE994004035
:10068E000278FF8859D270206102C1AA741FF455F6
:10069E002F4BF52FC274E42B7002D27475291830CB
:1006AE00740375290A306102C1BE20740353DAFE49
:1006BE00752A06307403752A0AD0F0D0E0D0D0C265
:1006CE00D3D2AD43E6103279010206F37903020666
:1006DE00F3790A0206F3791E0206F379640206F331
:1006EE0079C80206F37817E4D5E0FDD8FAD9F622D8
:1006FE007C05D1EEDCFC227A127B640207217A0E95
:10070E007B780207217A0C7BA00207217A097BB441
:10071E00020721AC257525017902B27DE4D291D56F
:10072E00E0FDE5256002D294D5E0FDC294D5E0FD52
:10073E00C291D5E0FDE525600A207D02D295307D7F
:10074E0002D293E571D5E0FD207D02C295307D0287
:10075E00C2937464D5E0FDD9C1EAF8D5E0FDD8FBAB
:10076E00DBB1D2918C2522C2AFF105F10CF113D180
:10077E00DFF105F10CF113D2AF22C2AFF113F10C80
:10078E00F105D1DFF113F10CF105D1DFD2AF22AEBD
:10079E0072AF73C2AF306F28C3EE9405401560017F
:1007AE00FEF113F113F113F113F113D1E4BE0503AE
:1007BE00020807F105F105F105D1E9DEF602080799
:1007CE00E4FEC3EF940A40070E0E600DFFE1E7C38F
:1007DE00EF9405401A0E6001FFF10CF10CF10CD1F3
:1007EE00E4DEF6BF0A03020807BF0503020807D1BD
:1007FE00E912071A1206E9DFF6D2AF227F007577EB
:10080E00007D08E580307E01F420E703308FF4751B
:10081E008A00758C00D28CE580307E01F430E703BF
:10082E00308FF4C28C858A59C3E55994144020C385
:10083E00E559944E5005EF23FF015FC3E5599466C9
:10084E00400DC3E55994CC5006EF2304FF015FD24F
:10085E006D308F04D26D016ADDA98F77227C3079DD
:0E086E00D0757700110AA77709DCF92279D03E
:10087C007C30BC2D0578830208BBBC2C0578840227
:10088C0008BBBC2B0578850208BBBC280578880200
:10089C0008BBBC270578890208BBBC2605788A02F0
:1008AC0008BBBC1C0578940208BBBC1B0B78958755
:1008BC0077A6771218C0C2AF09DCB722C2AFD28CB0
:1008CC007D08E577D28730E705758A6701DD758A83
:1008DC00CD758CFFC28D308DFDC287758ACD758C20
:1008EC00FFC28D308DFD23DDDB22C28775A4807C99
:1008FC0030901A0378808677A30811C8DCF875A4A9
:10090C007FD287227578007C3079D0E7C33578F5B3
:10091C007809DCF7227577001206DFC26D758B0043
:10092C00758D00D28EC28F110A206DE9E577B40562
:10093C00071206DA11F62121B409DA757700758BE6
:10094C0000758D00D28EC28F116B3110E57870C599
:10095C0079D0E7B466BF1206D5C28775A4807577C7
:10096C008811C875A47FD287117A212122C37C00FB
:10097C007D0075F00005F0EA33FAEB33FB50F6EB33
:10098C0013FBEA13FAC3E9FFE8FEE89AF8E99BF9CE
:10099C005004EFF9EEF8B3EC33FCED33FDD5F0DF9A
:1009AC00EDF9ECF822E889F08A20D2D4F8A9F07B92
:1009BC000030F70B7BFFF42401F8E9F43400F9E87C
:1009CC008520F0A4ADF0F8E98520F0A4AFF0FEEDA1
:1009DC002EF974003FFA7C04C3EA13FAE913F9E820
:1009EC0013F8DCF48BF030F70AE8F42401F8E9F49E
:1009FC003400F9E889F0C2D4F8A9F0227883B60162
:100A0C0003020A68C3E55994014003020A2D8522AA
:100A1C0024E4F53EF53FF540F541F542F547020A71
:100A2C00687883E6FC754701E522F523783879C7A9
:100A3C00AA3AAB3BC3EB13FBEA13FAEC14141414F1
:100A4C006014C3EB13FBEA13FAEC1414146007C321
:100A5C00EB13FBEA13FA3179883E893F22E54760B4
:100A6C0034C3E53E9523F8E53F9400F9500CC3E8F8
:100A7C009480E994FF4016020A9DC3E8947FE994A0
:100A8C00005003020A9D787F7900020A9D788079D4
:100A9C00FF8843894422E5476058E5432540F8E543
:100AAC00443541F9854420E4300701F43542FA30ED
:100ABC00E709C3EA94F04015020ADFC3EA940F5029
:100ACC0003020ADF78FF79FF7A0F020ADF780079D8
:100ADC00007AF0C3E524955E5006E524600941F8E0
:100AEC00E54420E70D41F8E54430E70688408941AC
:100AFC008A4222E5477003020B6278A3E6FAC3E54B
:100B0C004333F8E54433F931B1E930E70BC3E894EA
:100B1C0080E994FF40136139C3E8947FE994005055
:100B2C00026139787F79006139788079FFE820E7B4
:100B3C0015C3E52398F84009C3E894014003020B60
:100B4C00607801020B60E8F424012523F8400302CD
:100B5C000B6078FF884522E5477003020BC478A42C
:100B6C00E6FAA841A94231B1E930E70CC3E8940197
:100B7C00E994FF4016020B9BC3E894FFE9940050E4
:100B8C0003020B9B78FF7900020B9B780179FFE93C
:100B9C0020E715C3E54598F84009C3E894014003E4
:100BAC00020BC27800020BC2E8F424012545F84080
:100BBC0003020BC278FF88242278FFC263E52D5410
:100BCC0006702FD263C3E53B940A4009C3E5259414
:100BDC00405002C263E53B601974FF853BF084858D
:100BEC0037F0A4F8C5F0600278FFC3E895615002B5
:100BFC00A8618860227576007884E6F52012119041
:100C0C0075E8901206D575E890E5E820ECFBA8BDD8
:100C1C00A9BE12123E756B50756C00C3740013FDA7
:100C2C00745013FC74502C2403FC74003DFDECFA3E
:100C3C00EDFB0576C3E89AE99B4014E56B2450F56F
:100C4C006BE56C3400F56CEA2CFAEB3DFB80E3AE03
:100C5C006BAF6CC3E56C13F9E56B13F8C3E913F9CF
:0F0C6C00E813F8E56B28F569E56C39F56A7A024B
:100C7B00C3E913F9E813F8DAF7AA201AEA70097531
:100C8B006B00756C00020CA31AEA6008EE28FEEFED
:100C9B0039FFDAF88E6B8F6C2275E890227884E638
:100CAB00FFE5E820ECF7A8BDA9BE056DC3E56D9483
:100CBB00084052756D00E9FA79A2E76044EA7007C3
:100CCB00E56F601B020CDEC3E8956F6010E56F509B
:100CDB0006600C14020CEA0460F9020CEAE56FF5ED
:100CEB006FC3944A401B755EC0C394044013755E7A
:100CFB0080C39404400B755E40C394044003755E3F
:100D0B001075BB0622EFC39401603BC3E894FFE967
:100D1B0094035032C3E8956BE9956C50297885E6BE
:100D2B00C39401600BE55E9414500BD26E0218460F
:100D3B00E55E94504028E56E6004156EA169756EF2
:100D4B0005155E020D69756E05E55EF46010055EB6
:100D5B00788AE6B40308E55E24044002F55EA85EDB
:100D6B00C3E524985002A824C3E8955F400AA85F06
:100D7B00E55FF46003855F5E7983B70102A194C3DD
:100D8B00E895604002A8608825E56DB4070375BB44
:100D9B001022743279A587F0A4C5F0A2F733F8C3FB
:100DAB00E8955E4002A85E88228824882588612207
:100DBB00753A00753B082275C820A8CCA9CD75C81B
:100DCB0024AA38AB3988388939C3E89AF8E99BF9F2
:100DDB00AA3AAB3BAC3AAD3B7E047F02C3EB940427
:100DEB0040021E1FC3EB940840021E1FC3ED13FDF0
:100DFB00EC13FCDEF7C3EA9CFAEB9DFBEF6009C337
:100E0B00E913F9E813F8DFF7EA28FAEB39FB8A3A2A
:100E1B008B3B400122753AFF753BFF22306002C1CC
:100E2B0027854C50854D51D26043E680227894E65D
:100E3B00FFC3E535948240010FC3E53594A0400113
:100E4B000FC3EF940640027F057E023072010EC382
:100E5B00E53B940350070E0E3072020E0EC3E53BBA
:100E6B00940250070E0E3072020E0EA93BA83A7A6E
:100E7B0004C3E913F9E813F8DAF7C3E89EF8E99429
:100E8B0000F94009C3E89402E9940050047802E4A5
:100E9B00F9E9FBE8FAC3E913FDE813FC884C894D2B
:100EAB00C3EF94036037EF20E00DE82CF8E93DF930
:100EBB00ECFAEDFB020ED5E828F8E939F9C3E89412
:100ECB0002F8E99400F97A02E4FBC3EF9403400DB6
:100EDB008A4E8B4F884889498C4A8D4B22884E8984
:100EEB004F8A488B498C4A8D4B22306002C1F5D218
:100EFB006043E680E52D5406601BA83AA93B75912B
:100F0B0000C3E498F594E499F595759104D2605378
:100F1B00917F43E68022D264753D00752000020F5D
:100F2B0034D264753D00752040E52D54066002C235
:100F3B0064D2AF206005E53D600122759D0078010C
:100F4B007A02C3E53B940540027802C3E53B940A61
:100F5B0040027803C3E53B940F40027A03306907E4
:100F6B00780F7A01759D03206007E53D6003D2AFD2
:100F7B0022D2AF0000C2AFC3E53BFB940F40027B14
:100F8B000FEB043073012320620123F930690279DE
:100F9B0064C3E58B9940D0053DEAFBE59B5440B516
:100FAB002004DBF7E1D3206402E134C264759100C5
:100FBB00C3E4953AF594E4953BF595759104D260AD
:100FCB0053917F43E680E134306402E134D898D208
:100FDB00AF2230690B0534206016753400020FFB0D
:100FEB0020600D20640A20660715811581021846C2
:100FFB002275910053917FC3E4954EF594E4954F80
:10100B00F595759104854850854951D26043E6802A
:10101B002278003063053064027801E53575F007FE
:10102B00A4F9E5F028F5F0E9A2F013A2F113A2F26E
:10103B0013F535C394785003753578C3E53595367C
:10104B004008D265C295C294C293306002015585A7
:10105B004A50854B51D26043E68022C2AFD292D226
:0E106B0091D29030720B9002167406D5E0FD03
:101079000210A4E53B54F86022E525600A207D02B0
:10108900D295307D02D293740FD5E0FD207D02C246
:1010990095307D02C2937406D5E0FD207D02C2928F
:1010A900307D02C290759F11753C02021223C2AFB6
:1010B900207D02C293307D02C2953072179001F3F0
:1010C900D291207D02D290307D02D2927406D5E071
:1010D900FD0210E0900156306206E5256002D294C7
:1010E900207D03759F01307D03759F21753C0302A7
:1010F9001223C2AFD292D291D29030720B9001D00A
:101109007406D5E0FD021139E53B54F86022E52566
:10111900600A207D02D293307D02D295740FD5E00A
:10112900FD207D02C293307D02C2957406D5E0FD93
:10113900207D02C290307D02C292207D03759F21DD
:10114900307D03759F01753C04021223C2AFC2941E
:101159003072179001AD207D02D292307D02D2907B
:10116900D2917406D5E0FD02117690014430620EE9
:10117900E525600A207D02D295307D02D293759FC4
:1011890011753C05021223C2AFD292D291D290308E
:10119900720B9001827406D5E0FD0211BEE53B5445
:1011A900F86012E5256002D294740FD5E0FDC2946F
:1011B9007406D5E0FDC291207D03759F01307D0342
:1011C900759F21753C06021223C2AF207D02C2958C
:1011D900307D02C29330721F900241207D02D2926B
:1011E900307D02D290207D02D290307D02D292745D
:1011F90006D5E0FD02120390016830620EE5256014
:101209000A207D02D293307D02D295207D03759FFD
:1012190021307D03759F01753C0130661312123E22
:101229007406D5E0FD7406D5E0FDC292C291C29064
:10123900C265D2AF22900142C295C294C293D292A2
:10124900D291D290C2622278807666788176090836
:101259007609087601087603087601087603087688
:10126900FF08760A087601087601087601788E76F5
:10127900010876FF0876FF0876FF0876FF0876FFF3
:101289000876030876010876FF0876FF08762508B0
:1012990076D00876500876500876040876FF0876E6
:1012A9000208760008767A0876FF08760122789592
:1012B900E6FFC272BF010241C4D2727889E6FF78A3
:1012C9008AE6C394036008C27DE630E102D27DC29A
:1012D9007E788BE630E102D27EC3EF940160087517
:1012E9008E01D2730212F5758E00C273227881E6DF
:1012F900149000809378A3F67882E6149000809386
:1013090078A4F6513E227888E61490008D9378A54A
:10131900F6513E2222789EE67536FF75370CB402E7
:10132900067536A075370AB4030675368275370512
:1013390022227898E6FA7899E6FB307F047A007BD6
:10134900FFC3EB9AFCC3948250027C82757000053E
:1013590070EC8570F0A4C3E5F0948040F222D27F4E
:10136900713B1206E47A007B007C101206DAE5591B
:101379002AFA74003BFBDCF37C04C3EB13FBEA138E
:10138900FADCF7FEC27F713B22E5EF20E603752008
:10139900000520903FFFE520146006901DFF1460B2
:1013A900009304600375EF12C2D353D9BF7581C08E
:1013B90043FF801206D575EF0243B203E5B3240457
:1013C9004002F5B3513E7580FF75A40075F1907523
:1013D900D47F75908775A5BF75F2BF75D50075A6C1
:1013E9000175E241E4F8F6D8FD515012187A51B767
:1013F90051F6710F711D711E713A713B789A8671A0
:10140900513E75885075890275C82475910475D83F
:1014190040C2AF75A82275B80275E690759B8075B4
:101429009D0075D10E75BC5875BB0675BA1175E866
:10143900801206D5D2AF120C0143DA01C2D8C271AB
:101449001206EE753001D2617A0FE558702AE5303F
:10145900C394014021C3E579946440ECC2AF1207FB
:0D1469000C120713120705758911758E020C
:1014760075F18075D4FF1209217A0F3070FDC270A4
:10148600E559C3940240C4E52F541F855B5AF55BAA
:10149600B55AB8DAB8C26153DACF207E0343DA20F0
:1014A600307E0343DA10C2D8C271C27575280012A5
:1014B60006E9307409C3E528940A4002D27512067B
:1014C600DA78023074027800C3E5599840F01206C3
:1014D600EE754600788AE6B40302A1E61206DA78CB
:1014E6008EE6C3940150030215E6E530C39401501D
:1014F6000302164F7898E6F575207435C3E55994BE
:10150600FF50030215E6C2AF12071AD2AF1206E960
:10151600C3E559940150EFC2AF1207051206DF1258
:101526000705D2AF1206E9C3E55994FF40E9021C4C
:10153600907F14D27F713B1206E9C2AFC27F713B26
:10154600C3E55994DCD2AF4004DFE8A16BC3E5598B
:1015560095755002A1F01206D5C2AF120705120604
:10156600E9D2AFA1377167C3E55994057899F612A8
:1015760006EE1218C0C2AF1207051207051206E4DE
:1015860012071A12071AD2AF7F141206E9713BC36B
:10159600E55994D74004DFF2A1A9C3E559943C501C
:1015A600E7A1AC121C907F14D27F713B1206E9C2F0
:1015B600AFC27F713BC3E559943CD2AF50E8DFE838
:1015C6007167E55924057898F61206EE1218C012CE
:1015D600187A51B751F6710F711D711E713A713B30
:1015E600C3E559954640038559461206E9780179BF
:1015F6008AE7B403027805C3E55998400280EBC236
:10160600AF1207051207051207051206FEAF76127E
:1016160007051207051206E4DFF51206EE1206EEBE
:101626001207051206E41206E412070C1206E4126B
:1016360006E41207131206E41206E4D2AF1206E914
:10164600120C01753000757900C26E1206DFE529AD
:101656007005307402814F78012074027806C3E564
:10166600599840E5206EE4788AE6C3940360031235
:1016760006E9E5297002814FC2AF513EE4F522F535
:1016860023F524F525D2AF78878662F53EF53FF53A
:1016960040F541F542F56DF56EF547F52CF52DF55E
:1016A60035120DBB756D0875BB101206D5120CA44C
:1016B600E5E820ECFBA8BDA9BEE97001F8886F1229
:1016C6000CA8756D0875BB107889E6FE760151B7D2
:1016D6007889EEF6C2AF755EFF120D9D85225E8596
:1016E600225F852260D2AF7522017524017525011E
:1016F600855D64756501D268D269753400319031B3
:10170600D2120DC2120DBB120E3802171D513E51D8
:10171600B7756D0075BB06120F2C120FDD120FFC8C
:10172600120A08111C1166120DC2120E27120E386B
:10173600120EF5120F21120FDD120FFC120A69129A
:101746000BC5111C11B7120DC2120E27120E38123C
:101756000EF5120F2C120FDD120FFC120AA2111C2D
:1017660011FB120DC2120E27120E38120EF5120FB1
:1017760021120FDD120FFC120AFF111C3155120D3A
:10178600C2120E27120E38120EF5120F2C120FDD92
:10179600120FFC120B63111C3190120DC2120E2790
:1017A600120E38120EF5120F21120CA4120FDD12B2
:1017B6000FFC120CA8111C31D2120DC2120E2712E8
:1017C6000E38120EF530693820663585615E856102
:1017D6005F855D6475650179647A14C3E534994063
:1017E60012C269D26A8A3385615E755FFF756020B1
:1017F600021806C3E5599401400302171D02184654
:10180600306A1F20661CE533147008C26A755EFFD5
:10181600021713F533C3E5599401400302171D025D
:101826001846C3E55C94FA5017307404E529601035
:10183600C3E53B78F0306602786098500302171DC6
:10184600C2AF12123E7889E6FE76011212B7788987
:10185600EEF6E4F522F523F524F525F562C268D205
:0E186600AF1206D512123E307407E52970034A
:1018740002144F021651901A0F7820121C00E52012
:10188400B4550CA3121C00E520B4AA0302189C1240
:1018940012501218C00218BF78817B0A901A03787C
:1018A400807B0C121C00A308DBF9901A11788E7B44
:1018B40015121C00A308DBF9901A2622C2AF121CD1
:1018C40019901A00740D121C05A37401121C05A3AF
:1018D4007413121C0578817B0A901A0378807B0CA0
:1018E400121C04A308DBF9901A11788E7B15121CC4
:0C18F40004A308DBF9121C30901A262215
:101A00000D011366090901030103FF0A01010155D4
:101A1000AA01FFFFFFFFFF0301FFFF25D050500485
:071A2000FF02007AFF01FF45
:101A400023454D41583230412320202020202020A2
:101A500023424C48454C4923463333302320202031
:101A60002020202020202020202020202020202076
:101C0000E493F622E6438F01538FFD75EF0275B71B
:101C1000A575B7F1F0538FFE22438F02438F0175F4
:101C2000EF0275B7A575B7F1901A0FF0538FFC222C
:101C3000901A0F74559105901A1074AA9105227A82
:101C40003079D07820901A409100E520F709A3DA86
:101C5000F7227A3079D0901A40E7910509A3DAF992
:101C600022AB72A873BB01027995BB02027994BBC7
:101C700003027988BB04027983BB05027989BB061C
:101C8000027984BB07027985BB0802798AE8F722CA
:101C9000120775D26F7C0A1206EEC3E55994014013
:101CA0000BC3E55994FF40EDDCED81CE7C0A1206B2
:101CB000EEC3E55994015005DCF4A18CC3E55994B9
:101CC000FF40E91212501218C012078881957572F0
:101CD0000112079D7C0AAD591206EEC3ED955970AD
:101CE000F5C3E55994014051C3E55994FF50028171
:101CF000D6306F22DCE00572C3E572940940D27CD5
:101D00000A1206EEC3E55994014073C3E55994FFE6
:101D100040EFDCED81CED26F91611218C0120788BE
:101D20007C0A1206EEC3E55994014052C3E559946A
:101D3000FF40EFDCED7C0181F17C0A1206EEC3E589
:101D40005994FF5091C3E559940150EFDCEDC26FF7
:101D500075730112079D7C0A1206EEC3E55994FFC4
:101D6000508FC3E559940150EFDCED0573E5721413
:101D700090009A93F808C3E5739850D4A1537C0A55
:0D1D80001206EEC3E559940150F6DCF42282
:00000001FF
