:020000020000FC
:10000000C3CDADC10000000020C000008DC00000C5
:10001000000097C00000000000000000020304067A
:10002000080C10182030406080000406080C1018DE
:100030002030406080A0C0000003070F1F000D0D9E
:1000400004050D050305030302004FB662FD0CC055
:10005000552041F00994C52DC095089483FDC7959E
:10006000C4BD64604FBE1895C0916400089483FDC0
:10007000C795C4BD6B7FC0916400CF3F09F41DC01C
:1000800070FF19C082FD05C04FBE959A949A909A50
:100090001895959A949A909A76FD0DC064FD0BC0C0
:1000A000C9E0CA95F1F7C091B100C0FD979AC1FDB2
:1000B000939AC2FD919A4FBE189524BCCC27C06478
:1000C000C8BF6460F8CFC7CF70FFC5CF64FDC3CF92
:1000D0009598C1CF70FFBFCF64FDBDCF9498BBCFC3
:1000E00070FFB9CF64FDB7CF9098B5CF979870FFE8
:1000F000B2CF64FDB0CFC7E0CA95F1F79598ABCF0A
:10010000939870FFA8CF64FDA6CFC7E0CA95F1F71A
:100110009498A1CF919870FF9ECF64FD9CCFC7E0CB
:10012000CA95F1F7909897CF4FB6C9B7CF7EC9BFA0
:100130006E7FCCB5CE0DDDB5DF1DDBBDCABD4FBEBC
:1001400018953FB68F7EABB7A074A2118061A0E076
:10015000ABBFA9B7AE7FA9BF7894A0916800AA23CE
:1001600041F085FD2EC0A0916800AA95A09368007B
:1001700028C040E050E085FD14C0A0B396FFA095D4
:10018000A2FD4FEFA3E096FFA2E0A5BFAA27A064BF
:10019000AABF8D7FA0B396FFA095A2FD5FEF451784
:1001A00041F7A8E161FDA093680085FD03C0A8E1C7
:1001B000A0936800409396008160442311F0209240
:1001C000990085FD0EC0A0916900AA2331F0A0918D
:1001D0006900AA95A093690004C08061AA27A06461
:1001E000AABF80FF3CC0A09196004A2F61FF8E7F7E
:1001F00085FD1CC0A091B400A430C1F4403F08F0BC
:1002000040EFA42FA295AF704A0F5091B600533023
:1002100069F0A695A69550FD01C0A69552FD03C0B4
:10022000A41B4A2F03C04A0F08F44FEF409361000C
:10023000A72FA670A1F073FD12C0A0917000AA0FA5
:10024000AA0F50919E0056955695541708F0452FC9
:100250004A0F4093610018F4AFEFA0936100409102
:10026000B400443009F03EC0A0916100A093630047
:1002700040916300A0919B004A1708F04A2FA0917B
:100280009D004A1708F04A2F542EA091A000AA23DF
:1002900009F422C0542F5A1B10F4A42F50E0BA2E98
:1002A0008894AA1FAA2EA091A200A095AA22A50E0A
:1002B00058F0A091A100A21509F0AA95AA0EA0934A
:1002C000A10048F04A2D08C0A091A100BA1608F07C
:1002D000A395A093A1004FEF409364007F7B485FFC
:1002E00008F07064A0916000A395A093600051F0A5
:1002F000F894A9B7A160A9BF84FF02C0A0E4ABBF76
:100300003FBE1895A0917400A395A093740041E09E
:1003100050916800552329F085FF03C05A955093EA
:100320006800A0919600A13018F0209299000DC0AD
:1003300020929A002092A300A0919900AF5FA09311
:10034000990018F0AFEFA0939900F894A9B7A160B5
:10035000A9BF84FF02C0A0E4ABBF3FBE18953FB663
:100360004CB55DB58F7EABB7A074A2118061A0E0E3
:10037000ABBFA9B7AE7FA9BF789481FD23C0A2E02F
:1003800096FFA3E0A5BF8260A0B396FFA095A2FF51
:1003900005C040936500509366003EC1A3E096FF00
:1003A000A2E0A5BFAA27A064AABF8D7F85FF01C0D8
:1003B00026C140E0A0B396FFA095A2FD20C14093C6
:1003C00096000FC1A3E096FFA2E0A5BF8D7F61FF5D
:1003D00071C0A2E096FFA3E0A5BFAA27A064AABFB0
:1003E00082604093910050939200A0908F004A1930
:1003F000B09090005B09BB24A22C4C38520518F435
:100400002092950049C0A091D400AA2359F1483CFC
:10041000520528F4A0E1BA2EAAE0AA2E23C048363D
:10042000A1E05A0728F4A8E0BA2EAFE0AA2E1AC01D
:10043000403DA2E05A0728F4A4E0BA2EAEE1AA2E6D
:1004400011C0403AA5E05A0728F4A2E0BA2EACE366
:10045000AA2E08C04839A8E05A0720F4A1E0BA2E15
:10046000A8E7AA2EC42EA0919300CA1AD52EA09157
:100470009400DA0ADD202AF4AFEFC094D094CA1AAF
:10048000DA0A20929500A8E0A210A0E0CA14DA06C9
:1004900018F4A1E0A093950040939300509394002A
:1004A000409191005091920040938F0050939000A2
:1004B00042E097C0A09165004A1BA09166005A0BCC
:1004C00094FD82C093FD80C092FD7CC086FF03C076
:1004D000D52EC42E0CC05695479591FD73C05695E8
:1004E000479590FD6FC0D52EC42ED694C79461FD5C
:1004F00019C0AC2DAC51AD2DA24008F005C0DD20D7
:1005000089F4AC2DA85C70F4A0916700A395AA2390
:1005100011F0A0936700AA3008F471C020929600F1
:1005200081606DC0A0916700AA2319F0AA95A093DD
:100530006700A22C5091BA0097FD06C0A090C80099
:10054000533011F4A090D000AAEFAA0EA22DA21D44
:10055000CA18DA0A4FB74170533049F4442321F0E6
:1005600087FD05C0806803C087FF01C08F774423E3
:1005700059F0533031F4AFEFC094D094CA1ADA0A6C
:1005800003C040E050E020C0533049F4CC0CDD1CE7
:10059000AAE0CA1AD20818F4A0E0CA2ED22CAFEFF3
:1005A000CA16D20418F04FEF50E00EC0A091AC0074
:1005B000CA9E412D000C441F50E008F012C04FEFBE
:1005C00050E00FC05695479594FF07C0552309F09A
:1005D0004FEFA42FA6954A0F521D4F3F520508F02A
:1005E0004FEF40939600816061FF09C0AFE1A09595
:1005F000A923AB299A2F8F7DBB2009F48062A8E143
:10060000A093680085FF03C0AAE0A093680061FD85
:1006100003C085FD01C08F7E85FD03C0A6E0A093C9
:100620006900F894A9B7A160A9BF84FF02C0A0E443
:10063000ABBF3FBE189511E00AC013E008C01AE036
:1006400006C01EE104C014E602C018EC00C005E1BB
:10065000BB27BA95F1F70A95D9F71A95C1F708950E
:100660002AE338E709C020E33CE806C02AE234EB7D
:1006700003C025E238EC00C0B091AD00BA9509F492
:10068000089512E0BB279398BA95F1F79498BA951C
:10069000F1F7949ABA95F1F7939ABA95F1F7123067
:1006A00009F09598123009F49098B091AD00BA9580
:1006B000F1F7123009F0959A123009F4909AB7E8E0
:1006C000BA95F1F71A95F1F6022FB22FBA95F1F714
:1006D0000A95D9F73A9581F693980895221B39E047
:1006E000001F3A9509F40895221F211B18F4210FC9
:1006F0008894F6CF0894F4CF622C722CB0E08894E2
:10070000B395221F331FE0F7379527958894912ED4
:10071000802E020B130B10F4192D082D10F4889461
:1007200001C00894661C771CBA9571F7172D062D29
:100730000895322D11232AF43A9500951095031B44
:10074000130BF894029F712C002D129F912C802C7A
:100750007894780C172D921C292DB4E06B2E2695D9
:10076000179507956A94D9F7332321F000951095D2
:10077000031B130B08950091B4000430A1F1B09154
:100780009600B15008F010C0B0916100B0936300C2
:1007900020927E0020927F00209280002092810093
:1007A000209282006F7D1FC06090B4006062B091A3
:1007B0006100B093620008E317EC20917A00309159
:1007C0007B0036952795B62DBA9541F0369527953D
:1007D000B62DBA95BA9511F0369527958DDF009311
:1007E0007E0010937F00089500917E00B09162001A
:1007F0000B1B10917F00120928F40038BFEF1B0774
:1008000040F009C00F37120508F405C00FE710E0EB
:1008100002C000E81FEF0093830010938400089546
:1008200000918300B09180000B0F10918400B09173
:1008300081001B1F20E03091840033230AF42A95A5
:10084000B09182002B1F1AF4203F40F00AC02F30D5
:1008500008F407C00FEF1FEF2FE003C000E010E027
:1008600020EF30916300B0919B003B1718F43230B9
:1008700030F009C0B0918400BB235AF004C0B0919D
:100880008400BB2332F400938000109381002093F6
:10089000820008952091D70000918300000F1091ED
:1008A0008400111F46DF11232AF40038BFEF1B0715
:1008B00040F009C00F37120508F405C00FE710E03B
:1008C00002C000E81FEF002352F0B0916200B01B9D
:1008D0000B2F18F0013008F00AC001E008C00095A5
:1008E0000F5FB09162000B0F08F001C00FEF009393
:1008F000850008952091D800009181001091820018
:1009000018DF11232AF40130BFEF1B0740F009C0A4
:100910000F3F120508F405C00FEF10E002C001E020
:100920001FEF112352F0B0918500B01B0B2F18F070
:10093000013008F00AC001E008C000950F5FB091D7
:1009400085000B0F08F001C00FEF009363000895BE
:100950000FEF71FD1EC0B091D300BB23D1F0B09159
:100960007B00BB23B1F00FEF10917B00B7DEF89452
:10097000B091730072FDB5E00B9F112D002D78949E
:10098000112309F00FEFB0919E000B1710F40091A6
:100990009E0000939D00089500917A0010917B00C5
:1009A00000541140B0919D0010F4BA9501C0B39568
:1009B00011F0B0939D00089500C008952091B500F6
:1009C000B6B1B6FDFBCF04B115B1B6B1BF77B6B9BC
:1009D000B091AA00B395B093AA00B83060F120920C
:1009E000AA00B091D200BB2321F1112329F0B091CC
:1009F000AB00BF3F61F009C0B091AB000B1739F0FD
:100A000020F4BB2321F0BA9502C0B395E1F3009125
:100A10009B00B093AB00B03050F400ECB03038F431
:100A200000E8B03020F400E4B03008F400E00093B7
:100A30009B007F7E089510919B00B0E11B0F08F48E
:100A40001FEF10939B00B091B400B43081F000917F
:100A50009B00B0916300B01B10F400916300B09153
:100A60009D000B1708F00B2F502E00936400B091DF
:100A7000AA00B73009F47061089502E3F894B091C8
:100A8000D9000B9F012D000C001F7894B0919B00A2
:100A90000B1710F000919B0000936100009363001E
:100AA000502E0093640000939E00089520927A00D7
:100AB000B0EFB0937B000895F8940CB51DB520916C
:100AC0007400789430917500609076000093750002
:100AD00010937600031B160971FD03C077FD80C0DB
:100AE00028C070907700209377002709222319F0FF
:100AF0000FEF1FEF0EC08090780090907900309338
:100B000078006092790000917500109176000819C4
:100B1000190920917A0030917B0036952795020FB4
:100B2000131F10F40FEF1FEF00937A0010937B0058
:100B30002BC020917A0030917B003901B4E08B2EDC
:100B4000B2E09B2E343040F08A949A94383020F0F2
:100B500072FD02C08A949A94769467948A94E1F71D
:100B600026193709992021F0169507959A94E1F7EF
:100B7000200F311F20937A0030937B0028F43FEF41
:100B800030937A0030937B00323008F4706871FF44
:100B900002C0B3E00DC0B091C400009171000238F2
:100BA00038F0B395003A08F0B395B63008F0B5E0E8
:100BB0009B2EB4E08B2E10917B0000917A0024E0F4
:100BC000169507952A95E1F70819120928F0B02F14
:100BD000B250B12FB20910F402E010E0980126C023
:100BE00020917A0030917B00390176946794669465
:100BF000669466942619320906950695200F321DD3
:100C000020937A0030937B00323008F07F7704E045
:100C1000369527953695279526952695201B10F015
:100C2000223008F422E089019090C40060FDFECFDC
:100C3000E0908B00F0908C006160B9B7B061B9BFF3
:100C4000380177FD41C07694679400938B00109330
:100C50008C00B92DB330E1F0B0FD04C0060D171DB6
:100C6000930106C0000F111F0250120922E030E06C
:100C7000B92DB33068F020938D0030938E0000932F
:100C80008700109388006092890070928A003AC0B1
:100C900000938D0010938E0020938700309388007E
:100CA0006092890070928A0071FF0DC0BFE0B0931E
:100CB0008D0020928E00B093890020928A00B0931C
:100CC0008B0020928C001EC0669400938B00B92D7F
:100CD000B33091F0B0FD03C0060D262D03C0000F08
:100CE000025022E0B92DB33038F020938D000093EC
:100CF00087006092890006C000938D0020938700D2
:100D00006092890000917C0002FD0350013031F4B3
:100D100095FD0CC0B2E0B06CB7B90BC0023021F445
:100D2000B3E0B06CB7B905C095FDF4CFB4E0B06CDA
:100D3000B7B90091A200000F10F4BBE60B27009397
:100D4000A20060FDFECFB2E0B0936E006160B9B763
:100D5000B061B9BFB72FB670D1F020917A00309151
:100D60007B00369527953695279571FF02C0B0E434
:100D70003B0FF8940CB51DB5020F131F1BBD0ABD28
:100D80006160B0E1B8BFB9B7B061B9BF78940895F8
:100D9000686020927D0020E066FD20E206C0686069
:100DA00020927D0020E266FD20E001E011E077FD69
:100DB00011C0B72FB67009F0677F14E100917B0076
:100DC000069509F403950F3008F00FE071FF02C09B
:100DD00004E114E160FD0FC0B0917D00BB2359F028
:100DE00071FF06C0B0916E00BA95B0936E0011F419
:100DF00070624FC0ABDFB0B7B77FB0BFB8B1B0B7AC
:100E0000B860B0BFB0917D00B395B0937D00B8B12C
:100E100077FD06C0B1E071FDB3E0BA95F1F7B8B166
:100E2000B072B21709F02AC071FF05C0039501170F
:100E300008F00A95CFCF63FD05C00395011708F0B0
:100E4000B4CFC8CF677FF8943CB56DB470907A008A
:100E5000B0917B00770CBB1F08F4BFEF770CBB1F72
:100E600008F4BFEF370D6B1E6BBC3ABD6160B0E19B
:100E7000B8BFB9B7B061B9BF789497CFB0916D00E2
:100E8000B13008F492CF63FD90CF0A9509F0A2CF5C
:100E90007F7D20918D0030918E00F894B0E1B8BF35
:100EA0000CB51DB5020F131F1BBD0ABDE0908700D6
:100EB000F09088006160B9B7B061B9BF7894B72F7E
:100EC000B67039F0B0916D0072FFB395B0936D00BC
:100ED00009C075FF07C066FD05C063FD03C0BF9173
:100EE000BF91FEC4089500E063FF01C001E0F894E3
:100EF00010917100B7E01B9F212D102D7894200FC9
:100F00002695179526951795269517951093710098
:100F1000183718F4B8E7B093710000917100B091E0
:100F200072000B1720F06061959A949A909A60FD78
:100F3000FECFE0908900F0908A006160B9B7B0619F
:100F4000B9BF0895B2E095FD0AC0F894B0937C0053
:100F50009398979A62FF01C090987894F4C0F8949F
:100F6000B0937C009398919A62FF01C09598789411
:100F7000EAC0B3E082FF24C095FD11C002E0F894FE
:100F8000B0937C00E0E8F0E00093B100909A919873
:100F900062FF02C0949801C0939A7894D4C002E092
:100FA000F894B0937C00E0E8F0E00093B100959AEB
:100FB000979862FF02C0949801C0939A7894C3C036
:100FC00095FD0BC0F894B0937C00EAE6F0E0909AAF
:100FD00062FF01C094987894B6C0F894B0937C00F6
:100FE000EAE6F0E0959A62FF01C094987894ABC06D
:100FF000B4E095FD0AC0F894B0937C009798919A5C
:1010000062FF01C0949878949EC0F894B0937C00DD
:101010009198979A62FF01C09498789494C0B5E033
:1010200082FF24C095FD11C001E0F894B0937C00CC
:10103000E6E7F0E00093B100949A939862FF02C053
:10104000959801C0979A78947EC004E0F894B09384
:101050007C00EAE8F0E00093B100949A939862FF74
:1010600002C0909801C0919A78946DC095FD0BC014
:10107000F894B0937C00E4E6F0E0949A62FF01C03B
:101080009598789460C0F894B0937C00E0E7F0E025
:10109000949A62FF01C09098789455C0B6E095FD8F
:1010A0000AC0F894B0937C009198939A62FF01C0B3
:1010B0009598789448C0F894B0937C009798939A48
:1010C00062FF01C0909878943EC0B1E082FF24C0D6
:1010D00095FD11C004E0F894B0937C00EAE8F0E0DC
:1010E0000093B100959A979862FF02C0909801C052
:1010F000919A789428C001E0F894B0937C00E6E7D8
:10110000F0E00093B100909A919862FF02C0959828
:1011100001C0979A789417C095FD0BC0F894B093CE
:101120007C00E0E7F0E0959A62FF01C09098789427
:101130000AC0F894B0937C00E4E6F0E0909A62FF75
:1011400001C0959878946F7E089523E630E0F90108
:101150002092B100959A949A909A97989398919822
:101160006B7F0895A2EBB0E009E00D9309E00D93C9
:1011700004E00D930FEF0D9303E00D930FEF0D932C
:1011800009E00D9303E00D9301E00D9301E00D9351
:10119000AEEBB0E001E00D930FEF0D930D930D93C7
:1011A0000D930D9303E00D930FEF0D930FEF0D9340
:1011B0000D9305E20D9300ED0D9308E20D9300E50C
:1011C0000D9304E00D930FEF0D9302E00D9300E0FB
:1011D0000D930AE70D930FEF0D9300E00D9301E0DF
:1011E0000D9300E00D9303E00D9300E00D9308953F
:1011F0002091B9008B7F233009F48460B091BA004C
:10120000B33019F09F7DB1FD90629F7BB091BB0020
:10121000B1FD9064223011F0886001C0877F08958D
:101220000A95E00FF21DB4910895ECE1F0E0009111
:10123000B200F6DFB093D700ECE1F0E00091B3002C
:10124000EFDFB093D800EAE2F0E00091B800E8DF09
:10125000B093D9000091B800023008F402E0009386
:101260007300B091CE000FEFB23009F400EAB33052
:1012700009F402E800937200E8E3F0E00091D50081
:10128000CFDFB093A000089508952091C800309159
:10129000C900B091BA00B33009F43E5097FF02C0C4
:1012A00020E03FEFB32FB21B6B2EB25810F4B2E820
:1012B0006B2E00E00395609EB12DBD57D8F30093CF
:1012C000AC0008959068E1DFBCD9BBD920E030E0E4
:1012D000B0E16B2EB2D9B09196002B0F321D6A94FB
:1012E000C9F7B4E036952795BA95E1F7822E9F7736
:1012F000CCDF0895F894E3E0F0E0B9E0B7BFB49133
:10130000B078C1F3F894A895B1B5B861B1BDB0E0BB
:10131000B1BDB4E0BEBFBFE5BDBF17DFB4E0B8BB31
:10132000B4E1B7BBB0E0B5BBB0E0B4BBB1E3B2BBB6
:10133000BBEBB1BB2224A0E0B0E02D92AA31E9F7CB
:10134000A0E6B0E00FEF2D920A95E9F7B1E0B09377
:10135000A20008DF01D3B7E0B06CB7B9B6B1B46092
:10136000B068B6B90091CA000093AD00B1E0B09387
:101370006A00F8946AD974D964D975D962D976D9D2
:1013800060D9F8940AEF1AEFA0B396FFA095A2FFD8
:101390001FC01A95C9F70A95B1F7E0E0FCE1B591D5
:1013A000B43E39F4B591B03E21F4B591BF3F09F494
:1013B0000CC0E0E0F395F395B591B83F49F4B591D1
:1013C000B43931F4B591BA3A19F4EE27F695099487
:1013D0000FDF2BDF59DF59DF0091CA000093AD000A
:1013E000B4DEB2E0B3BFB2E0BEBDB2E0B5BDB1E5C0
:1013F000B8BFB9BFB0B7B77FB0BFB8B1B0B7B8600A
:10140000B0BF19D97894D8DA20927000B3E096FF73
:10141000B2E0B5BFB0E4BBBFBB27B064BABF8D7F3D
:1014200014D9626033E02CE0B0919500BB2321F425
:101430002CE03A9509F4A5CF04D980FFA2CF8E7F86
:10144000B0919600B23078F3B92FBF710091980037
:1014500000939700B0939800B01729F72A9521F7C9
:101460006D7FB3E096FFB2E0B5BFBB27B064BABFF3
:101470008D7FB091D400BB2321F48062B92FB0706E
:101480009B2F8F7B20926700DED885FF05C0B0912F
:101490006700BA3008F08064D0D802E085FF01C050
:1014A00000E0B0919600B017B8F3F894D9D8D8D826
:1014B000D7D87894CAD820928600B091BA00B330B9
:1014C00009F47DC0BAD8B091BE00B13008F477C03D
:1014D000B0916A00B13008F472C085FD18C0B091B7
:1014E0009600BF3F08F46BC0F894C3D87894ABD88B
:1014F000B0919600B130C0F7F894B2D8A0D8B0D867
:101500007894A1D8B0919600BF3FB0F3E6C2B3E0A3
:101510009B2E9068F894B9DE789495D8F8949F77CC
:10152000B4DE80909600B0919600BF37789408F4AE
:101530004EC081D8F8949DD878949A9451F7C2DE21
:10154000B82DB093C90081D8F8949AD27894BAE0B3
:101550009B2E9068F89499DE789475D8F8949F77CC
:1015600094DE80909600B0919600BF37789478F71B
:1015700062D8F89475D863D873D878949A9449F758
:10158000A1DEB82DBB5FB093C8000B2F1091C9002E
:10159000125810F0100B20F4B2E80B0F0093C900A2
:1015A00054D8F89406D27BD278944DD8F8946DDE56
:1015B0007894B0919600BF3F08F48FCF8EC200910F
:1015C0009600B09186000B1710F0009386003BD870
:1015D00001E0B091BA00B35009F405E0B091960073
:1015E000B01708F06ACFF89444D843D842D878941A
:1015F0002CD820926A0020926B0020926C00B0914F
:101600006B00B395B0936B00BF3F71F5B0916C0068
:10161000B395B0936C00B091CC0009E1BA9559F044
:1016200002E3BA9541F00DE7BA9529F00AEFBA95B1
:1016300011F020926C00B0916C00B017A8F085DD1D
:10164000FAD7B0916C00BA95B0936C0020926B0001
:10165000B091CB00B093AD00F8940BD87894B091D2
:10166000CA00B093AD00EFD7EAD7B0916800BB23B2
:1016700019F485FF01C085CE01E085FD01C006E0BB
:10168000B0919600B01708F4BACFB091BA00B35039
:1016900009F0D9D7B0916800BB2309F472CEF89451
:1016A00054DD209261002092620020926300522C4F
:1016B000209264002092A1007894B091B700BB0FF3
:1016C000B0939F0020927E0020927F0020928000A5
:1016D00020928100209282002092AA0060E070E0B7
:1016E00020927100B8E0B093AA007061A4D7B7E06F
:1016F00074FDB7E0B06CB7B9B6B1B068B064B6B954
:10170000B6B1B6FDFDCF04B115B1B6B1BF77B6B96C
:10171000112309F00FEF0093AB0050D9B8E0B0935C
:10172000AA00706165DDF894BFEFB0939B00A5D966
:10173000B0916100B0939B00B0939C00B0939D006A
:101740007894B1E0B0936100B09363005B2EB093E6
:101750006400B093A400B0919A00B093A300B0913C
:10176000BA00B33019F49F7D87FD9062716072609A
:1017700020926D0093DCA9DC99D99ED997D99CD988
:1017800095D90DDBF8D7AFDBDDDB96D901DB65FD45
:101790002BD877FFDDD877FDFFD8A5DBEADB8CD926
:1017A000FEDA65FD3DD89FDB23DC86D9F1DA65FDE5
:1017B00071D899DB34DC80D9F2DA65FD9BD893DBF4
:1017C0006DDC7AD9E5DAB7E074FDB7E0B06CB7B993
:1017D000B6B1B068B064B6B986DB77DC6DD9EED847
:1017E00071FF24C0B0919E00B0939B00B0939C0009
:1017F000B0919A00B093A300B1E0B093A40018E1B7
:101800002CE0B0916D00B11758F07D7F746020938B
:101810006F00B0919E00B0939B00B0939D0006C0F6
:10182000B0919600B13008F0ACCF64C072FF15C023
:1018300066FD13C0B0916F00BA9519F47B7F786094
:10184000A0CFB0936F00B0919600B13008F099CF5F
:10185000B091BA00B33009F04DC020927000B09141
:1018600099000AEF1091D600112309F003E0B01798
:1018700008F040C085FF04C0B0916800BB23D1F1DF
:10188000B091BA00B33081F495FD03C087FD04C068
:101890000BC087FF01C008C066FD06C06064B09140
:1018A0009E00B0939B0082CF00EF66FF05C0B09111
:1018B0009E00B0939B0000E2B0917B00B01708F44B
:1018C00060CF66FF17C06F7B9F7D87FD906274605D
:1018D000B2E1B0936F00B0919E00B0939B0051CFE6
:1018E000B0917000B395B0937000B0919600BB2397
:1018F00009F002C020927000F89427DC8090B900B3
:10190000B2E0B093B90074DC8092B900209261001B
:101910002092620020926300522C20926400209258
:101920009F0060E070E078948ED60FDC0091D600C6
:10193000002319F0959894989098B7E0B06CB7B9D7
:10194000B6B1B460B068B6B985FF05C0B09170009B
:10195000B43008F016CD4FCEEDE0F0E023D00535E1
:1019600009F01BC0EEE0F0E01DD00A3A09F015C006
:101970003AE0A2EBB0E0E3E0F0E014D00D93319652
:101980003A95D9F739E1AEEBB0E0EFE0F0E00AD0FC
:101990000D9331963A95D9F702C0E4DB0AD0E8E21C
:1019A000F0E00895E199FECFEEBBFFBBE09A0DB3E6
:1019B00008951ED03AE0A2EBB0E0E3E0F0E00D9134
:1019C0000FD031963A95D9F739E1AEEBB0E0EFE0C0
:1019D000F0E00D9105D031963A95D9F712D00895DF
:1019E000E199FECF0DBBEEBBFFBBE29AE19A0895F1
:1019F000EDE0F0E00FEFF4DFEEE0F0E00FEFF0DF0E
:101A00000895EDE0F0E005E5EBDFEEE0F0E00AEA56
:101A1000E7DF08953091AE000091AF00313011F44E
:101A20000093B200323011F40093B300333011F45C
:101A30000093B400343011F40093B600353011F443
:101A40000093B800363011F40093C400373011F41D
:101A50000093B900383011F40093D500393011F4F7
:101A60000093CE003A3011F40093BA003B3011F4E9
:101A70000093BB00089525E0E8D52A95E9F708957D
:101A8000EFD5F1D5F3D5F5D5DAD5EAD5ECD5EED548
:101A9000F0D5D5D5E5D5E7D5E9D5EBD50895E9D588
:101AA000E5D5E1D5DDD5CBD5E4D5E0D5DCD5D8D5A8
:101AB000C6D5DFD5DBD5D7D5D3D508958090AE0078
:101AC0009090AF00CDD5CCD5CBD5B9D58A94D1F7F0
:101AD000D0D5B5D59A94E1F70895F894D1DF7894EC
:101AE000CADFC9DFB1E0B093AE00B1E0B093AF00A0
:101AF0002092B000F894E2DF7894B5E06B2E7090FD
:101B00009600A3D5B09196007B16C9F7B13018F0B6
:101B1000BF3F40F107C07EDFF8944BDFB1DFB8E094
:101B2000B1BDA9DF6A9459F7B091B000B395B093F5
:101B3000B000B33008F4DECF9EDFB091AF00B395B4
:101B4000B093AF00F894B091AE00BA95EEE3F0E038
:101B5000EB0FF21D049178940395B091AF00B0178C
:101B600008F4C6CF88DF87DFB091AE00B395B0939D
:101B7000AE00B091AE00BC3008F4B7CFF3DAF89401
:0A1B800018DFB8E0B1BD77DFB5CB88
:00000001FF
