:020000020000FC
:100000000C94CA0FE7C100000000000000000000CF
:1000100000000000000000000000000000000000E0
:10002000000000002EC000000000000098C000008A
:1000300000000000000000000000000000000000C0
:10004000A1C000000000000000000000000000004F
:100050000000000002030406080C10182030406065
:1000600080000406080C10182030406080A0C000FA
:100070000003070F1F000D0D0403060D0502030208
:1000800002004FB662FD0DC0552049F00994C52D00
:10009000C095089483FDC795C093B20064604FBEBD
:1000A0001895C0910401089483FDC795C093B200D0
:1000B0006B7FC0910401CF3F09F419C04FBE2B984C
:1000C0002C982D9818952B982C982D9876FD0DC06E
:1000D00064FD0BC0C5E0CA95F1F7C0915101C0FDA8
:1000E0002A9AC1FD289AC2FD299A4FBE18952092DE
:1000F000B200CC27C160C7BB6460F7CFC8CF70FF28
:10010000C6CF64FDC4CF2B9AC2CF70FFC0CF64FDB1
:10011000BECF2C9ABCCF70FFBACF64FDB8CF2D9A5A
:10012000B6CF2A9870FFB3CF64FDB1CFC1E4CA95B2
:10013000F1F72B9AACCF289870FFA9CF64FDA7CF19
:10014000C1E4CA95F1F72C9AA2CF299870FF9FCFEE
:1001500064FD9DCFC1E4CA95F1F72D9A98CF4FB6B3
:10016000C0916F00CD7FC0936F006E7FC0918400FF
:10017000CE0DD0918500DF1DD0938900C0938800FB
:100180004FBE18953FB68F7EADB3A170A2118061AE
:10019000A0E0ADBBA0916E00AE7FA0936E007894FE
:1001A000A0910801AA2341F085FD2FC0A09108016C
:1001B000AA95A093080129C040E050E085FD15C034
:1001C000A9B196FDA095A2FD4FEFA3E096FDA2E098
:1001D000A0936900AA27A160ACBB8D7FA9B196FD51
:1001E000A095A2FD5FEF451739F7A0E461FDA0934C
:1001F000080185FD03C0A0E4A093080140933601E7
:100200008160442311F02092390185FD0EC0A09138
:100210000901AA2331F0A0910901AA95A09309012F
:1002200004C08061AA27A160ACBB80FF0AC0A09176
:1002300036014A2F61FF8E7F85FD01C000C04093CB
:10024000010140915401443009F004C0A091010122
:10025000A0930301A0910001A395A093000161F078
:10026000F894A0916E00A160A0936E0084FF02C07C
:10027000A1E0ADBB3FBE1895A0911401A395A0933A
:10028000140142E050910801552329F085FF03C075
:100290005A9550930801A0913601A13018F0209290
:1002A00039010DC020923A0120924301A0913901F9
:1002B000AF5FA093390118F0AFEFA0933901B09070
:1002C000010150915401523049F465FF91F0A2E3CD
:1002D000BA1678F0A0912601A0930101533049F499
:1002E00065FF39F0A2E3BA1620F0A0916001A09357
:1002F0000101509102015B1521F010F05A9501C0E7
:100300005395509302014A95D1F65091430153956C
:1003100009F45A9550934301A0914401AA95A093E2
:10032000440109F04BC0A1E0A093440148E0A09132
:100330004501AA2381F145E0A09145015A17F0F14A
:10034000A09146015A1728F441E0A3E0A09344018C
:1003500007C0A09147015A1718F441E040934401A7
:10036000D0903C01C0900301DC14A8F0A09154018E
:10037000A430D9F065FD0FC0C0923C01539521F027
:10038000A0914501A0934301A1E0A0934401ACE3F7
:10039000A093020113C0A0913C01A40F20F45FEFD1
:1003A00050933C0102C0A0933C01A0913C01AF3F9F
:1003B00029F4AFEFA0933A01A0934301F894A091E0
:1003C0006E00A160A0936E0084FF02C0A1E0ADBBEF
:1003D0003FBE18953FB640918400509185008F7EB6
:1003E000ADB3A170A2118061A0E0ADBBA0916E0081
:1003F000AE7FA0936E00789481FD25C0A2E096FDAB
:10040000A3E0A09369008260A9B196FDA095A2FF28
:1004100005C040930501509306011FC1A3E096FD5E
:10042000A2E0A0936900AA27A160ACBB8D7F85FFE5
:1004300001C006C140E0A9B196FDA095A2FD00C192
:1004400040933601EFC0A3E096FDA2E0A0936900BF
:100450008D7F61FF72C0A2E096FDA3E0A0936900CA
:10046000AA27A160ACBB8260409331015093320156
:10047000A0902F014A19B09030015B09BB24A22C37
:100480004C38520518F42092350149C0A0917401EE
:10049000AA2359F1483C520528F4A0E1BA2EAAE05B
:1004A000AA2E23C04836A1E05A0728F4A8E0BA2EA5
:1004B000AFE0AA2E1AC0403DA2E05A0728F4A4E0FB
:1004C000BA2EAEE1AA2E11C0403AA5E05A0728F490
:1004D000A2E0BA2EACE3AA2E08C04839A8E05A0719
:1004E00020F4A1E0BA2EA8E7AA2EC42EA0913301D1
:1004F000CA1AD52EA0913401DA0ADD202AF4AFEF12
:10050000C094D094CA1ADA0A20923501A8E0A21049
:10051000A0E0CA14DA0618F4A1E0A09335014093D4
:100520003301509334014091310150913201409395
:100530002F015093300142E075C0A09105014A1B84
:10054000A09106015A0B94FD60C093FD5EC092FD20
:100550005AC086FF03C0D52EC42E0CC056954795B1
:1005600091FD51C05695479590FD4DC0D52EC42E96
:10057000D694C79461FD19C0AC2DAC51AD2DA240ED
:1005800008F005C0DD2089F4AC2DA85C70F4A091C2
:100590000701A395AA2311F0A0930701AA3008F43C
:1005A0004FC02092360181604BC0A0910701AA2361
:1005B00019F0AA95A0930701A22C50915A0197FD1A
:1005C00002C0A0906801AAEFAA0EA22DA21DCA180F
:1005D000DA0A4FB74170442319F040E050E015C0EB
:1005E000AFEFCA16D20418F04FEF50E00EC0A09142
:1005F0004C01CA9E412D000C441F50E008F012C06F
:100600004FEF50E00FC05695479594FF07C0552314
:1006100009F04FEFA42FA6954A0F521D4F3F5205E8
:1006200008F04FEF40933601816061FF09C0AFE1F0
:10063000A095A923AB299A2F8F7DBB2009F4806256
:10064000A0E4A093080185FF03C0AAE0A0930801DD
:1006500061FD03C085FD01C08F7E85FD03C0A0E262
:10066000A0930901F894A0916E00A160A0936E0080
:1006700084FF02C0A1E0ADBB3FBE189511E00AC0E7
:1006800013E008C01AE006C01EE104C014E602C070
:1006900018EC00C005E1BB27BA95F1F70A95D9F728
:1006A0001A95C1F708952AE338E709C020E33CE82A
:1006B00006C02AE234EB03C025E238EC00C0B0915A
:1006C0004D01BA9509F4089512E0BB272898BA9510
:1006D000F1F72C9ABA95F1F72C98BA95F1F7289A78
:1006E000BA95F1F7123009F02B9A123009F42D9ACD
:1006F000B0914D01BA95F1F7123009F02B981230F4
:1007000009F42D98B7E8BA95F1F71A95F1F6022F8A
:10071000B22FBA95F1F70A95D9F73A9581F628984C
:100720000895221B39E0001F3A9509F40895221F0D
:10073000211B18F4210F8894F6CF0894F4CF622C73
:10074000722CB0E08894B395221F331FE0F73795E1
:1007500027958894912E802E020B130B10F4192DDF
:10076000082D10F4889401C00894661C771CBA9573
:1007700071F7172D062D0895322D11232AF43A957D
:1007800000951095031B130BF894029F712C002DFC
:10079000129F912C802C7894780C172D921C292D67
:1007A000B4E06B2E2695179507956A94D9F73323F5
:1007B00021F000951095031B130B0895009154012F
:1007C000043009F474C0B0913601B95198F0B72FD4
:1007D000B67081F465FD2BC005E090906601B92DDF
:1007E000BA9521F00AE0BA9509F002E1B0911B0137
:1007F000B01BE0F065FF0AC0B0913E01B0933C0130
:10080000BFEFB0934301B1E0B0934401B091010157
:10081000B093030120921E0120921F01209220011B
:1008200020922101209222016F7D41C06062909050
:100830006601B92DBA9579F4B0910201B095BB1F4C
:10084000BB1F1B2FB7950B2FB12FB170B3951B2F6B
:10085000B02FBE7F25C0B92DBA95BA9581F4B0915D
:100860000201B095BB1FBB1FBB1F1B2FB7950B2FE2
:10087000B12FB370B3951B2FB02FBC7F14C0B091B4
:100880000201B095BB1FBB1FBB1FBB1F1B2FB79522
:100890000B2FB12FB770B395B3951B2FB02FB87F27
:1008A000B0540B2F120900931E0110931F010895DD
:1008B00010911B01169500911A010795B0911E0128
:1008C000B01B0B2FB0911F01B10B1B2F28F4003868
:1008D000BFEF1B0740F009C00F37120508F405C031
:1008E0000FE710E002C000E81FEF00932301109310
:1008F0002401089500912301B09120010B0F109164
:100900002401B09121011B1F20E0309124013323E9
:100910000AF42A95B09122012B1F1AF4203F40F0CF
:100920000AC02F3008F407C00FEF1FEF2FE003C0FD
:1009300000E010E020EF30910301B0913B013B1744
:1009400018F4323030F009C0B0912401BB235AF0C2
:1009500004C0B0912401BB2332F400932001109312
:100960002101209322010895209177010091230114
:10097000000F10912401111F0E94BC0311232AF4BF
:100980000038BFEF1B0740F009C00F37120508F40D
:1009900005C00FE710E002C000E81FEF002352F08F
:1009A000B0910201B01B0B2F18F0013008F00AC003
:1009B00001E008C000950F5FB09102010B0F08F035
:1009C00001C00FEF00932501089520917801009157
:1009D0002101109122010E94BC0311232AF401304D
:1009E000BFEF1B0740F009C00F3F120508F405C018
:1009F0000FEF10E002C001E01FEF112352F0B091A1
:100A00002501B01B0B2F18F0013008F00AC001E0DF
:100A100008C000950F5FB09125010B0F08F001C0D1
:100A20000FEF0093030108950FEF71FD1FC0B09108
:100A30007301BB23D9F0B0911B01BB23B9F00FEFB9
:100A400010911B010E949103F894B091130172FD63
:100A5000B5E00B9F112D002D7894112309F00FEFB5
:100A6000B0913E010B1710F400913E0100933D013F
:100A7000089500911A0110911B0100541140B0918A
:100A80003D0110F4BA9501C0B39511F0B0933D014A
:100A900008950E946F09B0E074FDB0E0B06CB093AF
:100AA0007C00B0917A00B068B064B0937A000E9484
:100AB0003E03B0E074FDB0E0B06CB0937C00B09148
:100AC0007A00B068B064B0937A00B0917A00B6FD55
:100AD000FCCF0091780010917900B0917A00BF7737
:100AE000B0937A000E94C60927EE20934801222382
:100AF00009F441C030E030934901732E7694622EA0
:100B00006694620E731E262D372D0217130778F098
:100B100080904801B7EEB80DB0934801809049012C
:100B2000B0E0B81DB0934901260D371DEECF80907F
:100B30004801909049011091490116950091480192
:100B400007951695079523E0169507952A95E1F7E1
:100B5000209155012A9529F42092480120924901BB
:100B60000AC02A9521F0800E911E2A95E1F7809205
:100B7000480190924901089520915501B0917A0061
:100B8000B6FDFACF0091780010917900B0917A000B
:100B9000BF77B0937A00B0914A01B395B0934A0100
:100BA000B83060F120924A01B0917201BB2321F16B
:100BB000112329F0B0914B01BF3F61F009C0B09102
:100BC0004B010B1739F020F4BB2321F0BA9502C07A
:100BD000B395E1F300913B01B0934B01B03050F479
:100BE00000ECB03038F400E8B03020F400E4B0306D
:100BF00008F400E000933B017F7E08952130B1F0BE
:100C00000F3FB3E01B0790F4B7EEBB2379F0B09130
:100C100048010B17B09149011B0740F4B0913B010B
:100C2000BB2359F0BA95B0933B0107C0B0913B018B
:100C3000BF3F19F0B395B0933B0100913B01B091D8
:100C40000301B01B10F400910301B0913C010B179C
:100C500050F000913C01B0913C01BF3F21F0B091B8
:100C60003C01B0933B01502E00930401B0914A0126
:100C7000B73009F47061089502E3F894B0917901F6
:100C80000B9F012D000C001F7894B0913B010B17B6
:100C900010F000913B010093010100930301502EDD
:100CA0000093040100933E01089520921A01B0EFD1
:100CB000B0931B010895F894009184001091850071
:100CC00020911401789430911501609016010093E1
:100CD000150110931601031B160971FD03C077FD62
:100CE00080C028C070901701209317012709222384
:100CF00019F00FEF1FEF0EC08090180190901901AE
:100D0000309318016092190100911501109116019C
:100D10000819190920911A0130911B013695279560
:100D2000020F131F10F40FEF1FEF00931A0110931F
:100D30001B012BC020911A0130911B013901B4E035
:100D40008B2EB2E09B2E343040F08A949A94383047
:100D500020F072FD02C08A949A94769467948A94E3
:100D6000E1F726193709992021F0169507959A94ED
:100D7000E1F7200F311F20931A0130931B0128F453
:100D80003FEF30931A0130931B01323008F4706842
:100D900071FF02C0B3E00DC0B09164010091110178
:100DA000023838F0B395003A08F0B395B63008F041
:100DB000B5E09B2EB4E08B2E10911B0100911A011F
:100DC00024E0169507952A95E1F70819120928F0ED
:100DD000B02FB250B12FB20910F402E010E0980128
:100DE00026C020911A0130911B0139017694679435
:100DF0006694669466942619320906950695200F26
:100E0000321D20931A0130931B01323008F07F7796
:100E100004E0369527953695279526952695201B2F
:100E200010F0223008F422E089019090640160FD06
:100E3000FECFE0902B01F0902C016160B0916F002B
:100E4000B260B0936F00380177FD41C0769467942B
:100E500000932B0110932C01B92DB330E1F0B0FDBC
:100E600004C0060D171D930106C0000F111F02508C
:100E7000120922E030E0B92DB33068F020932D0143
:100E800030932E01009327011093280160922901CD
:100E900070922A013AC000932D0110932E012093E5
:100EA0002701309328016092290170922A0171FF75
:100EB0000DC0BFE0B0932D0120922E01B093290107
:100EC00020922A01B0932B0120922C011EC066941F
:100ED00000932B01B92DB33091F0B0FD03C0060D86
:100EE000262D03C0000F025022E0B92DB33038F098
:100EF00020932D01009327016092290106C00093E1
:100F00002D01209327016092290100911C0102FD0F
:100F10000350013039F495FD0EC0B5E0B06CB093CC
:100F20007C000DC0023029F4B4E0B06CB0937C00BA
:100F300006C095FDF2CFB3E0B06CB0937C00009199
:100F40004201000F10F4BBE60B270093420160FD45
:100F5000FECFB2E0B0930E016160B0916F00B2605D
:100F6000B0936F00B72FB67001F120911A01309144
:100F70001B01369527953695279571FF02C0B0E481
:100F80003B0FF8940091840010918500020F131F0D
:100F900010938900009388006160B2E0B6BBB09105
:100FA0006F00B260B0936F007894089568602092EB
:100FB0001D0120E066FD20E206C0686020921D0150
:100FC00020E266FD20E001E011E077FD11C0B72FBF
:100FD000B67009F0677F14E100911B01069509F4D2
:100FE00003950F3008F00FE071FF02C004E114E137
:100FF00060FD10C0B0911D01BB2361F071FF06C000
:10100000B0910E01BA95B0930E0111F470625AC0FE
:101010000E94AC07B0917B00BF7BB0937B00B0B760
:10102000B0917B00B064B0937B00B0911D01B3958B
:10103000B0931D01B0B777FD06C0B1E071FDB3E01C
:10104000BA95F1F7B0B7B072B21709F030C071FFBE
:1010500005C00395011708F00A95CACF63FD05C0C6
:101060000395011708F0AFCFC3CF677FF894309195
:1010700084006090850070901A01B0911B01770C7C
:10108000BB1F08F4BFEF770CBB1F08F4BFEF370D91
:101090006B1E60928900309388006160B2E0B6BB3D
:1010A000B0916F00B260B0936F0078948CCFB09124
:1010B0000D01B13008F487CF63FD85CF0A9509F0A3
:1010C00097CF7F7D20912D0130912E01F894B2E0D1
:1010D000B6BB0091840010918500020F131F10937E
:1010E000890000938800E0902701F090280161605A
:1010F000B0916F00B260B0936F007894B72FB67064
:1011000039F0B0910D0172FFB395B0930D0109C094
:1011100075FF07C066FD05C063FD03C0BF91BF91A9
:1011200097C5089500E063FF01C001E0F8941091B5
:101130001101B7E01B9F212D102D7894200F2695CB
:101140001795269517952695179510931101183721
:1011500018F4B8E7B093110100911101B091120198
:101160000B1720F060612B982C982D9860FDFECF16
:10117000E0902901F0902A016160B0916F00B260A7
:10118000B0936F000895B2E095FD0AC0F894B09353
:101190001C0128982A9A62FF01C02D9A7894F4C005
:1011A000F894B0931C012898299A62FF01C02B9AE9
:1011B0007894EAC0B3E082FF24C095FD11C002E03C
:1011C000F894B0931C01EBE9F0E0009351012D98E5
:1011D000299862FF02C02C9A01C0289A7894D4C042
:1011E00002E0F894B0931C01EBE9F0E000935101A8
:1011F0002B982A9862FF02C02C9A01C0289A7894F2
:10120000C3C095FD0BC0F894B0931C01E5E8F0E075
:101210002D9862FF01C02C9A7894B6C0F894B093D0
:101220001C01E5E8F0E02B9862FF01C02C9A78944D
:10123000ABC0B4E095FD0AC0F894B0931C012A98A5
:10124000299A62FF01C02C9A78949EC0F894B093BA
:101250001C0129982A9A62FF01C02C9A789494C0A4
:10126000B5E082FF24C095FD11C001E0F894B09371
:101270001C01E1E9F0E0009351012C98289862FFED
:1012800002C02B9A01C02A9A78947EC004E0F89498
:10129000B0931C01E5EAF0E0009351012C982898E6
:1012A00062FF02C02D9A01C0299A78946DC095FD05
:1012B0000BC0F894B0931C01EFE7F0E02C9862FFAC
:1012C00001C02B9A789460C0F894B0931C01EBE8AD
:1012D000F0E02C9862FF01C02D9A789455C0B6E0DA
:1012E00095FD0AC0F894B0931C012998289A62FFD2
:1012F00001C02B9A789448C0F894B0931C012A98A6
:10130000289A62FF01C02D9A78943EC0B1E082FF16
:1013100024C095FD11C004E0F894B0931C01E5EAE7
:10132000F0E0009351012B982A9862FF02C02D9A99
:1013300001C0299A789428C001E0F894B0931C0168
:10134000E1E9F0E0009351012D98299862FF02C075
:101350002B9A01C02A9A789417C095FD0BC0F89477
:10136000B0931C01EBE8F0E02B9862FF01C02D9ACE
:1013700078940AC0F894B0931C01EFE7F0E02D9840
:1013800062FF01C02B9A78946F7E08952EE730E0BB
:10139000F901209251012B982C982D982A98289881
:1013A00029986B7F0895A2E5B1E007E00D9307E06F
:1013B0000D9301E00D9304E00D930FEF0D930D934A
:1013C0000BE00D9302E00D9301E00D9301E00D930E
:1013D000AEE5B1E001E00D9300E00D9304EB0D9359
:1013E0000FEF0D930D930D9303E00D930FEF0D93FE
:1013F00001E00D930FEF0D9305E20D9300ED0D93BA
:1014000008E70D9308EC0D9304E00D930FEF0D9397
:1014100001E00D9300E00D930AE70D9307E00D93B3
:1014200000E00D9301E00D9300E00D930FEF0D939D
:1014300000E00D930895209159018B7FB0915A01DE
:101440009F7DB1FD90629F7BB0915B01B1FD906487
:10145000223011F0886001C0877F08950A95E00F5F
:10146000F21DB4910895E4E5F0E0009152010E946C
:101470002E0AB0937701E4E5F0E0009153010E9459
:101480002E0AB0937801E2E6F0E0009158010E9444
:101490002E0AB093790100917101002319F4209272
:1014A000450113C0013108F001E1B02FB00FB00FBA
:1014B000B09345011B2FB10FB10FB00FB093460190
:1014C000B10FB00FB00FB093470100915801023037
:1014D00008F402E000931301B0916E010FEFB230F7
:1014E00009F400EAB33009F402E800931201E0E7DE
:1014F000F0E0009175010E942E0AB093400108951A
:1015000008952091680130916901B0915A01B3307A
:1015100009F43E5097FF02C020E03FEFB32FB21B0B
:101520006B2EB25810F4B2E86B2E00E00395609E6B
:10153000B12DBD57D8F300934C01089590680E94D7
:10154000810A0E9444030E94440320E030E0B0E19D
:101550006B2E0E944003B09136012B0F321D6A940E
:10156000C1F7B4E036952795BA95E1F7822E9F77BB
:101570000E94810A0895F894E3E0F0E0B9E0B7BF73
:10158000B491B078C1F3F894A895B4B7B070B4BF73
:10159000B0916000B861B0936000B0E0B0936000BB
:1015A000B4E0BEBFBFEFBDBF0E94C609B0E0B5B991
:1015B000BFE3B4B9B0E0B8B9B0E0B7B9B0E0BBB917
:1015C000B0E0BAB92224A0E0B0E02D92AA31E9F748
:1015D000A0E0B1E00FEF2D920A95E9F7B1E0B093EA
:1015E00042010E94D3090E94700EB0E0B06CB0932B
:1015F0007C00B0917A00B460B068B0937A0000913A
:101600006A0100934D01B1E0B0930A01F8940E9481
:1016100048030E9453030E9444030E9456030E9401
:1016200044030E9459030E9444030E940D0F0E942C
:1016300048030E9448030E944603F8940AEF1AEFF9
:10164000A9B196FDA095A2FF1FC01A95C9F70A95EA
:10165000B1F7E0E0FCE3B591B43E39F4B591B03EAA
:1016600021F4B591BF3F09F40CC0E0E0F395F39588
:10167000B591B83F49F4B591B43931F4B591BA3A5E
:1016800019F4EE27F69509940E941B0A0E94330A6A
:101690000E94800A0E94810A00916A0100934D0114
:1016A0000E94C609B2E0B5BDB2E0B0938100B2E0DD
:1016B000B093B100B1E0B5BBB0936E00B2E0B6BB81
:1016C000B0936F00B1E0B7BBB0937000B0917B00F6
:1016D000BF7BB0937B00B0B7B0917B00B064B09398
:1016E0007B000E943E0378940E94490520921001DD
:1016F000B3E096FDB2E0B0936900B1E0BDBBBB279B
:10170000B160BCBB8D7F0E944803626033E02CE077
:10171000B0913501BB2321F42CE03A9509F48DCF2B
:101720000E94440380FF89CF8E7FB0913601B23092
:1017300070F3B92FBF710091380100933701B09356
:101740003801B01721F72A9519F76D7FB3E096FDA0
:10175000B2E0B0936900BB27B160BCBB8D7FB09194
:101760007401BB2321F48062B92FB0709B2F8F7B53
:10177000209207010E94460385FF05C0B091070132
:10178000BA3008F080640E94400302E085FF01C087
:1017900000E0B0913601B017B0F3F8940E94530303
:1017A0000E9453030E94530378940E94480320929E
:1017B00026010E944003B0915E01B13008F493C04D
:1017C000B0910A01B13008F48EC085FD1EC0B09101
:1017D0003601BF3F08F487C0F8940E945C037894F8
:1017E0000E944603B0913601B130B0F7F8940E94E0
:1017F00053030E9442030E94530378940E944603BD
:10180000B0913601BF3F90F35DC3B8E09B2E906866
:10181000F8940E94810A78940E944603F8949F7776
:101820000E94810A80903601B0913601BF377894CA
:1018300008F461C00E943E03F8940E945C0378940F
:101840009A9429F70E949E0AB82DB550B093690169
:101850000E944803F8940E94130F7894BAE09B2EDC
:101860009068F8940E94810A78940E944603F89444
:101870009F770E94810A80903601B0913601BF3770
:10188000789460F70E943E03F8940E9453030E94EC
:1018900042030E94530378949A9411F70E949E0A7F
:1018A000B82DBB5FB09368010B2F109169011258DE
:1018B00010F0100B20F4B2E80B0F009369010E94A6
:1018C0004803F8940E94A30E0E94300F78940E945F
:1018D0004603F8940E94810A7894B0913601BF3F84
:1018E00008F473CFEFC200913601B09126010B17B7
:1018F00010F0009326010E94460301E0B0915A01C6
:10190000B35009F405E0B0913601B01708F051CF9B
:10191000F8940E945C030E945C030E945C0378942C
:101920000E94480320920A0120920B0120920C0190
:10193000B0910B01B395B0930B01BF3F91F5B091FE
:101940000C01B395B0930C01B0916C0109E1BA950B
:1019500059F002E3BA9541F00DE7BA9529F00AEF84
:10196000BA9511F020920C01B0910C01B017C8F09B
:101970000E94C6090E943E03B0910C01BA95B09333
:101980000C0120920B01B0916B01B0934D01F894C2
:101990000E945C037894B0916A01B0934D010E945B
:1019A00046030E944203B0910801BB2319F485FF4E
:1019B00001C043CE01E085FD01C006E0B0913601D3
:1019C000B01708F4B5CF0E944603B0910801BB23BD
:1019D00009F433CEF8940E94C609209201012092A6
:1019E000020120920301522C209204012092410115
:1019F0007894B0915701BB0FB0933F0120921E0124
:101A000020921F0120922001209221012092220188
:101A100020924A0160E070E020921101B8E0B0939A
:101A20004A0170610E943E03B0E074FDB0E0B06C0A
:101A3000B0937C00B0917A00B068B064B0937A0043
:101A4000B0917A00B6FDFCCF00917800109179003A
:101A5000B0917A00BF77B0937A00112309F00FEFAD
:101A600000934B010E94BC05B8E0B0934A0170613D
:101A70000E941B0AF894BFEFB0933B010E943C0602
:101A8000B0910101B0933B01B0933C01B0933D0193
:101A90007894B1E0B0930101B09303015B2EB09351
:101AA0000401B0934401B0913A01B0934301B09165
:101AB0005A01B33019F49F7D87FD906271607260A6
:101AC00020920D010E946F090E9486090E9455060E
:101AD0000E945B060E9455060E945B060E94550606
:101AE0000E94DD070E94DE030E9492080E94C30844
:101AF0000E945B060E94D60765FD0E94580477FF8E
:101B00000E94140577FD0E9439050E9492080E94E8
:101B1000DA080E945B060E94DD0765FD0E947A04D8
:101B20000E9492080E9419090E945B060E94D60733
:101B300065FD0E94B4040E9492080E9430090E9430
:101B40005B060E94DD0765FD0E94E5040E94920885
:101B50000E946F090E945B060E94D607B0E074FDE8
:101B6000B0E0B06CB0937C00B0917A00B068B06423
:101B7000B0937A000E9492080E9486090E945B0638
:101B80000E94BC0571FF1EC0B0913E01B0933B01A5
:101B9000B0933C01B0913A01B0934301B1E0B093EE
:101BA000440118E12CE0B0910D01B11728F07D7FC0
:101BB000746020930F0106C0B0913601B13008F077
:101BC0008FCF50C072FF15C066FD13C0B0910F01DA
:101BD000BA9519F47B7F786083CFB0930F01B091F1
:101BE0003601B13008F07CCFB0915A01B33009F022
:101BF00039C020921001B0913901B13058F0B09144
:101C00003E01B0933C01B0913A01B0934301B1E081
:101C1000B0934401B09139010AEF1091760111237C
:101C200009F003E0B01708F01DC085FF04C0B091B3
:101C30000801BB23B9F000EF66FF05C0B0913E017B
:101C4000B0933B0100E2B0911B01B01708F448CFFC
:101C5000B0911001B395B0931001B0913601BB2340
:101C600009F002C020921001F8940E94C6098090E9
:101C70005901B2E0B09359010E941B0A80925901A8
:101C8000209201012092020120920301522C209205
:101C9000040120923F0160E070E078940E944603C6
:101CA0000E94C60900917601002319F02B9A2C9A04
:101CB0002D9AB0E0B06CB0937C00B0917A00B46023
:101CC000B068B0937A0085FF05C0B0910801BB23CE
:101CD00009F4B3CCB0915F01B13008F054CD24CEFB
:101CE000EDE0F0E00E949C0E053A09F01EC0EEE027
:101CF000F0E00E949C0E0A3509F017C03AE0A2E518
:101D0000B1E0E3E0F0E00E949C0E0D9331963A952D
:101D1000D1F739E1AEE5B1E0EFE0F0E00E949C0ED2
:101D20000D9331963A95D1F704C00E94D3090E94D1
:101D3000A30EE8E2F0E00895F999FECFE1BDF2BD0F
:101D4000F89A00B508950E94C60E3AE0A2E5B1E007
:101D5000E3E0F0E00D910E94BE0E31963A95D1F786
:101D600039E1AEE5B1E0EFE0F0E00D910E94BE0E8A
:101D700031963A95D1F70E94D10E0895F999FECF88
:101D800000BDE1BDF2BDFA9AF99A0895EDE0F0E0E8
:101D90000FEF0E94BE0EEEE0F0E00FEF0E94BE0ECD
:101DA0000895EDE0F0E005EA0E94BE0EEEE0F0E0FE
:101DB0000AE50E94BE0E089530914E0100914F0138
:101DC000313011F400935201323011F40093530179
:101DD000333011F400935401343011F40093660150
:101DE000353011F400935501363011F40093580149
:101DF000373011F400936401383011F40093590125
:101E0000393011F400936E013A3011F400935A0105
:101E10003B3011F400935B01089525E00E944803D4
:101E20002A95E1F708950E9453030E9456030E94E9
:101E300059030E945C030E9442030E9453030E94C4
:101E400056030E9459030E945C030E9442030E94B1
:101E500053030E9456030E9459030E945C03089595
:101E60000E945C030E9459030E9456030E94530380
:101E70000E9442030E945C030E9459030E94560381
:101E80000E9453030E9442030E945C030E94590374
:101E90000E9456030E945303089580904E01909033
:101EA0004F010E9453030E9453030E9453030E9458
:101EB00042038A94B1F70E945C030E9442039A9401
:101EC000D1F70895F8940E94130F78940E940D0F93
:101ED0000E940D0FB1E0B0934E01B1E0B0934F01FD
:101EE00020925001F8940E944D0F7894B5E06B2E2B
:101EF000709036010E944803B09136017B16C1F7FD
:101F0000B13018F0BF3F70F10CC00E94DC0EF894A5
:101F10000E94A30E0E94130FB8E0B09360000E94CD
:101F20000D0F6A9429F7B0915001B395B093500109
:101F3000B33008F4D7CF0E940D0FB0914F01B39585
:101F4000B0934F01F894B0914E01BA95E6E7F0E0F6
:101F5000EB0FF21D049178940395B0914F01B017E7
:101F600008F4BECF0E940D0F0E940D0FB0914E01DC
:101F7000B395B0934E01B0914E01BC3008F4ADCF93
:101F80000E94D309F8940E94A30EB8E0B0936000B9
:061F90000E940D0FF0CAD3
:00000001FF
