:020000040000FA
:060000000219FD02031CC1
:03000B0002008D63
:03001300020537AC
:03001B0002009050
:03002B000202D1FD
:03005B0002054655
:030073000203097C
:100080000406080C10182030406080A0C0054032E3
:10009000C2AFC2A853E6EFC28E856B8BC0D0D2D35D
:1000A000C0E0C0F0C2CAA8CCA9CDD2CAD2AF758A6E
:1000B00000C3E8956CF8E9956DF9C3E913F9E81305
:1000C000F8E5666007C3E913F9E813F8E97025E875
:1000D000956E4020956E501CE582B410177C007B15
:1000E000007A007908900000A86AE5667004C3E809
:1000F00013F801FD900000D2A8D2AA61E7E0FDC389
:100100009CC39840EF98EB33FB0582E0FCC39DC392
:100110009840E198EB33FB0582E0FDC39CC3984017
:10012000D398EB33FB0582E0FCC39DC39840C59890
:10013000EB33FB0582E0FDC39CC39840B798EB33DB
:10014000FB0582E0FCC39DC39840A998EB33FB05F7
:1001500082E0FDC39CC398409B98EB33FB0582E093
:10016000FCC39DC398408D98EB33FB0582217890AA
:100170000000D2A8D2AA61E7E0FDC39CC39840EF7B
:1001800098EA33FA0582E0FCC39DC39840E198EAFF
:1001900033FA0582E0FDC39CC39840D398EA33FA52
:1001A0000582E0FCC39DC39840C598EA33FA0582F6
:1001B000E0FDC39CC39840B798EA33FA0582E0FC9F
:1001C000C39DC39840A998EA33FA0582E0FDC39C19
:1001D000C398409B98EA33FA0582E0FCC39DC3981C
:1001E000408D98EA33FA0582EBC46B6A54F0F9EA61
:1001F000C454F0C3996009900000D2A8D2AA61E764
:10020000EBF4C454F0F9EAF4C4540F49FAEBF4C423
:10021000540FFBC3EAF99460FAEB9400FB5020C33F
:10022000E97B007A0079006016C3135006F9C39584
:1002300052600AE9F5527553007900800205533087
:100240003A27C3EA94D0F8EB9407F9400BE8FAE9AF
:10025000FB203509D235415D303502C235203902E7
:10026000B235C3EA33FAEB33FBEB2B3B3BF9C3EB81
:1002700013FBEA13FAEA29FAEB3400FB30E3047AC1
:10028000FF7BFFE5255403601B202A18E55D33F949
:10029000EB7007C3E99A4002E9FAE53CC4332AFA55
:1002A000EB3400FBC3EA33C4540FF8EB33C454F00F
:1002B00048F87005EA60027801900000D2A8D2AA3E
:1002C000E5226002152281D4900000D2A8D2AA6152
:1002D000E7C0D0C0E0C2CF0541E5666009E56560D2
:1002E000057565006104756501E52360021523C38A
:1002F000E55460057555006104E5552401F5555038
:10030000037555FFD0E0D0D032C2AF53E67F75926F
:10031000FA7593FFC22053917FD2AF32C0E0E58AD5
:10032000303408856B8BF0A3D0E032D0E0C2AF53FD
:10033000E6EFC0D0C0E0C0F0D2D3D2AF5388EFA870
:100340008AA98CAA40308D010A758A00758C0075C7
:100350004000438810E566700AC3E833F8E933F9D2
:10036000EA33FA30331FE8C4540FFAE9C454F04AB0
:10037000FAC3132AFAC3E833F8E933F9E82AFAE9A9
:100380003406FB61D830320FC3E833E933FAE82A88
:10039000FAE93400FB61D8303115E875F056A4AAAB
:1003A000F0E975F056A42AFAC5F03400FB61D8C311
:1003B000EA13FAE913F9E813F8E875F056A4AAF07D
:1003C000E975F056A42AFAC5F03400C313FBEA130A
:1003D000FAC3EB13FBEA13FAC3EB94125009C3EA16
:1003E0009434EB940750160522E52270021522C3BF
:1003F000E52294325002A12A755400A12DE5226015
:100400000215223036067C007D088117AC31AD32F2
:10041000303A04AC33AD34C3EA9CFAEB9DFB92084E
:10042000AE60AF61303A425007203509D235813590
:10043000303502C235303504AE62AF63203902B2C6
:1004400035C3EA33FAEB33FBA208500AEAF424017D
:10045000FAEBF43400FBC3EA9450FAEB9400FB503F
:100460001478007A007B008175A208500878007A21
:10047000007B0081D4E5255403601B202A18E55D2C
:1004800033F9EB7007C3E99A4002E9FAE53CC4335B
:100490002AFAEB3400FBEA8EF0A4F9AAF0EB8EF016
:1004A000A42AFAC5F03400FBC3EB13FDEA13F8C32A
:1004B000ED13FDE813F80FEF146004C3E833F8C33D
:1004C000E933EA33FAEB33FBDFEDEB30E30678FF99
:1004D0007AFF7B078854D230E86003755500C3E586
:1004E0005BFC955C4002AC5CC3EC95545008EC7529
:1004F000F008A4FAABF0EAF4F8EBF45407F98856E4
:10050000895775230AE55A30E210D0F0D0E0D0D0F8
:1005100053F7DF43F74043E61032D0F0D0E0D0D0BD
:1005200053D8FE43DA0143E6103275230AD0F0D0E7
:10053000E0D0D043E61032C2AAD28EC2CA85CC6CBB
:1005400085CD6DD2CA32C2AFC0D0C0E0D2D38556FD
:10055000FB8557FC85575A53F7BF53DAFED2A830B4
:100560003402D2AA53E6EF53F7DF53D8FED0E0D0DF
:10057000D0D2AF327901801479038010790A800CCF
:10058000791E80087964800479C880007817E4D5E2
:10059000E0FDD8FAD9F62278FF20282879A1E76073
:1005A00023E548601F74FF8548F084853FF03029BB
:1005B0000375F005A4F8C5F0600278FFC3E8955D07
:1005C0005002A85D885C22C3E54794A0E5489400EA
:1005D000E55C500314A1D8046002F55C2275E89034
:1005E00022055EC3E55E9408405330EDF4A8BDA932
:1005F000BE755E00E9FA79A0E76041EA7006E55F42
:100600006018800CC3E8955F600EE55F5005600AD6
:100610001480070460FA8002E55FF55FC3956940C6
:100620001B755BC0C394044013755B80C394044086
:100630000B755B40C394044003755B0022E55B24AB
:1006400010500274FFF55B22743279A687F0A4C5BE
:10065000F0A2F733F55D227547007548F022C2AF6E
:10066000C2CAA8CCA9CDAA4130CF010AD2CAD2AF02
:10067000C3EA13FAE913F9E813F8AB42AC43884232
:100680008943C3E89BF8E99C20280A547FF9302C61
:1006900002E17CC1D5AD448A44F9EA9D547FFA60F9
:1006A0000678FF79FFC1BAAE45AF468B458C46A8A8
:1006B00042A943C3E89EF8E99FF9C3E54813FBE567
:1006C0004713FAE82AF547E93BF54850067547FF16
:1006D0007548FFE122AA47AB48AC47AD487E047F8E
:1006E00002C3EB9404400D1E1FC3EB940840052089
:1006F00029021E1FC3ED13FDEC13FCDEF7C3EA9CB9
:10070000FAEB9DFBEF6009C3E913F9E813F8DFF793
:10071000EA28FAEB39FB8A478B4850067BFF8B4768
:100720008B48C3EB94025002D22C3028047F03E1A3
:100730004D7892E6FFC3E53D948240110FC3E53D3D
:1007400094A040010FC3EF940640027F057E02E5AE
:1007500048C4540FF9E548C454F0F8E547C4540FB1
:1007600028F8C3E89EFAE99400FB4009C3EA940123
:10077000EB940050047A01E4FB0207C8AA47AB4897
:10078000EBC4FEEAC4540F4EFCC3EA9CFAEB94009F
:10079000FBC3E813C313F8EA28FAEB3400FB8A47DB
:1007A0008B48C3EB94024002C22C7802EBC4FE7B60
:1007B00000EAC4540F4EFAC3EA98FA4005C3940104
:1007C00050027A017892E6FF302002E1C8854E920D
:1007D000854F93D22043E680C3E49AF8E49BF9C3A3
:1007E000E833F8E933F9302C0302085DE8FAE9FB55
:1007F000D3E913FDE813FC884E894FC3EF940360DF
:1008000038EF20E00CE82CF8E93DF9ECFAEDFB803C
:1008100013E828F8E939F9C3E82401F8E93400F9C4
:100820007AFF7BFFC3EF9403400F8A508B51884AB5
:10083000894B8C4C8D4D020892885089518A4A8B85
:100840004B8C4C8D4D3028127550F07551FF754C06
:10085000F0754DFF754EF0754FFF020892E8FAD320
:10086000E813FC884EC3EF94036021EF20E007E813
:100870002CF8ECFA017DE8282401F87AFFC3EF9404
:100880000340098A50884A8C4C02089288508A4A50
:100890008C4C3020020192753A02D22043E680E56A
:1008A000255403602DA847A948C3E913F9E813F8B4
:1008B000302804E92440F9C2AF53E67F759100C3A4
:1008C000E498F594E499F595759104D22043E68077
:1008D000D2AF22D221754900752000302B0375203C
:1008E0004001F1D221754900752040302B0375205D
:1008F0000078017901202C20E52554036002C221F3
:100900007914E548C313700104F8C39414400278C5
:1009100014302804781B791BC3E833F8C3E933F992
:10092000202010E549600C302803D53A04D222215A
:10093000A5119A0549E59BF45440B52002218F305A
:10094000280908C3E899400118212020210A08C37A
:10095000E899400201F12120C22153E67F75910000
:10096000302C117594007595F0759104D22043E6F2
:10097000800208F1E5487EFFC3334009C3334005D8
:10098000C3334001FEC3E49E759400F5952169C30D
:10099000E5399401500201F130210201F1D8022120
:1009A000A32120C222C2AF53E67F759100855094E7
:1009B000855195759104854A92854B93D22043E6E3
:1009C00080D2AFE525540360072029020539801045
:1009D00030220D202B0A202107158115810213E7F3
:1009E0002278003021027801E53D75F007A4F9E591
:1009F000F028F5F0E9A2F013A2F113A2F213F53DED
:100A0000C394785003753D78C3E53D953E4009D2C7
:100A100091D293D29575D53F3020024118854C92E2
:100A2000854D93D22043E68022203814C2AFD29362
:100A3000C290C291C29575D52FD2AF759F0361291F
:100A4000C2AFD293C294C295C29175D53ED2AF7552
:100A50009F036129203814C2AFD295C29375D53B4C
:100A6000C290C291D2AF759F136129C2AFD291C219
:100A70009375D53BC294C295D2AF759F236129204F
:100A80003814C2AFD291C294C295C29375D53BD2ED
:100A9000AF759F236129C2AFD295C290C291C29314
:100AA00075D53BD2AF759F136129203814C2AFD2E0
:100AB00093C29175D53EC294C295D2AF759F038003
:100AC00068C2AFD293C29575D52FC290C291D2AFF2
:100AD000759F038054203814C2AFD295C292C2933E
:100AE000C29175D53ED2AF759F13803DC2AFD291F2
:100AF000C292C293C29575D52FD2AF759F2380291C
:100B0000203814C2AFD291C29575D52FC292C2932C
:100B1000D2AF759F238012C2AFD295C29175D53ED8
:100B2000C292C293D2AF759F13227A147B7880123F
:100B30007A107B8C800C7A0D7BB480067A0B7BC894
:100B40008000E564D5E001227902E4D293D5E0FD8E
:100B5000D292C293D5E0FDD293D5E0FDC292C2936A
:100B6000D5E0FDE920E004D290C29130E004D294B7
:100B7000C295E564D5E0FDE920E002D29130E002C3
:100B8000D2957496D5E0FDD9C1EAF8D5E0FDD8FB41
:100B9000DBB0D29322D291D293D295D291D293D27A
:100BA0009575D53F22788076FF0876FF0876FF0896
:100BB00076FF0876FF0876FF0876090876FF087644
:100BC00001788C76010876FF0876FF0876FF0876B4
:100BD000FF0876FF0876030876FF0876FF0876FFA1
:100BE0000876250876D00876280876500876040816
:100BF00076FF0876020876FF08767A0876FF087690
:100C0000070876010876FF0876FF08760008760068
:100C100022FA75F00CA4ABF0EAC333F8740133F98F
:100C2000E8C333F8E933F9E8C32BF8E93400F9E80D
:100C3000C333F8E933F9227888E6C39403D23A50F3
:100C400002C23AC238E630E102D238A2389239788C
:100C500086E6149000809378A6F67886E6F53FC382
:100C600094025003753F02789CE6753EFFB4020380
:100C7000753EA0B40303753E8278A0E6F860067462
:100C8000282409D8FCF5697896E6911188318932D3
:100C9000789EE69111883389347897E691118835EA
:100CA00089367195223036117A007B007CFF7D00F9
:100CB0007E00B10B8B618A6022303A227896E6FA88
:100CC0007B00789EE6FC7D00C3EA33FAEB33FBC37E
:100CD000EC33FCED33FD7E0AB10B8B638A627896B0
:100CE000303A02789EE6FA7B007897E6FC7D007E3B
:100CF00000303A10C3EA33FAEB33FBC3EC33FCEDBC
:100D000033FD7E0AB10B8B618A6022C3EC9EFCED41
:100D10009400FDC3EC9AFCED9BFDC3EC9423ED9491
:100D20000050047C237D00C3EC94FFED940140044B
:100D30007CFF7D017BFF0B7A000AEA7009C3EC336C
:100D4000FCED33FDA136EC8AF0A4AEF0ED8AF0A400
:100D50002E947C40E4EAF460DD22D23691A512059F
:100D6000801205807A007B007C10120578E5542AF9
:100D7000FA74003BFBDCF37C04C3EB13FBEA13FACD
:100D8000DCF7FFEB60027FFFC23691A52278A5E673
:100D9000F954037000E9540C7000E954307000E914
:100DA00054C07000227567007568007597DE7597EE
:100DB000AD7581C043FF8075EF0675A9007195750B
:100DC00080FF75F1F075A4007580FF75D4FF7590F4
:100DD0002A75F23F75A53F75902A75D53F75A60116
:100DE00075E34075E2027195E4F8F6D8FD71A5123D
:100DF000143178988664753001C2AF120588712A63
:100E000012058071301205807136120580B18DC2D5
:100E1000AF75670075680078FA79FA308507D9FBF5
:100E2000D8F7021C00913791A57898866471957562
:100E3000A91375A71075C10075A70075660075E444
:100E400005758811758E0475890975C80475910436
:100E500075D84075D90875F783759E00759600752D
:100E6000DA4A75DB0075A82375E69075B801759BA5
:100E700080759D0075D10C75BCB975BB1075E88087
:100E800075B201120574D2AF753C00C230120588EC
:100E9000C231C232C233C23475520075530075225A
:100EA00000120584C3E522940A5002E175D231751F
:100EB0002200120584C3E522940A5002E175C23172
:100EC000D232752200120584C3E522940A5002E151
:100ED0007575E4D5758851758E017589AA758C0074
:100EE000758D00C2A9D2ABD2AA756B80756A1475D4
:100EF0006E50C232D23475220A120584756A10C34C
:100F0000E522940A7552007553004069758E0C7580
:100F10006B00756A28756E2875220A120584756A39
:100F200020C3E522940A7552007553004047758E20
:100F30000C756B80756A14756E1475220A1205841F
:100F4000756A10C3E522940A755200755300402556
:100F500075E405758811758E04758909D2A9C2AB2F
:100F6000C2AAC234D233752200120584C3E522948A
:100F70000A4002C10F120578203003020E0FC2AFE3
:100F8000712A712A712AD2AF120588203403303AAF
:100F900003021037120578788CE6C39401500302DF
:100FA0001037E530C3940150030210377567A575FB
:100FB00068F17F02D23691A5120584C2AFC2369184
:100FC000A5C3E554947FD2AF406D120574C2AF71D2
:100FD0003CD2AFDFDFB15AC3EF7897F61205881223
:100FE000151E7F0AD23691A5120584C2AFC2369172
:100FF000A5C3E554947FD2AF50E8120574C2AF1276
:101000000B2A12057C120B2AD2AFDFD8120D5AEF31
:1010100024037896F6F87997E7C394234003985011
:1010200006E824237897F61205889178B14D1205C9
:1010300084120CA5020E0F756700756800120584F6
:10104000C3E55494014003020F8BC2AF120B3C1254
:101050000B3C120B3CD2AF120588753000E4F5371B
:10106000F5380537E537F4703F0538789AE6781992
:10107000146012783214600D787D14600878FA14C8
:101080006003753800C3E53898401D120B951205B2
:1010900074153875370078998664C2AF120B3CD24C
:1010A000AF7898866412058412057CE523700302EC
:1010B0000E0FC3E5549401500AC3E5529401501633
:1010C000021062120584E5237003020E0F755200B0
:1010D000755300021278C3E55294017017C2AF1223
:1010E0000B9578998664120B2A78988664D2AF1291
:1010F0000584416AC3E55294027017C2AF120B9582
:1011000078998664120B3078988664D2AF12058481
:10111000416AC3E55294037017C2AF120B957899D8
:101120008664120B3678988664D2AF120584416AC1
:10113000C3E55294047017C2AF120B957899866478
:10114000120B3C78988664D2AF120584416AC3E5DD
:101150005294057017C2AF120B9578998664120BE2
:101160003C78988664D2AF120584416AC3E55294F4
:10117000077019C3E5539406500201B27401303A66
:101180000274037888F6C238C239416AC3E55294C2
:10119000087019C3E5539406500201B27402303A44
:1011A0000274047888F6D238D239416AC3E5529481
:1011B000097017C3E5539406500201B2303A0BC3CD
:1011C0007888E69402F6C23A416AC3E552940A70FE
:1011D00016C3E5539406500201B2203A0A7888E615
:1011E0002402F6D23A416AC3E55294147025C3E54D
:1011F000539406500201B2C2AF901A0B740093D2FE
:10120000AF7888F613C238C2394002D2384002D2D1
:10121000398057C3E55294157038C3E5539406409E
:101220004FC2AF901A0B740093D2AFF8B80102749A
:1012300002B802027401B803027404B80402740311
:101240007888F613C238C2394002D2384002D23907
:101250008018C3E552940C70117567A57568F1C3C9
:10126000E5539406400A9178D2AF75520075530049
:1012700075670075680001B2C2AF120B95E4D2AF7A
:10128000E4F55EF524F525F53D755E08120574124A
:1012900005DD30EDFDA8BDA9BEE97001F8885F123B
:1012A00005E1755E08C2AF120648855D5B855D5C31
:1012B000D2AF75A71075C13075A70075A903756603
:1012C00001303A07C238303502D238D22875390099
:1012D000120AD5120B0012065712065E120657129A
:1012E000065E1206571208E31209E1120A291206D5
:1012F0005E1208D3202C03120597302C031205C769
:101300001209E1120A5412065E1208E31209E112F0
:101310000A7F12065E1208D31209E1120AAA120607
:101320005E1208E31209E1120AD512065E1205DD0B
:101330001208D31209E1120B001205E112065E3009
:101340002827855D5B79187A0CC3E53999400EC270
:1013500028D2298A3B855D5B855D5C800CC3E554A2
:10136000940140030212E561EF30291F202B1CE598
:101370003B147006C229D22A41E5F53B203A07C347
:10138000E554940140030212E58064753C00203A64
:101390000F78FA79A4E760027803C3E55598504FB7
:1013A000E523604B303A17203805203507800F3091
:1013B0003502800A202B07D22B855D5B611578F002
:1013C000302B05855D5B7820C3E5489850030212F9
:1013D000E5302B1BC22BC238303502D238D22975EA
:1013E0003B12855D5B41E5053CE554600261F275A9
:1013F0003C00C2AF120B9575240075250075A9132A
:1014000075A71075C10075A700756600D2AF1205EB
:1014100084120B9578A4E6600CC290C291C292C26D
:1014200093C294C295C3E53C94044003020E0F019D
:101430005D901A0D782091B1E520B4550AA391B1C1
:10144000E520B4AA0280137567A57568F1120BA593
:101450009178756700756800801D901A0378807B0D
:101460000A91B1A308DBFA901A0F788C7B1A91B11C
:10147000A308DBFA901A2922C2AF91F491D1901AF5
:1014800000741091B6A3740791B6A3742191B6901D
:101490001A0378807B0A91B5A308DBFA901A0F78BB
:1014A0008C7B1A91B5A308DBFAB10791E5901A2954
:1014B00022E493F622E6438F01538FFDFFC3E583B9
:1014C000941C400122EF8567B78568B7F0538FFE03
:1014D00022438F02438F018567B78568B7901A0D45
:1014E000F0538FFC22901A0D745591B6901A0E7419
:1014F000AA91B6227A3079D07820901A4091B1E53D
:1015000020F709A3DAF7227A3079D0901A40E791D0
:10151000B609A3DAF9227C05120588DCFB22C2AFEA
:10152000120B2A120B30120B36120B3C12057C12D6
:101530000B2A120B30120B36120B3C12057C120BCD
:101540002A120B30120B36120B3CD2AF22C2AF1252
:101550000B3C120B36120B30120B2A12057C120BAD
:101560003C120B36120B30120B2A12057C120B3C6C
:0C157000120B36120B30120B2AD2AF22E5
:1019FD00020DA5100721FFFFFFFFFFFF09FF01FFEC
:101A0D0055AA01FFFFFFFFFF03FFFFFF25D0285061
:0D1A1D0004FF02FF7AFF0701FFFF0000FF3A
:101A4000234F5F485F30302320202020202020209B
:101A500023424C48454C492445464D3842323123B7
:101A60002020202020202020202020202020202076
:101C0000C2AFC2D37597DE7597AD7581C075A90057
:101C100043FF80752438752503B1DB7529A5752A26
:101C2000F143F12053A4DFD28575D4FF75E3407DE5
:101C3000FA780379E67C10752200752300901DE880
:101C40007B0675249875250130850281482085081A
:101C5000D8FBD9F9DCF781BA308508D8FBD9F9DC93
:101C6000F781BAB19BE493A3C39A6004DDC381BA40
:101C7000DBDBB18D600281317B08E493FAA3B16EA6
:101C8000DBF87A30B16E752200752300B18DEAFC65
:101C9000EBFDC3ED94FE400EB18D8A278B28ED300D
:101CA000E0048A828B83B18D7AC270D8C3ED94FE32
:101CB000601950CEBD0029EC600F7520007521FF22
:101CC000752900752A000200008100A827A92808AC
:101CD00009D804D90281DDB191EAF281D10D81A642
:101CE000C3ED94035051EDA2E092007AC5C3E582A2
:101CF0009400E583941C508C200010438F02438F86
:101D0000018529B7852AB7F0300027A827A9280818
:101D100009438F01538FFDD804D902A132C3E58353
:101D2000941C4003A3A117E28529B7852AB7F0A325
:101D3000A117538FFC81827AC1BD030CE493A3FAEF
:101D4000B152DCF8B14A81828184AA22AB23B16E00
:101D5000EBFAEA6222752608C3E52313F523E52290
:101D600013F52250066323A0632201D526EAB1DBD6
:101D7000B1DB75260AEAF4200102D285300102C2E5
:101D800085B1DBC3134002C201D526EB22B191EA33
:101D9000FB208502A191308502A196752608AE240C
:101DA000AF25C3EF13FFEE13FEB1DFB1DBC3EA13C0
:101DB0003085024480FA30E703632201C3E5231330
:101DC000F523E52213F52250066323A0632201D5F3
:101DD00026D9E52265236523F52222AE24AF250E00
:101DE0000FDEFEDFFCD20122424C48656C693437BD
:061DF0003164E8B20601B7
:00000001FF
