:020000040000FA
:060000000219FD020310CD
:03001300020501E2
:03001B0002008D53
:03002B000202D5F9
:03005B000205108B
:030073000202FD89
:100080000406080C10182030406080A0C0C2AFC227
:10009000A853E6EFC28E856B8BC0D0D2D3C0E0C030
:1000A000F0C2CAA8CCA9CDD2CAD2AF758A00C3E823
:1000B000956CF8E9956DF9C3E913F9E813F8E5666D
:1000C0006007C3E913F9E813F8E97025E8956E4075
:1000D00020956E501CE582B410177C007B007A00DE
:1000E0007908900000A86AE5667004C3E813F80177
:1000F000FA900000D2A8D2AA61BAE0FDC39CC398CE
:1001000040EF98EB33FB0582E0FCC39DC39840E1D0
:1001100098EB33FB0582E0FDC39CC39840D398EB7A
:1001200033FB0582E0FCC39DC39840C598EB33FBCD
:100130000582E0FDC39CC39840B798EB33FB058272
:10014000E0FCC39DC39840A998EB33FB0582E0FD1A
:10015000C39CC398409B98EB33FB0582E0FCC39D96
:10016000C398408D98EB33FB05822175900000D237
:10017000A8D2AA61BAE0FDC39CC39840EF98EA33C5
:10018000FA0582E0FCC39DC39840E198EA33FA0582
:1001900082E0FDC39CC39840D398EA33FA0582E01D
:1001A000FCC39DC39840C598EA33FA0582E0FDC3BD
:1001B0009CC39840B798EA33FA0582E0FCC39DC31C
:1001C0009840A998EA33FA0582E0FDC39CC39840A1
:1001D0009B98EA33FA0582E0FCC39DC398408D9852
:1001E000EA33FA0582EBC46B6A54F0F9EAC454F0BE
:1001F000C3996009900000D2A8D2AA61BAEBF4C4F6
:1002000054F0F9EAF4C4540F49FAEBF4C4540FFB68
:10021000C3EAF99460FAEB9400FB5020C3E97B0039
:100220007A0079006016C3135006F9C39552600A2C
:10023000E9F552755300790080020553303A27C31F
:10024000EA94D0F8EB9407F9400BE8FAE9FB203583
:1002500009D235415A303502C235203902B235C390
:10026000EA33FAEB33FBEB2B3B3BF9C3EB13FBEA33
:1002700013FAEA29FAEB3400FB30E3047AFF7BFF40
:10028000E5255403601B202A18E55D33F9EB700760
:10029000C3E99A4002E9FAE53CC4332AFAEB340098
:1002A000FBC3EA33C4540FF8EB33C454F048F8707E
:1002B00005EA60027801C3EB13FBEA13FA90000031
:1002C000D2A8D2AAE52260021522819E900000D217
:1002D000A8D2AA61BAC0D0C0E0C2CF0541E5236070
:1002E000021523C3E554600575550041F8E5552412
:1002F00001F55550037555FFD0E0D0D032C2AF5351
:10030000E67F7592FA7593FFC22053917FD2AF3288
:10031000C0E0E58A303408856B8BF0A3D0E032D0A2
:10032000E0C2AF53E6EFC0D0C0E0C0F0D2D3D2AF4E
:100330005388EFA88AA98C758A00758C00438810B1
:1003400030331FE8C4540FFAE9C454F04AFAC31317
:100350002AFAC3E833F8E933F9E82AFAE93403FB67
:1003600061AB30320FC3E833E933FAE82AFAE934F3
:1003700000FB61AB303115E875F056A4AAF0E975C1
:10038000F056A42AFAC5F03400FB61ABE875F02BF7
:10039000A4AAF0E975F02BA42AFAC5F03400C3131F
:1003A000FBEA13FAC3EB13FBEA13FAC3EB9409500D
:1003B00009C3EA949AEB940350160522E5227002D1
:1003C0001522C3E5229432500281F475540081F75E
:1003D000E522600215223036067C007D0461EAAC1D
:1003E00031AD32303A04AC33AD34C3EA9CFAEB9D04
:1003F000FB9208AE60AF61303A425007203509D217
:10040000358108303502C235303504AE62AF632025
:100410003902B235C3EA33FAEB33FBA208500AEAD9
:10042000F42401FAEBF43400FBC3EA9428FAEB94C9
:1004300000FB501478007A007B008148A208500825
:1004400078007A007B00819EE52554036019202AFC
:1004500016E55DF9EB7007C3E99A4002E9FAE53C5D
:10046000C42AFAEB3400FBEA8EF0A4F9AAF0EB8E72
:10047000F0A42AFAC5F03400FBC3EB13FDEA13F82D
:100480000FEF146004C3E833F8C3E933EA33FAEB3F
:1004900033FBDFEDEB30E20678FF7AFF7B03885415
:1004A000D230E86003755500C3E55BFC955C400203
:1004B000AC5CC3EC95545008EC75F004A4FAABF0B6
:1004C000EAF4F8EBF45403F98856895775230AE5E2
:1004D0005A30E110D0F0D0E0D0D053F7DF43F740EE
:1004E00043E61032D0F0D0E0D0D053D8FE43DA014A
:1004F00043E6103275230AD0F0D0E0D0D043E610A6
:1005000032C2AAD28EC2CA85CC6C85CD6DD2CA3217
:10051000C2AFC0D0C0E0D2D38556FB8557FC85570B
:100520005A53F7BF53DAFED2A8303402D2AA53E6A8
:10053000EF53F7DF53D8FED0E0D0D0D2AF327901FD
:10054000801479038010790A800C791E8008796400
:10055000800479C880007817E4D5E0FDD8FAD9F690
:100560002278FF20282879A1E76023E548601F74DE
:10057000FF8548F084853FF030290375F005A4F825
:10058000C5F0600278FFC3E8955D5002A85D885C05
:1005900022C3E54794E4E5489400E55C500314A1C8
:1005A000A2046002F55C2275E89022055EC3E55E58
:1005B0009408405330EDF4A8BDA9BE755E00E9FA79
:1005C00079A0E76041EA7006E55F6018800CC3E837
:1005D000955F600EE55F5005600A1480070460FABD
:1005E0008002E55FF55FC39569401B755BC0C394EE
:1005F000044013755B80C39404400B755B40C39447
:10060000044003755B0022E55B2410500274FFF583
:100610005B22743279A687F0A4C5F0A2F733F55DAA
:10062000227547007548F022C2AFC2CAA8CCA9CD36
:10063000AA4130CF010AD2CAD2AFAB42AC43884202
:100640008943C3E89BF8E99C202808F9302C02E193
:1006500038C191AD448A44F9EA9DFA600678FF7981
:10066000FFC176AE45AF468B458C46A842A943C331
:10067000E89EF8E99FF9C3E54813FBE54713FAE85C
:100680002AF547E93BF54850067547FF7548FFC115
:10069000DEAA47AB48AC47AD487E047F02C3EB946B
:1006A00004400D1E1FC3EB940840052029021E1FA5
:1006B000C3ED13FDEC13FCDEF7C3EA9CFAEB9DFBE4
:1006C000EF6009C3E913F9E813F8DFF7EA28FAEB5A
:1006D00039FB8A478B4850067BFF8B478B48C3EB1F
:1006E00094025002D22C3028047F03E1097892E66C
:1006F000FFC3E53D948240110FC3E53D94A0400146
:100700000FC3EF940640027F057E02E548C4540FF4
:10071000F9E548C454F0F8E547C4540F28F8C3E895
:100720009EFAE99400FB4009C3EA9401EB9400505F
:10073000047A01E4FB020784AA47AB48EBC4FEEA53
:10074000C4540F4EFCC3EA9CFAEB9400FBC3E813BD
:10075000C313F8EA28FAEB3400FB8A478B48C3EB53
:1007600094024002C22C7802EBC4FE7B00EAC4541F
:100770000F4EFAC3EA98FA4005C3940150027A0179
:100780007892E6FF302002E184854E92854F93D225
:100790002043E680C3E49AF8E49BF9302C03020876
:1007A00012E8FAE9FBD3E913FDE813FC884E894F00
:1007B000C3EF94036038EF20E00CE82CF8E93DF932
:1007C000ECFAEDFB8013E828F8E939F9C3E82401D5
:1007D000F8E93400F97AFF7BFFC3EF9403400F8AF6
:1007E000508B51884A894B8C4C8D4D02084788505C
:1007F00089518A4A8B4B8C4C8D4D3028127550F0A4
:100800007551FF754CF0754DFF754EF0754FFF0239
:100810000847E8FAD3E813FC884EC3EF940360213D
:10082000EF20E007E82CF8ECFA0132E8282401F880
:100830007AFFC3EF940340098A50884A8C4C02081F
:100840004788508A4A8C4C3020020147753A02D2C0
:100850002043E680E52554036034A847A948C3E94E
:1008600013F9E813F8C3E913F9E813F8302804E999
:100870002440F9C2AF53E67F759100C3E498F59424
:10088000E499F595759104D22043E680D2AF22D247
:1008900021754900752000302B0375204001ADD231
:1008A00021754900752040302B03752000780179AF
:1008B00001202C20E52554036002C2217914E5486B
:1008C000C313700104F8C394144002781430280450
:1008D000781B791B202010E549600C302803D53A9D
:1008E00004D2222155114F0549E59BF45440B5200F
:1008F00002213F30280908C3E89940011801D4209B
:10090000210A08C3E899400201AD01D4C22153E68F
:100910007F759100302C117594007595F8759104D0
:10092000D22043E6800208ADE5487EFFC333400590
:10093000C3334001FEC3E49E759400F595211DC3A9
:10094000E5399401500201AD30210201ADD80221F8
:100950005301D4C222C2AF53E67F759100855094F3
:10096000855195759104854A92854B93D22043E633
:1009700080D2AFE525540360072029020539801095
:1009800030220D202B0A2021071581158102136AC0
:100990002278003021027801E53D75F007A4F9E5E1
:1009A000F028F5F0E9A2F013A2F113A2F213F53D3D
:1009B000C394785003753D78C3E53D953E4009D218
:1009C00091D293D29575D53F30200221C8854C92A3
:1009D000854D93D22043E68022203814C2AFD293B3
:1009E000C290C291C29575D52FD2AF759F0341D9E0
:1009F000C2AFD293C294C295C29175D53ED2AF75A3
:100A00009F0341D9203814C2AFD295C29375D53B0C
:100A1000C290C291D2AF759F1341D9C2AFD291C2D9
:100A20009375D53BC294C295D2AF759F2341D9200F
:100A30003814C2AFD291C294C295C29375D53BD23D
:100A4000AF759F2341D9C2AFD295C290C291C293D4
:100A500075D53BD2AF759F1341D9203814C2AFD2A0
:100A600093C29175D53EC294C295D2AF759F038053
:100A700068C2AFD293C29575D52FC290C291D2AF42
:100A8000759F038054203814C2AFD295C292C2938E
:100A9000C29175D53ED2AF759F13803DC2AFD29142
:100AA000C292C293C29575D52FD2AF759F2380296C
:100AB000203814C2AFD291C29575D52FC292C2937D
:100AC000D2AF759F238012C2AFD295C29175D53E29
:100AD000C292C293D2AF759F13227A147B78801290
:100AE0007A107B8C800C7A0D7BB480067A0B7BC8E5
:100AF0008000E564D5E001227902E4D293D5E0FDDF
:100B0000D292C293D5E0FDD293D5E0FDC292C293BA
:100B1000D5E0FDE920E004D290C29130E004D29407
:100B2000C295E564D5E0FDE920E002D29130E00213
:100B3000D2957496D5E0FDD9C1EAF8D5E0FDD8FB91
:100B4000DBB0D29322D291D293D295D291D293D2CA
:100B50009575D53F22788076FF0876FF0876FF08E6
:100B600076FF0876FF0876FF0876090876FF087694
:100B700001788C76010876FF0876FF0876FF087604
:100B8000FF0876FF0876030876FF0876FF0876FFF1
:100B90000876250876D00876280876500876040866
:100BA00076FF0876020876FF08767A0876FF0876E0
:100BB000070876010876FF0876FF087600087600B9
:100BC00022FA75F00CA4ABF0EAC333F8740133F9E0
:100BD000E8C333F8E933F9E8C32BF8E93400F92224
:100BE0007888E6C39403D23A5002C23AC238E6305B
:100BF000E102D238A23892397886E61490008093C8
:100C000078A6F67886E6F53FC394025003753F0256
:100C1000789CE6753EFFB40203753EA0B4030375ED
:100C20003E8278A0E6F8600674282409D8FCF569AD
:100C30007896E671C188318932789EE671C1883331
:100C400089347897E671C188358936714522303606
:100C5000117A007B007CFF7D007E0091B48B618A5D
:100C60006022303A227896E6FA7B00789EE6FC7D98
:100C700000C3EA33FAEB33FBC3EC33FCED33FD7E08
:100C80000A91B48B638A627896303A02789EE6FACB
:100C90007B007897E6FC7D007E00303A10C3EA3393
:100CA000FAEB33FBC3EC33FCED33FD7E0A91B48BDE
:100CB000618A6022C3EC9EFCED9400FDC3EC9AFCBB
:100CC000ED9BFDC3EC9423ED940050047C237D0048
:100CD000C3EC94FFED940140047CFF7D017BFF0B8E
:100CE0007A000AEA7009C3EC33FCED33FD81DFECD6
:100CF0008AF0A4AEF0ED8AF0A42E947C40E4EAF4ED
:100D000060DD22D236914E12054A12054A7A007BE6
:100D1000007C10120542E5542AFA74003BFBDCF318
:100D20007C04C3EB13FBEA13FADCF7FFEB60027FF2
:100D3000FFC236914E2278A5E6F954037000E954BB
:100D40000C7000E954307000E954C07000227567DF
:100D5000007568007597DE7597AD7581C043FF809B
:100D600075EF0675A90071457580FF75F1F075A4E2
:100D7000007580FF75D4FF75902A75F23F75A53F09
:100D800075902A75D53F75A60175E34075E202712D
:100D900045E4F8F6D8FD71551213A6789886647567
:100DA0003001C2AF12055251DA12054A51E0120564
:100DB0004A51E612054AB136C2AF75670075680040
:100DC00078FA79FA308507D9FBD8F7021C0071E070
:100DD000914E78988664714575E405758811758E15
:100DE0000475890975C80475910475D84075D908CA
:100DF00075F782759E0075960075DA4A75DB007589
:100E0000A82175E69075B801759B80759D0075D118
:100E10000C75BC5975BB1075E88075B20112053EA2
:100E2000D2AF753C00C230120552C231C232C23359
:100E3000C23475520075530075220012054EC3E589
:100E400022940A5002E10FD23175220012054EC3DE
:100E5000E522940A5002E10FC231D232752200120B
:100E6000054EC3E522940A5002E10F75E4D575885A
:100E700051758E017589AA758C00758D00C2A9D235
:100E8000ABD2AA756BC0756A14756E50C232D2347B
:100E900075220A12054E756A10C3E522940A75522E
:100EA000007553004069758E0C756B80756A2875E6
:100EB0006E2875220A12054E756A20C3E522940A2F
:100EC0007552007553004047758E0C756BC0756A7E
:100ED00014756E1475220A12054E756A10C3E52248
:100EE000940A755200755300402575E40575881104
:100EF000758E04758909D2A9C2ABC2AAC234D23395
:100F000075220012054EC3E522940A4002A1B812D0
:100F10000542203003020DB8C2AF51DA51DA51DA7E
:100F2000D2AF120552203403303A03020FCD12051E
:100F300042788CE6C394015002E1CDE530C39401C0
:100F40005002E1CD7567A57568F17F02D236914EEA
:100F500012054EC2AFC236914EC3E554947FD2AF54
:100F6000406B12053EC2AF51ECD2AFDFDFB103C31D
:100F7000EF7897F61205521214937F0AD236914EEB
:100F800012054EC2AFC236914EC3E554947FD2AF24
:100F900050E812053EC2AF51DA12054651DAD2AF1F
:100FA000DFDAB103EF24037896F6F87997E7C39474
:100FB000234003985006E824237897F6120552122E
:100FC00013ED1214C212054E914E020DB875670052
:100FD00075680012054EC3E55494014002E125C234
:100FE000AF51EC51EC51ECD2AF120552753000E428
:100FF000F537F5380537E537F4703F0538789AE668
:101000007819146012783214600D787D14600878B5
:10101000FA146003753800C3E53898401D120B457B
:1010200012053E153875370078998664C2AF120AEA
:10103000ECD2AF7898866412054E120546E523700F
:1010400003020DB8C3E5549401500AC3E55294015C
:101050005016020FF412054EE5237003020DB87509
:10106000520075530002120AC3E55294017017C270
:10107000AF120B4578998664120ADA78988664D2A2
:10108000AF12054E21FCC3E55294027017C2AF1295
:101090000B4578998664120AE078988664D2AF127C
:1010A000054E21FCC3E55294037017C2AF120B45E5
:1010B00078998664120AE678988664D2AF12054E53
:1010C00021FCC3E55294047017C2AF120B45789906
:1010D0008664120AEC78988664D2AF12054E21FC21
:1010E000C3E55294057017C2AF120B457899866418
:1010F000120AEC78988664D2AF12054E21FCC3E543
:101100005294077019C3E5539406500201447401C8
:10111000303A0274037888F6C238C23921FCC3E53C
:101120005294087019C3E5539406500201447402A6
:10113000303A0274047888F6D238D23921FCC3E5FB
:101140005294097017C3E553940650020144303A93
:101150000BC37888E69402F6C23A21FCC3E55294A8
:101160000A7016C3E553940650020144203A0A78E7
:1011700088E62402F6D23A21FCC3E5529414702585
:10118000C3E553940650020144C2AF901A0B740099
:1011900093D2AF7888F613C238C2394002D23840B1
:1011A00002D2398057C3E55294157038C3E5539481
:1011B00006404FC2AF901A0B740093D2AFF8B8013B
:1011C000027402B802027401B803027404B8040283
:1011D00074037888F613C238C2394002D23840020C
:1011E000D2398018C3E552940C70117567A57568E3
:1011F000F1C3E5539406400A71EDD2AF7552007504
:1012000053007567007568000144C2AF120B45E4D6
:10121000D2AFE4F55EF524F525F53D755E081205BF
:101220003E1205A730EDFDA8BDA9BEE97001F88802
:101230005F1205AB755E08C2AF120612855D5B8555
:101240005D5CD2AF303A07C238303502D238D2288E
:10125000753900120A85120AB012062112062812E8
:10126000062112062812062112089F12099112095E
:10127000D912062812088F202C03120561302C0386
:10128000120591120991120A0412062812089F12DF
:101290000991120A2F12062812088F120991120AB8
:1012A0005A12062812089F120991120A851206285E
:1012B0001205A712088F120991120AB01205AB127B
:1012C0000628302827855D5B79187A0CC3E53999A3
:1012D000400EC228D2298A3B855D5B855D5C800C0F
:1012E000C3E55494014003021268617230291F2043
:1012F0002B1CE53B147006C229D22A4168F53B201D
:101300003A07C3E554940140030212688064753CB7
:1013100000203A0F78FA79A4E760027803C3E55514
:1013200098504FE523604B303A1720380520350799
:10133000800F303502800A202B07D22B855D5B4160
:101340009878F0302B05855D5B7820C3E548985090
:1013500003021268302B1BC22BC238303502D23840
:10136000D229753B12855D5B4168053CE5546002FE
:101370006175753C00C2AF120B45752400752500E0
:10138000D2AF12054E120B4578A4E6600CC290C293
:1013900091C292C293C294C295C3E53C94044003A7
:1013A000020DB8020FEF901A0D78209126E520B4B7
:1013B000550AA39126E520B4AA0280137567A57586
:1013C00068F1120B5571ED756700756800801D900E
:1013D0001A0378807B0A9126A308DBFA901A0F780B
:1013E0008C7B1A9126A308DBFA901A2922C2AF91AE
:1013F000699146901A007410912BA37407912BA346
:101400007421912B901A0378807B0A912AA308DB20
:10141000FA901A0F788C7B1A912AA308DBFA917C38
:10142000915A901A2922E493F622E6438F01538FB2
:10143000FDFFC3E583941C400122EF8567B78568F3
:10144000B7F0538FFE22438F02438F018567B78524
:1014500068B7901A0DF0538FFC22901A0D745591B5
:101460002B901A0E74AA912B227A3079D078209082
:101470001A409126E520F709A3DAF7227A3079D0CD
:10148000901A40E7912B09A3DAF9227C0512055244
:10149000DCFB22C2AF120ADA120AE0120AE6120AD2
:1014A000EC120546120ADA120AE0120AE6120AECF7
:1014B000120546120ADA120AE0120AE6120AECD201
:1014C000AF22C2AF120AEC120AE6120AE0120ADADE
:1014D000120546120AEC120AE6120AE0120ADA12A1
:1014E0000546120AEC120AE6120AE0120ADAD2AF34
:0114F00022D9
:1019FD00020D4E100721FFFFFFFFFFFF09FF01FF43
:101A0D0055AA01FFFFFFFFFF03FFFFFF25D0285061
:0D1A1D0004FF02FF7AFF0701FFFF0000FF3A
:101A4000234F5F4C5F303023202020202020202097
:101A500023424C48454C492445464D3842313023B9
:101A60002020202020202020202020202020202076
:101C0000C2AFC2D37597DE7597AD7581C075A90057
:101C100043FF80752438752503B1DB7529A5752A26
:101C2000F143F12053A4DFD28575D4FF75E3407DE5
:101C3000FA780379E67C10752200752300901DE880
:101C40007B0675249875250130850281482085081A
:101C5000D8FBD9F9DCF781BA308508D8FBD9F9DC93
:101C6000F781BAB19BE493A3C39A6004DDC381BA40
:101C7000DBDBB18D600281317B08E493FAA3B16EA6
:101C8000DBF87A30B16E752200752300B18DEAFC65
:101C9000EBFDC3ED94FE400EB18D8A278B28ED300D
:101CA000E0048A828B83B18D7AC270D8C3ED94FE32
:101CB000601950CEBD0029EC600F7520007521FF22
:101CC000752900752A000200008100A827A92808AC
:101CD00009D804D90281DDB191EAF281D10D81A642
:101CE000C3ED94035051EDA2E092007AC5C3E582A2
:101CF0009400E583941C508C200010438F02438F86
:101D0000018529B7852AB7F0300027A827A9280818
:101D100009438F01538FFDD804D902A132C3E58353
:101D2000941C4003A3A117E28529B7852AB7F0A325
:101D3000A117538FFC81827AC1BD030CE493A3FAEF
:101D4000B152DCF8B14A81828184AA22AB23B16E00
:101D5000EBFAEA6222752608C3E52313F523E52290
:101D600013F52250066323A0632201D526EAB1DBD6
:101D7000B1DB75260AEAF4200102D285300102C2E5
:101D800085B1DBC3134002C201D526EB22B191EA33
:101D9000FB208502A191308502A196752608AE240C
:101DA000AF25C3EF13FFEE13FEB1DFB1DBC3EA13C0
:101DB0003085024480FA30E703632201C3E5231330
:101DC000F523E52213F52250066323A0632201D5F3
:101DD00026D9E52265236523F52222AE24AF250E00
:101DE0000FDEFEDFFCD20122424C48656C693437BD
:061DF0003164E8B10601B8
:00000001FF
