:020000040000FA
:060000000219FD020310CD
:030013000204FFE5
:03001B0002008D53
:03002B000202D5F9
:03005B0002050E8D
:030073000202FD89
:100080000406080C10182030406080A0C0C2AFC227
:10009000A853E6EFC28E856B8BC0D0D2D3C0E0C030
:1000A000F0C2CAA8CCA9CDD2CAD2AF758A00C3E823
:1000B000956CF8E9956DF9C3E913F9E813F8E5666D
:1000C0006007C3E913F9E813F8E97025E8956E4075
:1000D00020956E501CE582B410177C007B007A00DE
:1000E0007908900000A86AE5667004C3E813F80177
:1000F000FA900000D2A8D2AA61BAE0FDC39CC398CE
:1001000040EF98EB33FB0582E0FCC39DC39840E1D0
:1001100098EB33FB0582E0FDC39CC39840D398EB7A
:1001200033FB0582E0FCC39DC39840C598EB33FBCD
:100130000582E0FDC39CC39840B798EB33FB058272
:10014000E0FCC39DC39840A998EB33FB0582E0FD1A
:10015000C39CC398409B98EB33FB0582E0FCC39D96
:10016000C398408D98EB33FB05822175900000D237
:10017000A8D2AA61BAE0FDC39CC39840EF98EA33C5
:10018000FA0582E0FCC39DC39840E198EA33FA0582
:1001900082E0FDC39CC39840D398EA33FA0582E01D
:1001A000FCC39DC39840C598EA33FA0582E0FDC3BD
:1001B0009CC39840B798EA33FA0582E0FCC39DC31C
:1001C0009840A998EA33FA0582E0FDC39CC39840A1
:1001D0009B98EA33FA0582E0FCC39DC398408D9852
:1001E000EA33FA0582EBC46B6A54F0F9EAC454F0BE
:1001F000C3996009900000D2A8D2AA61BAEBF4C4F6
:1002000054F0F9EAF4C4540F49FAEBF4C4540FFB68
:10021000C3EAF99460FAEB9400FB5020C3E97B0039
:100220007A0079006016C3135006F9C39552600A2C
:10023000E9F552755300790080020553303A27C31F
:10024000EA94D0F8EB9407F9400BE8FAE9FB203583
:1002500009D235415A303502C235203902B235C390
:10026000EA33FAEB33FBEB2B3B3BF9C3EB13FBEA33
:1002700013FAEA29FAEB3400FB30E3047AFF7BFF40
:10028000E5255403601B202A18E55D33F9EB700760
:10029000C3E99A4002E9FAE53CC4332AFAEB340098
:1002A000FBC3EA33C4540FF8EB33C454F048F8707E
:1002B00005EA60027801C3EB13FBEA13FA90000031
:1002C000D2A8D2AAE52260021522819E900000D217
:1002D000A8D2AA61BAC0D0C0E0C2CF0541E5236070
:1002E000021523C3E554600575550041F8E5552412
:1002F00001F55550037555FFD0E0D0D032C2AF5351
:10030000E67F7592FA7593FFC22053917FD2AF3288
:10031000C0E0E58A303408856B8BF0A3D0E032D0A2
:10032000E0C2AF53E6EFC0D0C0E0C0F0D2D3D2AF4E
:100330005388EFA88AA98C758A00758C00438810B1
:1003400030331FE8C4540FFAE9C454F04AFAC31317
:100350002AFAC3E833F8E933F9E82AFAE93403FB67
:1003600061AB30320FC3E833E933FAE82AFAE934F3
:1003700000FB61AB303115E875F056A4AAF0E975C1
:10038000F056A42AFAC5F03400FB61ABE875F02BF7
:10039000A4AAF0E975F02BA42AFAC5F03400C3131F
:1003A000FBEA13FAC3EB13FBEA13FAC3EB9409500D
:1003B00009C3EA949AEB940350160522E5227002D1
:1003C0001522C3E5229432500281F275540081F562
:1003D000E522600215223036067C007D0461EAAC1D
:1003E00031AD32303A04AC33AD34C3EA9CFAEB9D04
:1003F000FB9208AE60AF61303A425007203509D217
:10040000358108303502C235303504AE62AF632025
:100410003902B235C3EA33FAEB33FBA208500AEAD9
:10042000F42401FAEBF43400FBC3EA9428FAEB94C9
:1004300000FB501478007A007B008148A208500825
:1004400078007A007B00819EE52554036019202AFC
:1004500016E55DF9EB7007C3E99A4002E9FAE53C5D
:10046000C42AFAEB3400FBEA8EF0A4F9AAF0EB8E72
:10047000F0A42AFAC5F03400FBC3EB13FDEA13F82D
:100480000FEF146004C3E833F8C3E933EA33FAEB3F
:1004900033FBDFEDEB30E20678FF7AFF7B03885415
:1004A000D230E86003755500C3E55BFC955C400203
:1004B000AC5CC3EC95545008EC75F004A4FAABF0B6
:1004C000EAF4F8EBF45403F9C3E89446FAE994002B
:1004D000FB50047A007B00885689578A588B5975DF
:1004E000230AD0F0D0E0D0D053F7DF43F74043E603
:1004F000103275230AD0F0D0E0D0D043E61032C2DB
:10050000AAD28EC2CA85CC6C85CD6DD2CA32C2AF9A
:10051000C0D0C0E0D2D3A8F9E55A30E10AE5FA200C
:10052000E13520E032A12FE5FA30E12B20E028C3AD
:10053000E55713F8E55613F5FB88FCC3E55913F8A6
:10054000E55813F5E988EA85575A53F7BFD2A83022
:100550003402D2AA53E6EF53F7DFD0E0D0D0D2AFC7
:10056000327901801479038010790A800C791E8019
:10057000087964800479C880007817E4D5E0FDD854
:10058000FAD9F62278FF20282879A1E76023E548E8
:10059000601F74FF8548F084853FF030290375F0B3
:1005A00005A4F8C5F0600278FFC3E8955D5002A885
:1005B0005D885C22C3E54794E4E5489400E55C501F
:1005C0000314A1C5046002F55C2275E89022055E63
:1005D000C3E55E9408405330EDF4A8BDA9BE755E36
:1005E00000E9FA79A0E76041EA7006E55F601880EB
:1005F0000CC3E8955F600EE55F5005600A14800744
:100600000460FA8002E55FF55FC39569401B755B86
:10061000C0C394044013755B80C39404400B755BA6
:1006200040C394044003755B0022E55B2410500234
:1006300074FFF55B22743279A687F0A4C5F0A2F7A7
:1006400033F55D227547007548F022C2AFC2CAA8D3
:10065000CCA9CDAA4130CF010AD2CAD2AFAB42ACAD
:100660004388428943C3E89BF8E99C202808F93075
:100670002C02E15BC1B4AD448A44F9EA9DFA6006FC
:1006800078FF79FFC199AE45AF468B458C46A842AD
:10069000A943C3E89EF8E99FF9C3E54813FBE54782
:1006A00013FAE82AF547E93BF54850067547FF7508
:1006B00048FFE101AA47AB48AC47AD487E047F0242
:1006C000C3EB9404400D1E1FC3EB94084005202982
:1006D000021E1FC3ED13FDEC13FCDEF7C3EA9CFA08
:1006E000EB9DFBEF6009C3E913F9E813F8DFF7EAC4
:1006F00028FAEB39FB8A478B4850067BFF8B478BE8
:1007000048C3EB94025002D22C3028047F03E12C22
:100710007892E6FFC3E53D948240110FC3E53D9416
:10072000A040010FC3EF940640027F057E02E5481A
:10073000C4540FF9E548C454F0F8E547C4540F28F1
:10074000F8C3E89EFAE99400FB4009C3EA9401EB80
:10075000940050047A01E4FB0207A7AA47AB48EBD8
:10076000C4FEEAC4540F4EFCC3EA9CFAEB9400FBAF
:10077000C3E813C313F8EA28FAEB3400FB8A478B6B
:1007800048C3EB94024002C22C7802EBC4FE7B000B
:10079000EAC4540F4EFAC3EA98FA4005C3940150D4
:1007A000027A017892E6FF302002E1A7854E928519
:1007B0004F93D22043E680C3E49AF8E49BF9302CAF
:1007C00003020835E8FAE9FBD3E913FDE813FC88D6
:1007D0004E894FC3EF94036038EF20E00CE82CF80B
:1007E000E93DF9ECFAEDFB8013E828F8E939F9C3A3
:1007F000E82401F8E93400F97AFF7BFFC3EF9403A2
:10080000400F8A508B51884A894B8C4C8D4D020881
:100810006A885089518A4A8B4B8C4C8D4D302812F6
:100820007550F07551FF754CF0754DFF754EF075B4
:100830004FFF02086AE8FAD3E813FC884EC3EF942E
:10084000036021EF20E007E82CF8ECFA0155E828D6
:100850002401F87AFFC3EF940340098A50884A8C38
:100860004C02086A88508A4A8C4C302002016A7512
:100870003A02D22043E680E52554036034A847A914
:1008800048C3E913F9E813F8C3E913F9E813F8309A
:100890002804E92440F9C2AF53E67F759100C3E410
:1008A00098F594E499F595759104D22043E680D2A9
:1008B000AF22D221754900752000302B03752040EE
:1008C00001D0D221754900752040302B03752000DE
:1008D00078017901202C20E52554036002C221799A
:1008E00014E548C313700104F8C39414400278144B
:1008F000302804781B791B202010E549600C302833
:1009000003D53A04D222217711720549E59B544060
:10091000B52002216130280908C3E8994001180177
:10092000F720210A08C3E899400201D001F7C2214B
:1009300053E67F759100302C117594007595F8750C
:100940009104D22043E6800208D0E5487EFFC333FD
:100950004005C3334001FEC3E49E759400F5952124
:100960003FC3E5399401500201D030210201D0D8B3
:1009700002217501F7C222C2AF53E67F759100854F
:100980005094855195759104854A92854B93D22058
:1009900043E680D2AFE525540360072029020539DC
:1009A000801030220D202B0A20210715811581028D
:1009B00013542278003021027801E53D75F007A438
:1009C000F9E5F028F5F0E9A2F013A2F113A2F21371
:1009D000F53DC394785003753D78C3E53D953E40A1
:1009E00009C291C292C29375D57F30200221EA8557
:1009F0004C92854D93D22043E68022203810C2AF1E
:100A0000C295D29475D537D2AF759F2341CBC2AF73
:100A1000C295D29675D56DD2AF759F2341CB203844
:100A200010C2AFC29375D55BD294D2AF759F1341FC
:100A3000CBC2AFC29175D55BD296D2AF759F434101
:100A4000CB203810C2AFC294D29675D55BD2AF75A9
:100A50009F438077C2AFC296D29475D55BD2AF75F3
:100A60009F138067203810C2AFC29275D56DD296A1
:100A7000D2AF759F238054C2AFC29275D537D2943E
:100A8000D2AF759F238044203810C2AFC296D29552
:100A900075D56DD2AF759F138031C2AFC294D29518
:100AA00075D537D2AF759F438021203810C2AFC2B1
:100AB0009175D537D295D2AF759F43800EC2AFC224
:100AC0009375D56DD295D2AF759F13227A147B782A
:100AD00080127A107B8C800C7A0D7BB480067A0BA6
:100AE0007BC88000E564D5E001227902E4C295D597
:100AF000E0FDD292D5E0FDC292D5E0FDD295D5E0E1
:100B0000FDE920E002D29130E002D293E564D5E025
:100B1000FDE920E002C29130E002C2937496D5E074
:100B2000FDD9C9EAF8D5E0FDD8FBDBB8C29522C2F1
:100B300091C292C293C294C295C29675D57F227813
:100B40008076FF0876FF0876FF0876FF0876FF08B4
:100B500076FF0876090876FF087601788C7601081A
:100B600076FF0876FF0876FF0876FF0876FF08769E
:100B7000030876FF0876FF0876FF0876250876D00A
:100B80000876280876500876040876FF087602086A
:100B900076FF08767A0876FF0876070876010876E9
:100BA000FF0876FF08760008760022FA75F00CA49C
:100BB000ABF0EAC333F8740133F9E8C333F8E9332F
:100BC000F9E8C32BF8E93400F9227888E6C39403E6
:100BD000D23A5002C23AC238E630E102D238A238E4
:100BE00092397886E6149000809378A6F67886E6A7
:100BF000F53FC394025003753F02789CE6753EFFB3
:100C0000B40203753EA0B40303753E8278A0E6F8F3
:100C1000600674282409D8FCF5697896E671AB88DB
:100C2000318932789EE671AB883389347897E671E2
:100C3000AB88358936712F223036117A007B007CE3
:100C4000FF7D007E00919E8B618A6022303A22787F
:100C500096E6FA7B00789EE6FC7D00C3EA33FAEB69
:100C600033FBC3EC33FCED33FD7E0A919E8B638A2C
:100C7000627896303A02789EE6FA7B007897E6FC36
:100C80007D007E00303A10C3EA33FAEB33FBC3EC4D
:100C900033FCED33FD7E0A919E8B618A6022C3ECAA
:100CA0009EFCED9400FDC3EC9AFCED9BFDC3EC941F
:100CB00023ED940050047C237D00C3EC94FFED945D
:100CC0000140047CFF7D017BFF0B7A000AEA70097A
:100CD000C3EC33FCED33FD81C9EC8AF0A4AEF0ED3A
:100CE0008AF0A42E947C40E4EAF460DD22D23691AE
:100CF0003812056D12056D7A007B007C10120565B7
:100D0000E5542AFA74003BFBDCF37C04C3EB13FBD1
:100D1000EA13FADCF7FFEB60027FFFC2369138225C
:100D200078A5E6F954037000E9540C7000E95430DA
:100D30007000E954C07000227567007568007597EF
:100D4000DE7597AD7581C043FF8075EF0675A9000C
:100D5000712F7580FF75F1E175A4007580FF75D462
:100D6000FF75900075F27E75A57E75900075D57F34
:100D700075A60175E34075E202712FE4F8F6D8FD1F
:100D8000713F12138A78988664753001C2AF1205DC
:100D90007551CC12056D51D212056D51D812056DE9
:100DA000B120C2AF75670075680078FA79FA3085AE
:100DB00007D9FBD8F7021C0071CA9138789886646D
:100DC000712F75E405758811758E0475890975C8CC
:100DD0000475910475D84075D90875F781759E031F
:100DE00075960275DA4275DB4275A82175E6907535
:100DF000B801759B80759D0075D10C75BC5975BB8C
:100E00001075E88075B201120561D2AF753C00C261
:100E100030120575C231C232C233C2347552007508
:100E20005300752200120571C3E522940A5002C1D5
:100E3000F9D231752200120571C3E522940A5002DD
:100E4000C1F9C231D232752200120571C3E5229474
:100E50000A5002C1F975E4D5758851758E017589FE
:100E6000AA758C00758D00C2A9D2ABD2AA756BC0D1
:100E7000756A14756E50C232D23475220A12057129
:100E8000756A10C3E522940A7552007553004069D3
:100E9000758E0C756B80756A28756E2875220A121E
:100EA0000571756A20C3E522940A755200755300D6
:100EB0004047758E0C756BC0756A14756E1475227B
:100EC0000A120571756A10C3E522940A75520075FD
:100ED0005300402575E405758811758E04758909E0
:100EE000D2A9C2ABC2AAC234D23375220012057194
:100EF000C3E522940A4002A1A21205652030030234
:100F00000DA2C2AF51CC51CC51CCD2AF120575203D
:100F10003403303A03020FB7120565788CE6C394A8
:100F2000015002E1B7E530C394015002E1B77567A3
:100F3000A57568F17F02D2369138120571C2AFC231
:100F4000369138C3E554947FD2AF406B120561C22D
:100F5000AF51DED2AFDFDF91EDC3EF7897F6120528
:100F6000751214777F0AD2369138120571C2AFC25A
:100F7000369138C3E554947FD2AF50E8120561C270
:100F8000AF51CC12056951CCD2AFDFDA91EDEF242D
:100F9000037896F6F87997E7C394234003985006B0
:100FA000E824237897F61205751213D11214A612AD
:100FB00005719138020DA275670075680012057100
:100FC000C3E55494014002E10FC2AF51DE51DE513E
:100FD000DED2AF120575753000E4F537F538053708
:100FE000E537F4703F0538789AE67819146012787E
:100FF0003214600D787D14600878FA146003753837
:1010000000C3E53898401D120B2F12056115387585
:10101000370078998664C2AF120ADED2AF7898861C
:1010200064120571120569E5237003020DA2C3E580
:10103000549401500AC3E55294015016020FDE1277
:101040000571E5237003020DA2755200755300026D
:1010500011F4C3E55294017017C2AF120B2F7899A7
:101060008664120ACC78988664D2AF12057121E6A4
:10107000C3E55294027017C2AF120B2F78998664A1
:10108000120AD278988664D2AF12057121E6C3E5C0
:101090005294037017C2AF120B2F78998664120A0C
:1010A000D878988664D2AF12057121E6C3E55294D0
:1010B000047017C2AF120B2F78998664120ADE787B
:1010C000988664D2AF12057121E6C3E5529405708B
:1010D00017C2AF120B2F78998664120ADE789886B1
:1010E00064D2AF12057121E6C3E55294077019C3AB
:1010F000E55394065002012E7401303A02740378CD
:1011000088F6C238C23921E6C3E55294087019C383
:10111000E55394065002012E7402303A02740478AA
:1011200088F6D238D23921E6C3E55294097017C344
:10113000E55394065002012E303A0BC37888E694AA
:1011400002F6C23A21E6C3E552940A7016C3E5538B
:1011500094065002012E203A0A7888E62402F6D23C
:101160003A21E6C3E55294147025C3E55394065022
:1011700002012EC2AF901A0B740093D2AF7888F69A
:1011800013C238C2394002D2384002D2398057C324
:10119000E55294157038C3E5539406404FC2AF90A2
:1011A0001A0B740093D2AFF8B801027402B80202AD
:1011B0007401B803027404B8040274037888F61347
:1011C000C238C2394002D2384002D2398018C3E551
:1011D00052940C70117567A57568F1C3E5539406B8
:1011E000400A71D1D2AF7552007553007567007512
:1011F0006800012EC2AF120B2FE4D2AFE4F55EF50A
:1012000024F525F53D755E081205611205CA30ED1D
:10121000FDA8BDA9BEE97001F8885F1205CE755E14
:1012200008C2AF120635855D5B855D5CD2AF303A92
:1012300007C238303502D238D228753900120A87F1
:10124000120AAA12064412064B12064412064B1248
:1012500006441208C21209B31209FB12064B120807
:10126000B2202C03120584302C031205B41209B3EA
:10127000120A1E12064B1208C21209B3120A4112B8
:10128000064B1208B21209B3120A6412064B120876
:10129000C21209B3120A8712064B1205CA1208B20B
:1012A0001209B3120AAA1205CE12064B302827855E
:1012B0005D5B79187A0CC3E53999400EC228D229B2
:1012C0008A3B855D5B855D5C800CC3E55494014081
:1012D00003021252615C30291F202B1CE53B147065
:1012E00006C229D22A4152F53B203A07C3E554945D
:1012F0000140030212528064753C00203A0F78FAD4
:1013000079A4E760027803C3E55598504FE5236060
:101310004B303A17203805203507800F30350280D2
:101320000A202B07D22B855D5B418278F0302B059C
:10133000855D5B7820C3E548985003021252302B3C
:101340001BC22BC238303502D238D229753B1285E8
:101350005D5B4152053CE5546002615F753C00C233
:10136000AF120B2F752400752500D2AF1205711234
:101370000B2F78A4E66006D294D295D296C3E53CB2
:1013800094044003020DA2020FD9901A0D78209107
:101390000AE520B4550AA3910AE520B4AA028013F5
:1013A0007567A57568F1120B3F71D1756700756897
:1013B00000801D901A0378807B0A910AA308DBFA4B
:1013C000901A0F788C7B1A910AA308DBFA901A29DD
:1013D00022C2AF914D912A901A007410910FA374FC
:1013E00007910FA37421910F901A0378807B0A91C3
:1013F0000EA308DBFA901A0F788C7B1A910EA308C3
:10140000DBFA9160913E901A2922E493F622E6439A
:101410008F01538FFDFFC3E583941C400122EF85AC
:1014200067B78568B7F0538FFE22438F02438F0161
:101430008567B78568B7901A0DF0538FFC22901A14
:101440000D7455910F901A0E74AA910F227A30796B
:10145000D07820901A40910AE520F709A3DAF72204
:101460007A3079D0901A40E7910F09A3DAF9227CFB
:1014700005120575DCFB22C2AF120ACC120AD21289
:101480000AD8120ADE120569120ACC120AD2120A0E
:10149000D8120ADE120569120ACC120AD2120AD830
:1014A000120ADED2AF22C2AF120ADE120AD8120A24
:1014B000D2120ACC120569120ADE120AD8120AD216
:1014C000120ACC120569120ADE120AD8120AD212C6
:0514D0000ACCD2AF229E
:1019FD00020D38100721FFFFFFFFFFFF09FF01FF59
:101A0D0055AA01FFFFFFFFFF03FFFFFF25D0285061
:0D1A1D0004FF02FF7AFF0701FFFF0000FF3A
:101A400023505F4C5F37302320202020202020208F
:101A500023424C48454C492445464D3842313023B9
:101A60002020202020202020202020202020202076
:101C0000C2AFC2D37597DE7597AD7581C075A90057
:101C100043FF80752438752503B1DB7529A5752A26
:101C2000F143F12053A4DFD28575D4FF75E3407DE5
:101C3000FA780379E67C10752200752300901DE880
:101C40007B0675249875250130850281482085081A
:101C5000D8FBD9F9DCF781BA308508D8FBD9F9DC93
:101C6000F781BAB19BE493A3C39A6004DDC381BA40
:101C7000DBDBB18D600281317B08E493FAA3B16EA6
:101C8000DBF87A30B16E752200752300B18DEAFC65
:101C9000EBFDC3ED94FE400EB18D8A278B28ED300D
:101CA000E0048A828B83B18D7AC270D8C3ED94FE32
:101CB000601950CEBD0029EC600F7520007521FF22
:101CC000752900752A000200008100A827A92808AC
:101CD00009D804D90281DDB191EAF281D10D81A642
:101CE000C3ED94035051EDA2E092007AC5C3E582A2
:101CF0009400E583941C508C200010438F02438F86
:101D0000018529B7852AB7F0300027A827A9280818
:101D100009438F01538FFDD804D902A132C3E58353
:101D2000941C4003A3A117E28529B7852AB7F0A325
:101D3000A117538FFC81827AC1BD030CE493A3FAEF
:101D4000B152DCF8B14A81828184AA22AB23B16E00
:101D5000EBFAEA6222752608C3E52313F523E52290
:101D600013F52250066323A0632201D526EAB1DBD6
:101D7000B1DB75260AEAF4200102D285300102C2E5
:101D800085B1DBC3134002C201D526EB22B191EA33
:101D9000FB208502A191308502A196752608AE240C
:101DA000AF25C3EF13FFEE13FEB1DFB1DBC3EA13C0
:101DB0003085024480FA30E703632201C3E5231330
:101DC000F523E52213F52250066323A0632201D5F3
:101DD00026D9E52265236523F52222AE24AF250E00
:101DE0000FDEFEDFFCD20122424C48656C693437BD
:061DF0003164E8B10601B8
:00000001FF
